:020000040800F2
:100000000000022089DE0008B1D00008B5D0000849
:10001000B9D00008BDD00008C1D000080000000021
:10002000000000000000000000000000C5D0000833
:10003000C9D0000800000000CDD00008D1D00008D1
:10004000D9DE0008D9DE0008D9DE0008D9DE0008B4
:10005000D9DE0008D9DE0008D9DE0008D9DE0008A4
:10006000D9DE0008D9DE0008D9DE0008D9DE000894
:10007000D9DE0008D9DE0008D9DE0008D9DE000884
:10008000D9DE0008D9DE0008D9DE0008D9DE000874
:10009000D9DE0008D9DE0008D9DE0008D9DE000864
:1000A000D9DE0008D9DE0008D9DE0008D9DE000854
:1000B000D9DE0008D9DE0008D9DE0008D9DE000844
:1000C000D9DE0008D9DE0008D9DE0008D9DE000834
:1000D000D9DE0008D9DE0008D9DE0008D9DE000824
:1000E000D9DE0008D9DE0008D9DE0008D9DE000814
:1000F000D9DE0008D9DE0008D9DE0008D9DE000804
:10010000D9DE0008D9DE0008D9DE0008D9DE0008F3
:10011000D9DE0008D9DE0008D9DE0008D5D00008F5
:10012000D9DE0008D9DE0008EDD00008D9DE0008CD
:10013000D9DE0008D9DE0008D9DE0008D9DE0008C3
:10014000D9DE0008D9DE0008D9DE0008D9DE0008B3
:10015000D9DE0008D9DE0008D9DE0008D9DE0008A3
:10016000D9DE0008D9DE0008D9DE0008D9DE000893
:10017000D9DE0008D9DE0008D9DE00080000000042
:08018000D9DE0008D9DE0008F9
:1001C0000348044B834202D0034B03B118477047E6
:1001D000E8060020E8060020000000000548064B65
:1001E0001B1AD90F01EBA301491002D0034B03B135
:1001F00018477047E8060020E806002000000000CD
:1002000010B5064C237843B9FFF7DAFF044B13B15E
:100210000448AFF300800123237010BDE8060020DE
:1002200000000000380C010808B5044B1BB104495C
:100230000448AFF30080BDE80840CFE700000000AD
:10024000EC060020380C010881F0004102E000BFFC
:1002500083F0004330B54FEA41044FEA430594EA86
:10026000050F08BF90EA020F1FBF54EA000C55EAC1
:10027000020C7FEA645C7FEA655C00F0E2804FEA92
:100280005454D4EB5555B8BF6D420CDD2C4480EA74
:10029000020281EA030382EA000083EA010180EAA4
:1002A000020281EA0303362D88BF30BD11F0004FF2
:1002B0004FEA01314FF4801C4CEA113102D0404228
:1002C00061EB410113F0004F4FEA03334CEA133363
:1002D00002D0524263EB430394EA050F00F0A7807B
:1002E000A4F10104D5F1200E0DDB02FA0EFC22FA76
:1002F00005F2801841F1000103FA0EF2801843FA6A
:1003000005F359410EE0A5F120050EF1200E012A5A
:1003100003FA0EFC28BF4CF0020C43FA05F3C01898
:1003200051EBE37101F0004507D54FF0000EDCF111
:10033000000C7EEB00006EEB0101B1F5801F1BD3BA
:10034000B1F5001F0CD349085FEA30004FEA3C0CBE
:1003500004F101044FEA445212F5800F80F09A80B4
:10036000BCF1004F08BF5FEA500C50F1000041EBB8
:10037000045141EA050130BD5FEA4C0C404141EBBC
:100380000101013C28BFB1F5801FE9D291F0000FB7
:1003900004BF01460020B1FA81F308BF2033A3F166
:1003A0000B03B3F120020CDA0C3208DD02F1140C5D
:1003B000C2F10C0201FA0CF021FA02F10CE002F198
:1003C0001402D8BFC2F1200C01FA02F120FA0CFC91
:1003D000DCBF41EA0C019040E41AA2BF01EB0451DA
:1003E000294330BD6FEA04041F3C1CDA0C340EDCD8
:1003F00004F11404C4F1200220FA04F001FA02F31B
:1004000040EA030021FA04F345EA030130BDC4F1D8
:100410000C04C4F1200220FA02F001FA04F340EACD
:100420000300294630BD21FA04F0294630BD94F07E
:10043000000F83F4801306BF81F480110134013D65
:100440004EE77FEA645C18BF7FEA655C29D094EAD6
:10045000050F08BF90EA020F05D054EA000C04BF54
:100460001946104630BD91EA030F1EBF002100203F
:1004700030BD5FEA545C05D14000494128BF41F0DE
:10048000004130BD14F580043CBF01F5801130BD42
:1004900001F0004545F0FE4141F470014FF00000CD
:1004A00030BD7FEA645C1ABF194610467FEA655C7E
:1004B0001CBF0B46024650EA013406BF52EA033520
:1004C00091EA030F41F4002130BD00BF90F0000F0E
:1004D00004BF0021704730B54FF4806404F132044A
:1004E0004FF000054FF0000150E700BF90F0000F03
:1004F00004BF0021704730B54FF4806404F132042A
:1005000010F0004548BF40424FF000013EE700BFF9
:1005100042004FEAE2014FEA31014FEA02701FBF89
:1005200012F07F4393F07F4F81F06051704732F0BB
:100530007F4208BF704793F07F4F04BF41F4002112
:10054000704730B54FF4607401F0004521F0004170
:100550001CE700BF50EA010208BF704730B54FF0FA
:1005600000050AE050EA010208BF704730B511F0FB
:10057000004502D5404261EB41014FF4806404F133
:1005800032045FEA915C3FF4D8AE4FF003025FEAB9
:10059000DC0C18BF03325FEADC0C18BF033202EB3D
:1005A000DC02C2F1200300FA03FC20FA02F001FA97
:1005B00003FE40EA0E0021FA02F11444BDE600BF3A
:1005C0004FF0FF3C06E000BF4FF0010C02E000BF1F
:1005D0004FF0010C4DF804CD4FEA410C7FEA6C5C02
:1005E0004FEA430C18BF7FEA6C5C1BD001B050EAA5
:1005F000410C0CBF52EA430C91EA030F02BF90EA90
:10060000020F0020704710F1000F91EA030F58BF4E
:10061000994208BF90422CBFD8176FEAE37040F0B0
:10062000010070474FEA410C7FEA6C5C02D150EA4E
:10063000013C07D14FEA430C7FEA6C5CD6D152EA09
:10064000033CD3D05DF8040B704700BF84461046CE
:1006500062468C461946634600E000BF01B5FFF7CD
:10066000B7FF002848BF10F1000F01BD4DF808ED9D
:10067000FFF7F4FF0CBF012000205DF808FB00BF6E
:100680004DF808EDFFF7EAFF34BF012000205DF8C8
:1006900008FB00BF4DF808EDFFF7E0FF94BF012015
:1006A00000205DF808FB00BF4DF808EDFFF7CEFF16
:1006B00094BF012000205DF808FB00BF4DF808ED55
:1006C000FFF7C4FF34BF012000205DF808FB00BF26
:1006D0004FEA410212F5001215D211D56FF478736A
:1006E000B3EB625212D94FEAC12343F0004343EA0D
:1006F000505311F0004F23FA02F018BF40427047E8
:100700004FF00000704750EA013005D111F0004071
:1007100008BF6FF0004070474FF00000704700BF07
:1007200053B94AB9002908BF00281CBF4FF0FF3158
:100730004FF0FF3001F03AB9ADF1080C6DE904CE8D
:1007400000F006F8DDF804E0DDE9022304B07047AC
:100750002DE9F047089D0E4604460F46002B4AD16E
:1007600094468C45B2FA82F260D942B1C2F12003BC
:10077000974020FA03F30CFA02FC1F4394404FEA1F
:100780001C4E1FFA8CF6B7FBFEF1230C0EFB117703
:1007900043EA074301FB06F098420AD91CEB030326
:1007A00001F1FF3780F01581984240F21281023941
:1007B00063441B1AA4B2B3FBFEF00EFB103344EAF1
:1007C000034400FB06F6A6420AD91CEB040400F120
:1007D000FF3380F00081A64240F2FD80644402387D
:1007E00040EA0140A41B00211DB1D4400023C5E90B
:1007F0000043BDE8F0878B4205D90DB1C5E9000182
:1008000000210846F5E7B3FA83F1002946D1B34247
:1008100002D3824200F2F580841A66EB03020120C3
:100820001746002DE5D0C5E90047E2E7002A40F071
:100830009380A1EB0C034FEA1C471FFA8CFE0121A9
:10084000B3FBF7F607FB1630230C43EA00430EFB1D
:1008500006F0984208D91CEB030306F1FF3802D2D8
:10086000984200F2D08046461B1AA4B2B3FBF7F0C0
:1008700007FB103344EA03440EFB00FEA64508D9EB
:100880001CEB040400F1FF3302D2A64500F2B6804F
:100890001846A4EB0E0440EA0640A5E7C1F1200784
:1008A0008B4022FA07FC4CEA030C06FA01FE20FA00
:1008B00007F426FA07F344EA0E0400FA01F84FEAB7
:1008C0001C404FEA1449B3FBF0FE1FFA8CF600FB04
:1008D0001E3349EA03430EFB06F9994502FA01F279
:1008E0000BD91CEB03030EF1FF3A80F0858099458C
:1008F00040F28280AEF1020E6344A3EB0909A4B278
:10090000B9FBF0F300FB139944EA094403FB06F634
:10091000A64208D91CEB040403F1FF3068D2A642BA
:1009200066D9023B644443EA0E40A41BA0FB02E6E6
:10093000B4427346B14652D34FD05DB1B8EB030217
:1009400064EB090404FA07F722FA01F31F43CC40D1
:10095000C5E9007400214CE7C2F1200120FA01F33F
:100960000CFA02FC26FA01F1964033434FEA1C4789
:100970001FFA8CFEB1FBF7F007FB1016190C41EAC9
:10098000064100FB0EF68E4204FA02F408D91CEB75
:10099000010100F1FF382DD28E422BD9023861447B
:1009A000891B9BB2B1FBF7F607FB161143EA014323
:1009B00006FB0EF1994208D91CEB030306F1FF3840
:1009C00014D2994212D9023E63445B1A46EA0041AE
:1009D00036E73946EDE6184602E7F045ADD2BEEB04
:1009E000020366EB0C060138B146A6E74646ECE783
:1009F000034698E74046D3E7D6467EE7644402388C
:100A000047E708460DE7023E63442DE703685A00B6
:100A10004CBF43F0004323F000431844704700BF2D
:100A20002DE9F04759B301F1FF3805461646474610
:100A30004FF0000A0AEB070101EBD171491005EBF9
:100A4000C1094846FFF7E2FF88454FEAC104034663
:100A500010D004F10800B342284407D8FFF7D6FFAE
:100A60000138B04208D201F1010AE3E78A4506D015
:100A70004F1EDFE7B042F9D84846BDE8F0874FF097
:100A800000094846BDE8F087012809D0022805D0B2
:100A9000044B00280CBF18460020704702487047DE
:100AA00002487047651100086D11000869110008BF
:100AB00030B5224B83B004468D1E43B301A92846AE
:100AC000AFF30080F0B101992A46FFF7A9FF014674
:100AD000C0B1FFF79BFF4B68A064012B2BD0002B0C
:100AE00001F1040025DBFFF791FF00232365036874
:100AF000E064002B12DBFFF789FF0346002023612F
:100B000003B030BD00230920236103B030BD0C4B7E
:100B10000C49C91AC91018460191D5E7C3F30360FF
:100B2000FFF7B2FF031E0CBF09200020236103B0B2
:100B300030BD0123DAE700230520E0E700000000D4
:100B4000EC140108DC1601080368DA0710B5044646
:100B500006D49B0700F1500009D500F095FC2368EE
:100B6000590709D51A070ED5DB0613D510BD00F0BD
:100B700083FC23685907F5D404F1D80000F08CFCFD
:100B800023681A07F0D404F5AC7000F08DFC2368DC
:100B9000DB06EBD404F5EC70BDE8104000F0C8BCF7
:100BA0000346006800B11844704700BF0920704731
:100BB000704700BF70B504460E46316C2046FFF703
:100BC00077FF054688B9326C626123693246214657
:100BD000012098470828F0D0072806D12846316C14
:100BE000FFF7E6FF301D00F03BFCFFDE2DE9F0478C
:100BF00001F1040CC768D0F8188006469146BCE89D
:100C00000F00ADF5767D03AC0FC4BCE80F000FC438
:100C1000BCE80F000FC49CE80F0002AD4FF0000EBF
:100C200084E80F00C5F800E021E02B6C73614FF4FD
:100C3000F47229467CA802F06BFB33697CAA31462A
:100C4000504698478A9BAB644946CDE90058824696
:100C5000334601203246B847814630BB4FF4F47228
:100C60007CA9284602F054FBBAF1080F1AD1296C6E
:100C70003046FFF71DFF09F1090904465FFA89FABA
:100C80000028D2D0AB6BAB643246CDE90058334676
:100C90004AF010010120B84738B920460DF5767D9D
:100CA000BDE8F087BAF1070F05D0092420460DF5FD
:100CB000767DBDE8F0874846296CFFF779FF03A8E9
:100CC00000F0CEFB806C7047F0B5CB6B0B6401F18C
:100CD000040C0E460546BCE80F00FBB001AC0FC487
:100CE000BCE80F000FC4BCE80F000FC49CE80F0065
:100CF0004FF0FF3784E80F00009706E02B696A4643
:100D0000294698470828044608D110992846FFF735
:100D1000CFFE0028F2D009207BB0F0BD6846FFF777
:100D200013FF062CF7D131462846FFF743FF00BFDB
:100D3000C160D96B826119640022194656E700BF71
:100D400070B5C66843690B64AEB903690A460446C8
:100D50000D46014602209847072805D008280ED1E5
:100D600029462046FFF726FF3046296CFFF720FF73
:100D7000281D00F075FB0122FFF738FFFFDEFFDEC4
:100D8000C2681AB1CA6B0A6400222FE79CE700BF51
:100D9000704700BF836801460BB1012018477047B8
:100DA000052915D8DFE801F00A0314030305012023
:100DB0007047009A436C13600020704743B90F2AB4
:100DC00006D800EB820200205368009A1360704737
:100DD0000220704700B585B00A46002303A90091A0
:100DE0001946FFF7DDFF039805B05DF804FB00BF6F
:100DF000052915D8DFE801F00A03140303050120D3
:100E00007047009B1B6843640020704743B90F2A5A
:100E100006D8009B00EB82021B68536000207047DD
:100E20000220704710B584B0002303AC03920094F5
:100E30000A461946FFF7DCFF04B010BD70B5D36B4E
:100E4000136402F1040C05460C46BCE80F00ADF536
:100E5000107D0DF15C0EAEE80F00BCE80F00AEE8AF
:100E60000F00BCE80F00AEE80F009CE80F004FF049
:100E7000FF368EE80F00169610E0FFF7D3FF2146ED
:100E800016A8A847034616AA0820694683B9049BFA
:100E90009847052806460CD0092809D026996846A7
:100EA000FFF706FE03460C216A4616A8002BE4D085
:100EB000092616A8FFF748FE30460DF5107D70BDD7
:100EC0002DE9F04F1646CA6C89B00D4652F8041B46
:100ED000069200F0030C002B79D00C0C8DF81D400D
:100EE0000904E4B2059102EB840202218DF81C1082
:100EF000296DBCF1020F08BFAA6B11F0010809D0DF
:100F000005A9304600F0AEFB002856D1082009B0F4
:100F1000BDE8F08F1768002FF2D000F00801CDE98E
:100F20000118E3469A46BAF1020F4CD0178854884C
:100F300002F10409AA6C24F001030F21304603EBEF
:100F40000208FFF747FF80453BD827F0010202EB7C
:100F50000803834294BF00230123640004F00204C9
:100F600007F001072743012F4ED0022F35D027BBB2
:100F7000BBF1000F02D0002B40F0D38009F1040236
:100F80001768002FCFD105A93046DDF8088000F0A2
:100F900069FB90B9B8F1000FB8D00F213046FFF7C8
:100FA00019FF0E2102463046FFF73CFF6C4A0F2125
:100FB0003046FFF737FF072000E0092009B0BDE801
:100FC000F08F0023C9E7546802F10809B2E709026B
:100FD00005918DF81D30032188E7D9F8004024F0F1
:100FE0000048BBF1000F47D12BB1019B002B5CD017
:100FF000B8F1000F59D0002C01DA09F1040908F109
:10100000010209EB8202BBE7BBF1000F1CD1C3B1A7
:10101000D9F80430D9F80020991C4FEAD272CCD00C
:1010200005F158040133049400F08E8009F10400A6
:10103000FFF7B6FD04AB014628460FF093FC0028ED
:1010400059D109F108029BE70D213046FFF7C2FE96
:101050002C6A8442F5D1AB6A9945F2D14846FFF734
:10106000D5FC0F2102463046FFF7DCFE2A46002160
:101070003046FFF7D7FE9EE70D213046FFF7AAFE68
:101080002F6A8742B7D1AB6A9945B4D100240423B3
:10109000C5E90B434B44C5F828806B63D9F8003091
:1010A000A34258DB01230293A9E705F15803CDF8C9
:1010B0000CB009F10407B34600241E460BE0384685
:1010C0000496FFF76DFD0022014604AB28460FF0A1
:1010D00049FC0437F8B9444504F10104EFD10D216E
:1010E0005846FFF777FE049BC5F828900246C5E9ED
:1010F0000823062062E704460D213046FFF76AFE0A
:10110000049E2862022C04BFEE6205F12C06C5E99C
:101110000969062052E75E46D9F80040DDF80CB0B8
:1011200069E74846FFF772FC09F104030446AB6324
:1011300028460FF06FFC00283FF43FAF22460F21F6
:101140003046FFF76FFE36E730460D21FFF742FECF
:1011500026462862DBE708F1010209EB82007EE700
:10116000450B01080023ABE60123A9E60223A7E60D
:101170002DE9F0410646C4B01446052900F2D88096
:10118000DFE811F012002D00D6006C00910006007F
:10119000836B002C40F0CC8053F8042B42648363B3
:1011A000002044B0BDE8F081002B40F0C180856B89
:1011B0001FFA84FC012006F1040E00FA03F111EA83
:1011C0000C0F2A4604D052F8041B4EF82310154683
:1011D0000133102BF1D1A704E2D4B563E0E7012B72
:1011E0004FEA1447A4B200F08380052B40F0A080A2
:1011F00007EB0408B8F1200F00F29A800F2F40F29D
:101200009980002CCCD00268500700F1188101931E
:1012100002AD284600F044F94FEA440CA7F1100053
:10122000B16B019B0CF1FF3C05EBC0000CF1010C14
:10123000043801EB8C0251F8044B40F8044F914202
:10124000F9D1012B00F0DE800F2FB16302D822A864
:1012500000F01AF9284600F01FF9A1E7032B67D127
:10126000A7B207EB1443102B4FEA144460D803686D
:10127000190700F1BF8022AD284600F037F97A0047
:10128000B06B05EBC404531E42B1011B625844F815
:10129000042B013B5A1CF9D100EBC700B063284670
:1012A00000F002F97CE7002B42D1102C40D80368F3
:1012B000DD0600F1978022AD284600F043F9B76BB8
:1012C000294600234FF0010C0CFA03F22242384663
:1012D00003F1010303D050F8042B0A600746042BE6
:1012E00001F10401F0D1B763284600F021F957E776
:1012F0003A19102A1CD8102F1AD00268D00708D526
:10130000304622F0030240F8502B019300F0B8F869
:10131000019B019322AD284600F0B2F8B26B019B0D
:10132000002C58D10432B263284600F0A5F837E704
:10133000022036E7B8F1100F026865D9D40772D5DC
:1013400022F0010242F0020240F8502B019300F01B
:101350009FF83268019B12F0040F66D122AD284637
:10136000019300F095F802A800F09AF8C7F1100177
:101370004900B26B019BA8F1100C4C1E05EBC70095
:101380000134043802EB840152F8044B40F8044F56
:101390008A42F9D1BCF1000F5AD0102F384638BF1D
:1013A00010204FEA4C0C103802AD0CF1FF3C05EB5D
:1013B000C0003BE7304622F0010242F0020240F852
:1013C000502B22AD019300F063F8284600F060F83E
:1013D000B26B24B3019B6400013C05EBC7004FF0E6
:1013E000000CCDE723F01003036000F5EC7000F073
:1013F000A9F860E723F00803036000F5AC7000F083
:1014000075F838E722AD8DE7D107D3D422AD284651
:10141000019300F03DF8B26B019B002CDBD1284614
:1014200000F032F8BCE6540798D5304622F00402AA
:1014300040F8D82B019300F033F8019B8EE730463B
:1014400022F0040240F8D82B019300F029F8DFE6DF
:10145000012B3FF467AF0F2FB2633FF6A1AEDEE77B
:1014600000F1340191E838009C46A6464CF8045D32
:1014700090E8FF0FE54600BD90EC210B704700BFE0
:1014800080EC210B704700BF90EC200B704700BF31
:1014900080EC200B704700BFD0EC200B704700BFE2
:1014A000C0EC200B704700BFF0EC0201F0EC021121
:1014B000F0EC0221F0EC0231F0EC0241F0EC0251D0
:1014C000F0EC0261F0EC0271F0EC0281F0EC0291C0
:1014D000F0EC02A1F0EC02B1F0EC02C1F0EC02D1B0
:1014E000F0EC02E1F0EC02F1704700BFE0EC020129
:1014F000E0EC0211E0EC0221E0EC0231E0EC024110
:10150000E0EC0251E0EC0261E0EC0271E0EC0281FF
:10151000E0EC0291E0EC02A1E0EC02B1E0EC02C1EF
:10152000E0EC02D1E0EC02E1E0EC02F1704700BF38
:10153000B0FC0181B0FC0191B0FC01A1B0FC01B193
:10154000704700BFA0FC0181A0FC0191A0FC01A19B
:10155000A0FC01B1704700BFEC4600B52DE900507A
:101560002DE9FF1F4FF000032DE90C0001A9FFF743
:10157000ABFBDDF840E012B0704700BFEC4600B5B1
:101580002DE900502DE9FF1F4FF000032DE90C005D
:1015900001A9FFF7D5FBDDF840E012B0704700BFAE
:1015A000EC4600B52DE900502DE9FF1F4FF0000378
:1015B0002DE90C0001A9FFF7E3FBDDF840E012B0D4
:1015C000704700BFEC4600B52DE900502DE9FF1F24
:1015D0004FF000032DE90C0001ABFFF7A9FBDDF88C
:1015E00040E012B0704700BFEC4600B52DE9005056
:1015F0002DE9FF1F4FF000032DE90C0001AAFFF7B2
:101600001DFCDDF840E012B0704700BF027A0346CF
:101610007AB9427AA2B14168013A10B442720868BC
:1016200003220C1D1A7202025C60000E10BC1A60CC
:1016300070470068013A1A7202021A60000E704781
:10164000B020704700B585B003AA00230092194668
:101650000C22FFF7A5FB039805B05DF804FB00BF63
:10166000F0E700BF2DE9F043064685B00D464FF088
:1016700000082846FFF7CAFFB028044600F01C8186
:1016800007065BD500F0F003A02B1AD030D8802BD2
:1016900000F08280902B27D100F00D030D2B23D07A
:1016A00002AF002300F00F02194600973046FFF703
:1016B00077FB002300970D2219463046FFF798FB71
:1016C000D7E7C34303F007034FF47F621A410107D2
:1016D00002F47F6201D542F480420023194630466D
:1016E000FFF746FD0028C4D0092005B0BDE8F0830F
:1016F000B02B68D0C02B3DD1C62800F0CA80C728C7
:1017000000F0DF8000F0F803C02B00F0EC80C82868
:1017100000F0F780C928E7D12846FFF777FF0203DA
:1017200000F00F0002F47022013002430121052372
:101730003046FFF71DFD00289BD0D5E78300DBB2C4
:101740001F1D0DF1080900231946CDF800900D2248
:101750003046FFF725FB029BCDF8009060064CBF9A
:10176000DF1BFF1800230D22194630460297FFF7B2
:101770003FFB7EE700F0F803D02BB5D100F0070265
:101780000132052342F4002201213046FFF7F0FC2C
:1017900000283FF46EAFA7E72846FFF737FF240283
:1017A0002043B0F5004F9FD004010023A2B2194698
:1017B0003046FFF7DDFC002896D114F4004F18BF27
:1017C0004FF0010855E7A0F1B103042B00F2B580FA
:1017D000DFE803F05529160C030003AA002300924A
:1017E00019460D223046FFF7DBFA42E700231A467E
:1017F00005213046FFF7BCFC00283FF43AAF73E701
:101800002846FFF703FF020300F00F00013002F447
:1018100070220123024319463046FFF7A9FC002835
:101820003FF427AF60E700230DF108090D221946A8
:10183000CDF800903046FFF7B3FA2846FFF7E6FEF2
:101840000206029C4FF002070BD500F07F00B84063
:10185000044428460294FFF7D9FE030607F1070760
:10186000F3D4B840002304F501740444CDF800908B
:101870000D22194630460294FFF7BAFAF9E62846D7
:10188000FFF7C4FE431EDBB20E2B02467FF625AFE8
:101890002AE72846FFF7BAFE020300F00F000130E6
:1018A00002F470220323024319463046FFF760FC1E
:1018B00000283FF4DEAE17E7B8F1000F2DD000206E
:1018C00013E72846FFF7A2FE431EDBB20E2B0246AB
:1018D0003FF60AAF002304213046FFF749FC0028F9
:1018E0003FF4C7AE00E700F00F020132032342F4D9
:1018F000202219463046FFF73BFC00283FF4B9AEE2
:10190000F2E62846FFF782FE00F0F00200F00F0337
:101910001032013343EA023208E702AC4346414643
:1019200000940E223046FFF73BFA0F220094434604
:1019300041463046FFF75CFAC1E700F0FC03B42BE8
:101940003FF4D2AE00F007020132012342F400223C
:1019500019463046FFF70CFC00283FF48AAEC3E678
:1019600010B5C26C536884B04FF0030C08321C02EF
:1019700008461B0E01A9019402928DF80CC08DF847
:101980000D30FFF76FFE04B010BD00BF08B5FFF7C4
:1019900067FE806C08BD00BF08B5FFF761FEC06C34
:1019A000C37900EB8300083008BD00BF704700BF5B
:1019B00010B4044C03460A46206810BC194601F0D6
:1019C000FFBD00BF0000002000B5054B83B00146FD
:1019D00001AA186801F0F4FD03B05DF804FB00BF34
:1019E00000000020830730B547D0541E002A3ED0A7
:1019F000CAB2034601E0013C39D303F8012B9D072D
:101A0000F9D1032C2CD9CDB205EB05250F2C05EB14
:101A1000054535D9A4F1100222F00F0C03F1100E88
:101A2000E6444FEA121C1A46C2E90055C2E90255C3
:101A300010327245F8D10CF1010214F00C0F03EBD7
:101A4000021204F00F0C13D0ACF1040323F00303D3
:101A50000433134442F8045B9342FBD10CF00304BB
:101A60002CB1C9B21C4403F8011BA342FBD130BD09
:101A700064461346002CF4D1F9E703461446C0E748
:101A80001A46A446E0E700BF0EB470B59DB021AC85
:101A900000254FF4017254F8046BADF814201B9527
:101AA0000290069003F04CFC0B4B0A930B4B0390F7
:101AB0004FF6FF710790ADF8161018680E95324674
:101AC000234602A91395019400F0DCFA1DB0BDE88D
:101AD000704003B0704700BF693400080000002068
:101AE0000CB4F0B59DB022AC00254FF4017306464E
:101AF000084654F8047BADF81430029106911B950A
:101B000003F01EFC0346039307930A4B0A934FF618
:101B1000FF73ADF816303A463046234602A90E95BB
:101B20001395019400F0AEFA1DB0BDE8F04002B08C
:101B3000704700BF6934000811F0FF01034600F050
:101B4000030239D08ABB026810B501EB012E0EEBFF
:101B50000E4E8EEA0204A2F1013323EA0203A4F13D
:101B6000013222EA0402134313F0803F0FD150F8F0
:101B7000044F84EA0E0CA4F10133ACF1013223EAE4
:101B8000040322EA0C02134313F0803FEFD00378E2
:101B900023B936E010F8013F002B32D09942F9D139
:101BA00010BD8A4228D09A0729D01A7818460133E6
:101BB000002AF6D110467047CAB90268A2F1013373
:101BC00023EA020313F0803F08D150F8042FA2F15A
:101BD000013323EA020313F0803FF6D003785BB1B0
:101BE00010F8013F002BFBD17047990705D018462C
:101BF00013F8012B002AF8D170471846DDE7184684
:101C0000A1E7184610BD00BF000000000000000062
:101C100000000000000000000000000000000000C4
:101C200002780B78012A28BF9A4240F0D8806DE9EB
:101C3000044540EA0104CDE902676FF0000C4FEA69
:101C400044721AB380EA010414F0070F6BD100F05C
:101C5000070420F0070004F0030521F007014FEA14
:101C6000C505F0E8042314F0040FF1E804670CFA4A
:101C700005F462EA040266EA04060BD063EA040390
:101C8000624667EA0407664604E000BFF0E8042302
:101C9000F1E8046782FA4CF582EA0604A4FA8CF4AF
:101CA0006CBB83FA4CF583EA0705A5FA8CF595B968
:101CB00050E9022351E9026782FA4CF582EA0604F0
:101CC000A4FA8CF483FA4CF583EA0705A5FA8CF59F
:101CD0002543DBD09CB92DBAB5FA85F424F007046E
:101CE00027FA04F1DDE9026723FA04F303F0FF00A9
:101CF00001F0FF01FDE80445A0EB0100704724BAA4
:101D0000B4FA84F424F0070426FA04F1DDE902674A
:101D100022FA04F202F0FF0001F0FF01FDE80445A1
:101D2000A0EB0100704714F0030F3CD110F0030446
:101D300028D150F8082B51F8083B82FA4CF582EA7A
:101D40000305A5FA8CF55DB950F8042C51F8043C54
:101D500082FA4CF582EA0305A5FA8CF5002DE8D04D
:101D60002DBAB5FA85F424F0070423FA04F122FA17
:101D700004F202F0FF0001F0FF01FDE80445A0EBD2
:101D8000010070474FEAC40420F0030050F8082B0C
:101D900021F0030151F8083B0CFA04F462EA040252
:101DA00063EA0403C9E710F003041DD0A1EB0401AA
:101DB00020F00300E40750F8042B06D012D28B78F1
:101DC0005FFAA2F4E41A06D12BB1CB785FFAB2F431
:101DD000E41A00D133B920465DF8104B7047A2EBEE
:101DE0000300704701F1040150F8042BCC0721F0E7
:101DF000030151F8043B48D824D222F07F4482FAF0
:101E00004CF594EA1325A5FA8CF50AD165B951F879
:101E1000043B84EA0204B4EB036F0ED150F8042BA8
:101E2000EBE74FEA132355E035F07F454DD10878B5
:101E3000FDE80445C0F1000070474FEA126203F06C
:101E4000FF0347E002EA1C4482FA4CF594EA13458A
:101E5000A5FA8CF50AD165B951F8043B84EA02046D
:101E6000B4EB034F0CD150F8042BEBE74FEA1343CC
:101E700030E015EA1C4528D10B884FEA124229E0D0
:101E80004FEA124203EA1C4324E002F0FF0482FA04
:101E90004CF594EA1365A5FA8CF50AD165B951F8A9
:101EA000043B84EA0204B4EB032F09D150F8042B5D
:101EB000EBE74FEA13630DE015F0FF0F05D10B6858
:101EC0004FEA122223F07F4304E04FF00000FDE8C8
:101ED0000445704712BA1BBA82FA4CF482EA030432
:101EE000A4FA8CF5B5FA85F402FA04F203FA04F3C5
:101EF0004FEA1260FDE80445A0EB1360704700BF95
:101F00002DE9F047074649480E46354616F801EBDD
:101F100010F80EC01CF0080CF7D1BEF12D0F5AD0EE
:101F2000BEF12B0F03BF96F800E06446AE1C64467A
:101F30004BB9BEF1300F5CD00A23DFF8F4804FF0CC
:101F4000050A99460AE0102B4AD04FF0FF38B8FB3B
:101F5000F3F803FB08FA6FEA0A0A994600252846B7
:101F600005E02CD009FB00C0012516F801EBAEF10D
:101F7000300CBCF1090F06D9AEF1410CBCF1190FC0
:101F80000BD8AEF1370C634510DDB5F1FF3FECD057
:101F90004045E6D94FF0FF35E7E7AEF1610CBCF103
:101FA000190F03D8AEF1570C6345EEDC6B1C0BD058
:101FB00004B140420AB165B91160BDE8F087D4456B
:101FC000D0DD4FF0FF35D0E722233B602846002AC2
:101FD000F3D0711EF0E796F800E00124AE1CA7E7ED
:101FE000BEF1300F11D04FF00F0A6FF070489946D4
:101FF000B4E7337803F0DF03582B0BD008234FF0FE
:10200000070A6FF060489946A8E7307800F0DF00D3
:102010005828E8D14FF0100996F801E04FF00F0A68
:1020200002366FF070484B4698E700BF950C0108E8
:102030009999991964E700BF10B4044C844613467B
:10204000206810BC0A4661465AE700BF0000002025
:1020500010B4044C84461346206810BC0A466146FE
:102060004EE700BF00000020014B1868704700BF1A
:102070000000002008B5062002F0B4FF01200BF09C
:102080004BF800BF2DE9F04F8946B1F90C10ADF5C2
:102090002F7D804688040693D9F8643007D441F434
:1020A000005123F40053A9F80C10C9F86430C3F3AD
:1020B00040319B0400F1C080164616F8013B119395
:1020C000002B00F0F586DFF8C8A10A918E46049136
:1020D0008B46039107911AF8034014F008046FD15E
:1020E000252B5DD131782246A1F12503701C532B9D
:1020F00061D8DFE813F05400600060006000600009
:102100004E0460006000600060006000A500A50053
:10211000A500A500A500A500A500A500A500A50097
:1021200060006000600060006000600060006000AF
:1021300060006000BE03B0006000B000600060009E
:10214000600060003A0460006000B203600060005C
:102150006000600060006000600060008B03600051
:102160006000430460006000600060006000600088
:102170006000C703D103B000B000B000D303DB039D
:1021800060006000150460002104740636046000DD
:102190006000BB0360007606600060008B030646AB
:1021A000D9F80430002B3BDDD9F8003016F8012CAB
:1021B0001978914221D003980DF52F7DBDE8F08F5D
:1021C000D9F804200FE0D9F800301A781AF8022064
:1021D000170703F101030ED5D9F80420013AC9E924
:1021E00000320BF1010B002AEDDC4946404601F0BC
:1021F00095FD0028E7D002960AE00133C9F80030C7
:10220000D9F804300296013B0BF1010BC9F80430F8
:10221000029E16F8013B1193002B7FF45CAFCAE7D6
:102220004946404601F07AFD0028BDD0039B1BB112
:10223000B9F80C305B06BED54FF0FF330393BAE715
:1022400014F08F0FB7D102EB820201EB4202303A59
:102250007178064648E702900425D9F80430002B2F
:1022600000F3318349464046059201F057FD0028AE
:10227000DCD114F0400F059A00F025836B1E032B70
:1022800000F2A286DFE813F0AF016A01B200060097
:10229000950C01084046059203F032F9059A03684F
:1022A0000C93531EB3F5AE7F44F4F06440F2858482
:1022B0006FF4AE7153180F9340F25D12002556ABC8
:1022C000CDE90D552E460B95CDF820804946A84600
:1022D000A9461F462546099314460A681078A0F1BE
:1022E0002B0CBCF14E0F50D8DFE81CF037024F002A
:1022F00037024F004F0081027800780078007800A4
:10230000780078007800780078004F004F004F0088
:102310004F004F004F004F003D02760076007600E0
:102320001B0210024F004F00C0014F004F004F0032
:102330004F006C024F0069024F004F004F006402D3
:102340004F004F004F004F024A024F004F004F0016
:102350004F004F004F004F003D02760076007600A0
:102360001B0210024F004F00C0014F004F004F00F2
:102370004F006C024F0069024F004F004F00640293
:102380004F004F004F004F024A020C9B93F800C0D1
:10239000844514D1AB0512D525F42075CDF82C80D9
:1023A00007F8010B013C4868013800280BF1010BCC
:1023B000486040F3038301320A60002C8DD143460C
:1023C0002C46DDF8208035464E468946002B00F02D
:1023D000618124F480745DE12B05F0D519EB060CC6
:1023E000EDD1664625F4C075E146D9E7531EB3F535
:1023F000AE7F88BF6FF4AE714FF000068CBF5718E8
:10240000002756AB88BF40F25D124946D946B34615
:10241000049E059744F4586409931D4617460868BE
:1024200090F800C0ACF12B034D2B5FD8DFE813F020
:102430000F025E000F025E005E00B9021801180173
:1024400018011801180118011801080208025E009D
:102450005E005E005E005E005E005E004E004E00AC
:102460004E004E004E004E005E005E005E005E00BC
:102470005E005E005E005E005E005E005E005E006C
:102480005E005E005E005E005E00FC015E005E00BD
:102490005E005E005E005E005E005E004E004E006C
:1024A0004E004E004E004E005E005E005E005E007C
:1024B0005E005E005E005E005E005E005E005E002C
:1024C0005E005E005E005E005E00FC010A2E0DDD17
:1024D00024F4386405F801CB4B68013B002B4B60BA
:1024E00040F3788201300860013F98D104965E463F
:1024F000CB468946E10507D5099B9D4200F2B08491
:10250000099B9D423FF457AE14F0100240F07282D6
:10251000049B079F09992A704046B847069BA2066C
:1025200003F1040700F16082630700F1788414F07E
:10253000010240F05882A40740F15582B84B079938
:1025400099424046049B099900F01A8502F0C4FEA6
:102550000B46069A1168C1E9000347E2D9F800105A
:102560000B78002A1AF8033008BF4FF0FF32E0075B
:1025700004F0100603F0080300F17282002E00F050
:102580002683002B7FF444AED9F804300131013B9F
:10259000012AC9F80010C9F8043008BF0BF1010B7B
:1025A0003FF436AE0124154613E0D9F800301A780E
:1025B0001AF80220160703F1010312D4C9F80030FB
:1025C000D9F804300134013BA542C9F8043000F0C9
:1025D0005984002BE9DC4946404601F09FFB002866
:1025E000E3D0A34414E6002A08BF4FF0FF3204F002
:1025F0001003E0070B9300F12983D9F800000B9931
:10260000037816ACE35C002900F08E82002B3FF4C7
:10261000D2ADD9F804300130013B012AC9F80000DD
:10262000C9F8043018BF164610D117E0D9F80030A9
:102630001A78A25C01338AB1C9F80030D9F80430A5
:102640000135013BAE42C9F8043007D0002BEDDC68
:102650004946404601F062FB0028E7D0AB44D7E58D
:10266000704B24F4386433F9166033E7002E40F0E1
:10267000C681B8F1000F40F0988205F4E06CBCF51B
:10268000E06F00F01884DDF820802C4600233546EA
:102690004E468946013E012E40F254846A1E062AA7
:1026A00040F25783E00540F1B881610500F158849C
:1026B00017F8011C652907F1FF350BF1FF3602D031
:1026C000452940F082834A46404601F0E9FA14F079
:1026D000100340F070832B70B3460D9B002B40F02D
:1026E000A88300220999404603F0D4FE069BE20726
:1026F00006460F4603F1040540F14A831B68C3E90F
:102700000067039B06950133039381E52B0503D5F1
:1027100019EB060C3FF465AE022E7FF450AE032693
:102720003EE62B053FF55AAE05F4A06CBCF5806F74
:1027300005D06B057FF543AEB8F1000FA3D0AB0514
:1027400004D40B9BA8EB0303CDE90D3725F4786582
:1027500045F4C0754FF0000822E62B067FF52FAE3A
:1027600025F080051CE62B0503D519EB060C3FF47C
:1027700038AEB9F1010F7FF422AE4FF002090FE637
:10278000072E7FF41CAE08260AE605F4186CBCF58B
:10279000807F7FF414AEB8F1010F7FF410AE25F402
:1027A0008075302307F8013B45F40065013C4FF08C
:1027B0000008F5E5062E7FF402AE0726F0E52B05AE
:1027C000B2D4FCE5B9F1000F40F02081B8F1000F60
:1027D00005D105F4E06CBCF5E06F00F07183012ECB
:1027E00002D0042E7FF4EBAD0136F6B2D8E5EB054E
:1027F0007FF5F4AD0F9B25F0800508F10108002B53
:102800003FF4D0AD0F9B013B0F93CCE5029044F415
:102810000074034B07931023049303251DE500BFA9
:1028200035200008700C010804F4C063B3F5007F84
:102830007FF45CAE24F4007444F4A064102649E6EE
:10284000834B33F91660082E3FF742AE4EE623065F
:102850007FF54CAE24F080043CE6029044F0010485
:102860007C4B0793082304930325F6E4029002258A
:10287000F3E4029044F00104774B07930A23049396
:102880000325EAE4029044F040040025D9F804301E
:10289000002B3FF7F3ACE5E40290EDE723077FF46C
:1028A0008AAC717844F0040406461DE4D9F804307B
:1028B0000290002B684B07934FF0000304934FF0F6
:1028C00003057FF7CFACD9F800100B781AF8033066
:1028D00018077FF5D3AC16460A4606E0C9F8002073
:1028E00013781AF80330190718D5D9F80430013BCA
:1028F000002B0BF1010BC9F8043002F10102EDDCF1
:102900004946404601F00AFA00287FF48FACD9F816
:10291000002013781AF803301907E6D43246ADE4E4
:1029200025077FF448AC71786C2900F0A28244F04E
:1029300001040646FFF7D8BBE70602903FF568ACF6
:10294000069B660753F8042B00F17082E507C2F876
:1029500000B004D4A40702D54FEAEB71516006938E
:1029600056E4029044F4087453E721077FF423AC43
:10297000717844F002040646FFF7B6BB014616A87C
:10298000059202F04DFD44F04004059A02900125A5
:102990007CE722437FF40FAC717810240646FFF7E2
:1029A000A3BB23057FF596AD16B944F40074082641
:1029B000620540F1C38124F4B0648BE50898059169
:1029C00001F0ACF9059900287FF4F9AC002C7FF4F4
:1029D00084ACF4E44046049101F0A0F90499002885
:1029E0003FF482AD82E5069B1B681860039B069747
:1029F00001330393099BED1A3544AB4408E4032EDD
:102A00003FF4F2AE052E3FF4EFAED8E4B9F1020F79
:102A10007FF4E5AE4FF00309C2E414F010027FF436
:102A2000F7AB3A7004F4C062B2F5806F7FF455AE34
:102A30000B9A9A423FF455AED21A0DF2AB239F4245
:102A400028BF0DF2AA270549384601F007F948E6E4
:102A5000700C010835200008BD320008F81001088C
:102A6000002E40F0AB81069F57F804CB002B52D1CB
:102A70000025CDE9056764462F46154603F0FCFDA9
:102A8000B8423FF4D3ABD9E9003113F8010B013957
:102A9000C9E900310A9B56AA032BD055099207F1C8
:102AA000010714AE02D13368042B04D008220021A0
:102AB0003046FEF797FF099A00963B46214640466E
:102AC00000F00EFD421C0A903FF4B0AB002840F02D
:102AD000DC81206000F000FD002840F01C82BB4437
:102AE000013D059B002B40F0F18104341F46D9F8CD
:102AF0000430002B40F30082D9F800301B781AF81C
:102B000003301B0701D4002DB8D1DDE90567A446C9
:102B1000002E40F0B481039B0697013303930023FA
:102B2000CCF80030FFF774BB069F57F8041B002B4E
:102B30003FF441ABD9F80430013BC9F80430431CE1
:102B4000C9F800300E46037806F8013B012A23D06D
:102B50008D18059111E0D9F800100B78E35C83B370
:102B6000D9F80430013BC9F804304B1CC9F80030D7
:102B70000B7806F8013BAE4223D0D9F80430002B85
:102B8000E9DC4946404601F0C9F80028E3D0059940
:102B9000B1423FF44BAB751A039B06970133039385
:102BA0000023AB443370FFF733BB2C464346354616
:102BB000DDF820804E4689460BE400230F93FFF793
:102BC0007DBB0599751A002DE6D1FFF7F4BA069F73
:102BD00057F8046B002B40F0D181D9F80430013B49
:102BE000C9F804304B1CC9F8003034460B7804F89F
:102BF000013B012A00F0C981B51813E0D9F8003073
:102C00001A781AF80220100716D4D9F80420013ACD
:102C1000C9F804205A1CC9F800201B7804F8013BAD
:102C2000AC4209D0D9F80430002BE7DC49464046D5
:102C300001F074F80028E1D0A61BB344039B06976B
:102C40000133039300232370FFF7E2BA002B40F017
:102C5000E480069B53F8047B06930A9CCDF820B0D1
:102C600000259346CDF8148003F006FDA8423FF4FA
:102C7000DDAAD9E9003256A813F8011B4155013AE3
:102C8000032CC9E9003205F101050DF1480803D113
:102C9000D8F80030042B04D0082200214046FEF76B
:102CA000A1FE39460598CDF800802B4656AA00F0C3
:102CB00017FC411C04463FF4B9AA002840F0C38029
:102CC0003860064614AB0822002118460993FEF727
:102CD00089FEBA49099B05983246D1F8E06010A9EF
:102CE000B04701280CBF9DF84060002616AB9B5DE5
:102CF000002B00F0ED80089B032C2B44089300F080
:102D0000A9800BF1FF3B0B9B03B90437D9F80430C2
:102D1000002B4FF0000571DDBBF1000FA4D1DDF8F1
:102D200020B0DDF814800A940B9B002B7FF470AA6E
:102D30003B60039B01330393FFF76ABA059B24F4BE
:102D4000607413B1013B059301370BF1010BFFF7E1
:102D5000C3BB022D40F22381032D3FF4A3AC043DFD
:102D6000EEB2F5433D4405943C4637461E4614F802
:102D7000011D4A46404600F093FFAC42F7D133466E
:102D80000BF1FF3B3E46ABEB060B2746059C89E467
:102D9000069BA2071B68059345D402460B4609F023
:102DA0003DFB002840F0F4803046394609F06CFBCA
:102DB000059B1860A5E4B346FFF72ABA002B7FF401
:102DC00027AA069F0DF1440C52E64A46404600F001
:102DD00067FFABF1020617F8021CBD1E73E40290F8
:102DE0003EE5774B07930A23029004930325FFF7F0
:102DF00034BAD9F80430002B3FF736AF059849466E
:102E000000F08CFF002887D0DDF820B0DDF81480BA
:102E10000A94002D88D0FFF709BA11AF1DE7069B71
:102E20001B681880E2E5C3E900676AE4A2F800B015
:102E300095E50E9F0A230022791C404600F03EFAD9
:102E40000D9BC21AF9E5821CD3D03E68731C7FF437
:102E500039AF4BE7D8F80030042B7FF452AF52E77C
:102E600015F8011C4A464046013D00F019FFFFF7E6
:102E700047BBB17844F002040236FFF735B9069734
:102E8000FFF7C6B9AB44FFF7C3B90A9B02333FF45F
:102E90002EAE206800F020FB00283CD10A9B032BBB
:102EA000BB447FF41DAE3368042B7FF419AE18E6E3
:102EB0000393FFF780B925F4F0650126FFF770BA98
:102EC00025F4F0654FF00109FFF76ABA00270EE616
:102ED000DDF820B0DDF814800A94002D3FF424AF13
:102EE00056AB5C19013D14F8011D4A46404600F0FE
:102EF000D7FE002DF6D117E74946404600F00EFFF9
:102F000000283FF4F9AD3D46A446DDE90567002DF4
:102F10007FF48CA9FCE53D46A446DDE90567002D5C
:102F20003FF4F6AD099CCDF814C02C44013D14F8D3
:102F3000011D4A46404600F0B3FE002DF6D1DDF8F3
:102F400014C0E5E5099CA7427FF635A917F8011DD5
:102F50004A46404600F0A4FEA742F7D1FFF72BB93E
:102F6000099CA7427FF627A917F8011D4A4640464B
:102F700000F096FEA742F7D1FFF71DB934465DE693
:102F800005F090FB0B46FFF7E4BA0BF1010B55E699
:102F90000C4802F0DFF8059B1860FFF7B2BB099BF5
:102FA0009F427FF608A917F8011D4A46404600F0E7
:102FB00077FE099B9F42F6D1FFF7FDB83401002050
:102FC00035200008F8110108012A38BF012204F059
:102FD000100714F00104164615D1002F6BD1069C82
:102FE000134654F8041BCDF800900122404600F02F
:102FF000B1FE00283FF41AA9039B069401338344D1
:103000000393FFF705B9002F46D000230593002551
:103010002C460A9DCDF8208003F02EFBA0423FF401
:1030200005A9D9E9003156AA13F8010B1055013949
:10303000032D04F10108C9E9003114AC02D1226862
:10304000042A04D0082200212046FEF7CBFC56AA11
:10305000059908980094434600F042FA421C054640
:103060003FF4E4A800283CD1C344013E27B9059BA6
:103070001F60059B04330593D9F80430002B4FF0F3
:1030800000043FDD002EC7D1DDF820800A95002F17
:103090003FF44FAEFFF7BCB8069B53F8042BCDE9C5
:1030A0000523B4E7C9F80010404649461C44F61A07
:1030B00000F034FE78B9D9E900239E4202EB030107
:1030C000F0DC9B1B32443444C9F80430C9F80020BA
:1030D000A344FFF79DB8002C3FF4A8A8A344FFF732
:1030E00097B8831C09D00328C34402D12368042B5A
:1030F00000D0013E002FBCD0BEE7D9F80410002953
:10310000444689DC0898494600F008FE0028B9D0FA
:10311000DDF820800A95002C7FF488A8002F3FF46A
:1031200008AEFFF775B800BF032A30B415D941EADD
:103130000004A40784460B4604D0541E0FE0043A52
:10314000032A08D91946604653F8044B5CF8045B1F
:10315000A542F4D0F1E760461946541E7AB1431EE9
:103160000139021901E09A4209D013F8010F11F850
:1031700001CF6045F7D0A0EB0C0030BC70470020B9
:1031800030BC7047242B2DE9F84F43D8012B41D098
:10319000804649481F468E4675461EF801BB10F80A
:1031A0000B4014F00804F7D1BBF12D0F6FD0BBF129
:1031B0002B0F08BF9EF800B06FF0004908BF05F163
:1031C000020E73BBBBF1300F4BD00A273B460025E4
:1031D000B9FBF7F6284607FB169A05E03AD007FB3D
:1031E00000C001251EF801BBABF1300CBCF1090F8A
:1031F00006D9ABF1410CBCF1190F19D8ABF1370C62
:1032000063451EDDB5F1FF3FECD08642E6D24FF0BC
:10321000FF35E7E7FEF728FF162303600020BDE82F
:10322000F88F102BD3D1BBF1300F23D01F46CEE740
:10323000ABF1610CBCF1190F03D8ABF1570C63452E
:10324000E0DC6B1C2BD054B9002AE8D085BB1160A0
:10325000BDE8F88FE245C2DA4FF0FF35C2E74042E1
:10326000F2E79EF8003003F0DF03582B08D0082760
:103270003B46ACE79EF8000000F0DF005828D5D1AF
:1032800010279EF801B03B460EF1020E9FE79EF814
:1032900000B04FF0004905F1020E012491E722230E
:1032A000C8F8003032B10EF1FF3148461160CFE767
:1032B0008146F8E74846B2E7950C010862E700BF8F
:1032C00010B4044C84461346206810BC0A4661467C
:1032D00058E700BF0000002010B4044C8446134699
:1032E000206810BC0A4661464CE700BF0000002081
:1032F000024B0146186805F005BA00BF0000002027
:10330000024B0146186806F041BD00BF00000020D6
:10331000844641EA000313F003036DD1403A41D3E0
:1033200051F8043B40F8043B51F8043B40F8043B9F
:1033300051F8043B40F8043B51F8043B40F8043B8F
:1033400051F8043B40F8043B51F8043B40F8043B7F
:1033500051F8043B40F8043B51F8043B40F8043B6F
:1033600051F8043B40F8043B51F8043B40F8043B5F
:1033700051F8043B40F8043B51F8043B40F8043B4F
:1033800051F8043B40F8043B51F8043B40F8043B3F
:1033900051F8043B40F8043B51F8043B40F8043B2F
:1033A000403ABDD2303211D351F8043B40F8043BCF
:1033B00051F8043B40F8043B51F8043B40F8043B0F
:1033C00051F8043B40F8043B103AEDD20C3205D3DF
:1033D00051F8043B40F8043B043AF9D2043208D0D7
:1033E000D2071CBF11F8013B00F8013B01D30B8849
:1033F00003806046704700BF082A13D38B078DD027
:1034000010F003038AD0C3F10403D21ADB071CBFF8
:1034100011F8013B00F8013B80D331F8023B20F862
:10342000023B7BE7043AD9D3013A11F8013B00F89B
:10343000013BF9D20B7803704B7843708B78837023
:103440006046704710B50C46B1F90E1005F044F90E
:10345000002803DB236D0344236510BDA38923F4F7
:103460008053A38110BD00BF002070472DE9F041BB
:103470000C46B1F90C101F46CB05054616460BD479
:1034800021F48051A1813B46B4F90E103246284602
:10349000BDE8F04100F0DCB8B4F90E1002230022C0
:1034A00006F0D0FDB4F90C10EAE700BF10B50C46E9
:1034B000B1F90E1006F0C6FDB4F90C30421C0EBF77
:1034C00023F4805343F480532065A38110BD00BFD3
:1034D000B1F90E1001F0D8BC002105F00FB800BF03
:1034E00070B50D4C82B0D4F8E460069C05462AB154
:1034F0000094B047431C08D002B070BD11460123B0
:10350000064A0094B047431CF6D100228A23226069
:103510002B6002B070BD00BF34010020F81101081B
:1035200070B51C460F4B1D680F4B82B0D3F8E4609A
:1035300051B1944663460A46009401462846B04776
:10354000431C08D002B070BD0123084A00942846ED
:10355000B047431CF6D100228A2322602B6002B0C0
:1035600070BD00BF0000002034010020F8110108E8
:1035700070B50F4B0F4DAB42A3EB050607D0B6104D
:10358000002455F8043B01349847A642F9D80DF0C1
:1035900053FB094D094B5E1BAB424FEAA60606D012
:1035A000002455F8043B01349847A642F9D870BD71
:1035B000DC160108DC160108DC160108E816010813
:1035C0002DE9F047DFF8749007460E46904601F06B
:1035D00023FFD9F800504DB133781C466BB1344607
:1035E00002E014F8013F3BB13D2BFAD1384601F01F
:1035F00015FF0020BDE8F087A41B28680028F5D03F
:103600002246314604F0B4FE28B92868035D3D2BFC
:1036100000EB040A04D055F8040F0028F0D1E5E7C8
:10362000D9F80030EB1A9B103846C8F8003001F08A
:10363000F5FE0AF10100BDE8F08700BFD0060020CA
:1036400000B583B001AAFFF7BBFF03B05DF804FB30
:1036500038B50C46084D8446114620461A460023CC
:103660002B60644609F06CFD431C00D038BD2B680C
:10367000002BFBD0236038BD780800200020704765
:10368000024A0349034801F017BF00BF2801002088
:10369000859F0008080000200C4B4168994210B536
:1036A000044601D006F06EFCA168094B994202D095
:1036B000204606F067FCE168064B994204D020469C
:1036C000BDE8104006F05EBC10BD00BF040700203E
:1036D0006C070020D4070020002070472DE9F84334
:1036E0002A4C2B49DFF8AC90DFF8AC802B4FC4F8A4
:1036F0003811002504230822294604F15C00284ED5
:10370000E360C4E90055C4E90455A5606566A56198
:10371000FEF768F9234B63670822294604F1C400C9
:10372000C4E90749C4E90987C4E91A55C4E91E5523
:103730002567C4F8CC50C4F88050E662FEF752F911
:10374000194BC4F8DC30294604F16803082204F55B
:103750009670C4F88430C4E92298C4E92476C4E998
:103760003455C4E93855C4F8D850C4F83451C4F8B5
:10377000E850FEF737F904F1D003C4E93C98C4E9F6
:103780003E76C4F8EC30BDE8F88300BF04070020A3
:1037900081360008453400086D340008AD34000857
:1037A000D13400080900010012000200F8B5254BD1
:1037B000D3F838310646002B3CD0234FD7E90134EB
:1037C000013B04D51DE05A1C04F1680419D0B4F97A
:1037D0000C50013B002DF6D11C4BE360C4E90155B0
:1037E000C4E9045565662560A5610822294604F1EF
:1037F0005C00FEF7F7F8C4E90C55C4E91155204602
:10380000F8BD3D680DB12F46D8E74FF4D67130466C
:1038100004F078FF044680B10423C0E900530C3063
:103820002946A0604FF4D0722546FEF7DBF83C60D5
:103830002F46C3E7FFF752FFBFE70C233860336022
:10384000DDE700BF04070020280100200100FFFF82
:10385000436B03B17047044B044AD3F838314263D9
:10386000002BF7D13AE700BF040700209936000883
:10387000704700BF704700BF024A0349002001F0B3
:103880001BBE00BF280100207D360008024A034904
:10389000002001F011BE00BF28010020D936000829
:1038A00070B504468AB008460D4601F049FD164E33
:1038B000626B079001214318CDE90861022006A937
:1038C00003910695A16805930490A2B1B1F90C206B
:1038D0004B6E900405D442F4005223F400538A81C5
:1038E0004B669B040DD403AA204600F017F840B99C
:1038F0000A200AB070BD20460191FFF7A9FF019987
:10390000E4E74FF0FF30F4E700110108024B0146F5
:103910001868FFF7C5BF00BF000000209368002BA8
:1039200000F0F6802DE9F04FB1F90CC01CF0080F43
:1039300083B0904681460C4631D00B697BB31CF0B6
:103940000207D8F8006038D00027D4F824B0E16925
:10395000DFF8BCA23D4655452B463A4628BF5346A4
:103960004846C5B1D847002840F3C880D8F8083089
:103970001B1A07442D1AC8F80830002B00F0B48039
:1039800055452B46D4F824B0E16928BF53463A4642
:103990004846002DE6D1D6E900750836DBE721461A
:1039A000484606F035F9002840F0AD80B4F90CC067
:1039B000D8F800601CF00207C6D11CF0010A63D1E0
:1039C0002368A168574618468B46002F58D01CF430
:1039D000007F00F0B180B9420A4600F2DD801CF49D
:1039E000906F2FD0216962695D1A02EB420202EBEF
:1039F000D2726B1C52103B44934292BF93469B463B
:103A00001A461CF4806F00F0E6801146484604F028
:103A100079FE002800F0F5802A4621690190FFF721
:103A200077FCA289019B22F4906242F08002A2817D
:103A30005819ABEB0505C4F814B02361A5602060EC
:103A4000BB463A465146019204F0D8FCA16823686F
:103A5000019AA1EB0B011A443D46A16022600027A8
:103A6000D8F808305B1BAA44C8F80830002B3BD0BC
:103A70002368A168B4F90CC018468B46002FA6D164
:103A8000D6E900A708369EE73846BB463D46002DDE
:103A900040D0002845D03A46D4E904C32068A16844
:103AA000AA4228BF2A46604504D901EB030A5245C1
:103AB00000F38280934272DCE169D4F824C05A4654
:103AC0004846E047B0F1000A18DDB7EB0A070FD00F
:103AD0000120D8F80830A3EB0A03D344A5EB0A056C
:103AE000C8F80830002BD2D1002003B0BDE8F08F19
:103AF0002146484604F002FC0028EAD0B4F90C3014
:103B000043F04003A3814FF0FF3003B0BDE8F08FD6
:103B100000207047756833460836002DFAD0D3F878
:103B200000B02A460A21584602F0D2FD002865D08E
:103B30000130A0EB0B07AEE722699A4214D3626909
:103B4000BA4211D86FF00043BB4228BF3B46656ABA
:103B500093FBF2F3E16902FB03F348465246A847A0
:103B6000051ECBDD7F1B7BE7B94228BF39460D46DA
:103B700018460A46514604F041FCA1682368491BD7
:103B80002B44A16023600029ECD12146484604F073
:103B9000B5FB0028E6D0B1E7BB463A4652E75946A6
:103BA000019204F02BFC019AA3689B1AA36023687E
:103BB00013442360924688E75946524604F01EFC9F
:103BC0002368534423602146484604F097FB0028AD
:103BD0003FF47BAF92E7484606F08AFA0346002896
:103BE0007FF426AF2169484606F0D0F8B4F90C30CE
:103BF0000C22C9F8002023F0800381E76A1C1746D5
:103C00004AE70C22B4F90C30C9F8002078E700BF6D
:103C100000FCFF7F002301461A46184606F036BA1C
:103C20000CB410B59CB01EAB029106916FF0004130
:103C300004910791084953F8042B0591002402A927
:103C400001931B9402F094FD029B1C701CB0BDE814
:103C5000104002B0704700BF0802FFFF0EB430B53D
:103C60009CB06FF000411FAB049107910A4953F8D3
:103C7000042B029000240690084D0868019302A9C5
:103C800005951B9402F074FD029B1C701CB0BDE8EE
:103C9000304003B0704700BF000000200802FFFF63
:103CA00038B54B1C1AD09389144623F02003526870
:103CB000A381236BCDB2A3B1636B934209DD23686B
:103CC0005A1E226003F8015C636801336360284672
:103CD00038BD214601F032F80028F0D04FF0FF3512
:103CE000F5E7236921682BB18B4203D211F8013C1F
:103CF000AB420ED02346C4E90E1204F14000032269
:103D00002063626303F8425F0122C4E9003228465F
:103D100038BD01390132C4E90012D8E710B50C46AC
:103D2000096B69B104F14003994201D006F02EF805
:103D3000E36B63600020206313B1A36B236010BDAD
:103D4000A2892369002142F020026160A2814FF024
:103D5000FF30F3E72DE9F04F85B0834602FB03F017
:103D60000E9C019398B38846D4E90015A8420646F4
:103D700022D9CDE902024FF0000904F1400A404681
:103D80002A46FFF7C5FA2168236B4F19C4E9007969
:103D9000194637465846A844761BDBB1534501D037
:103DA00005F0F4FFE16BC4F83090616091B10D460D
:103DB000B542A16B2160E2D332464046FFF7A8FA34
:103DC000D4E90032921B3344C4E90032019805B0B3
:103DD000BDE8F08FDDE90202A3892844C01B43F04F
:103DE0002003B0FBF2F02269A3810023C4E9002381
:103DF00005B0BDE8F08F00BF2DE9F04F8A46B1F95C
:103E00000C10DDB08C0407930390DAF8643007D40B
:103E100041F4005123F40053AAF80C10CAF864309E
:103E20009804C3F3403100F1A883164616F8013B0D
:103E30000D93002B00F08D86DFF8908206918E4660
:103E40008B4689460591089118F8034014F0080440
:103E50006ED1252B5DD131782746A1F12503721C47
:103E6000532B61D8DFE813F054006000600060005D
:103E70006000340260006000600060006000D000FC
:103E8000D000D000D000D000D000D000D000D000B2
:103E9000D0006000600060006000600060006000B2
:103EA0006000600060002802600060006000600048
:103EB0006000600060002C0260006000360160005D
:103EC0006000600060006000600060006000DC0076
:103ED000600060003F016000600060006000600002
:103EE00060006000A501AA01600060006000B101EF
:103EF000B90160006000FF0160000A0205062102AE
:103F00006000600025026000080660006000DC00C0
:103F10001646DAF80430002B5BDDDAF80030197849
:103F200016F8012C914232D005985DB0BDE8F08FB3
:103F3000DAF80430039F0AF1400500241A460FE026
:103F4000DAF800301A7818F80220120703F101039A
:103F50003DD5DAF80420013ACAE9003209F1010935
:103F6000002AEDDCDAF830303846194613B3AB429C
:103F700001D005F00BFFDAF83C30CAF83040CAF83F
:103F80000430BBB1DAF83830CAF80030DAE7013370
:103F9000CAF80030DAF804300496013B09F101094F
:103FA000CAF80430049E16F8013B0D93002B7FF4F1
:103FB0004BAFB9E7BAF80C3043F02003AAF80C3045
:103FC000DAF81030CAF800300023CAF8043004963A
:103FD000E8E7DAF83010002900F0BD820AF140036A
:103FE000994202D0039805F0D1FEDAF83C30CAF8C5
:103FF00004300022CAF83020002B00F0AC82DAF83E
:104000003830CAF800308AE714F08F0F8CD107EBF4
:10401000870701EB4701A1F13007717816461CE7CD
:10402000049244F400742A4B08931023069303234C
:10403000DAF80410002900F3DD80DAF830100029E6
:1040400000F089820AF14000814204D0039809936C
:1040500005F09CFE099BDAF83C10CAF80410002019
:10406000CAF83000002900F07682DAF83810CAF871
:104070000010600640F1BE80022B00F00282032B8C
:1040800000F03281012B3CD0012F04F0100238BF28
:10409000012714F001040A9240F032840A9B002B9D
:1040A00040F0D082079C039854F8041BCDF800A080
:1040B0003B460122FFF74EFE002800F05782059B89
:1040C00007940133814405936CE700BF950C010808
:1040D00035200008049244F00104814B0893082322
:1040E00006930323A4E711461CA801F099F944F0B4
:1040F000400404900123DAF8041000299DDD012B0F
:10410000C2D1002F04F0100208BF4FF0FF3714F0A7
:1041100001040A9240F08783DAF800600A9A317845
:104120001CAD695C002A00F0CD8200293FF4FCAE92
:10413000DAF8041001360139012FCAF80060CAF814
:10414000041000F01F830AF14006CDF82490B14618
:1041500026461C4612E0DAF800100878285C013187
:10416000002800F00C83CAF80010DAF804100134BB
:104170000139A742CAF8041000F001830029EADCE3
:10418000DAF8303003981946002B00F023854B45B0
:1041900001D005F0FBFDDAF83C10CAF83060CAF82F
:1041A0000410002900F01685DAF83810CAF800105B
:1041B000D3E7049244F0400400239CE70492494B67
:1041C00008930A230693032332E723077FF4ACAE58
:1041D000717844F0040416463FE6DAF8043004929D
:1041E000002B404B08934FF0000306934FF003035E
:1041F0007FF723AFDAF80000017818F801100907FB
:104200007FF53AAF0AF140060994002534464E4640
:10421000994608E00130CAF80000017818F801104A
:104220000A0740F19481DAF804100139002906F1F7
:104230000106CAF80410EDDCDAF8303003981946AC
:10424000002B00F08881A34201D005F09FFDDAF831
:104250003C10CAF83050CAF80410002900F07B81E5
:10426000DAF83800D7E720077FF45EAE71786C2962
:1042700000F04F8444F001041646EEE5E706049290
:104280003FF590AE079A660752F8043B079200F19B
:10429000FF83E50700F15984A40740F156844FEAF3
:1042A000E972C3F800905A607CE6049244F4087402
:1042B000B9E604920223BBE6049244F001047EE7CF
:1042C00021077FF431AE717844F002041646C4E54C
:1042D00027437FF429AE717810241646BDE500BF50
:1042E00035200008BD3200087B1E262B44F458649C
:1042F00040F24781A7F127030B932727002312AE33
:104300001A4609930AF1400335460A933346069E3E
:10431000DAF8001091F800C0ACF12B004D283AD823
:10432000DFE800F07E397E3939896D6D6D6D6D6D18
:104330006D83833939393939393927272727272791
:1043400039393939393939393939393939393939DD
:1043500039733939393939393939272727272727FF
:1043600039393939393939393939393939393939BD
:1043700039730A2E0FDD24F4386405F801CBDAF81E
:10438000040001380028CAF8040060DD0131013F53
:10439000CAF80010BCD106961E46E10505D5B54207
:1043A00000F29783B5423FF4BFAD14F0100240F025
:1043B000C980069B089F03982A703146B847079B1F
:1043C000A20603F1040700F1B780630700F15C83E4
:1043D00014F0010240F0AF80A10740F1AC80B74B70
:1043E000089903989942069B314600F08B8400F0AF
:1043F00073FF0B46079A1168C1E900039EE0B048BD
:1044000024F4386430F91660B7E704F4C060B0F5FE
:10441000007FC0D124F4007444F4A0641026ACE7FB
:104420002006B8D524F08004A7E7A54830F9166027
:10443000082EA0DCAFE720059FD516B944F4007420
:104440000826600540F1AA8224F4B06495E7DAF802
:104450003010002900F082830A98814205D0039829
:10446000069305F093FC069B0022DAF83C10CAF88C
:104470003020CAF80410002900F07083DAF83810F0
:1044800085E7DAF800000378002F18F8035008BF1A
:104490004FF0FF37E10704F0100205F0080573D470
:1044A000002A00F07181002D7FF47CADDAF8043031
:1044B0000130013B012FCAF80000CAF8043008BFE0
:1044C00009F101093FF46EAD0AF1400632460124BC
:1044D0002E46154614E0DAF80030197818F8011065
:1044E000090703F1010300F1E780CAF80030DAF8A8
:1044F00004300134013BA742CAF8043000F00F83B6
:10450000002BE8DCDAF8303003981946002B00F075
:10451000A083AB4201D005F039FCDAF83C30CAF890
:104520003060CAF80430002B00F09383DAF838309A
:10453000CAF80030D1E7079B1B681860059B0797F6
:1045400001330593099BAD1B1D44A9442AE54B4645
:10455000099CB14690E5DAF81010BAF80C30002248
:10456000CAE9001243F02003AAF80C30059B23B1DE
:10457000BAF80C305B067FF5D7AC4FF0FF330593EC
:10458000D2E400230B93B9E6002A00F01E82002D2E
:104590007FF408AD079C0DF1340C00250A945E46AB
:1045A0002C460792654602F067F8A042DED0DAE9B1
:1045B00000210DF1480B12F8010B0BF80400631CED
:1045C0000139032ECAE90021099310AC02D12368F6
:1045D000042B04D0082200212046FDF703FA5A4696
:1045E000099B039800942946FEF77AFF421C064671
:1045F000BCD0002840F096822860FEF76DFF0028AE
:1046000040F05C83099B9944013F079B002B40F0DD
:10461000A38204351C46DAF80420002A40F3ED8218
:10462000DAF80020127818F80220100701D4002FC1
:10463000B9D10A9C079AAC46B346002A00F0CB8158
:104640000794AFE4DAE90013BB4280F25483DAF84E
:10465000302018460AF14006CDE9099B134625464D
:10466000A346B14602461144CAF800105E463C46D5
:10467000039819469344BF1A002B00F032824B4531
:1046800001D005F083FBDAF83C20CAF83050CAF8B4
:104690000420002A00F02582DAF83810CAF8001049
:1046A00097424FF00003DEDCDDE9099B13463444FA
:1046B000DB1B3944CAE90013A14473E43520000828
:1046C000980D0108079A52F8040B00293FF42CAC0E
:1046D000DAF804100139CAF80410711CCAF8001085
:1046E0000446317804F8011B012F40D0C619CDF8DB
:1046F0001C900AF14007B14609900A9E0B9211E006
:10470000DAF800100878285C48B3DAF804000138B9
:10471000CAF80400481CCAF80000097804F8011B14
:104720004C451CD0DAF804100029E9DCDAF8303006
:1047300003981946002B00F03682BB4201D005F0E9
:1047400025FBDAF83C10CAF83060CAF804100029DA
:1047500000F02982DAF83810CAF80010D2E7099878
:10476000DDF81C900B9A231A002B3FF4DDAB994423
:10477000059B0792013305930023237012E4DDF8B3
:104780002490234699440DE4079951F8042B002DF9
:1047900040F0B382DAF80430013BCAF80430431C1D
:1047A000CAF800301446037804F8013B012F00F0EA
:1047B000A682D61907910AF14007099216E0DAF8A5
:1047C0000010087818F80000020701F1010300F159
:1047D000F080DAF80400CAF800300138CAF80400A2
:1047E000097804F8011BB44200F0E380DAF8041001
:1047F0000029E4DCDAF8303003981946002B00F089
:104800001682BB4201D005F0C1FADAF83C10CAF8B2
:104810003050CAF80410002900F00982DAF8381084
:10482000CAF80010CDE7002A40F02081079B53F81A
:10483000042B0992079300245D4601F01DFFA0425E
:104840003FF494AEDAE9003212A813F8011B0155C7
:10485000013A032DCAE9003204F101040DF1380BCD
:1048600003D1DBF80030042B04D008220021584685
:10487000FDF7B8F8099E0398CDF800B0234612AAB8
:104880003146FEF72DFE431C05463FF46FAE00286F
:1048900040F002813060064610AB08220021184625
:1048A0000B93FDF79FF8B5490B9B03983246D1F85F
:1048B000E0600CA9B04701280CBF9DF830600026CD
:1048C0001CAB9B5D002B00F05D81032DA14400F02B
:1048D000FA80013F0A9B13B9099B04330993DAF864
:1048E0000430002B4FF0000440F3A580002FA4D12A
:1048F000AB460A9B002B7FF455AB099A136048E046
:10490000002A40F09080079951F8042B09920791F2
:104910001C4612AE0B9301F0AFFEA0423FF426AE50
:10492000DAE9002112F8010B30550139BBF1030F10
:10493000CAE9002104F1010410AD02D12B68042B57
:1049400004D0082200212846FDF74CF80999039865
:10495000009523463246FEF7C3FDB0F1FF3F834684
:104960003FF404AE002840F09F800A9BA144013F21
:1049700023B9099A1360099B04330993DAF80420D8
:104980000B9C002A34DD002FC5D10A9B002B7FF43D
:1049900009AB059B01330593FFF704BB0B9824F487
:1049A000607410B101380B900137099801300990FB
:1049B000E5E4099A0799A31A9944059B07910133E5
:1049C000059300232370FFF7EDBA079C54F804CB3E
:1049D000002D3FF4E2AD059B0794013305930023BE
:1049E000CCF80030FFF7DEBADAF80420002A92DCB7
:1049F000DAF83010002900F04E810AF140029142AD
:104A000002D0039805F0C2F9DAF83C20CAF8042075
:104A10000023CAF83030002A00F03D81DAF838204F
:104A2000CAF80020AFE70022099271E7DAF80430F3
:104A3000002B3FF702AFDAF83010002900F019819F
:104A40000AF14003994202D0039805F09FF9DAF881
:104A50003C30CAF804300022CAF83020002B00F0A5
:104A60000881DAF83830CAF800303FE70DAB099317
:104A7000E1E60492FFF731BB414B08930A2306930A
:104A800004920323FFF7D4BA079B1B68188055E5EF
:104A9000A3F80090FFF786BA861CC7D0099B1E6852
:104AA000701C7FF4F9AE0BE710F1020F9CD00328C5
:104AB000A14402D12A68042A00D0013F0A9B002B9E
:104AC0003FF459AF5AE7DBF80030042B7FF401AF15
:104AD00000E715F8011C03985246013DFFF7E0F886
:104AE00060E4BAF80C30DDF8249043F02003AAF813
:104AF0000C30DAF81030CAF800305C460023DDF8DC
:104B000028B0CAF80430002C3FF430ADA144FFF7C0
:104B100049BAB17844F002040236FFF79EB9B944AD
:104B2000FFF740BA831C00F0C7802868FEF7D4FC6A
:104B3000002840F0C380099B032E99447FF464ADA4
:104B40002268042A7FF460AD5FE5C3F80090FFF7A8
:104B500029BA0593FFF7E8B900245CE506961E46DE
:104B6000BAF80C3043F02003AAF80C30DAF8103011
:104B7000CAF800300023CAF804300EE434010020E3
:104B800035200008AB46002C3FF4B3AE12AB039EB9
:104B90001D19013C15F8011D52463046FFF780F8FB
:104BA000002CF6D1A5E6BAF80C300998DDF81C9077
:104BB0000B9A43F02003AAF80C30DAF81030CAF848
:104BC0000030A0424FF00003CAF804303FF4CEACEE
:104BD000231ACCE5BAF80C20DDF8249042F020022C
:104BE000AAF80C20DAF81020CAF800202346002288
:104BF000CAF804209944FFF7D5B9DAF83010002933
:104C000000F085800AF14002914202D0039805F03D
:104C1000BDF8DAF83C20CAF804200021CAF83010A8
:104C2000002A74D0DAF83820CAF80020FAE4099A89
:104C30000799A31A9944BAF80C3043F02003AAF854
:104C40000C30DAF81030CAF800300023CAF804300B
:104C5000B3E6BAF80C3043F02003AAF80C30DAF8C7
:104C60001030CAF800300023A144CAF80430FFF71E
:104C700099B9BAF80C3043F02003AAF80C30DAF8EE
:104C80001030CAF800300023AB46CAF80430002CBC
:104C90003FF42FAE6AE4BAF80C3043F02003AAF8D0
:104CA0000C30DAF81030CAF800300023CAF80430AB
:104CB000002C3FF46AAE59E4099CACE4AC46DDE953
:104CC00009545B46079AB3461E46002D3FF4B5AC27
:104CD0002E4407943446039E09926746013D14F81A
:104CE000011D52463046FEF7DBFF002DF6D1079C32
:104CF000099ABC46A1E43C46DAE414465DE609F1B3
:104D000001095AE603F0CEFC0B46FFF773BBBAF875
:104D10000C30079A43F02003AAF80C30DAF8103070
:104D2000CAF80030AC4600232546B3460A9CCAF8B0
:104D30000430002D7FF41AAC7FE400BF01F1400382
:104D40002DE9F0410C46096B994214D0666B77004F
:104D50003A4605F0CDF9054630B300EB06080146AA
:104D600032464046FEF7D4FAC4E90C57C4F8008036
:104D70000020BDE8F0814FF4806103F0C3FC98B1DE
:104D800094F842304FF48062C4E90C0280F8FF339B
:104D900094F8413080F8FE3394F8402080F8FD23E9
:104DA00000F2FD332360E3E74FF0FF30E1E700BF9F
:104DB00070B54C1C2BD00E460546144610B1436B03
:104DC000002B4CD0B4F90C3023F020025807A281FC
:104DD00006D4D9061BD51B0734D442F00402A281A5
:104DE000226B6368F6B2AAB1626B9A4209DD23684E
:104DF0005A1E226003F8016C636801336360304619
:104E000070BD21462846FFF799FF0028EFD04FF0EC
:104E1000FF36F4E7226921682AB18A4203D211F8E9
:104E2000012CB2421ED02246C4E90E1304F1400008
:104E300003232063636302F8426F0123C4E9002364
:104E4000304670BD2146284603F058FA0028DED1CE
:104E5000B4F90C20A06022F00802A061BDE7FEF7C3
:104E6000F7FCAFE701390133C4E90013C7E700BF1E
:104E700010B4044C03460A46206810BC1946FFF7DC
:104E800097BF00BF0000002038B5074D0022044640
:104E900008462A6008F062F9431C00D038BD2B6830
:104EA000002BFBD0236038BD7808002038B5D0F83F
:104EB00018410CB1002038BD8021054603F022FCCA
:104EC0000246C5F8180130B1031F7C3243F8044F85
:104ED0009342FBD1EEE74FF0FF3038BD30B51F29CC
:104EE00083B0054609D8D0F818310C4653B153F8B1
:104EF000240043F8242003B030BD162303604FF094
:104F0000FF30F8E78021019203F0FCFB019AC5F81D
:104F1000180103460028F2D0011F00F17C05002093
:104F200041F8040FA942FBD1E1E700BF1F2938B5C2
:104F300005461FD8D0F818210C466AB152F8213026
:104F400053B1012B06D0591C10D0002142F8241077
:104F500020469847002038BD284602F003FE22462E
:104F600001462846BDE8384002F0E6BD162303603E
:104F7000012038BD162303604FF0FF3038BD00BF5D
:104F80001F292CD838B5D0F818310C460546A3B1E6
:104F900053F8242003EB84034AB1511C0BD0012A9F
:104FA00007D0002520461D609047284638BD0120C7
:104FB00038BD032038BD022038BD802103F0A2FB9C
:104FC0000346C5F8180138B1021F00217C3042F8B1
:104FD000041F8242FBD1DBE74FF0FF3038BD4FF0BA
:104FE000FF30704738B5144B1F281D681ED8D5F800
:104FF0001821044662B152F820304BB1012B05D084
:10500000591C0FD0002142F820109847002038BDCD
:10501000284602F0A7FD224601462846BDE8384052
:1050200002F08ABD16232B60012038BD16232B60A9
:105030004FF0FF3038BD00BF00000020124B1F288A
:1050400070B51E6809D8D6F8183104460D464BB124
:1050500053F8240043F8245070BD162333604FF0FA
:10506000FF3070BD8021304603F04CFB0346C6F88C
:1050700018010028F3D0021F00217C3042F8041FE1
:105080008242FBD1E4E700BF0000002038B50C4BA2
:105090001D68D5F818410CB1002038BD8021284684
:1050A00003F030FBC5F8180138B1031F00F17C0292
:1050B00043F8044F9342FBD1EEE74FF0FF3038BD89
:1050C0000000002038B5184B1F281D6828D804465A
:1050D000D5F81801A0B150F8243000EB84004BB192
:1050E0005A1C0BD0012B07D000250560204698479D
:1050F000284638BD012038BD032038BD022038BD08
:105100008021284603F0FEFAC5F8180140B1031FBC
:1051100000F17C01002243F8042F8B42FBD1DAE737
:105120004FF0FF3038BD00BF0000002038B5074DFC
:10513000074C2C1BA41005D0013C55F8043D9847A2
:10514000002CF9D1BDE838400BF07CBDEC1601080D
:10515000E8160108004870470000C07F2DE9F04FB5
:1051600085B092465B4A039089461E460D46294605
:1051700015F8014B135D13F00803F8D12D2C7DD0E9
:105180002B2C41D002934FF0FF326FF00043CDE95A
:105190000023002E43D1302C79D00A27B0463E465A
:1051A000DDE900013A464346FBF7BAFA00238E4692
:1051B000834619461846A44610E08E4508BF83452D
:1051C0004CD000FB08F307FB0133A0FB07010B44A5
:1051D000201843EBE471012315F801CBACF1300446
:1051E000092C05D9ACF14104192C1ED8ACF13704B7
:1051F000A64222DDB3F1FF3FEED083457EEB0103F3
:10520000DBD24FF0FF33E7E72C7802938D1C6FF071
:1052100000434FF0FF31CDE90013002EBBD0102E1C
:105220003ED037464FEAE678BAE7ACF16104192C74
:1052300003D8ACF15704A642DCDC5A1C13D0029A06
:1052400012B1404261EB4101BAF1000F03D0002BD3
:105250003DD1CAF8009005B0BDE8F08FA242B0DAA7
:105260004FF0FF33B8E7039A22231360BAF1000F1F
:1052700028D0DDE9000105F1FF39EAE700934FF09E
:10528000004001232C78CDE901038D1C81E72B78A8
:1052900003F0DF03582B0ED00827B0463E467FE7C9
:1052A000302C03D037464FF0000879E72B7803F015
:1052B000DF03582BF6D110276C784FF00008023529
:1052C0003E466DE7DDE9000105B0BDE8F08FCDE9B0
:1052D0000001CEE7950C010840E700BF10B4044C74
:1052E00084461346206810BC0A46614636E700BF74
:1052F0000000002010B4044C84461346206810BC03
:105300000A4661462AE700BF0000002000000000B6
:10531000000000000000000000000000000000008D
:10532000000000000000000000000000000000007D
:10533000000000000000000000000000000000006D
:1053400030B490F800F020F007016FF0000C10F07E
:10535000070491F820F040F048804FF000046FF00F
:105360000700D1E9002391F840F000F1080082FA2B
:105370004CF2A4FA8CF283FA4CF3A2FA8CF34BBBF6
:10538000D1E9022382FA4CF200F10800A4FA8CF26F
:1053900083FA4CF3A2FA8CF3E3B9D1E9042382FA3D
:1053A0004CF200F10800A4FA8CF283FA4CF3A2FA52
:1053B0008CF37BB9D1E9062301F1200182FA4CF28A
:1053C00000F10800A4FA8CF283FA4CF3A2FA8CF3F1
:1053D000002BC6D0002A04BF04301A4612BAB2FA13
:1053E00082F200EBD20030BC7047D1E9002304F018
:1053F0000305C4F100004FEAC50514F0040F91F84D
:1054000040F00CFA05F562EA05021CBF63EA0503E9
:1054100062464FF00004AAE7704700BF704700BF24
:1054200070B50C785E2C864624D00023481C9C4620
:10543000002263F3070263F30F2263F3174263F35F
:105440001F620EF58071734643F8042B8B42FBD12B
:1054500074B18CF001010EF80410451C15F8013CE4
:105460002D2B0ED05D2B0AD01BB11C462846F2E72F
:10547000013870BD01234C78881C9C46D8E728462B
:1054800070BD90F801C0BCF15D0FEED06445ECDC5E
:10549000661C02300EEB060202F8011BA2EB0E03A3
:1054A000013B9C45F8DCACEB0403013B6445A8BF21
:1054B00000230235F418D1E72DE9F8430746884662
:1054C00016464FF00009D6E90154013D10D4A389D6
:1054D000012B08D9B4F90E3001332146384602D0E9
:1054E000C04749EA0009013D6B1C04F16804EED194
:1054F0003668002EE7D14846BDE8F883F0307047A3
:105500000048704724020020004870472402002011
:105510002DE9F04F9FB00E46002107921A9100220C
:105520000021CDE90412834631461991884611F8CD
:10553000012B2D2A5ED801A050F822F01157000847
:10554000F5550008F5550008F5550008F555000813
:10555000F5550008F5550008F5550008F555000803
:105560002B5500082B5500082B5500082B5500081B
:105570002B550008F5550008F5550008F5550008AD
:10558000F5550008F5550008F5550008F5550008D3
:10559000F5550008F5550008F5550008F5550008C3
:1055A000F5550008F5550008F5550008F5550008B3
:1055B000F5550008F5550008F55500082B5500086D
:1055C000F5550008F5550008F5550008F555000893
:1055D000F5550008F5550008F5550008F555000883
:1055E000F5550008F55500088F5C0008F5550008D2
:1055F000A75C000800210891302A00F095804FF048
:10560000000A2F2A174640F2E8844FF0000940466E
:105610004D464C4613E00130082C1990C8BF09EBE9
:1056200089090778C6BF02EB4902A2F13009A3F14C
:1056300030052F2F04F101043A4640F3B88005EB02
:105640008503392F02EB4303E5DDAE49012202F069
:105650008FFE00287DD1199A1346013219925F7886
:10566000002C40F07985302F40F0738513461846A2
:10567000013319931F78302FF9D0C2F10102104481
:10568000A7F13103082B37D8431CDDF864800E9353
:105690000023A7F1300E01244746099305EB850549
:1056A0000EEB450500207B1C19937F78A7F1300293
:1056B000092A00F2DE82199F01309646002AF2D0B4
:1056C0000128D8BF04F1010C40F3C08600EB040CA4
:1056D0000CF1FF3103E05D00A14200F0B786082C19
:1056E00005EB850304F10104F5DD102CDCBF09EBAB
:1056F00089094FEA4909EFE7652F40F0D782002377
:105700000122CDE909320E935AEA000340F0BD822E
:10571000079B4FF000084FF0000903B11E604046A0
:1057200049461FB0BDE8F08F98F8012002F0DF0273
:10573000582A18BF434600F00D84013319931A7894
:10574000302AFAD09846002A00F07B824FF0010AF6
:1057500057E7002009940E900A90652F34D0452F0A
:1057600032D000230F93002C77D15AEA000040F08A
:1057700068820A9B002BCBD1692F00F05A8400F37A
:105780005384492F00F055844E2FC1D15E4919A88A
:1057900004F092FE0028BBD0199B1B78282B00F048
:1057A00058855A4804F088FF804689464DE255499D
:1057B000012202F0DDFD0028CBD1199B09945A1C6F
:1057C00019925F780E9071E7002C9DD0199E731C82
:1057D000199377782B2F00F055822D2F00F04C82F3
:1057E0004FF0000CA7F13001092900F23E82302F62
:1057F000199B0AD1013319931F78302FFAD0A7F1E2
:105800003102082AADD8A7F130015A1C19925F78ED
:105810002F2F40F3F58396460B9308E0013219923F
:105820009EF801702F2FA3F1300106DD964601EBA3
:105830008103392F07EB4303F0DD0B9BD21A082AB3
:1058400040F3DE8344F61F630F93BCF1000F8AD050
:105850000F9B5B420F93002C87D0099A1346002AB6
:1058600008BF23460993DDE90E23102CA3EB0203A6
:1058700028460B93A246A8BF4FF0100AFAF726FE5F
:10588000092C02460B46CDE9042315DD204B03EB22
:10589000CA0353E9122306F0AFFB064648460F46FB
:1058A000FAF714FE02460B4630463946FAF7D2FCA8
:1058B0000F2CCDE904012DDC0B9B002B00F01A838B
:1058C0000B9B40F34F82162B40F3A1830B9AC4F13C
:1058D000250393421EDB0E4DC4F10F0405EBC401FA
:1058E000DDE90423D1E9000106F086FB0B9B1C1BBC
:1058F00005EBC405D5E9002306F07EFB804689460A
:10590000A3E100BF0411010814110108F8110108F6
:10591000400F01080B9BA4EB0A0A9A44BAF1000F4E
:1059200040F3CA811AF00F000AD0354901EBC001DB
:10593000DDE90423D1E9000106F05EFBCDE90401B5
:105940003AF00F0A3FD0BAF59A7F00F38983BAF193
:10595000100F4FEA2A16DFF8ACA040F3C284DDE94D
:105960000401002357469946F20704D5D7E90023DE
:1059700006F042FB01237610012E09F1010907F11F
:105980000807F1D10BB1CDE90401059BA3F15473D4
:1059900005930AEBC90ADDE90423DAE9000106F000
:1059A0002BFB194BCDE904010B400A4617498B42EA
:1059B00000F2568316498B4240F22884154B4FF073
:1059C000FF32CDE9042300230A93099A0095234668
:1059D0004146584604F01CFF1490002800F0408314
:1059E000DDE90E329B1A0B9A002AA8BF00230E9302
:1059F0004FF0000A22EAE273CDF824A01593E0E00C
:105A0000400F0108301001080000F07F0000A07C6A
:105A10000000907CFFFFEF7FD21A1F2AA4EB020444
:105A200000F32E8201239340984600250A9B2644CA
:105A30003C44A7421E443B46A8BF2346B342A8BFEE
:105A40003346002B02DDE41AF61AFF1A0E9B002BD8
:105A500000F3BC81002C00F3D2810B9B002B00F3E0
:105A60000582002E00F3F681002F08DD51463A46EC
:105A7000584605F0B7F88246002800F0F4811A99DC
:105A80004A46584605F046F90990002800F0EB8197
:105A9000099A0023D1680F91D360514605F01AF995
:105AA0000028C0F2E983059F00F0638309985146FE
:105AB00005F0D0FA00224FF0804304460D46FAF775
:105AC000E9FD002800F072810F9B002B40F0E4817B
:105AD000049B002B40F06D82C7F31303002B40F0B2
:105AE0000C82AB4B002220462946FAF7C9FD00285C
:105AF00040F03683A74B20462946002206F07CFA68
:105B000003460C46CDE9123401F100430C900D938D
