:020000040800F2
:1000000000000220893900083D2C0008412C00081E
:10001000452C0008492C00084D2C00080000000069
:10002000000000000000000000000000512C00084B
:10003000552C000800000000592C00085D2C000819
:10004000D9390008D9390008D9390008D939000848
:10005000D9390008D9390008D9390008D939000838
:10006000D9390008D9390008D9390008D939000828
:10007000D9390008D9390008D9390008D939000818
:10008000D9390008D9390008D9390008D939000808
:10009000D9390008D9390008D9390008D9390008F8
:1000A000D9390008D9390008D9390008D9390008E8
:1000B000D9390008D9390008D9390008D9390008D8
:1000C000D9390008D9390008D9390008D9390008C8
:1000D000D9390008612C0008D9390008D93900083D
:1000E000D9390008D9390008D9390008D9390008A8
:1000F000D9390008D9390008D9390008D939000898
:10010000D9390008D9390008D9390008D939000887
:10011000D9390008D9390008D93900086D2C0008F0
:10012000D9390008D9390008D9390008D939000867
:10013000D9390008D9390008D9390008D939000857
:10014000D9390008D9390008D9390008D939000847
:10015000D9390008D9390008D9390008D939000837
:10016000D9390008D9390008D9390008D939000827
:10017000D9390008D9390008D93900080000000031
:08018000D9390008D939000843
:1001A0000348044B834202D0034B03B11847704706
:1001B0005005002050050020000000000548064BB7
:1001C0001B1AD90F01EBA301491002D0034B03B155
:1001D000184770475005002050050020000000001F
:1001E00010B5064C237843B9FFF7DAFF044B13B17F
:1001F0000448AFF300800123237010BD5005002098
:10020000000000002C65000808B5044B1BB1044930
:100210000448AFF30080BDE80840CFE700000000CD
:10022000540500202C65000853B94AB9002908BFBD
:1002300000281CBF4FF0FF314FF0FF3001F03AB9FA
:10024000ADF1080C6DE904CE00F006F8DDF804E02D
:10025000DDE9022304B070472DE9F047089D0E4602
:1002600004460F46002B4AD194468C45B2FA82F2DE
:1002700060D942B1C2F12003974020FA03F30CFA8F
:1002800002FC1F4394404FEA1C4E1FFA8CF6B7FB4A
:10029000FEF1230C0EFB117743EA074301FB06F046
:1002A00098420AD91CEB030301F1FF3780F0158156
:1002B000984240F21281023963441B1AA4B2B3FB84
:1002C000FEF00EFB103344EA034400FB06F6A642A0
:1002D0000AD91CEB040400F1FF3380F00081A64230
:1002E00040F2FD806444023840EA0140A41B002132
:1002F0001DB1D4400023C5E90043BDE8F0878B421F
:1003000005D90DB1C5E9000100210846F5E7B3FAAA
:1003100083F1002946D1B34202D3824200F2F58034
:10032000841A66EB030201201746002DE5D0C5E9CB
:100330000047E2E7002A40F09380A1EB0C034FEA6C
:100340001C471FFA8CFE0121B3FBF7F607FB1630A2
:10035000230C43EA00430EFB06F0984208D91CEB3D
:10036000030306F1FF3802D2984200F2D0804646DD
:100370001B1AA4B2B3FBF7F007FB103344EA0344A3
:100380000EFB00FEA64508D91CEB040400F1FF3368
:1003900002D2A64500F2B6801846A4EB0E0440EA4D
:1003A0000640A5E7C1F120078B4022FA07FC4CEA82
:1003B000030C06FA01FE20FA07F426FA07F344EAD2
:1003C0000E0400FA01F84FEA1C404FEA1449B3FB4F
:1003D000F0FE1FFA8CF600FB1E3349EA03430EFBC6
:1003E00006F9994502FA01F20BD91CEB03030EF151
:1003F000FF3A80F08580994540F28280AEF1020E8E
:100400006344A3EB0909A4B2B9FBF0F300FB139911
:1004100044EA094403FB06F6A64208D91CEB04048F
:1004200003F1FF3068D2A64266D9023B644443EA36
:100430000E40A41BA0FB02E6B4427346B14652D361
:100440004FD05DB1B8EB030264EB090404FA07F77F
:1004500022FA01F31F43CC40C5E9007400214CE7A8
:10046000C2F1200120FA01F30CFA02FC26FA01F194
:10047000964033434FEA1C471FFA8CFEB1FBF7F05E
:1004800007FB1016190C41EA064100FB0EF68E42DE
:1004900004FA02F408D91CEB010100F1FF382DD257
:1004A0008E422BD902386144891B9BB2B1FBF7F60F
:1004B00007FB161143EA014306FB0EF1994208D9E6
:1004C0001CEB030306F1FF3814D2994212D9023E05
:1004D00063445B1A46EA004136E73946EDE61846C2
:1004E00002E7F045ADD2BEEB020366EB0C06013825
:1004F000B146A6E74646ECE7034698E74046D3E711
:10050000D6467EE76444023847E708460DE7023ED8
:1005100063442DE703685A004CBF43F0004323F0C7
:1005200000431844704700BF2DE9F04759B301F16B
:10053000FF380546164647464FF0000A0AEB07010A
:1005400001EBD171491005EBC1094846FFF7E2FF05
:1005500088454FEAC104034610D004F10800B342B5
:10056000284407D8FFF7D6FF0138B04208D201F17E
:10057000010AE3E78A4506D04F1EDFE7B042F9D80B
:100580004846BDE8F0874FF000094846BDE8F087CF
:10059000012809D0022805D0044B00280CBF1846BA
:1005A0000020704702487047024870476D0C0008F1
:1005B000750C0008710C000830B5224B83B004465E
:1005C0008D1E43B301A92846AFF30080F0B1019915
:1005D0002A46FFF7A9FF0146C0B1FFF79BFF4B6812
:1005E000A064012B2BD0002B01F1040025DBFFF7C9
:1005F00091FF002323650368E064002B12DBFFF703
:1006000089FF03460020236103B030BD0023092089
:10061000236103B030BD0C4B0C49C91AC9101846F0
:100620000191D5E7C3F30360FFF7B2FF031E0CBFD0
:1006300009200020236103B030BD0123DAE7002345
:100640000520E0E700000000DC6800086C6A000894
:100650000368DA0710B5044606D49B0700F1500082
:1006600009D500F095FC2368590709D51A070ED55E
:10067000DB0613D510BD00F083FC23685907F5D4C1
:1006800004F1D80000F08CFC23681A07F0D404F5BC
:10069000AC7000F08DFC2368DB06EBD404F5EC7045
:1006A000BDE8104000F0C8BC0346006800B1184423
:1006B000704700BF09207047704700BF70B50446FF
:1006C0000E46316C2046FFF777FF054688B9326C3D
:1006D0006261236932462146012098470828F0D0FC
:1006E000072806D12846316CFFF7E6FF301D00F0E1
:1006F0003BFCFFDE2DE9F04701F1040CC768D0F8A0
:10070000188006469146BCE80F00ADF5767D03AC37
:100710000FC4BCE80F000FC4BCE80F000FC49CE876
:100720000F0002AD4FF0000E84E80F00C5F800E0A6
:1007300021E02B6C73614FF4F47229467CA801F020
:10074000FFF933697CAA3146504698478A9BAB64CF
:100750004946CDE900588246334601203246B84723
:10076000814630BB4FF4F4727CA9284601F0E8F9C9
:10077000BAF1080F1AD1296C3046FFF71DFF09F1B5
:10078000090904465FFA89FA0028D2D0AB6BAB6442
:100790003246CDE9005833464AF010010120B847EF
:1007A00038B920460DF5767DBDE8F087BAF1070F20
:1007B00005D0092420460DF5767DBDE8F087484632
:1007C000296CFFF779FF03A800F0CEFB806C70471F
:1007D000F0B5CB6B0B6401F1040C0E460546BCE88A
:1007E0000F00FBB001AC0FC4BCE80F000FC4BCE8A5
:1007F0000F000FC49CE80F004FF0FF3784E80F0094
:10080000009706E02B696A4629469847082804465F
:1008100008D110992846FFF7CFFE0028F2D0092012
:100820007BB0F0BD6846FFF713FF062CF7D13146C9
:100830002846FFF743FF00BFC160D96B826119648E
:100840000022194656E700BF70B5C66843690B64BD
:10085000AEB903690A4604460D4601460220984790
:10086000072805D008280ED129462046FFF726FF85
:100870003046296CFFF720FF281D00F075FB012290
:10088000FFF738FFFFDEFFDEC2681AB1CA6B0A64E9
:1008900000222FE79CE700BF704700BF8368014636
:1008A0000BB1012018477047052915D8DFE801F082
:1008B0000A031403030501207047009A436C136078
:1008C0000020704743B90F2A06D800EB82020020AF
:1008D0005368009A136070470220704700B585B0D6
:1008E0000A46002303A900911946FFF7DDFF03988C
:1008F00005B05DF804FB00BF052915D8DFE801F05D
:100900000A031403030501207047009B1B6843641E
:100910000020704743B90F2A06D8009B00EB8202E3
:100920001B685360002070470220704710B584B0E8
:10093000002303AC039200940A461946FFF7DCFF3C
:1009400004B010BD70B5D36B136402F1040C0546FE
:100950000C46BCE80F00ADF5107D0DF15C0EAEE865
:100960000F00BCE80F00AEE80F00BCE80F00AEE8D7
:100970000F009CE80F004FF0FF368EE80F00169630
:1009800010E0FFF7D3FF214616A8A847034616AA92
:100990000820694683B9049B9847052806460CD071
:1009A000092809D026996846FFF706FE03460C2160
:1009B0006A4616A8002BE4D0092616A8FFF748FEC1
:1009C00030460DF5107D70BD2DE9F04F1646CA6C0E
:1009D00089B00D4652F8041B069200F0030C002B60
:1009E00079D00C0C8DF81D400904E4B2059102EB9E
:1009F000840202218DF81C10296DBCF1020F08BF82
:100A0000AA6B11F0010809D005A9304600F0AEFB31
:100A1000002856D1082009B0BDE8F08F1768002FD4
:100A2000F2D000F00801CDE90118E3469A46BAF188
:100A3000020F4CD01788548802F10409AA6C24F0E4
:100A400001030F21304603EB0208FFF747FF804503
:100A50003BD827F0010202EB0803834294BF002336
:100A60000123640004F0020407F001072743012F6B
:100A70004ED0022F35D027BBBBF1000F02D0002B88
:100A800040F0D38009F104021768002FCFD105A9E7
:100A90003046DDF8088000F069FB90B9B8F1000F2E
:100AA000B8D00F213046FFF719FF0E21024630461D
:100AB000FFF73CFF6C4A0F213046FFF737FF072056
:100AC00000E0092009B0BDE8F08F0023C9E75468B1
:100AD00002F10809B2E7090205918DF81D300321E2
:100AE00088E7D9F8004024F00048BBF1000F47D157
:100AF0002BB1019B002B5CD0B8F1000F59D0002C1A
:100B000001DA09F1040908F1010209EB8202BBE7ED
:100B1000BBF1000F1CD1C3B1D9F80430D9F80020C3
:100B2000991C4FEAD272CCD005F1580401330494D9
:100B300000F08E8009F10400FFF7B6FD04AB01461A
:100B4000284605F089FB002859D109F108029BE7E6
:100B50000D213046FFF7C2FE2C6A8442F5D1AB6A04
:100B60009945F2D14846FFF7D5FC0F2102463046A1
:100B7000FFF7DCFE2A4600213046FFF7D7FE9EE74E
:100B80000D213046FFF7AAFE2F6A8742B7D1AB6A24
:100B90009945B4D100240423C5E90B434B44C5F85F
:100BA00028806B63D9F80030A34258DB01230293FD
:100BB000A9E705F15803CDF80CB009F10407B346D5
:100BC00000241E460BE038460496FFF76DFD002218
:100BD000014604AB284605F03FFB0437F8B944450D
:100BE00004F10104EFD10D215846FFF777FE049B75
:100BF000C5F828900246C5E90823062062E70446A6
:100C00000D213046FFF76AFE049E2862022C04BFC5
:100C1000EE6205F12C06C5E90969062052E75E4639
:100C2000D9F80040DDF80CB069E74846FFF772FCE0
:100C300009F104030446AB63284605F065FB002870
:100C40003FF43FAF22460F213046FFF76FFE36E7F5
:100C500030460D21FFF742FE26462862DBE708F109
:100C6000010209EB82007EE7396400080023ABE64D
:100C70000123A9E60223A7E62DE9F0410646C4B008
:100C80001446052900F2D880DFE811F012002D008B
:100C9000D6006C0091000600836B002C40F0CC80E5
:100CA00053F8042B42648363002044B0BDE8F08114
:100CB000002B40F0C180856B1FFA84FC012006F1F7
:100CC000040E00FA03F111EA0C0F2A4604D052F880
:100CD000041B4EF8231015460133102BF1D1A70445
:100CE000E2D4B563E0E7012B4FEA1447A4B200F069
:100CF0008380052B40F0A08007EB0408B8F1200F9B
:100D000000F29A800F2F40F29980002CCCD002681C
:100D1000500700F11881019302AD284600F044F914
:100D20004FEA440CA7F11000B16B019B0CF1FF3CA2
:100D300005EBC0000CF1010C043801EB8C0251F8FA
:100D4000044B40F8044F9142F9D1012B00F0DE80B2
:100D50000F2FB16302D822A800F01AF9284600F03C
:100D60001FF9A1E7032B67D1A7B207EB1443102BA0
:100D70004FEA144460D80368190700F1BF8022AD20
:100D8000284600F037F97A00B06B05EBC404531E17
:100D900042B1011B625844F8042B013B5A1CF9D1A3
:100DA00000EBC700B063284600F002F97CE7002B97
:100DB00042D1102C40D80368DD0600F1978022ADA7
:100DC000284600F043F9B76B294600234FF0010C89
:100DD0000CFA03F22242384603F1010303D050F823
:100DE000042B0A600746042B01F10401F0D1B7631C
:100DF000284600F021F957E73A19102A1CD8102F7D
:100E00001AD00268D00708D5304622F0030240F815
:100E1000502B019300F0B8F8019B019322AD2846B6
:100E200000F0B2F8B26B019B002C58D10432B263CF
:100E3000284600F0A5F837E7022036E7B8F1100F92
:100E4000026865D9D40772D522F0010242F002028D
:100E500040F8502B019300F09FF83268019B12F08C
:100E6000040F66D122AD2846019300F095F802A840
:100E700000F09AF8C7F110014900B26B019BA8F18C
:100E8000100C4C1E05EBC7000134043802EB840142
:100E900052F8044B40F8044F8A42F9D1BCF1000FDC
:100EA0005AD0102F384638BF10204FEA4C0C10385B
:100EB00002AD0CF1FF3C05EBC0003BE7304622F0F1
:100EC000010242F0020240F8502B22AD019300F0E3
:100ED00063F8284600F060F8B26B24B3019B64000D
:100EE000013C05EBC7004FF0000CCDE723F01003E9
:100EF000036000F5EC7000F0A9F860E723F0080348
:100F0000036000F5AC7000F075F838E722AD8DE7AE
:100F1000D107D3D422AD2846019300F03DF8B26B3F
:100F2000019B002CDBD1284600F032F8BCE65407C8
:100F300098D5304622F0040240F8D82B019300F0F7
:100F400033F8019B8EE7304622F0040240F8D82B9C
:100F5000019300F029F8DFE6012B3FF467AF0F2F74
:100F6000B2633FF6A1AEDEE700F1340191E838004C
:100F70009C46A6464CF8045D90E8FF0FE54600BD90
:100F800090EC210B704700BF80EC210B704700BF35
:100F900090EC200B704700BF80EC200B704700BF27
:100FA000D0EC200B704700BFC0EC200B704700BF97
:100FB000F0EC0201F0EC0211F0EC0221F0EC023155
:100FC000F0EC0241F0EC0251F0EC0261F0EC027145
:100FD000F0EC0281F0EC0291F0EC02A1F0EC02B135
:100FE000F0EC02C1F0EC02D1F0EC02E1F0EC02F125
:100FF000704700BFE0EC0201E0EC0211E0EC0221DE
:10100000E0EC0231E0EC0241E0EC0251E0EC026184
:10101000E0EC0271E0EC0281E0EC0291E0EC02A174
:10102000E0EC02B1E0EC02C1E0EC02D1E0EC02E164
:10103000E0EC02F1704700BFB0FC0181B0FC01910F
:10104000B0FC01A1B0FC01B1704700BFA0FC018160
:10105000A0FC0191A0FC01A1A0FC01B1704700BF60
:10106000EC4600B52DE900502DE9FF1F4FF00003BD
:101070002DE90C0001A9FFF7ABFBDDF840E012B051
:10108000704700BFEC4600B52DE900502DE9FF1F69
:101090004FF000032DE90C0001A9FFF7D5FBDDF8A7
:1010A00040E012B0704700BFEC4600B52DE900509B
:1010B0002DE9FF1F4FF000032DE90C0001A9FFF7F8
:1010C000E3FBDDF840E012B0704700BFEC4600B52E
:1010D0002DE900502DE9FF1F4FF000032DE90C0012
:1010E00001ABFFF7A9FBDDF840E012B0704700BF8D
:1010F000EC4600B52DE900502DE9FF1F4FF000032D
:101100002DE90C0001AAFFF71DFCDDF840E012B04C
:10111000704700BF027A03467AB9427AA2B14168A9
:10112000013A10B44272086803220C1D1A720202BE
:101130005C60000E10BC1A6070470068013A1A72B9
:1011400002021A60000E7047B020704700B585B0EB
:1011500003AA0023009219460C22FFF7A5FB03986F
:1011600005B05DF804FB00BFF0E700BF2DE9F043D8
:10117000064685B00D464FF000082846FFF7CAFF27
:10118000B028044600F01C8107065BD500F0F00390
:10119000A02B1AD030D8802B00F08280902B27D142
:1011A00000F00D030D2B23D002AF002300F00F023F
:1011B000194600973046FFF777FB002300970D2272
:1011C00019463046FFF798FBD7E7C34303F0070300
:1011D0004FF47F621A41010702F47F6201D542F4A5
:1011E0008042002319463046FFF746FD0028C4D050
:1011F000092005B0BDE8F083B02B68D0C02B3DD1ED
:10120000C62800F0CA80C72800F0DF8000F0F8038D
:10121000C02B00F0EC80C82800F0F780C928E7D187
:101220002846FFF777FF020300F00F0002F4702258
:1012300001300243012105233046FFF71DFD002840
:101240009BD0D5E78300DBB21F1D0DF108090023F9
:101250001946CDF800900D223046FFF725FB029B82
:10126000CDF8009060064CBFDF1BFF1800230D2255
:10127000194630460297FFF73FFB7EE700F0F80380
:10128000D02BB5D100F007020132052342F4002231
:1012900001213046FFF7F0FC00283FF46EAFA7E7CE
:1012A0002846FFF737FF24022043B0F5004F9FD0B8
:1012B00004010023A2B219463046FFF7DDFC0028E6
:1012C00096D114F4004F18BF4FF0010855E7A0F174
:1012D000B103042B00F2B580DFE803F05529160CAA
:1012E000030003AA0023009219460D223046FFF79F
:1012F000DBFA42E700231A4605213046FFF7BCFC23
:1013000000283FF43AAF73E72846FFF703FF0203D4
:1013100000F00F00013002F470220123024319464D
:101320003046FFF7A9FC00283FF427AF60E7002311
:101330000DF108090D221946CDF800903046FFF74F
:10134000B3FA2846FFF7E6FE0206029C4FF00207BA
:101350000BD500F07F00B840044428460294FFF704
:10136000D9FE030607F10707F3D4B840002304F5BC
:1013700001740444CDF800900D22194630460294C1
:10138000FFF7BAFAF9E62846FFF7C4FE431EDBB2C0
:101390000E2B02467FF625AF2AE72846FFF7BAFE56
:1013A000020300F00F00013002F470220323024315
:1013B00019463046FFF760FC00283FF4DEAE17E721
:1013C000B8F1000F2DD0002013E72846FFF7A2FE4A
:1013D000431EDBB20E2B02463FF60AAF0023042168
:1013E0003046FFF749FC00283FF4C7AE00E700F0A5
:1013F0000F020132032342F4202219463046FFF740
:101400003BFC00283FF4B9AEF2E62846FFF782FE27
:1014100000F0F00200F00F031032013343EA023211
:1014200008E702AC4346414600940E223046FFF7DF
:101430003BFA0F220094434641463046FFF75CFAE0
:10144000C1E700F0FC03B42B3FF4D2AE00F007027A
:101450000132012342F4002219463046FFF70CFC0A
:1014600000283FF48AAEC3E610B5C26C536884B05E
:101470004FF0030C08321C0208461B0E01A9019410
:1014800002928DF80CC08DF80D30FFF76FFE04B09E
:1014900010BD00BF08B5FFF767FE806C08BD00BF38
:1014A00008B5FFF761FEC06CC37900EB830008301C
:1014B00008BD00BF704700BF10B4044C03460A4685
:1014C000206810BC194600F0FDBB00BF00000020E2
:1014D00000B5054B83B0014601AA186800F0F2FB85
:1014E00003B05DF804FB00BF00000020830730B5A7
:1014F00047D0541E002A3ED0CAB2034601E0013C48
:1015000039D303F8012B9D07F9D1032C2CD9CDB287
:1015100005EB05250F2C05EB054535D9A4F1100287
:1015200022F00F0C03F1100EE6444FEA121C1A468B
:10153000C2E90055C2E9025510327245F8D10CF1EA
:10154000010214F00C0F03EB021204F00F0C13D085
:10155000ACF1040323F003030433134442F8045BA7
:101560009342FBD10CF003042CB1C9B21C4403F824
:10157000011BA342FBD130BD64461346002CF4D1BD
:10158000F9E703461446C0E71A46A446E0E700BF61
:1015900011F0FF01034600F0030239D08ABB026854
:1015A00010B501EB012E0EEB0E4E8EEA0204A2F1F5
:1015B000013323EA0203A4F1013222EA04021343B5
:1015C00013F0803F0FD150F8044F84EA0E0CA4F1C1
:1015D0000133ACF1013223EA040322EA0C02134383
:1015E00013F0803FEFD0037823B936E010F8013FC5
:1015F000002B32D09942F9D110BD8A4228D09A07E7
:1016000029D01A7818460133002AF6D110467047BF
:10161000CAB90268A2F1013323EA020313F0803F42
:1016200008D150F8042FA2F1013323EA020313F08A
:10163000803FF6D003785BB110F8013F002BFBD15F
:101640007047990705D0184613F8012B002AF8D1E6
:1016500070471846DDE71846A1E7184610BD00BFE1
:1016600002780B78012A28BF9A4240F0D8806DE9B1
:10167000044540EA0104CDE902676FF0000C4FEA2F
:1016800044721AB380EA010414F0070F6BD100F022
:10169000070420F0070004F0030521F007014FEADA
:1016A000C505F0E8042314F0040FF1E804670CFA10
:1016B00005F462EA040266EA04060BD063EA040356
:1016C000624667EA0407664604E000BFF0E80423C8
:1016D000F1E8046782FA4CF582EA0604A4FA8CF475
:1016E0006CBB83FA4CF583EA0705A5FA8CF595B92E
:1016F00050E9022351E9026782FA4CF582EA0604B6
:10170000A4FA8CF483FA4CF583EA0705A5FA8CF564
:101710002543DBD09CB92DBAB5FA85F424F0070433
:1017200027FA04F1DDE9026723FA04F303F0FF006E
:1017300001F0FF01FDE80445A0EB0100704724BA69
:10174000B4FA84F424F0070426FA04F1DDE9026710
:1017500022FA04F202F0FF0001F0FF01FDE8044567
:10176000A0EB0100704714F0030F3CD110F003040C
:1017700028D150F8082B51F8083B82FA4CF582EA40
:101780000305A5FA8CF55DB950F8042C51F8043C1A
:1017900082FA4CF582EA0305A5FA8CF5002DE8D013
:1017A0002DBAB5FA85F424F0070423FA04F122FADD
:1017B00004F202F0FF0001F0FF01FDE80445A0EB98
:1017C000010070474FEAC40420F0030050F8082BD2
:1017D00021F0030151F8083B0CFA04F462EA040218
:1017E00063EA0403C9E710F003041DD0A1EB040170
:1017F00020F00300E40750F8042B06D012D28B78B7
:101800005FFAA2F4E41A06D12BB1CB785FFAB2F4F6
:10181000E41A00D133B920465DF8104B7047A2EBB3
:101820000300704701F1040150F8042BCC0721F0AC
:10183000030151F8043B48D824D222F07F4482FAB5
:101840004CF594EA1325A5FA8CF50AD165B951F83F
:10185000043B84EA0204B4EB036F0ED150F8042B6E
:10186000EBE74FEA132355E035F07F454DD108787B
:10187000FDE80445C0F1000070474FEA126203F032
:10188000FF0347E002EA1C4482FA4CF594EA134550
:10189000A5FA8CF50AD165B951F8043B84EA020433
:1018A000B4EB034F0CD150F8042BEBE74FEA134392
:1018B00030E015EA1C4528D10B884FEA124229E096
:1018C0004FEA124203EA1C4324E002F0FF0482FACA
:1018D0004CF594EA1365A5FA8CF50AD165B951F86F
:1018E000043B84EA0204B4EB032F09D150F8042B23
:1018F000EBE74FEA13630DE015F0FF0F05D10B681E
:101900004FEA122223F07F4304E04FF00000FDE88D
:101910000445704712BA1BBA82FA4CF482EA0304F7
:10192000A4FA8CF5B5FA85F402FA04F203FA04F38A
:101930004FEA1260FDE80445A0EB1360704700BF5A
:101940002DE9F047074649480E46354616F801EBA3
:1019500010F80EC01CF0080CF7D1BEF12D0F5AD0B4
:10196000BEF12B0F03BF96F800E06446AE1C644640
:101970004BB9BEF1300F5CD00A23DFF8F4804FF092
:10198000050A99460AE0102B4AD04FF0FF38B8FB01
:10199000F3F803FB08FA6FEA0A0A9946002528467D
:1019A00005E02CD009FB00C0012516F801EBAEF1D3
:1019B000300CBCF1090F06D9AEF1410CBCF1190F86
:1019C0000BD8AEF1370C634510DDB5F1FF3FECD01D
:1019D0004045E6D94FF0FF35E7E7AEF1610CBCF1C9
:1019E000190F03D8AEF1570C6345EEDC6B1C0BD01E
:1019F00004B140420AB165B91160BDE8F087D44531
:101A0000D0DD4FF0FF35D0E722233B602846002A87
:101A1000F3D0711EF0E796F800E00124AE1CA7E7B2
:101A2000BEF1300F11D04FF00F0A6FF07048994699
:101A3000B4E7337803F0DF03582B0BD008234FF0C3
:101A4000070A6FF060489946A8E7307800F0DF0099
:101A50005828E8D14FF0100996F801E04FF00F0A2E
:101A600002366FF070484B4698E700BF45650008A6
:101A70009999991964E700BF10B4044C8446134641
:101A8000206810BC0A4661465AE700BF00000020EB
:101A900010B4044C84461346206810BC0A466146C4
:101AA0004EE700BF00000020014B1868704700BFE0
:101AB0000000002008B5062000F0EEF9012001F03A
:101AC000EDF800BF032A30B415D941EA0004A40799
:101AD00084460B4604D0541E0FE0043A032A08D96A
:101AE0001946604653F8044B5CF8045BA542F4D0F9
:101AF000F1E760461946541E7AB1431E01390219B6
:101B000001E09A4209D013F8010F11F801CF6045A6
:101B1000F7D0A0EB0C0030BC7047002030BC704701
:101B2000024B0146186800F0D1BA00BF0000002047
:101B3000024B0146186800F0D3BD00BF0000002032
:101B4000844641EA000313F003036DD1403A41D3C8
:101B500051F8043B40F8043B51F8043B40F8043B87
:101B600051F8043B40F8043B51F8043B40F8043B77
:101B700051F8043B40F8043B51F8043B40F8043B67
:101B800051F8043B40F8043B51F8043B40F8043B57
:101B900051F8043B40F8043B51F8043B40F8043B47
:101BA00051F8043B40F8043B51F8043B40F8043B37
:101BB00051F8043B40F8043B51F8043B40F8043B27
:101BC00051F8043B40F8043B51F8043B40F8043B17
:101BD000403ABDD2303211D351F8043B40F8043BB7
:101BE00051F8043B40F8043B51F8043B40F8043BF7
:101BF00051F8043B40F8043B103AEDD20C3205D3C7
:101C000051F8043B40F8043B043AF9D2043208D0BE
:101C1000D2071CBF11F8013B00F8013B01D30B8830
:101C200003806046704700BF082A13D38B078DD00E
:101C300010F003038AD0C3F10403D21ADB071CBFE0
:101C400011F8013B00F8013B80D331F8023B20F84A
:101C5000023B7BE7043AD9D3013A11F8013B00F883
:101C6000013BF9D20B7803704B7843708B7883700B
:101C70006046704770B50F4B0F4DAB42A3EB0506A6
:101C800007D0B610002455F8043B01349847A6420B
:101C9000F9D804F04BFC094D094B5E1BAB424FEAEF
:101CA000A60606D0002455F8043B01349847A64206
:101CB000F9D870BD6C6A00086C6A00086C6A00088C
:101CC000786A00082DE9F047DFF8749007460E4661
:101CD000904600F099F9D9F800504DB133781C4680
:101CE0006BB1344602E014F8013F3BB13D2BFAD111
:101CF000384600F08BF90020BDE8F087A41B286867
:101D00000028F5D02246314600F09AF928B9286813
:101D1000035D3D2B00EB040A04D055F8040F0028A6
:101D2000F0D1E5E7D9F80030EB1A9B103846C8F837
:101D3000003000F06BF90AF10100BDE8F08700BF48
:101D40003805002000B583B001AAFFF7BBFF03B040
:101D50005DF804FB002301461A46184600F0CABD90
:101D600038B5D0F818410CB1002038BD80210546A7
:101D700000F0ACF90246C5F8180130B1031F7C32FF
:101D800043F8044F9342FBD1EEE74FF0FF3038BDEC
:101D900030B51F2983B0054609D8D0F818310C4654
:101DA00053B153F8240043F8242003B030BD162368
:101DB00003604FF0FF30F8E78021019200F086F9D0
:101DC000019AC5F8180103460028F2D0011F00F15E
:101DD0007C05002041F8040FA942FBD1E1E700BFD8
:101DE0001F2938B505461FD8D0F818210C466AB10E
:101DF00052F8213053B1012B06D0591C10D00021CC
:101E000042F8241020469847002038BD284600F0AC
:101E100015F9224601462846BDE8384000F0F8B8DA
:101E200016230360012038BD162303604FF0FF30F6
:101E300038BD00BF1F292CD838B5D0F818310C4652
:101E40000546A3B153F8242003EB84034AB1511C87
:101E50000BD0012A07D0002520461D609047284658
:101E600038BD012038BD032038BD022038BD802197
:101E700000F02CF90346C5F8180138B1021F002103
:101E80007C3042F8041F8242FBD1DBE74FF0FF3089
:101E900038BD4FF0FF30704738B5144B1F281D6810
:101EA0001ED8D5F81821044662B152F820304BB143
:101EB000012B05D0591C0FD0002142F82010984763
:101EC000002038BD284600F0B9F8224601462846D1
:101ED000BDE8384000F09CB816232B60012038BDC7
:101EE00016232B604FF0FF3038BD00BF00000020EC
:101EF000124B1F2870B51E6809D8D6F81831044651
:101F00000D464BB153F8240043F8245070BD1623FE
:101F100033604FF0FF3070BD8021304600F0D6F8BE
:101F20000346C6F818010028F3D0021F00217C30B8
:101F300042F8041F8242FBD1E4E700BF000000200A
:101F400038B50C4B1D68D5F818410CB1002038BDD0
:101F50008021284600F0BAF8C5F8180138B1031FEF
:101F600000F17C0243F8044F9342FBD1EEE74FF0BF
:101F7000FF3038BD0000002038B5184B1F281D6801
:101F800028D80446D5F81801A0B150F8243000EB49
:101F900084004BB15A1C0BD0012B07D000250560E3
:101FA00020469847284638BD012038BD032038BD5B
:101FB000022038BD8021284600F088F8C5F81801B5
:101FC00040B1031F00F17C01002243F8042F8B4233
:101FD000FBD1DAE74FF0FF3038BD00BF0000002032
:101FE00038B5074D074C2C1BA41005D0013C55F803
:101FF000043D9847002CF9D1BDE8384004F09CBA64
:102000007C6A0008786A0008704700BF704700BF0C
:1020100070B50C46084D03460026204611461C4666
:102020002E6000F033FE431C00D070BD2B68002BE7
:10203000FBD0236070BD00BFE006002000F024BE8E
:10204000002A3ED030B584460446084380070B463C
:102050002ED1032A07D82BE0043A25D01EF0803F6A
:1020600022D1032A22D92068194653F8045BA0F133
:10207000013EA842A4462EEA000E04F10404EBD06F
:102080009CF800000C7884421DD1E64668B11EF829
:10209000010F11F8014FA2EB0E03A04203F1FF3331
:1020A00011D11CEB0303F1D1002030BDA446194629
:1020B0009CF800000C78A04205D1012AF4D0E64635
:1020C000E4E710467047001B30BD00BF2DE9F04F1C
:1020D00001F10B05162D83B0064623D8102900F216
:1020E000AF8000F039FC102518230220C14F3B447B
:1020F000A3F108025C68944200F025816368E268FD
:10210000A16823F00303CA602344304691605A68F3
:1021100042F001025A6000F021FC0834204603B06E
:10212000BDE8F08F35F0070500F18A80A94200F282
:10213000878000F011FCB5F5FC7FC0F06D816B0A63
:1021400000F08280042B00F22481AB0903F13900F6
:1021500003F1380EC300A74F3B44A3F1080C5C68A1
:10216000A44507D10DE0002AE16880F2E6808C45A5
:1021700007D00C46636823F003035A1B0F2AF2DDD5
:102180007046DFF874823C69444500F0C3806368A0
:1021900023F0030CACEB05030F2B00F34181002B64
:1021A000C7E9048880F22C81BCF5007FD7F804E0F1
:1021B00080F0CF804FEADC0101314FEA5C1C012343
:1021C00003FA0CF357F83120A2604EEA030E07EB36
:1021D000C103083BE360C7F804E047F83140D4602E
:1021E00083104FF0010C0CFA03FCF44532D81CEAC2
:1021F0000E0F08D120F003004FEA4C0C1CEA0E0F22
:1022000000F10400F8D007EBC00AD6468146DEF89C
:102210000C300BE0596821F003014A1B0F2A1C46C1
:10222000DB6800F3C280002A80F2D6809E45F1D19F
:1022300009F1010919F0030F0EF1080EE7D118E1B9
:102240000C233360002469E74FF4007340204FF003
:102250003F0E80E7BC68636823F00309A94503D3F8
:10226000A9EB05030F2B58DCDFF890B1DBF8002059
:1022700004EB09031032082002EB0508009300F07C
:102280002BFBD7F808140131024605D008F1FF38BE
:102290008044414201EA080841463046009200F07D
:1022A0005FFBB0F1FF3F009A824600F0D48004EB60
:1022B0000903834200F2CD80DBF804104144CBF8DF
:1022C0000410084602F1FF3C40F0F5801AEA0C0FBA
:1022D00040F0F180D7F808A0C84448F00100CAF8DF
:1022E0000400DBF82C208A42DBF8302038BFCBF822
:1022F0002C108A4238BFCBF83010544620F0030827
:10230000A845A8EB050301D30F2B06DC304600F0EF
:1023100025FB97E7D7F804E062E7621943F0010371
:1023200045F0010565603046BA60536000F016FB69
:102330000834204603B0BDE8F08FA2682344D16082
:1023400030468A60E3E6DC68A3427FF4D7AE023011
:1023500017E7BCF5206F4FEA5C2273D3142A00F212
:102360000A8102F15C03DB005B32F918FB58083983
:10237000994203D1E6E09B68994204D05A6822F062
:1023800003026245F7D8D968C4E902318C60DC6089
:1023900026E7142B62D9542B00F2F6802B0B03F1A5
:1023A0006F0003F16E0EC300D5E6D4F808C03046C6
:1023B000661945F001056560CCF80C30C3F808C01B
:1023C00042F00103C7E90466C6E9028873606250FF
:1023D00000F0C4FA0834A1E6214430464A6842F0CD
:1023E00001024A6054F8082FD3609A6000F0B6FAF0
:1023F00094E600BF2801002030010020A80600203C
:10240000A4443046DCF8043043F00103CCF8043037
:1024100000F0A4FA083481E6E80805F1080365E64F
:10242000621943F0010145F0010565603046C7E9D6
:102430000422C2E90288516044F80C3000F08EFAA0
:1024400008346BE64FEA9C1202F13903DB003832A4
:102450008BE7BC4228D0BC6860684FE703F15C00A2
:1024600003F15B0EC30076E65AF80839534540F095
:10247000D88010F0030F00F1FF30F5D17B6823EA1C
:102480000C037B604FEA4C0C9C453FF6E3AEBCF17D
:10249000000F04D1DEE64FEA4C0C09F104091CEAF6
:1024A000030FF8D04846AEE6DBF804004044CBF812
:1024B000040002F1FF3CD7F8081401316ED004EBA0
:1024C0000903AAEB03031844CBF804001AF007032E
:1024D000009341D0C3F108018A44D0440A4408EA79
:1024E0000C01521A02EA0C013046019100F038FA50
:1024F000421C6FD00199A0EB0A0000EB0108DBF849
:102500000420C7F808A048F001001144BC42CAF8F2
:102510000400CBF804103FF4E4AEB9F10F0F40D93A
:102520006268A9F10C0020F0070002F001020243EA
:102530006260052322180F28C2E9013352D8DAF865
:102540000400CEE692104FF0010C0CFA02F24EEAB3
:10255000020EC7F804E017E70AEB080101EA0C01D4
:10256000521A02EA0C013046019100F0F9F9431CBD
:10257000C0D10099C3E7542A17D84FEA1C3202F1A0
:102580006F03DB006E32F0E6B3F5AA7F17D8EB0BD2
:1025900003F1780003F1770EC300DCE5C7F808A467
:1025A00094E70123CAF80430B0E6B2F5AA7F23D835
:1025B0004FEADC3202F17803DB007732D5E640F2F5
:1025C0005452934223D8AB0C03F17D0003F17C0EEF
:1025D000C300C0E5009BA3F108029044A8EB0A08E1
:1025E00000218CE704F10801304600F079F8DBF8AF
:1025F0000410D7F808A0A2E740F254539A420CD82E
:102600004FEA9C4202F17D03DB007C32ADE64FF4E1
:102610007E737F204FF07E0E9DE54FF47E737E2209
:10262000A3E67B682EE700BF2DE9F84306460820A5
:10263000894600F051F9DFF89C800546304600F0ED
:102640008BF9D8F808305F6827F00307A7F1110469
:10265000A4EB09042C44B4FBF5F4013C05FB04F4A1
:10266000A54208DC0021304600F07AF9D8F808309D
:102670003B44984205D0304600F070F90020BDE898
:10268000F8836142304600F06BF901300FD0124AF6
:10269000D8F808303F1B47F001075F6013683046E9
:1026A0001B1B136000F05AF90120BDE8F8830021DC
:1026B000304600F055F9D8F80820831A0F2BDADDE0
:1026C00043F001035360054B03491B68C01A0860BF
:1026D000D1E700BF28010020AC0600203005002013
:1026E00000297CD0F8B50C46064600F035F954F8C0
:1026F000043C764FA4F1080523F001016818D7F8CF
:1027000008C04268844522F0030200F08380DB07A2
:10271000426000EB020C33D454F8084CDCF804306F
:102720002D1B2144AC6807F1080C644503F001033C
:1027300064D0D5F80CE0C4F80CE0CEF80840002BCB
:1027400000F0818041F001036B600160B1F5007F12
:1027500022D27868CB080122490901338A4002431A
:1027600057F833107A6007EBC302083AC5E9021242
:1027700047F83350CD603046BDE8F84000F0EEB881
:10278000DCF80430DB072BD541F00103B1F5007F05
:1027900044F8043C0160DCD3B1F5206F4FEA5123CB
:1027A00053D28B0903F1390003F13802C300F81842
:1027B000FB580838984203D161E09B68984204D0E6
:1027C0005A6822F003028A42F7D8D868C5E9023075
:1027D0008560DD603046BDE8F84000F0BFB8704766
:1027E000114407F1080C836863453FD0C268DA6082
:1027F000936041F001036B606950A7E7002B5FD144
:102800000A44D0E90213CB60996042F001036B6087
:10281000AA50B0E70A44D90707D454F8083CED1A87
:102820001A44D5E90213CB60996042F001036B6052
:10283000274BBD601B6893429DD8264B30461968D4
:10284000FFF7F2FE97E71144CDE7142B08D9542B7C
:102850001DD80B0B03F16F0003F16E02C300A6E756
:1028600003F15C0003F15B02C300A0E741F0010348
:10287000C7E90455C5E902CC6B6069507BE779680C
:102880009210012404FA02F20A437A609EE7B3F53B
:10289000AA7F06D8CB0B03F1780003F17702C300BF
:1028A00085E740F25452934206D88B0C03F17D0029
:1028B00003F17C02C3007AE74FF47E737E2276E751
:1028C00041F001036B60016055E700BF2801002063
:1028D00034050020A8060020082802D14FF48050BB
:1028E000704708B5FFF7E0F8162303604FF0FF309C
:1028F00008BD00BF70B4164D2C681CB365681F2D51
:1029000023DC38B9AB1C0135656044F82310002086
:1029100070BC704704EB850C0228CCF88820D4F8F2
:1029200088614FF0010202FA05F246EA0206C4F895
:102930008861CCF80831E5D1D4F88C311343C4F860
:102940008C31DFE7034C2C60D8E74FF0FF30DFE736
:10295000DC060020E4060020704700BF704700BF7F
:1029600038B5074D0022044608462A6000F09CF95D
:10297000431C00D038BD2B68002BFBD0236038BD32
:10298000E006002003680BB901230360704700BF15
:1029900008B500F057F8022201460C4802F06CFB23
:1029A00000F050F802220146084802F081FB00F0D6
:1029B00049F80378312B00D008BD4FF47A7001F04C
:1029C0005DF800F03FF80023037008BD780C00208C
:1029D00086B01B4B00220192196B41F01001196364
:1029E000196B01F01001019101990292196B41F0EC
:1029F00080011963196B01F0800102910299039221
:102A0000196B41F001011963196B01F00101039188
:102A100003990492196B41F004011963196B01F0D9
:102A200004010491049905921A6B42F002021A63A0
:102A30001B6B03F002030593059B06B0704700BFB4
:102A400000380240004870477408002030B5002369
:102A500095B0CDE90B33CDE90933CDE90333CDE9A9
:102A60000533214901930D930793086C1F4A40F0E9
:102A700080500864096C01F0805101910199029322
:102A8000116841F48041116012680F9302F4804292
:102A9000102301210292CDE90B130822A823CDE9CE
:102AA00010230224029808940222042308A8CDE9E6
:102AB00012230E9401F0C2FA08B172B6FEE70F229B
:102AC0000346CDE903244FF4A0554FF4805203A8E8
:102AD0000521CDE90535079201F0C6FC08B172B6B3
:102AE000FEE715B030BD00BF003802400070004066
:102AF00008B500F097FFFFF7A9FFFFF769FF00F0A7
:102B000073FD00F0F5F800F025F900F057F900F03A
:102B100089F900F087FE00F0E3F900F0B3FA00F065
:102B2000FBFD00F0D5FE00F0B1F9FFF78BFF0222AC
:102B300001460948084C02F0BBFAFFF783FF022266
:102B40000146054802F098FAFFF77CFF0222014691
:102B5000204602F0ADFAF7E7780C002072B6FEE7E7
:102B600070B5264E3568002D46D1254C0023002235
:102B7000C4E90023C4E90223C4E90423C4E9062309
:102B8000C4E90823C4E90A23C4E90C23C4E90E23D9
:102B9000C4E91023C4E91223C4E91423C4E91623A9
:102BA0002946202204F16000FEF7A0FC20222946DD
:102BB00004F18000FEF79AFC2022294604F1A000CF
:102BC000FEF794FC2022294604F1C000FEF78EFC9B
:102BD00000230022C4E93855C4E93A55C4E93C55FC
:102BE000C4E93E55C4E94055C4E94255C4E94455D9
:102BF000C4E9462301233360014870BD98090020D1
:102C00007808002082B00C4B002100915A6C42F4ED
:102C100080425A645A6C02F480420092009A0191F8
:102C20001A6C42F080521A641B6C03F080530193BB
:102C3000019B02B0704700BF00380240FEE700BFB2
:102C4000FEE700BFFEE700BFFEE700BFFEE700BFF4
:102C5000704700BF704700BF704700BF00F0FCBE68
:102C6000014802F0B9BA00BF780C002008B5FFF7A0
:102C700077FF00F58C70FFF785FEBDE8084001483E
:102C800002F05EB8C80A00200120704708B5FEF7C0
:102C90000BFF162303604FF0FF3008BD08B5FEF7A9
:102CA00003FF16230360FEE70C490D4A0B6810B5BD
:102CB0000C4C121B2BB11844904207D808601846E0
:102CC00010BD094B0B6018449042F7D9FEF7ECFE9B
:102CD0000C2303604FF0FF33184610BDA0090020FD
:102CE0000000022000040000E80C0020704700BF34
:102CF00010B58CB02022002104A8FEF7F7FB144881
:102D00004FF0FF31C1600321002301224FF08044C6
:102D1000039103A9C0E90133046000930361836157
:102D200001930592099201F08FFD50B90022002312
:102D300007486946CDE9002302F09EF820B90CB09F
:102D400010BDFFF70BFFF1E7FFF708FF0CB010BD58
:102D5000E80B002010B58CB02022002104A8FEF75B
:102D6000C5FB1448144C04604FF6FF71C160032189
:102D700000230122039103A9C0E9013300930361F9
:102D8000836101930592099201F05EFD50B9002222
:102D9000002308486946CDE9002302F06DF820B908
:102DA0000CB010BDFFF7DAFEF1E7FFF7D7FE0CB06D
:102DB00010BD00BFA00B00200004004010B58CB077
:102DC0002022002104A8FEF791FB1448144C046053
:102DD0004FF6FF71C160032100230122039103A973
:102DE000C0E9013300930361836101930592099265
:102DF00001F02AFD50B90022002308486946CDE9B8
:102E0000002302F039F820B90CB010BDFFF7A6FE80
:102E1000F1E7FFF7A3FE0CB010BD00BF580B002078
:102E20000008004010B58CB02022002104A8FEF755
:102E30005DFB1448144C04604FF0FF31C160032166
:102E400000230122039103A9C0E901330093036128
:102E5000836101930592099201F0F6FC50B90022BA
:102E6000002308486946CDE9002302F005F820B99F
:102E70000CB010BDFFF772FEF1E7FFF76FFE0CB06C
:102E800010BD00BF100B0020000C004000B5124820
:102E9000124942F2CF02002383B0C0E9001263223C
:102EA000CDE90033C0E90232836101F09BFB58B9E0
:102EB0000022002308486946CDE9002301F0DCFF29
:102EC00028B903B05DF804FBFFF748FEF0E7FFF711
:102ED00045FE03B05DF804FBC80A00200014004062
:102EE000D0B55E495E4C94B0A7220023C4E900121D
:102EF00020466322CDE90C33CDE90E33CDE9103302
:102F0000C4E9023212932361A36101F06BFB68BB39
:102F1000534801F001FC30BB0022602600275048D6
:102F20000E920CA9CDE90C67109201F04FFDB8B9D3
:102F300022684C4900238A42CDE90633CDE90833A3
:102F40000A932DD048498A4242D048498A4257D0F4
:102F500042498A420DD046498A4268D014B0D0BD59
:102F6000FFF7FCFDE4E7FFF7F9FDD5E7FFF7F6FD16
:102F7000CEE7404A0493136B3F4843F002031363C8
:102F8000136B03F0020304934FF4807602270323AC
:102F900006A9CDE90667049A0A9300F051FEDDE721
:102FA000344A0193136B354843F010031363136BDA
:102FB00003F0100301934FF4D4460123022706A91E
:102FC000CDE90667019A0A9300F03AFE14B0D0BD2D
:102FD000284A0293136B2A4843F004031363136BCC
:102FE00003F0040302934FF440760323022706A95B
:102FF000CDE90667029A0A9300F022FE14B0D0BD14
:103000001C4A0393136B1D4843F010031363136BA7
:1030100003F01003039360260323022706A9CDE9DA
:103020000667039A0A9300F00BFE14B0D0BD114A54
:103030000593136B104843F002031363136B03F003
:10304000020305934FF400760227032306A9CDE976
:103050000667059A0A9300F0F3FD7FE700440140FC
:10306000EC09002000000140000401400040014044
:1030700000480140003802400004024000100240B5
:1030800000080240D0B55E495E4C94B0A7220023F0
:10309000C4E9001220466322CDE90C33CDE90E339A
:1030A000CDE91033C4E9023212932361A36101F028
:1030B00099FA68BB534801F02FFB30BB0022602611
:1030C000002750480E920CA9CDE90C67109201F030
:1030D0007DFCB8B922684C4900238A42CDE9063309
:1030E000CDE908330A932DD048498A4242D0484955
:1030F0008A4257D047498A420DD041498A4268D016
:1031000014B0D0BDFFF72AFDE4E7FFF727FDD5E7B0
:10311000FFF724FDCEE7404A0493136B3F4843F08A
:1031200002031363136B03F0020304934FF48076DE
:103130000227032306A9CDE90667049A0A9300F043
:103140007FFDDDE7344A0193136B354843F01003EC
:103150001363136B03F0100301934FF4D446012360
:10316000022706A9CDE90667019A0A9300F068FDD7
:1031700014B0D0BD284A0293136B2A4843F00403CD
:103180001363136B03F0040302934FF4407603239D
:10319000022706A9CDE90667029A0A9300F050FDBE
:1031A00014B0D0BD1C4A0393136B1D4843F01003A9
:1031B0001363136B03F010030393602603230227AA
:1031C00006A9CDE90667039A0A9300F039FD14B009
:1031D000D0BD114A0593136B104843F002031363EB
:1031E000136B03F0020305934FF4007602270323C9
:1031F00006A9CDE90667059A0A9300F021FD7FE74D
:1032000000480140A40900200000014000040140E2
:1032100000400140004401400038024000040240E8
:10322000001002400008024000B5384A036893428B
:1032300087B01BD0364A934243D0364A934224D0BB
:10324000354A934253D0354A93422DD0344A934263
:1032500018D1344B002205925A6C42F480225A64F1
:103260005B6C03F480230593059B0BE02D4B002240
:1032700000925A6C42F001025A645B6C03F0010345
:103280000093009B07B05DF804FB264B00220292DE
:103290005A6C42F002025A645B6C03F00203029320
:1032A000029B07B05DF804FB1E4B002204925A6C8F
:1032B00042F400325A645B6C03F400330493049BC1
:1032C000E0E7184B00220192196C41F020011964CB
:1032D0001B6C03F02003019302213720019B00F0B7
:1032E000F1FB372007B05DF804EB00F027BC0D4B75
:1032F000002203925A6C42F480325A645B6C03F4ED
:1033000080330393039B07B05DF804FB000001408A
:10331000001400400004014000400140004401400E
:10332000004801400038024030B5036891B00024E5
:10333000B3F1804FCDE90A44CDE90C440E942AD074
:10334000524A93425FD0524A93427DD0514A9342AF
:1033500001D011B030BD504B08941A6C4F4842F068
:1033600008021A641A6C02F008020892089A09947A
:103370001A6B42F001021A631B6B03F001030993FD
:103380000324022502230AA9CDE90A45099A0E93CE
:1033900000F056FCDDE703F50E3301941A6C3F484C
:1033A00042F001021A641A6C02F001020192019AC1
:1033B00002941A6B42F001021A631A6B02F00102C6
:1033C0000292029A03941A6B42F002021A631B6B78
:1033D00003F0020303934FF4004201250AA90223DC
:1033E000CDE90A230E95039B00F02AFC0822022354
:1033F0002B480E950AA9CDE90A23CDE90C4400F02B
:103400001FFC11B030BD244B04941A6C244842F0C8
:1034100002021A641A6C02F002020492049A0594E1
:103420001A6B42F002021A631B6B03F0020305934E
:103430000AA9022330240225CDE90A45059A0E93F4
:1034400000F0FEFB11B030BD134B06941A6C14480B
:1034500042F004021A641A6C02F004020692069A00
:1034600007941A6B42F002021A631B6B03F002030B
:1034700007930AA90223C0240225CDE90A45079A29
:103480000E9300F0DDFB11B030BD00BF0004004022
:1034900000080040000C00400038024000000240DC
:1034A0000004024030B5026846498DB000238A42CC
:1034B000CDE90633CDE908330A9324D042498A4244
:1034C00039D042498A424ED041498A4204D04149CA
:1034D0008A425FD00DB030BD3F4A0493136B3F4822
:1034E00043F002031363136B03F0020304934FF4DE
:1034F00080740225032306A9CDE90645049A0A93A0
:1035000000F09EFBE6E7344A0193136B344843F026
:1035100010031363136B03F0100301934FF4D444AF
:103520000123022506A9CDE90645019A0A9300F078
:1035300087FB0DB030BD284A0293136B294843F036
:1035400004031363136B03F0040302934FF44074FA
:103550000323022506A9CDE90645029A0A9300F045
:103560006FFB0DB030BD1C4A0393136B1C4843F036
:1035700010031363136B03F01003039360240323FE
:10358000022506A9CDE90645039A0A9300F058FBE7
:103590000DB030BD104A0593136B104843F0020381
:1035A0001363136B03F0020305934FF400740225B9
:1035B000032306A9CDE90645059A0A9300F040FBCE
:1035C00088E700BF000001400004014000400140C6
:1035D000004401400048014000380240000402401D
:1035E000001002400008024030B5002497B02022AD
:1035F00021460EA8CDE90344CDE90744CDE90944AD
:10360000CDE90B4402940094069405940194FDF7CF
:103610006DFF3F483F4A8460A723C0E9002363232E
:10362000C0E904448461C36000F0DCFF00284FD18E
:103630004FF480533648029302A901F0CDFA0028D6
:1036400062D1334801F068F800285AD100220023E3
:103650002F486946CDE9002301F00EFC00284DD12A
:10366000002000210022CDE90A01602328480693AA
:1036700006A9CDE9072209920C9201F0A7F90028CA
:1036800039D12348042206A901F0A0F980BB2048C3
:10369000082206A901F09AF938BB1D480C2206A998
:1036A00001F094F9F0B9002300244FF400551848B4
:1036B00015930EA9CDE91245CDE90E33CDE91033AE
:1036C00001F01AFC38B91248FFF7ECFE17B030BD14
:1036D000FFF744FAACE7FFF741FA0D48FFF7E2FEC7
:1036E00017B030BDFFF73AFADDE7FFF737FAD4E756
:1036F000FFF734FACBE7FFF731FAC2E7FFF72EFA0C
:10370000AEE7FFF72BFAA1E7FFF728FA99E700BF2A
:10371000300C00200000014030B5002497B020227A
:1037200021460EA8CDE90344CDE90744CDE909447B
:10373000CDE90B4402940094069405940194FDF79E
:10374000D5FE3648364A84604723C0E9002344F654
:103750001F63C0E904448461C36000F043FF002894
:1037600043D14FF480532D48029302A901F034FA5B
:10377000002850D1294800F0CFFF002848D100226E
:10378000002326486946CDE9002301F075FB002897
:103790003BD16022002000210023CDE90A010692DE
:1037A0001E480993082206A9CDE907330C9301F0BE
:1037B0000DF938BB19480C2206A901F007F9F0B938
:1037C000002300244FF40055144815930EA9CDE9A9
:1037D0001245CDE90E33CDE9103301F08DFB38B938
:1037E0000E48FFF75FFE17B030BDFFF7B7F9B8E737
:1037F000FFF7B4F90948FFF755FE17B030BDFFF7E2
:10380000ADF9DDE7FFF7AAF9D4E7FFF7A7F9C0E7BD
:10381000FFF7A4F9B3E7FFF7A1F9ABE7800A0020AF
:103820000004014030B52848284A02608DB0A72224
:10383000002342606322CDE90033CDE90233CDE9B4
:103840000433CDE90633CDE90833C0E902320A93E7
:103850000361836100F0C6FE10BB4FF480531A4829
:103860000093694601F0B8F950BB174800F054FFC7
:1038700018BB0022602400251348069204A9CDE954
:103880000445089201F0A2F8A0B90F48042204A947
:1038900001F09CF838B90C48FFF704FE0DB030BDBC
:1038A000FFF75CF9D9E7FFF759F90748FFF7FAFD89
:1038B0000DB030BDFFF752F9E7E7FFF74FF9D8E752
:1038C000FFF74CF9D1E700BF340A00200040014067
:1038D00010B50B480B4C00234FF4E1310C22C0E92A
:1038E0000041C0E90233C0E90432C0E9063301F007
:1038F00031FB00B910BDBDE81040FFF72FB900BF84
:10390000780C002000100140D0B51D4B026888B033
:1039100000249A42CDE90244CDE90444069401D042
:1039200008B0D0BD03F5943300945A6C154842F0AA
:1039300010025A645A6C02F010020092009A01942C
:103940001A6B42F001021A631B6B03F0010301932F
:1039500002A9072303224FF4C0660227CDE90523FD
:10396000CDE90267019E00F06BF922460121252076
:1039700000F0A8F8252000F0E1F808B0D0BD00BFA5
:103980000010014000000240DFF834D0FFF7AEF92C
:103990000C480D490D4A002302E0D458C4500433AA
:1039A000C4188C42F9D30A4A0A4C002301E0136080
:1039B0000432A242FBD3FEF75DF9FFF799F8704796
:1039C0000000022000000020500500207C6A000852
:1039D00050050020E40C0020FEE7000038B50E4A38
:1039E0000E4B1278054618684FF47A73B3FBF2F366
:1039F000B0FBF3F000F0B0F808B90F2D01D90120A9
:103A000038BD0446024629464FF0FF3000F05AF810
:103A1000034B20461D6038BD400500203C050020BA
:103A20004405002008B50B4B1A6842F400721A6076
:103A30001A6842F480621A601A6842F480721A604E
:103A4000032000F02DF80020FFF7C8FFFFF7DAF899
:103A5000002008BD003C0240034A044B11681B785B
:103A60000B441360704700BFC00C002040050020CD
:103A7000014B1868704700BFC00C002038B50446E1
:103A8000FFF7F6FF631C054602D0044B1B781C446D
:103A9000FFF7EEFF401BA042FAD338BD40050020DF
:103AA0000749CA6803024FF6FF0003F4E0630240CF
:103AB000134343F0BF6343F40033CB60704700BF50
:103AC00000ED00E01B4BDB68C3F3022300B5C3F13C
:103AD000070EBEF1040F03F1040C28BF4FF0040ED3
:103AE000BCF1060F1CD9A3F1030C4FF0FF3303FA0E
:103AF0000CF322EA03024FF0FF3303FA0EF321EA3C
:103B0000030303FA0CF313431B010028DBB20ADBA7
:103B100000F1604000F5614080F800335DF804FB7F
:103B200000229446E7E7044A00F00F0002441376AF
:103B30005DF804FB00ED00E0FCEC00E0002807DB92
:103B4000044A4109012300F01F00834042F821305C
:103B5000704700BF00E100E00138B0F1807F01D381
:103B60000120704710B44FF0E023064C58614FF02D
:103B7000F00C84F823C00022072110469A6110BC83
:103B80001961704700ED00E070B50446866DFFF7DF
:103B90006FFF94F83530022B06D080236365002335
:103BA00084F83430012070BD23681A6822F01602B0
:103BB0001A605A6922F080025A61226C054642B3AB
:103BC0001A6822F008021A601A6822F001021A60CC
:103BD00005E0FFF74DFF431B052B10D823681B683A
:103BE00013F00103F5D1E16D3F228A40184601210F
:103BF0000023B26084F8351084F8343070BD03239C
:103C000020226265184684F83530002384F8343069
:103C100070BDA26C002AD3D1D6E700BF90F8353032
:103C2000022B03D0802343650120704702680523DF
:103C300080F83530136823F00103002013607047CB
:103C40002DE9F04FA54A0B68904287B04FF0000273
:103C500000F0D480DFF888824FF0010B8A4603E041
:103C60000132102A00F09F800BFA02F101EA0306EC
:103C70009943F5D1DAF8044004F0030C5100032510
:103C80000CF1FF378D40012F6FEA050551D9BCF1CA
:103C9000030F40F0B48107680CFA01F13D4029435D
:103CA00014F4403F0160DBD08E4D00210591696C1A
:103CB00041F480416964696C01F480410591059982
:103CC00022F0030101F1804101F59C3102F003076C
:103CD0008D68BF004FF00F0C0CFA07FC25EA0C05AD
:103CE000DFF804C2604561D0DFF800C2604500F033
:103CF0006881DFF8FCC1604500F06981DFF8F4C13C
:103D0000604500F07081DFF8F0C1604500F071811E
:103D1000DFF8E8C1604500F06081DFF8E4C160458C
:103D20000CBF4FF0070C4FF0080C0CFA07F73D439F
:103D300041E0876807EA050EDAF80C708F4047EA21
:103D40000E078760476827EA060EC4F300179740FE
:103D500047EA0E074760C76807EA050EDAF80870F9
:103D60008F4047EA0E07BCF1020FC76093D14FEABC
:103D7000D20900EB890902F0070ED9F820700097EC
:103D8000DAF810704FEA8E0E07FA0EF701970F2738
:103D900007FA0EFE009F27EA0E0E019F47EA0E0764
:103DA000C9F8207077E707B0BDE8F08F4FF0010C3D
:103DB0000CFA07F73D438D60D8F80810F543E70289
:103DC00054BF29403143C8F80810D8F80C10A70296
:103DD00054BF29403143C8F80C10D8F80410A70389
:103DE00054BF29403143C8F80410D8F80010E40348
:103DF00054BF29403143C8F8001031E7DFF8E4B080
:103E0000374F4FF0010A02E00132102ACBD00AFAF4
:103E100002F403EA04069C43F6D14D6854004FF0C7
:103E2000030C0CFA04FC05F003086FEA0C0908F116
:103E3000FF3CBCF1010F65D9B8F1030F40F0E980F8
:103E4000D0F800C008FA04F40CEA090C44EA0C04A7
:103E500015F4403F0460D7D000240594DBF84440BB
:103E600044F48044CBF84440DBF8444004F48044FC
:103E70000594059C22F0030404F1804404F59C346D
:103E800002F0030C4FF00F0E4FEA8C0C0EFA0CFCF4
:103E9000D4F808E02EEA0C0CC4F808C015F4801F12
:103EA000BC686FEA060C40F08A8004EA0C04BC602F
:103EB00015F4001FFC6840F0808004EA0C04FC60EC
:103EC00015F4003F7C6876D10CEA04047C60ED03B5
:103ED0003C686ED40CEA04043C6095E700000240A4
:103EE000003C01400038024000040240000802404B
:103EF000000C024000100240001402400018024072
:103F0000001C0240D0F808E0D1F80CC009EA0E0EFF
:103F10000CFA04FC4CEA0E0CC0F808C0D0F804E01F
:103F2000C5F3001C2EEA060E0CFA02FC4CEA0E0C3D
:103F3000C0F804C0D0F80CE0D1F808C009EA0E0EB1
:103F40000CFA04FC4CEA0E0CB8F1020FC0F80CC0DD
:103F50007FF476AF4FEAD20C4FEA8C0C0CF1804C18
:103F60000CF5003C02F0070E4FEA8E0ECDF800E093
:103F7000DCF820E0CDF808C0CDF804E0D1F810C09E
:103F8000DDF800E00CFA0EFCCDF80CC0DDF800C046
:103F90004FF00F0E0EFA0CFEDDF804C02CEA0E0EE8
:103FA000DDF80CC04CEA0E0EDDF808C0CCF820E0BD
:103FB00046E7344390E7344388E734437FE73443AC
:103FC00075E74FF0020C0CFA07F73D43F3E64FF0AC
:103FD000030C0CFA07F73D43EDE64FF0060C0CFA24
:103FE00007F73D43E7E64FF0040C0CFA07F73D43B3
:103FF000E1E64FF0050C0CFA07F73D43DBE6C76836
:1040000007EA050EDAF808708F4047EA0E07C76026
:1040100041E6D1F808C00CFA04FEF446DFF818E0D7
:10402000DEF80CE009EA0E0E4CEA0E0EDFF808C0CE
:10403000CCF80CE004E700BF00000240002800F0CC
:10404000D8812DE9F0410368DD0782B004462FD501
:104050009D498A6802F00C02042A00F0EC808A680C
:1040600002F00C02082A00F0E2806368B3F5803F9A
:1040700000F0EB80B3F5A02F00F07381924D2A6819
:1040800022F480322A602A6822F480222A60002BDF
:1040900040F0E080FFF7ECFC064605E0FFF7E8FCA7
:1040A000801B642800F200812B689F03F6D42368EC
:1040B0009D0728D5844A916811F00C0F00F09B8071
:1040C000916801F00C01082900F09180E368002B51
:1040D00000F00C817D4B7C4E01221A60FFF7C8FC7A
:1040E000054605E0FFF7C4FC401B022800F2DC8017
:1040F00033689F07F6D53368226923F0F80343EA53
:10410000C203336023681A075CD45D073AD56E4A50
:10411000136C13F0805340F088800193136C43F0CC
:1041200080531364136C03F080530193019B0125AA
:10413000674E3368D80540F1A780A368012B00F0D3
:10414000B780052B00F01D815F4E326F22F0010217
:104150003267326F22F004023267002B40F0AD80EC
:10416000FFF786FC41F28838074605E0FFF780FC40
:10417000C01B404500F29880336F9B07F6D4002D9A
:1041800040F0F980A369CBB14F4DAA6802F00C0250
:10419000082A00F0BC80022B4C4B4FF000021A663C
:1041A00000F0F980FFF764FC044604E0FFF760FCD0
:1041B000001B022878D82B689B01F7D4002002B09E
:1041C000BDE8F0816369FBB1404B3F4E0122C3F86B
:1041D000802EFFF74DFC054604E0FFF749FC401B2D
:1041E000022861D8736F9B07F7D523688DE7526863
:1041F00051023FF56BAF344A1268920738D5E26836
:10420000012A35D00120DAE7304A2F4EC2F8803E2D
:10421000FFF72EFC054604E0FFF72AFC401B0228AE
:1042200042D8736F9F07F7D4DFE7002580E74A681D
:1042300051027FF51AAF244A126892037FF538AF16
:104240006268002A7FF434AFDCE71F4A136843F446
:1042500080331360FFF70CFC1B4E054604E0FFF7AC
:1042600007FC401B64281FD833689B03F7D51EE763
:10427000154920690A6822F0F80242EAC0020A6081
:104280001A077FF542AF9DE7336843F480733360CC
:10429000FFF7EEFB07463368D9053FF54EAFFFF752
:1042A000E7FBC01B0228F6D9032002B0BDE8F0816D
:1042B000054A136F43F001031367FFF7D9FB024F61
:1042C000064641F288380AE00038024000004742C2
:1042D00000700040FFF7CCFB801B4045E4D83B6FEB
:1042E0009A07F7D5002D3FF44DAF44E0424A434EC4
:1042F0001360FFF7BDFB054604E0FFF7B9FB401B69
:104300000228D1D833689907F7D42368FBE6012B3C
:104310003FF478AF6B68E26903F4800191427FF467
:1043200071AF226A03F03F0191427FF46BAF616A83
:1043300047F6C0721A40B2EB811F7FF463AFA26AE6
:10434000520803F44031013AB1EB024F7FF45AAF07
:10435000E26A03F07063B3EB026F14BF0120002028
:104360002DE7264B1A6842F480221A601A6842F43C
:1043700080321A606EE7214A136C23F08053136475
:1043800000E71E4B1A6F42F004021A671A6F42F0E0
:1043900001021A6791E7FFF76BFB064605E0FFF79E
:1043A00067FB801B02283FF67FAF2B689901F6D48C
:1043B000D4E90731626A0B4343EA8213D4E90A2045
:1043C00052080D4943EA0063013A43EA02430122DD
:1043D0006B600A66FFF74CFB084D044605E0FFF7EB
:1043E00047FB001B02283FF65FAF2B689A01F6D50A
:1043F000E4E60120704700BF000047420038024059
:10440000164908B58B6803F00C03042B1BD0082B4E
:1044100001D0134808BD4A684B68496813F480030B
:1044200002F03F0211D10E48C1F38811A1FB000137
:10443000FBF7FAFE094B5B68C3F3014301335B00F2
:10444000B0FBF3F008BD074808BD0648C1F388116A
:104450000023A1FB0001FBF7E7FEEBE70038024079
:104460000024F40000127A00002800F08780484AF7
:10447000136803F007038B422DE9F0410D46044613
:1044800009D2CBB21370136803F007038B4202D03A
:104490000120BDE8F0812368980714D5590704D599
:1044A0003C498A6842F4E0528A601A0704D53949C7
:1044B0008A6842F460428A603649A0688A6822F0BD
:1044C000F00202438A60DF0721D56268012A57D0D3
:1044D000931E012B2F4B1B684DD99907D8D52D4E14
:1044E000B36823F003031343B360FFF7C1FA41F24B
:1044F0008838074604E0FFF7BBFAC01B404544D8A4
:10450000B368626803F00C03B3EB820FF3D1204A67
:10451000136803F00703AB4206D9EBB213701368BC
:1045200003F00703AB42B3D123685A0706D51949F4
:10453000E0688A6822F4E05202438A601B0707D5CC
:10454000144A2169936823F4604343EAC1039360EA
:10455000FFF756FF0F4A104C92681049C2F303123E
:104560000346A25C0E48D34000680B60FFF736FAA2
:104570000020BDE8F0819801B1D489E7012070479F
:10458000044B1B689E03AAD482E7032081E700BF87
:10459000003C024000380240506600083C05002004
:1045A00044050020044B05499B68054A0868C3F38D
:1045B0008223D35CD8407047003802403C0500207D
:1045C00048660008044B05499B68054A0868C3F320
:1045D0004233D35CD8407047003802403C0500208D
:1045E00048660008002800F08F8038B590F83D300C
:1045F000044603F0FF02002B00F08180226843494B
:10460000022384F83D308A42136864D0B2F1804FAF
:1046100030D0A1F57C418A422CD001F580618A42DC
:1046200028D001F580618A4224D001F578418A4280
:1046300051D037498A4221D001F580618A421DD08C
:1046400001F580618A4219D0A1F598318A4215D0CE
:1046500001F580618A4211D001F580618A420DD056
:10466000A5696168E06823F080032B431360D06282
:10467000916210E0A16823F070030B432069A169E7
:1046800023F44073034323F08003E0680B43616825
:104690001360D0629162012353611369DB0703D574
:1046A000136923F001031361012384F8463084F871
:1046B0003E3084F83F3084F8403084F8413084F84C
:1046C000423084F8433084F8443084F8453084F82C
:1046D0003D30002038BDA068216923F070030343FA
:1046E00023F440730B43A16923F080030B43136051
:1046F000E368D3626368936263691363CBE780F80E
:104700003C20FEF791FD79E7012070470000014051
:1047100000400140704700BF002800F08F8038B58E
:1047200090F83D30044603F0FF02002B00F081803A
:1047300022684349022384F83D308A42136864D0DA
:10474000B2F1804F30D0A1F57C418A422CD001F5E6
:1047500080618A4228D001F580618A4224D001F527
:1047600078418A4251D037498A4221D001F580618F
:104770008A421DD001F580618A4219D0A1F5983195
:104780008A4215D001F580618A4211D001F580611D
:104790008A420DD0A5696168E06823F080032B434D
:1047A0001360D062916210E0A16823F070030B43A4
:1047B0002069A16923F44073034323F08003E06878
:1047C0000B4361681360D0629162012353611369E6
:1047D000DB0703D5136923F001031361012384F878
:1047E000463084F83E3084F83F3084F8403084F816
:1047F000413084F8423084F8433084F8443084F8FF
:10480000453084F83D30002038BDA068216923F090
:104810007003034323F440730B43A16923F0800327
:104820000B431360E368D362636893626369136345
:10483000CBE780F83C20FFF76DFF79E70120704758
:104840000000014000400140002800F0B88070B531
:1048500090F83D300D46044603F0FF02002B00F0B7
:10486000A98023685749022284F83D209A6822F4DF
:10487000804222F007029A608B421A6800F086801C
:10488000B3F1804F30D0A1F57C418B422CD001F5A3
:1048900080618B4228D001F580618B4224D001F5E4
:1048A00078418B4272D048498B4221D001F580611A
:1048B0008B421DD001F580618B4219D0A1F5983152
:1048C0008B4215D001F580618B4211D001F58061DA
:1048D0008B420DD0A069616822F080020243E0683B
:1048E0001A60D862996210E0A16822F070020A434F
:1048F000216922F440720A43A16922F080020A432E
:10490000E1681A606268D9629A6201225A611A6982
:10491000D20703D51A6922F001021A619E689969CB
:10492000A869AA68D5F820C021F4407121F00301DC
:1049300042EA00220A4322F47C412A69E869120112
:1049400042EA0022E868024321F0FC0142EA0C320C
:10495000186AD5F814C00A43696820F0AA0041EA31
:104960000C11084329680E4301219E609A61186268
:1049700084F8461084F83E1084F83F1084F8421002
:1049800084F8431084F83D10002070BDA16822F027
:1049900070020A43216922F440720A43A16922F09D
:1049A00080020A431A60E268DA6262689A626269A7
:1049B0001A63AAE780F83C20FEF7B6FC51E7012015
:1049C000704700BF000001400040014090F83C30BB
:1049D000012B00F0C780012330B5844680F83C30BD
:1049E0000C2A08D8DFE802F03E0707076807070728
:1049F000940707070C0000238CF83C30012030BDE1
:104A000003680D681A6A186A20F4805018625C689E
:104A1000D86920F4E64040EA05208D6822F400526F
:104A200042EA05326B4DAB4200F0AE8005F5806581
:104A3000AB4200F0A9805C60D861486818641A62D3
:104A4000DA69096942F40062DA61DA6922F48062A3
:104A5000DA61DA6942EA0122DA6100238CF83C303B
:104A6000002030BD03680D681A6A186A20F0010042
:104A700018625C68986920F0730028438D6822F002
:104A800002022A43534DAB4200F0848005F5806555
:104A9000AB427FD05C609861486858631A629A693B
:104AA000096942F008029A619A6922F004029A6147
:104AB0009A690A439A61D0E703680D681A6A186A0E
:104AC00020F0100018625C68986920F4E64040EA23
:104AD00005208D6822F0200242EA05123D4DAB42CE
:104AE00067D005F58065AB4263D05C60986148682B
:104AF00098631A629A69096942F400629A619A6934
:104B000022F480629A619A6942EA01229A61A4E7DA
:104B100003680D681A6A186A20F4807018625C686D
:104B2000D86920F0730028438D6822F4007242EAAD
:104B30000522284DAB4217D005F58065AB4213D056
:104B40005C60D8614868D8631A62DA69096942F022
:104B50000802DA61DA6922F00402DA61DA690A43EA
:104B6000DA617AE702207047CD6822F4006242EAF7
:104B70000522D1E905E524F440544EEA050E22F45D
:104B8000806244EA0E14DBE74D6924F4804444EA71
:104B9000851450E7CD6822F008022A43D1E905E5E3
:104BA00024F440744EEA050E22F004024EEA040496
:104BB00070E7CD6822F0800242EA0512D1E905E5EE
:104BC00024F440644EEA050E22F0400244EA8E04CA
:104BD0008BE700BF0000014090F83C20012A6ED016
:104BE0000346026830B40120022483F83C0083F8B5
:104BF0003D40946824F47F4424F0770494600C686A
:104C0000602C76D011D8402C5BD02ED8202C04D02C
:104C100000F2888034F010011FD1916821F07001FA
:104C2000214341F00701916016E0B4F5805F13D095
:104C3000B4F5005F33D0702C0FD1D1E901509468E6
:104C40002843CD6824F47F4140EA05200843906062
:104C5000916841F07701916000200121002283F8E2
:104C60003D1083F83C2030BC7047502CF5D148688B
:104C7000CC68116A21F00A010843116A21F0010190
:104C80001162916921F0F00141EA04119161106211
:104C9000916821F0700141F057019160DCE7D1E9A2
:104CA000015094682843CD6824F47F4140EA0520F0
:104CB00008439060916841F480419160CCE7022004
:104CC00070474868CC68116A21F00A010843116AEC
:104CD00021F001011162916921F0F00141EA041112
:104CE00091611062916821F0700141F0470191607B
:104CF000B2E74868CC68116A21F0A00141EA0011CE
:104D0000106A20F010001062906920F4704040EAB0
:104D1000043090611162916821F0700141F06701E7
:104D2000916099E7302C3FF478AF96E7704700BF69
:104D3000704700BF704700BF704700BF704700BF9B
:104D4000036870B5DE681D69A907044601D5B2077E
:104D500051D4690701D572073AD42B0701D5300722
:104D600024D4EA0601D5F30610D4E80701D5F107EB
:104D700057D42A0601D533065BD4680601D57106DF
:104D80005FD4AA0601D5B30642D470BD23686FF084
:104D900010021A6108222277DB6913F4407F204653
:104DA00063D0FFF7C7FF00232377DEE723686FF0A8
:104DB00008021A6104222277DB699907204651D143
:104DC000FFF7B6FF2046FFF7B7FF00232377C8E7BA
:104DD00023686FF004021A61022222779B6913F4A0
:104DE000407F20463BD1FFF7A3FF2046FFF7A4FFFB
:104DF00000232377B1E76FF002021A6101220277E4
:104E00009B699B0725D0FFF795FF00232377A0E739
:104E100023686FF0200220461A61BDE8704000F060
:104E200095B823686FF001021A612046FFF77EFFF4
:104E30009FE723686FF080021A61204600F088F82F
:104E40009BE723686FF040021A612046FFF776FF68
:104E500097E7FFF76DFF2046FFF76EFFD5E7FFF7F7
:104E600069FFC5E7FFF766FFAFE7FFF761FF204681
:104E7000FFF762FF97E700BF90F83C20012A37D088
:104E800003460268022030B483F83D0050680D6884
:104E9000946820F0700028435060164882421AD06F
:104EA000B2F1804F17D0A0F57C40824213D000F5BC
:104EB000806082420FD000F5806082420BD000F506
:104EC0007840824207D000F57050824203D0A0F5AE
:104ED0009430824204D1496824F080040C439460E9
:104EE0000020012283F83D2083F83C0030BC70474D
:104EF000022070470000014090F83C30012B22D086
:104F000010B4D1E9024323F44073024623434868B6
:104F10000C6823F48063034323F40063086923438C
:104F200023F4805303434869CC6923F400530343BB
:104F300023F48043106800212343436482F83C102B
:104F4000084610BC70470220704700BF704700BF82
:104F5000704700BF002800F0878038B590F84130D6
:104F6000044603F0FF02002B79D02368E068242276
:104F700084F84120DA6822F40052DA601969A268E4
:104F800021F4405101432069196102436069D968E5
:104F90000243E06921F4164121F00C0102430A4367
:104FA000DA605A69A069314922F4407202438B42A7
:104FB0005A6136D02E4A934233D0FFF7F3FAE269B2
:104FC0001921B2F5004FD4E90053A0FB01012BD009
:104FD0009A009B0FFBF728F9264AA2FB00135B09F6
:104FE000642101FB130000013230A2FB00201B01F1
:104FF00003EB5013AB602A6922F490422A616A697C
:1050000022F02A026A61EA680023202142F4005259
:10501000EA60636484F8411084F8421018466363C0
:1050200038BDFFF7CFFACAE7DA184FF000035B414B
:10503000FBF7FAF80F4AA2FB00314909642303FB8E
:105040001103DB003233A2FB0323C3F342121B091B
:1050500002EB011203F4F8731344AB60CBE780F862
:105060004020FEF751FC80E701207047001001400E
:10507000001401401F85EB5190F84130202B14D1D2
:1050800001B10AB90120704710B40023046801621D
:105090002121C284436480F84110E168828441F098
:1050A0008001E160184610BC70470220704700BFC5
:1050B00090F84230202B1FD101B10AB9012070476E
:1050C00010B4046981620023222103638285C285B2
:1050D0004364036880F842101CB1DA6842F48072BD
:1050E000DA605A6910BC42F001025A61DA6842F093
:1050F00020020020DA60704702207047704700BF2E
:10510000704700BF08B5806B0023C385C384FFF7D9
:10511000F7FF08BD704700BF83680168826AB3F576
:10512000805F42D0002B39D04B6803F07F031370AF
:10513000826A0132C38D8262013B9BB2C385002B20
:1051400032D10268D16821F0200100B5D160D16868
:1051500021F48071D16051694FF0200C21F00101E0
:10516000516180F842C04363016B012983B025D1AE
:10517000036302F10C0353E8003F23F0100302F134
:105180000C0C4CE800310029F3D11368DB061AD46B
:10519000818DFFF7BFFF03B05DF804FB0369002BAF
:1051A000C2D14B68DBB2C2E770470369002BF8D16C
:1051B0004B68C3F3080322F8023BBBE7FDF7E8FBAB
:1051C00003B05DF804FB0023019313680193536857
:1051D0000193019BDCE700BF30B503681A68DD6806
:1051E000596912F00F0F83B0044670D1910602D5B1
:1051F000A90600F1A380216B01290BD0100602D56E
:10520000290600F1A580520602D5680600F1BF808C
:1052100003B030BDD006F1D5E906EFD500220192EA
:105220001A6801925A680192019A5A69550640F12A
:105230003C81E06B0268526892B2002AE8D0A18DEE
:105240009142E5D9E285C269B2F5807F36D003F19B
:105250000C0252E8002F22F4807203F10C0545E89D
:1052600000210029F3D103F1140252E8002F22F0AB
:10527000010203F1140545E800210029F3D103F1EF
:10528000140252E8002F22F0400203F1140545E811
:1052900000210029F3D1202284F84220216303F168
:1052A0000C0252E8002F22F0100203F10C0545E831
:1052B00000210029F3D1FEF767FCA18D022363636F
:1052C000E38DC91A204689B2FFF724FFA0E711F049
:1052D000010140F0CF8015F4907F8CD0D0070BD522
:1052E000E80540F1DE80606C40F00100606450072A
:1052F0005CD5002940F0C280900766D5100700F108
:10530000CD80616C002983D0910609D5AA0607D506
:1053100094F84220222A03D12046FFF7FDFE23689D
:105320005A69616C02F0400201F0080152EA01057D
:1053300055D12046FFF7E4FE656469E790F84230F6
:10534000222B7FF465AF03B0BDE83040FFF7E4BE29
:1053500094F84120212A7FF45BAFA168226AB1F55D
:10536000805F00F0DD80511C216212785A60E28C6F
:10537000013A92B2E284002A7FF44AAFDA6822F05E
:105380008002DA60DA6842F04002DA6040E7DA6808
:10539000202122F04002DA60204684F84110FFF715
:1053A000ADFE35E7E8059ED4500767D490070CD5CD
:1053B0000029A3D0616C41F0040161641107A0D5FC
:1053C000616C41F0080161649BE7100799D505F015
:1053D00020000843F4D1626C002AA1D118E703F140
:1053E0000C0252E8002F22F4907203F10C0040E806
:1053F00000210029F3D103F1140252E8002F22F01A
:10540000010203F1140040E800210029F3D1226BCE
:10541000012A22D00022202184F8421022635A69F6
:10542000550634D503F1140252E8002F22F0400251
:1054300003F1140040E800210029F3D1E06B30B300
:105440003D4B0365FEF7EAFB00283FF4E1AEE06B5D
:10545000036D03B0BDE83040184703F10C0252E879
:10546000002F22F0100203F10C0040E80021002977
:10547000F3D1CFE7D00795D450070CD5616C41F03C
:1054800002016164910795D4110799D439E7204648
:10549000FFF736FEBCE691078CD4F5E7A9068FD45A
:1054A00099E750073FF528AF80E7E18DE28DA08DA9
:1054B00092B289B2002A3FF4ABAE411A89B20029F8
:1054C0003FF4A6AE03F10C0252E8002F22F49072D2
:1054D00003F10C0545E800200028F3D103F1140284
:1054E00052E8002F22F0010203F1140545E80020E4
:1054F0000028F3D1202284F84220206303F10C021B
:1055000052E8002F22F0100203F10C0545E80020BC
:105510000028F3D1022363632046FFF7FBFD77E603
:10552000216900297FF41FAF32F8021BC1F3080183
:10553000596022621BE700BF0551000810B5034BFC
:105540000360044600F0C2F8204610BD9C660008C7
:1055500010B5054B0360044600F0B8F820460C2156
:1055600000F012F9204610BD9C66000870B582B0AC
:105570000446069E96420D4609D0A0680468069629
:10558000246A2946A44602B0BDE870406047194627
:105590000192009300F064F8DDE900320028ECD0BD
:1055A000062002B070BD00BF2DE9F04F0D4681B05E
:1055B0001946DDE90A8BDDE90CA91C4607461646AB
:1055C00000F04EF880B9D04527D0B868234604686B
:1055D000CDE90CA9CDE90A8BE46932462946A446F7
:1055E00001B0BDE8F04F6047002DC9F8008089F890
:1055F00004600CDBA844C24514BF4FF001084FF013
:10560000060889F80680002001B0BDE8F08F023559
:10561000F9D1012389F80630F5E75946384600F0FC
:105620001FF80028D1D089F80560ECE72DE9F0419A
:1056300006460F4614461D4600F082F848B9B06889
:10564000016822468C692B463946A446BDE8F041E4
:105650006047BDE8F08100BF704700BF0020704781
:10566000814211D008B5406803782A2B0AD04968D6
:105670000B782A2B08BF0131FBF7F2FFB0FA80F05C
:10568000400908BD002008BD0120704770B50368BF
:1056900084B000249E690394102315460293CDE93B
:1056A00000446B461268B0479DF8043003F00603CF
:1056B000062B03BF009B2B600120204604B070BD69
:1056C000009890420CBF06200120704710B5034B94
:1056D00003600446FFF7C0FF204610BD10670008B6
:1056E00010B5054B03600446FFF7B6FF20460821BE
:1056F00000F04AF8204610BD106700082DE9F0417F
:10570000069F0899099E8F42044690461D460CD07C
:1057100029462046FFF7A4FF20B10123376086F811
:105720000480B3710020BDE8F0810799FFF798FF6E
:105730000028EDD086F805800020BDE8F08100BF8C
:1057400038B515461C46FFF78BFF00B938BD082257
:1057500006232560E260237138BD00BF2DE9F041CA
:10576000064617461D460C46FFF77AFF48B9032D3B
:1057700007D823683A46314620465B69BDE8F041C8
:105780001847BDE8F08100BF00F0E8B91E494B683A
:1057900030B550F8085CA0F108042BB304EB050EFB
:1057A000734521D85A6826D001F1040C32B90EE0B5
:1057B000516803F1040C134639B10A469645F7D8EF
:1057C00002BFDEE900215960AD18DCF800301A682C
:1057D00099188C420CD05B6840F8043CDCF800302F
:1057E00040F8085C5C6030BD40F8043C4C6030BD63
:1057F0002A441A6030BD1B6840F8042C2B4440F842
:10580000083C4C6030BD00BFC80C0020144900F1BA
:1058100008034868082B38BF0823F8B1073323F082
:105820000703043102E0011D406880B10268934221
:10583000F9D830B4D41A072C456809D9C218556074
:10584000C450086830BC036008300A607047704775
:1058500002602A46083030BC0A607047704700BFBB
:10586000C80C002010B500F180042046FCF758F960
:10587000034630B1802200211846FBF737FE803006
:1058800010BD2046FFF7C2FF03460028F2D100F00A
:10589000A7F800BF064BD3E902238038134498428F
:1058A00003D2824201D2FFF771BFFCF741B900BFBA
:1058B000C80C00202DE9F041394D3A4888B0002647
:1058C000C5E90166EE60FBF703FE374B374A082156
:1058D000CDE902130923CDE904630423CDE90623AE
:1058E00000283CD0324E044623783A2B08BF0134BE
:1058F0000F2221463046FCF7E5F810B9E37B2E2B4A
:1059000017D020463A21FBF743FE04460028EBD18E
:10591000079A049C402AA8BF4022002C08BF0624F6
:105920003E3402FB04F4A400EC60DCB908B0BDE82E
:10593000F081103402AFD7F80080786821464246E3
:10594000B8F1000F02D0FCF7BDF818B914F8083010
:105950003D2B11D00C3708AB9F42ECD1D1E74FF46F
:105960008864EC602046FCF7DBF8A860A8B100234F
:10597000C0E900436860D9E708F101002044002233
:1059800001A9FCF785F8019C23783A2B01D0002B64
:10599000B7D10028A8BFB860B3E7E860C6E700BF8A
:1059A000C80C0020346700084867000854670008E6
:1059B00060670008704700BF0048704770670008C4
:1059C00010B504210446FFF7DFFE204610BD00BFDE
:1059D00008B58047FCF76EF800F0C2F8FCF76AF8EB
:1059E00008B5034B1868BFF35B8FFFF7F1FF00BFEB
:1059F0004C05002008B58047FFF7F2FF08B5034BC0
:105A00001868BFF35B8FFFF7F5FF00BF4805002064
:105A1000024B1868BFF35B8F704700BF4C05002036
:105A2000024B1868BFF35B8F704700BF480500202A
:105A3000012810B51AD8BFF35B8FA1F1280353E8F2
:105A4000002F013A43E800200028F8D1BFF35B8F14
:105A50005AB951F81C3C01F158040BB12046984743
:105A60002046BDE81040FFF715BF10BD51F8140CDB
:105A7000FFF7AEFF002310B540E91E1240F8803C4E
:105A80000446FFF7CDFF44F8700CFFF7C1FF07494C
:105A9000074A084B44F8581C44F8542C44F86C0C42
:105AA00044F8503CA4F1800010BD00BF474E554360
:105AB000432B2B00315A000870B504460D4616469C
:105AC00000F0D6F843680133324629464360204649
:105AD000FFF7D0FF0446012344F8283B2046FBF79C
:105AE000BFFA204600F03CF8FFF77AFF10B500F04F
