:020000040800F2
:1000000000000220317100085163000855630008A8
:10001000596300085D630008616300080000000088
:100020000000000000000000000000006563000800
:1000300069630008000000006D6300087163000838
:1000400081710008817100088171000881710008C8
:1000500081710008817100088171000881710008B8
:1000600081710008817100088171000881710008A8
:100070008171000881710008817100088171000898
:100080008171000881710008817100088171000888
:100090008171000881710008817100088171000878
:1000A0008171000881710008817100088171000868
:1000B0008171000881710008817100088171000858
:1000C0008171000881710008817100088171000848
:1000D0008171000881710008817100088171000838
:1000E0008171000881710008817100088171000828
:1000F0008171000881710008817100088171000818
:100100008171000881710008817100088171000807
:100110008171000881710008817100087563000811
:1001200081710008817100089163000881710008E5
:1001300081710008817100088171000881710008D7
:1001400081710008817100088171000881710008C7
:1001500081710008817100088171000881710008B7
:1001600081710008817100088171000881710008A7
:100170008171000881710008817100080000000091
:08018000817100088171000883
:1001C0000348044B834202D0034B03B118477047E6
:1001D0008005002080050020000000000548064B37
:1001E0001B1AD90F01EBA301491002D0034B03B135
:1001F000184770478005002080050020000000009F
:1002000010B5064C237843B9FFF7DAFF044B13B15E
:100210000448AFF300800123237010BD8005002047
:1002200000000000549F000808B5044B1BB10449AE
:100230000448AFF30080BDE80840CFE700000000AD
:1002400084050020549F000830B5224A21F0004365
:10025000934287B01BD9204A934205D902460B46E8
:1002600001F076F907B030BD02AA00F039F800F0CD
:10027000030001281FD0022811D018BB0124DDE99A
:100280000423DDE90201009400F0B6FEEAE7002352
:1002900000930022002300F0AFFE07B030BD012420
:1002A000DDE90423DDE90201009400F0A5FE01F17F
:1002B000004107B030BDDDE90423DDE9020101F0B2
:1002C0001BF8CFE7DDE90423DDE9020101F014F8B2
:1002D000EDE700BFFB21E93FFFFFEF7F00000000DB
:1002E0002DE9F04F844B21F000459D428FB08046B0
:1002F0008946144640F28A80804B9D420E4628D89B
:10030000002973A3D3E9002340F3A18101F020F970
:100310007B4B9D4206460F4600F089806EA3D3E9D1
:10032000002301F015F98046894642464B46304687
:10033000394601F00DF968A3D3E9002301F008F96B
:10034000C4E90089C4E90201012738460FB0BDE8BD
:10035000F08F6C4B9D4240F284806B4B9D425DD888
:100360004FEA255AAAF2164AA5EB0A51894601F02E
:1003700041FD01F03BFA02460B4640464946CDE9B5
:10038000082301F0E5F8614B002201F099FA894653
:10039000804601F02FFD01F029FA02460B46404647
:1003A0004946CDE90A2301F0D3F8584B002201F069
:1003B00087FACDE90C010EAF03254FF000084FF08E
:1003C000000977E9020142464B46AB46013D01F088
:1003D000DFFC0028F5D14E4B0193022300935246D7
:1003E0005B46214608A800F085F9002E0746ACDAE6
:1003F000D4E9002101F10043E168C4E90023A268C7
:1004000001F10043C4E9022347429EE70022002392
:10041000C4E90089C4E90223002796E702460B4697
:1004200001F096F8C4E90201C4E90001F4E72CA345
:10043000D3E9002301F08CF82BA3D3E9002306466F
:100440000F4601F085F88046894642464B463046C5
:10045000394601F07DF824A3D3E9002301F078F8B0
:100460006EE701F06DF822A3D3E9002380468946A8
:1004700001F026FA274B002201F06CF801F0BAFCDB
:10048000074601F0B3F902460B46CDE9042310A359
:10049000D3E9002301F014FA02460B4640464946D0
:1004A00001F056F80CA3D3E9002382468B46DDE920
:1004B000040101F005FA1F2FCDE902012EDC164BD5
:1004C0007A1E53F82230AB4228D002460B469AE0FF
:1004D00000004054FB21F93F3163621A61B4D03D02
:1004E0000000601A61B4D03D7370032E8A19A33BDB
:1004F00083C8C96D305FE43FFB21E93F7BD90240EF
:10050000FB21F93FFB213941FFFFEF7F00007041E4
:10051000F89F00080000E03F789F0008DDE9022313
:100520005046594601F014F8C1F30A53C3EB155372
:10053000102B804689464FEA25556ADD62A3D3E930
:100540000023DDE9040101F0BBF98046894602463B
:100550000B465046594600F0FBFF02460B465046FC
:100560005946CDE9062392469B4600F0F1FF4246EC
:100570004B4600F0EDFF56A3D3E9002380468946A1
:10058000DDE9040101F09CF942464B4600F0E0FF32
:100590000B46024659465046CDE9022300F0D8FFEB
:1005A000C1F30A53ED1A312D804689464CDD4AA32A
:1005B000D3E90023DDE9040101F082F98046894690
:1005C00002460B465046594600F0C2FF82468B4613
:1005D00052465B46DDE9060100F0BAFF42464B4653
:1005E00000F0B6FF3EA3D3E9002380468946DDE94B
:1005F000040101F065F942464B4600F0A9FF0246AE
:100600000B46CDE902235046594600F0A1FF804633
:10061000894642464B46C4E900895046594600F097
:1006200097FFDDE9022300F093FF002EC4E90201E9
:10063000BFF68BAE09F10043C4E9008301F100432A
:10064000C4E902037F4280E6DDE906ABE1E700F0A2
:1006500081FF274B9D4206460F4618D022A3D3E9BF
:10066000002300F077FF8046894642464B463046DD
:10067000394600F06DFF1CA3D3E9002300F06AFFA8
:10068000C4E90089C4E902014FF0FF375DE60EA31B
:10069000D3E9002300F05EFF0DA3D3E90023064653
:1006A0000F4600F057FF8046894642464B4630468B
:1006B000394600F04DFF06A3D3E9002300F04AFFBE
:1006C000DEE700BFAFF300800000601A61B4D03DE8
:1006D0007370032E8A19A33B0000002E8A19A33BD6
:1006E000C14920259A837B393163621A61B4D03DB8
:1006F000FB21F93F2DE9F04FADF51B7D9C460C9198
:10070000BD4BA49953F82130059312F1140F0CF14D
:10071000FF3381460393C0F2AE82B849D31E81FBFA
:100720000301DB17C3EBA10307930133A3EB83039F
:10073000DB00D318079A0D930CF1FF33D61A059AF4
:1007400012EB03081CD408F10108DDF894A2B044B0
:1007500022AF00240025E34608E05AF8260001F005
:1007600045F801364645E7E8020108D0002EF4DAE4
:100770000136204629464645E7E80201F6D1DC4627
:10078000059B002BA9F108030493B8BF4FEACC06E0
:1007900037DB22AADDF80C90CDF808C002EBCC0ABA
:1007A000059A0DF5E47B4FEACC06624403EBCC08D6
:1007B0004B460092D94606969B46039B002BC0F2FF
:1007C0009B81049E57460024002577E90223F6E921
:1007D000020101F075F802460B462046294600F05A
:1007E000B9FE464504460D46EFD1009B0BF1010BC7
:1007F0009B45E9E802450AF1080ADED1DDF808C0A8
:10080000069E049B059A0D9FCDF82CC003EB060AAB
:100810000EAB03EB8203043B08930EAB03EB8206A3
:10082000CDE909A693469AAB03EBCB0353E92845E0
:10083000BBF1000F4FEACB0300932BDD0DF5E47AFB
:100840000AEB03080DF1380902976D4B0022204690
:10085000294601F035F801F0CDFA00F0C7FF694BE9
:10086000002206460F4601F02BF802460B462046B2
:10087000294600F06DFE01F0BDFA78E9022349F83F
:10088000040B3946304600F065FED04504460D465F
:10089000DBD1029F204629463A4600F039FB002270
:1008A0004FF07F5304460D4601F00AF800F0A0FC1B
:1008B000554B002201F004F802460B46204629461B
:1008C00000F046FE0D46044601F094FA064600F09C
:1008D0008DFF02460B462046294600F039FE002FC8
:1008E0008046894640F392800BF1FF300EAAC7F193
:1008F000180352F8202042FA03F404FA03F3D21A40
:10090000C7F117010EAB42FA01F5002D43F8202084
:10091000264400F3D980002200234046494601F0D6
:1009200037FA002800F05082059B9B450DDD0EAB89
:100930000A9803EB8B03002253F8041D834242EA1A
:100940000102F9D1002A40F0DA80059B0EAA013B92
:1009500052F82330002B40F0CB80089A012352F844
:10096000041D01330029FAD05B440BF101080799FB
:100970000B9A009E029308EB010A0AF1804AA5999E
:1009800006970AF1FF3A5A4401EB8A0A22A901EBC1
:10099000C209DDF824B0CDF800A072AA1644009B6D
:1009A00053F8040F009300F021FF039B002BE9E8AC
:1009B00002011DDB049FCA46002400257AE90223B8
:1009C000F7E9020100F07CFF02460B46204629466B
:1009D00000F0C0FD5F4504460D46EFD1029B08F1D3
:1009E00001084345E6E90245D9DA069F9B461AE726
:1009F00000240025F2E700BF00A10008ABAAAA2A44
:100A00000000703E000070410000204053D10BF107
:100A1000FF330EAA52F82350ED15002D7FF77BAF60
:100A2000BBF1000F06F1010640F33B820EAB002242
:100A300053F8044B002C3AD0C4F1807443F8044CB2
:100A40006FF07F4003E01968411A43F8041B01323C
:100A50009345F8DC0124002F0DDD012F3DD0022F3E
:100A600009D10BF1FF320EAB0EA953F82230C3F3BC
:100A7000150341F82230022D7FF44DAF42464B461C
:100A80009149002000F064FD80468946002C3FF427
:100A900042AF3A468C49002000F03AFA02460B4633
:100AA0004046494600F054FD8046894633E701320E
:100AB0009345BDDCCFE7854B002201F087F9002884
:100AC00040F0C780054626E7BBF1000F06F101069E
:100AD000D8BF0024AADC012FC1D10BF1FF320EAB2D
:100AE0000EA953F82230C3F3160341F82230C2E7AF
:100AF0000BF1010843463AE70024002575E60D9BFB
:100B00000BF1FF34A3F118020EABCDE9035653F8F5
:100B100024300D9263B90BF18043013B0EA901EB28
:100B2000830353F8041D013C183A0029F9D00D92B3
:100B30000D9A6549002000F0EBF9002C06460F469F
:100B4000C0F2BB8104F1010A0EAB03EB8A054FEA48
:100B5000CA0272ABDFF8789103EBCA0A4FF00008C3
:100B6000934655F8040D00F041FE32463B4600F036
:100B7000A7FE4B466AE9020142463046394600F07C
:100B80009FFE0EAB9D4206460F46EAD1ABF108032D
:100B900072A95A4601EB030A0DF594784FF000094B
:100BA000CDE9064243465246A346CA46DDF81490B4
:100BB000CDF81480B9F1000FC0F28380DFF8148102
:100BC00000931746002600240025029201E05645B6
:100BD00010DCF8E90223F7E8020100F071FE02469A
:100BE0000B462046294600F0B5FC0136B1450446C7
:100BF0000D46ECDA009B029A0BF1FF3BBBF1FF3F85
:100C0000E3E802450AF1010AA2F10802D2D1A49B4D
:100C1000DDF81480022BDDE906425DDC002B2FDCC1
:100C200010D108EB02040020002174E9022300F037
:100C300091FC4445F9D1039B002B40F02E810C9B85
:100C4000C3E90001049B03F007000DF51B7DBDE81F
:100C5000F08FBBF1000F06F10106C8BF02253FF778
:100C6000E5AE42464B461849002000F071FC0225D3
:100C7000804689464FE600216FF01703079158E53B
:100C800008EB02050026002775E9022330463946A5
:100C900000F060FC454506460F46F5D13B46DDE9D0
:100CA0004A01324600F054FC039B002B00F0DA802E
:100CB0000C9D07F10043C5E90063002C40F0D6808D
:100CC000DEE00024002597E70000F03F0000E03F51
:100CD0000000703E08A10008A49B032BB2D1002C99
:100CE00000F0FB8008EBC4054FEAC40AD5E90067B1
:100CF000CDE905A50095A946029459E9024530467B
:100D0000394622462B4600F025FCB246BB46064635
:100D10000F4632463B462046294600F019FC524613
:100D20005B4600F017FCC9E9000169E90267C145AB
:100D3000E3D1029C012CDDE905A500F0CE80D5E9C8
:100D40000045009E08F1080B474656E902892046F7
:100D5000294642464B46CDE9004500F0FBFB0446E0
:100D60000D4622462B464046494600F0F1FBDDE9A0
:100D7000002300F0EFFBC6E9000166E90245B34538
:100D8000E3D10AF10804B8463C4407F110050020FD
:100D9000002174E9022300F0DDFBA542F9D1039B99
:100DA000D8E90278DDE94A45002B46D10C9BC3E91E
:100DB0000401C3E90045C3E90278049B03F007007E
:100DC0000DF51B7DBDE8F08FCDE903560D9E404625
:100DD0004946724200F09CF84A4B00225F4680462A
:100DE000894600F0F3FFF8B1474B002240464946E0
:100DF00000F066FD00F0FEFF054600F0F7FC414BF9
:100E0000002200F05DFD0B4602464946404600F0D8
:100E10009FFB00F0EFFF7C1C0EAB183643F82B0055
:100E20000D9643F8245083E64046494600F0E2FF21
:100E30000EAB5C4643F82B007AE6264605F10044EB
:100E40000C9D08F10043C5E9027301F10043C5E9B7
:100E50000403049B03F00700C5E900640DF51B7D46
:100E6000BDE8F08F0C9BC3E9006764B10125F8E988
:100E70000223013500F06EFBAC42F8DA039B13B19C
:100E800001F1004319460C9BC3E90201049B03F0E6
:100E900007000DF51B7DBDE8F08F01F100431946F9
:100EA000CDE6022D7FF437AD02460B4600201749F0
:100EB00000F04EFB804689462DE5A49B022B06DC04
:100EC000002B0DDC7FF4BEAE00200021B3E6A49B16
:100ED000032B7FF4B7AE0DF59478002000215EE778
:100EE000039BDDE94A0133B10C9C00224FF0004323
:100EF000C4E90023C4E70C9C00220023C4E90023BA
:100F0000C1E700BF000070410000703E0000F03FEC
:100F10002DE9F0411646C1F30A52074688460B46B2
:100F200052BB21F00043034324D02D4B002200F09C
:100F3000C7FC2C4B9E420746884642DBC1F30A524F
:100F40000B46363A4CF250318E421EDC164440F2CB
:100F5000FE72964219DC002E23DC16F1350F27DBDA
:100F60006FF31E53363643EA065138461E4B0022B5
:100F700000F0A6FCBDE8F08140F2FF7C6245E1D1C3
:100F8000024600F0E7FABDE8F08111A3D3E900239F
:100F9000454663F31E052946144800F091FCBDE860
:100FA000F0816FF31E53384643EA0651BDE8F081E5
:100FB00008F0004343F0D27141F4B7310C4841F0DE
:100FC0001F0105A3D3E9002300F07AFCBDE8F081FE
:100FD0009C7500883CE4377E59F3F8C21F6EA5016A
:100FE00000005043B03CFFFF0000903C9C7500881F
:100FF00059F3F8C2000000002DE9F04F994621F0A6
:101000000043B3F1795F85B0904604460D4604D2A3
:1010100000F0F0FE002800F0858022462B46204696
:10102000294600F04DFC06460F4602460B46204678
:10103000294600F045FC3EA3D3E9002382468B46B7
:101040003046394600F03CFC3BA3D3E9002300F0D6
:101050007FFA32463B4600F033FC39A3D3E9002344
:1010600000F078FA32463B4600F02AFC36A3D3E97A
:10107000002300F06DFA32463B4600F021FC34A319
:10108000D3E9002300F066FA0E9BCDE900019BB383
:10109000334B00224046494600F012FCDDE90023B4
:1010A000CDE902015046594600F00AFC02460B46C3
:1010B000DDE9020100F04CFA32463B4600F000FC4C
:1010C00042464B4600F044FA23A3D3E900230646E8
:1010D0000F465046594600F0F3FB02460B46304699
:1010E000394600F037FA02460B462046294600F002
:1010F0002FFA05B0BDE8F08F02460B463046394660
:1011000000F0DEFB14A3D3E9002300F021FA5246DD
:101110005B4600F0D5FB22462B4600F01BFA05B0DB
:10112000BDE8F08F2046294605B0BDE8F08F00BF2E
:101130007CD5CF5A3AD9E53DEB9C2B8AE6E55A3E61
:101140007DFEB157E31DC73ED561C119A0012A3FFD
:10115000A6F810111111813F495555555555C53FF8
:101160000000E03F1F4A21F0004393421BD930B5F5
:101170001D4A934287B005D902460B4600F0E8F9B4
:1011800007B030BD02AAFFF7ABF800F00304012C52
:1011900017D0022C0BD0E4B9DDE90423DDE902010C
:1011A00000F0AAF8ECE70022002300F0A5B8DDE982
:1011B0000423DDE9020100F09FF801F1004107B0CE
:1011C00030BDDDE90423DDE902010094FFF714FFDF
:1011D000F3E70124DDE90423DDE902010094FFF7D0
:1011E0000BFFCDE7FB21E93FFFFFEF7F0000000091
:1011F000C1F30A5C2DE9F041ACF2FF35132D024634
:101200000B460C46064632DC002D20DBDFF8E08082
:1012100048FA05F801EA080C5CEA000C0F462BD0EE
:1012200031A3D3E9002300F095F90022002300F058
:10123000D7FD40B1002C03DA4FF480132B411F443B
:1012400027EA0804002621463046BDE8F08126A39F
:10125000D3E9002300F07EF90022002300F0C0FD56
:101260000028F0D0002C27DB00263446EBE7332D96
:1012700006DDB5F5806F1CD010461946BDE8F0813B
:10128000ACF2134C4FF0FF3727FA0CF70742F3D0BC
:1012900015A3D3E9002300F05DF90022002300F03C
:1012A0009FFD0028CFD0002C33460CDB23EA070635
:1012B000C9E700F04FF9E1E724F0004426430DD1DF
:1012C0004FF00044BFE7142D06D0C5F134050122CC
:1012D000AA401344B342E9D20134E7E7054C0026A3
:1012E000B1E700BFAFF300809C7500883CE4377E17
:1012F000FFFF0F000000F0BF2DE9F04F21F0004884
:10130000B8F1795F85B092469B4606460F466BD290
:1013100000F070FD002800F0EA8032463B4630467F
:10132000394600F0CDFA74A3D3E9002304460D46F4
:1013300000F0C6FA72A3D3E9002300F00BF92246AD
:101340002B4600F0BDFA70A3D3E9002300F000F9AA
:1013500022462B4600F0B4FA6DA3D3E9002300F037
:10136000F9F822462B4600F0ABFA6BA3D3E9002331
:1013700000F0EEF822462B4600F0A2FA68A3D3E96B
:10138000002300F0E7F822462B4600F099FACDE959
:101390000001654B00222046294600F091FADDE964
:1013A0000023804689462046294600F089FA5246A5
:1013B00004460D465B463046394600F081FA024647
:1013C0000B462046294600F0C3F802460B4640462D
:1013D000494600F0BDF802460B460020534900F094
:1013E000B7F805B0BDE8F08F02460B4600F068FA8A
:1013F00041A3D3E9002304460D4600F061FA40A35F
:10140000D3E9002300F0A6F822462B4600F058FA54
:101410003DA3D3E9002300F09BF822462B4600F0C1
:101420004FFA3BA3D3E9002300F094F822462B4661
:1014300000F046FA38A3D3E9002300F089F82246E9
:101440002B4600F03DFA36A3D3E9002300F082F8E2
:101450002B46224600F034FA354B9845CDE9000181
:1014600097D9344B98454FF0000238D8A8F50013AF
:101470002E4900209046994600F06AF8CDE9020115
:10148000294B00222046294600F01AFA42464B46D4
:1014900000F05EF8DDE900238046894620462946B3
:1014A00000F00EFA524604460D465B463046394679
:1014B00000F006FA02460B462046294600F048F89E
:1014C00002460B464046494600F042F802460B46AB
:1014D000DDE9020100F03CF805B0BDE8F08F164BE5
:1014E000DFF85890CDE902234FF00008C8E70F4914
:1014F000002005B0BDE8F08FD43888BEE9FAA8BD59
:10150000C4B1B4BD9EEE213EAD529C804F7E923E52
:101510009015CB19A001FA3E7751C1166CC1563F08
:101520004C5555555555A53F0000E03F0000F03F94
:101530003233D33F0000E93F0000E73F0000D23FD5
:1015400021F000431946704781F0004102E000BFDE
:1015500083F0004330B54FEA41044FEA430594EA73
:10156000050F08BF90EA020F1FBF54EA000C55EAAE
:10157000020C7FEA645C7FEA655C00F0E2804FEA7F
:101580005454D4EB5555B8BF6D420CDD2C4480EA61
:10159000020281EA030382EA000083EA010180EA91
:1015A000020281EA0303362D88BF30BD11F0004FDF
:1015B0004FEA01314FF4801C4CEA113102D0404215
:1015C00061EB410113F0004F4FEA03334CEA133350
:1015D00002D0524263EB430394EA050F00F0A78068
:1015E000A4F10104D5F1200E0DDB02FA0EFC22FA63
:1015F00005F2801841F1000103FA0EF2801843FA57
:1016000005F359410EE0A5F120050EF1200E012A47
:1016100003FA0EFC28BF4CF0020C43FA05F3C01885
:1016200051EBE37101F0004507D54FF0000EDCF1FE
:10163000000C7EEB00006EEB0101B1F5801F1BD3A7
:10164000B1F5001F0CD349085FEA30004FEA3C0CAB
:1016500004F101044FEA445212F5800F80F09A80A1
:10166000BCF1004F08BF5FEA500C50F1000041EBA5
:10167000045141EA050130BD5FEA4C0C404141EBA9
:101680000101013C28BFB1F5801FE9D291F0000FA4
:1016900004BF01460020B1FA81F308BF2033A3F153
:1016A0000B03B3F120020CDA0C3208DD02F1140C4A
:1016B000C2F10C0201FA0CF021FA02F10CE002F185
:1016C0001402D8BFC2F1200C01FA02F120FA0CFC7E
:1016D000DCBF41EA0C019040E41AA2BF01EB0451C7
:1016E000294330BD6FEA04041F3C1CDA0C340EDCC5
:1016F00004F11404C4F1200220FA04F001FA02F308
:1017000040EA030021FA04F345EA030130BDC4F1C5
:101710000C04C4F1200220FA02F001FA04F340EABA
:101720000300294630BD21FA04F0294630BD94F06B
:10173000000F83F4801306BF81F480110134013D52
:101740004EE77FEA645C18BF7FEA655C29D094EAC3
:10175000050F08BF90EA020F05D054EA000C04BF41
:101760001946104630BD91EA030F1EBF002100202C
:1017700030BD5FEA545C05D14000494128BF41F0CB
:10178000004130BD14F580043CBF01F5801130BD2F
:1017900001F0004545F0FE4141F470014FF00000BA
:1017A00030BD7FEA645C1ABF194610467FEA655C6B
:1017B0001CBF0B46024650EA013406BF52EA03350D
:1017C00091EA030F41F4002130BD00BF90F0000FFB
:1017D00004BF0021704730B54FF4806404F1320437
:1017E0004FF000054FF0000150E700BF90F0000FF0
:1017F00004BF0021704730B54FF4806404F1320417
:1018000010F0004548BF40424FF000013EE700BFE6
:1018100042004FEAE2014FEA31014FEA02701FBF76
:1018200012F07F4393F07F4F81F06051704732F0A8
:101830007F4208BF704793F07F4F04BF41F40021FF
:10184000704730B54FF4607401F0004521F000415D
:101850001CE700BF50EA010208BF704730B54FF0E7
:1018600000050AE050EA010208BF704730B511F0E8
:10187000004502D5404261EB41014FF4806404F120
:1018800032045FEA915C3FF4D8AE4FF003025FEAA6
:10189000DC0C18BF03325FEADC0C18BF033202EB2A
:1018A000DC02C2F1200300FA03FC20FA02F001FA84
:1018B00003FE40EA0E0021FA02F11444BDE600BF27
:1018C00070B54FF0FF0C4CF4E06C1CEA11541DBFD6
:1018D0001CEA135594EA0C0F95EA0C0F00F0DEF8A1
:1018E0002C4481EA030621EA4C5123EA4C5350EA86
:1018F000013518BF52EA033541F4801143F48013D7
:1019000038D0A0FB02CE4FF00005E1FB02E506F067
:101910000042E0FB03E54FF00006E1FB03569CF0BC
:10192000000F18BF4EF0010EA4F1FF04B6F5007FC2
:1019300064F5407404D25FEA4E0E6D4146EB060634
:1019400042EAC62141EA55514FEAC52040EA5E50BD
:101950004FEACE2EB4F1FD0C88BFBCF5E06F1ED867
:10196000BEF1004F08BF5FEA500E50F1000041EB9E
:10197000045170BD06F0004646EA010140EA02004B
:1019800081EA0301B4EB5C04C2BFD4EB0C0541EA6D
:10199000045170BD41F480114FF0000E013C00F382
:1019A000AB8014F1360FDEBF002001F0004170BDA6
:1019B000C4F10004203C35DA0C341BDC04F11404BF
:1019C000C4F1200500FA05F320FA04F001FA05F24B
:1019D00040EA020001F0004221F0004110EBD37018
:1019E00021FA04F642EB06015EEA430E08BF20EA44
:1019F000D37070BDC4F10C04C4F1200500FA04F3E7
:101A000020FA05F001FA04F240EA020001F0004178
:101A100010EBD37041F100015EEA430E08BF20EAEB
:101A2000D37070BDC4F1200500FA05F24EEA020E33
:101A300020FA04F301FA05F243EA020321FA04F062
:101A400001F0004121FA04F220EA020000EBD37019
:101A50005EEA430E08BF20EAD37070BD94F0000F19
:101A60000FD101F00046400041EB010111F4801F4D
:101A700008BF013CF7D041EA060195F0000F18BFFE
:101A8000704703F00046520043EB030313F4801F3A
:101A900008BF013DF7D043EA0603704794EA0C0FF4
:101AA0000CEA135518BF95EA0C0F0CD050EA41060A
:101AB00018BF52EA4306D1D181EA030101F0004187
:101AC0004FF0000070BD50EA410606BF10461946AF
:101AD00052EA430619D094EA0C0F02D150EA0136BB
:101AE00013D195EA0C0F05D152EA03361CBF1046FC
:101AF00019460AD181EA030101F0004141F0FE419B
:101B000041F470014FF0000070BD41F0FE4141F41E
:101B1000780170BD70B54FF0FF0C4CF4E06C1CEA1E
:101B200011541DBF1CEA135594EA0C0F95EA0C0FD3
:101B300000F0A7F8A4EB050481EA030E52EA03358E
:101B40004FEA013100F088804FEA03334FF08055AF
:101B500045EA131343EA12634FEA022245EA1115DC
:101B600045EA10654FEA00260EF000419D4208BF8D
:101B7000964244F1FD0404F5407402D25B084FEA3A
:101B80003202B61A65EB03055B084FEA32024FF4E6
:101B900080104FF4002CB6EB020E75EB030E22BF43
:101BA000B61A754640EA0C005B084FEA3202B6EB03
:101BB000020E75EB030E22BFB61A754640EA5C00B2
:101BC0005B084FEA3202B6EB020E75EB030E22BF42
:101BD000B61A754640EA9C005B084FEA3202B6EB43
:101BE000020E75EB030E22BFB61A754640EADC0002
:101BF00055EA060E18D04FEA051545EA16754FEA64
:101C000006164FEAC30343EA52734FEAC2025FEA81
:101C10001C1CC0D111F4801F0BD141EA00014FF010
:101C200000004FF0004CB6E711F4801F04BF0143E1
:101C30000020B4F1FD0C88BFBCF5E06F3FF6AFAEFD
:101C4000B5EB030C04BFB6EB020C5FEA500C50F18D
:101C5000000041EB045170BD0EF0004E4EEA113110
:101C600014EB5C04C2BFD4EB0C0541EA045170BD17
:101C700041F480114FF0000E013C90E645EA060E5B
:101C80008DE60CEA135594EA0C0F08BF95EA0C0F89
:101C90003FF43BAF94EA0C0F0AD150EA01347FF4D1
:101CA00034AF95EA0C0F7FF425AF104619462CE7A8
:101CB00095EA0C0F06D152EA03353FF4FDAE10460B
:101CC000194622E750EA410618BF52EA43067FF45C
:101CD000C5AE50EA41047FF40DAF52EA43057FF4EC
:101CE000EBAE12E74FF0FF3C06E000BF4FF0010CF7
:101CF00002E000BF4FF0010C4DF804CD4FEA410C5B
:101D00007FEA6C5C4FEA430C18BF7FEA6C5C1BD027
:101D100001B050EA410C0CBF52EA430C91EA030FA8
:101D200002BF90EA020F0020704710F1000F91EA05
:101D3000030F58BF994208BF90422CBFD8176FEAD3
:101D4000E37040F0010070474FEA410C7FEA6C5CA1
:101D500002D150EA013C07D14FEA430C7FEA6C5CA8
:101D6000D6D152EA033CD3D05DF8040B704700BFD4
:101D70008446104662468C461946634600E000BF22
:101D800001B5FFF7B7FF002848BF10F1000F01BDF4
:101D90004DF808EDFFF7F4FF0CBF012000205DF8BF
:101DA00008FB00BF4DF808EDFFF7EAFF34BF012044
:101DB00000205DF808FB00BF4DF808EDFFF7E0FFDD
:101DC00094BF012000205DF808FB00BF4DF808ED2E
:101DD000FFF7CEFF94BF012000205DF808FB00BF95
:101DE0004DF808EDFFF7C4FF34BF012000205DF877
:101DF00008FB00BF4FEA410212F5001215D211D5BF
:101E00006FF47873B3EB625212D94FEAC12343F0F7
:101E1000004343EA505311F0004F23FA02F018BF79
:101E2000404270474FF00000704750EA013005D142
:101E300011F0004008BF6FF0004070474FF0000005
:101E4000704700BF53B94AB9002908BF00281CBF1A
:101E50004FF0FF314FF0FF3001F03AB9ADF1080C0F
:101E60006DE904CE00F006F8DDF804E0DDE90223B8
:101E700004B070472DE9F047089D0E4604460F4612
:101E8000002B4AD194468C45B2FA82F260D942B115
:101E9000C2F12003974020FA03F30CFA02FC1F431F
:101EA00094404FEA1C4E1FFA8CF6B7FBFEF1230C50
:101EB0000EFB117743EA074301FB06F098420AD96B
:101EC0001CEB030301F1FF3780F01581984240F2CB
:101ED0001281023963441B1AA4B2B3FBFEF00EFB5D
:101EE000103344EA034400FB06F6A6420AD91CEB71
:101EF000040400F1FF3380F00081A64240F2FD802F
:101F00006444023840EA0140A41B00211DB1D440C2
:101F10000023C5E90043BDE8F0878B4205D90DB128
:101F2000C5E9000100210846F5E7B3FA83F100296D
:101F300046D1B34202D3824200F2F580841A66EBA6
:101F4000030201201746002DE5D0C5E90047E2E76E
:101F5000002A40F09380A1EB0C034FEA1C471FFAC4
:101F60008CFE0121B3FBF7F607FB1630230C43EA86
:101F700000430EFB06F0984208D91CEB030306F160
:101F8000FF3802D2984200F2D08046461B1AA4B213
:101F9000B3FBF7F007FB103344EA03440EFB00FEEB
:101FA000A64508D91CEB040400F1FF3302D2A64574
:101FB00000F2B6801846A4EB0E0440EA0640A5E7FE
:101FC000C1F120078B4022FA07FC4CEA030C06FA09
:101FD00001FE20FA07F426FA07F344EA0E0400FA99
:101FE00001F84FEA1C404FEA1449B3FBF0FE1FFA18
:101FF0008CF600FB1E3349EA03430EFB06F99945B4
:1020000002FA01F20BD91CEB03030EF1FF3A80F048
:102010008580994540F28280AEF1020E6344A3EBC5
:102020000909A4B2B9FBF0F300FB139944EA09448F
:1020300003FB06F6A64208D91CEB040403F1FF30AB
:1020400068D2A64266D9023B644443EA0E40A41B10
:10205000A0FB02E6B4427346B14652D34FD05DB105
:10206000B8EB030264EB090404FA07F722FA01F360
:102070001F43CC40C5E9007400214CE7C2F12001A8
:1020800020FA01F30CFA02FC26FA01F196403343E0
:102090004FEA1C471FFA8CFEB1FBF7F007FB101646
:1020A000190C41EA064100FB0EF68E4204FA02F4D6
:1020B00008D91CEB010100F1FF382DD28E422BD93B
:1020C00002386144891B9BB2B1FBF7F607FB16117E
:1020D00043EA014306FB0EF1994208D91CEB0303C6
:1020E00006F1FF3814D2994212D9023E63445B1ABA
:1020F00046EA004136E73946EDE6184602E7F04584
:10210000ADD2BEEB020366EB0C060138B146A6E782
:102110004646ECE7034698E74046D3E7D6467EE7D7
:102120006444023847E708460DE7023E63442DE762
:1021300003685A004CBF43F0004323F000431844A7
:10214000704700BF2DE9F04759B301F1FF3805464C
:10215000164647464FF0000A0AEB070101EBD17122
:10216000491005EBC1094846FFF7E2FF88454FEAF1
:10217000C104034610D004F10800B342284407D834
:10218000FFF7D6FF0138B04208D201F1010AE3E7B8
:102190008A4506D04F1EDFE7B042F9D84846BDE871
:1021A000F0874FF000094846BDE8F087012809D0C4
:1021B000022805D0044B00280CBF184600207047A9
:1021C0000248704702487047892800089128000893
:1021D0008D28000830B5224B83B004468D1E43B3D2
:1021E00001A92846AFF30080F0B101992A46FFF714
:1021F000A9FF0146C0B1FFF79BFF4B68A064012B0C
:102200002BD0002B01F1040025DBFFF791FF002309
:1022100023650368E064002B12DBFFF789FF0346A8
:102220000020236103B030BD00230920236103B0E7
:1022300030BD0C4B0C49C91AC91018460191D5E79D
:10224000C3F30360FFF7B2FF031E0CBF0920002099
:10225000236103B030BD0123DAE700230520E0E766
:102260000000000054A5000844A700080368DA072E
:1022700010B5044606D49B0700F1500009D500F0C4
:1022800095FC2368590709D51A070ED5DB0613D527
:1022900010BD00F083FC23685907F5D404F1D80081
:1022A00000F08CFC23681A07F0D404F5AC7000F041
:1022B0008DFC2368DB06EBD404F5EC70BDE8104020
:1022C00000F0C8BC0346006800B11844704700BF66
:1022D00009207047704700BF70B504460E46316C48
:1022E0002046FFF777FF054688B9326C62612369A3
:1022F00032462146012098470828F0D0072806D109
:102300002846316CFFF7E6FF301D00F03BFCFFDE96
:102310002DE9F04701F1040CC768D0F81880064693
:102320009146BCE80F00ADF5767D03AC0FC4BCE868
:102330000F000FC4BCE80F000FC49CE80F0002ADF3
:102340004FF0000E84E80F00C5F800E021E02B6C90
:1023500073614FF4F47229467CA801F0B7FA33692F
:102360007CAA3146504698478A9BAB644946CDE9E2
:1023700000588246334601203246B847814630BB7A
:102380004FF4F4727CA9284601F0A0FABAF1080FC4
:102390001AD1296C3046FFF71DFF09F109090446DF
:1023A0005FFA89FA0028D2D0AB6BAB643246CDE934
:1023B000005833464AF010010120B84738B920468A
:1023C0000DF5767DBDE8F087BAF1070F05D0092439
:1023D00020460DF5767DBDE8F0874846296CFFF76D
:1023E00079FF03A800F0CEFB806C7047F0B5CB6B93
:1023F0000B6401F1040C0E460546BCE80F00FBB06F
:1024000001AC0FC4BCE80F000FC4BCE80F000FC440
:102410009CE80F004FF0FF3784E80F00009706E0BC
:102420002B696A46294698470828044608D110991E
:102430002846FFF7CFFE0028F2D009207BB0F0BD80
:102440006846FFF713FF062CF7D131462846FFF701
:1024500043FF00BFC160D96B826119640022194635
:1024600056E700BF70B5C66843690B64AEB903692F
:102470000A4604460D46014602209847072805D023
:1024800008280ED129462046FFF726FF3046296C42
:10249000FFF720FF281D00F075FB0122FFF738FF32
:1024A000FFDEFFDEC2681AB1CA6B0A6400222FE7A2
:1024B0009CE700BF704700BF836801460BB1012055
:1024C00018477047052915D8DFE801F00A031403FF
:1024D000030501207047009A436C13600020704789
:1024E00043B90F2A06D800EB820200205368009AF5
:1024F000136070470220704700B585B00A4600237C
:1025000003A900911946FFF7DDFF039805B05DF8B8
:1025100004FB00BF052915D8DFE801F00A03140306
:10252000030501207047009B1B684364002070472F
:1025300043B90F2A06D8009B00EB82021B68536048
:10254000002070470220704710B584B0002303AC10
:10255000039200940A461946FFF7DCFF04B010BD51
:1025600070B5D36B136402F1040C05460C46BCE84D
:102570000F00ADF5107D0DF15C0EAEE80F00BCE86C
:102580000F00AEE80F00BCE80F00AEE80F009CE8BB
:102590000F004FF0FF368EE80F00169610E0FFF7A1
:1025A000D3FF214616A8A847034616AA0820694665
:1025B00083B9049B9847052806460CD0092809D002
:1025C00026996846FFF706FE03460C216A4616A8C0
:1025D000002BE4D0092616A8FFF748FE30460DF57B
:1025E000107D70BD2DE9F04F1646CA6C89B00D46BE
:1025F00052F8041B069200F0030C002B79D00C0C4F
:102600008DF81D400904E4B2059102EB8402022119
:102610008DF81C10296DBCF1020F08BFAA6B11F0D8
:10262000010809D005A9304600F0AEFB002856D1BC
:10263000082009B0BDE8F08F1768002FF2D000F035
:102640000801CDE90118E3469A46BAF1020F4CD0D1
:102650001788548802F10409AA6C24F001030F21A1
:10266000304603EB0208FFF747FF80453BD827F0D1
:10267000010202EB0803834294BF0023012364009C
:1026800004F0020407F001072743012F4ED0022F68
:1026900035D027BBBBF1000F02D0002B40F0D38018
:1026A00009F104021768002FCFD105A93046DDF8E3
:1026B000088000F069FB90B9B8F1000FB8D00F2185
:1026C0003046FFF719FF0E2102463046FFF73CFF68
:1026D0006C4A0F213046FFF737FF072000E0092042
:1026E00009B0BDE8F08F0023C9E7546802F108097A
:1026F000B2E7090205918DF81D30032188E7D9F86A
:10270000004024F00048BBF1000F47D12BB1019BE2
:10271000002B5CD0B8F1000F59D0002C01DA09F180
:10272000040908F1010209EB8202BBE7BBF1000FCB
:102730001CD1C3B1D9F80430D9F80020991C4FEA54
:10274000D272CCD005F158040133049400F08E808D
:1027500009F10400FFF7B6FD04AB0146284607F077
:102760008FFA002859D109F108029BE70D21304664
:10277000FFF7C2FE2C6A8442F5D1AB6A9945F2D1CB
:102780004846FFF7D5FC0F2102463046FFF7DCFE36
:102790002A4600213046FFF7D7FE9EE70D2130463E
:1027A000FFF7AAFE2F6A8742B7D1AB6A9945B4D129
:1027B00000240423C5E90B434B44C5F828806B6310
:1027C000D9F80030A34258DB01230293A9E705F1B1
:1027D0005803CDF80CB009F10407B34600241E4697
:1027E0000BE038460496FFF76DFD0022014604AB6E
:1027F000284607F045FA0437F8B9444504F10104C6
:10280000EFD10D215846FFF777FE049BC5F82890BD
:102810000246C5E90823062062E704460D2130463A
:10282000FFF76AFE049E2862022C04BFEE6205F1E7
:102830002C06C5E90969062052E75E46D9F8004032
:10284000DDF80CB069E74846FFF772FC09F10403B4
:102850000446AB63284607F06BFA00283FF43FAF0D
:1028600022460F213046FFF76FFE36E730460D2136
:10287000FFF742FE26462862DBE708F1010209EB7A
:1028800082007EE7619E00080023ABE60123A9E6F3
:102890000223A7E62DE9F0410646C4B014460529F7
:1028A00000F2D880DFE811F012002D00D6006C0095
:1028B00091000600836B002C40F0CC8053F8042B71
:1028C00042648363002044B0BDE8F081002B40F0F7
:1028D000C180856B1FFA84FC012006F1040E00FA0A
:1028E00003F111EA0C0F2A4604D052F8041B4EF8EB
:1028F000231015460133102BF1D1A704E2D4B563A0
:10290000E0E7012B4FEA1447A4B200F08380052BC7
:1029100040F0A08007EB0408B8F1200F00F29A8085
:102920000F2F40F29980002CCCD00268500700F1A4
:102930001881019302AD284600F044F94FEA440C97
:10294000A7F11000B16B019B0CF1FF3C05EBC0003F
:102950000CF1010C043801EB8C0251F8044B40F8E7
:10296000044F9142F9D1012B00F0DE800F2FB163AB
:1029700002D822A800F01AF9284600F01FF9A1E7B2
:10298000032B67D1A7B207EB1443102B4FEA144473
:1029900060D80368190700F1BF8022AD284600F017
:1029A00037F97A00B06B05EBC404531E42B1011B2A
:1029B000625844F8042B013B5A1CF9D100EBC700C4
:1029C000B063284600F002F97CE7002B42D1102CBE
:1029D00040D80368DD0600F1978022AD284600F05C
:1029E00043F9B76B294600234FF0010C0CFA03F2B0
:1029F0002242384603F1010303D050F8042B0A6049
:102A00000746042B01F10401F0D1B763284600F01A
:102A100021F957E73A19102A1CD8102F1AD002684A
:102A2000D00708D5304622F0030240F8502B01931E
:102A300000F0B8F8019B019322AD284600F0B2F8EF
:102A4000B26B019B002C58D10432B263284600F0CF
:102A5000A5F837E7022036E7B8F1100F026865D90C
:102A6000D40772D522F0010242F0020240F8502B46
:102A7000019300F09FF83268019B12F0040F66D1B9
:102A800022AD2846019300F095F802A800F09AF8CC
:102A9000C7F110014900B26B019BA8F1100C4C1E4C
:102AA00005EBC7000134043802EB840152F8044BF3
:102AB00040F8044F8A42F9D1BCF1000F5AD0102FD0
:102AC000384638BF10204FEA4C0C103802AD0CF1DC
:102AD000FF3C05EBC0003BE7304622F0010242F02C
:102AE000020240F8502B22AD019300F063F8284613
:102AF00000F060F8B26B24B3019B6400013C05EB6D
:102B0000C7004FF0000CCDE723F01003036000F581
:102B1000EC7000F0A9F860E723F00803036000F50B
:102B2000AC7000F075F838E722AD8DE7D107D3D44B
:102B300022AD2846019300F03DF8B26B019B002CBA
:102B4000DBD1284600F032F8BCE6540798D5304671
:102B500022F0040240F8D82B019300F033F8019BD7
:102B60008EE7304622F0040240F8D82B019300F0A3
:102B700029F8DFE6012B3FF467AF0F2FB2633FF672
:102B8000A1AEDEE700F1340191E838009C46A6468C
:102B90004CF8045D90E8FF0FE54600BD90EC210B7A
:102BA000704700BF80EC210B704700BF90EC200BFA
:102BB000704700BF80EC200B704700BFD0EC200BAB
:102BC000704700BFC0EC200B704700BFF0EC020163
:102BD000F0EC0211F0EC0221F0EC0231F0EC0241D9
:102BE000F0EC0251F0EC0261F0EC0271F0EC0281C9
:102BF000F0EC0291F0EC02A1F0EC02B1F0EC02C1B9
:102C0000F0EC02D1F0EC02E1F0EC02F1704700BF11
:102C1000E0EC0201E0EC0211E0EC0221E0EC023118
:102C2000E0EC0241E0EC0251E0EC0261E0EC027108
:102C3000E0EC0281E0EC0291E0EC02A1E0EC02B1F8
:102C4000E0EC02C1E0EC02D1E0EC02E1E0EC02F1E8
:102C5000704700BFB0FC0181B0FC0191B0FC01A144
:102C6000B0FC01B1704700BFA0FC0181A0FC019144
:102C7000A0FC01A1A0FC01B1704700BFEC4600B56B
:102C80002DE900502DE9FF1F4FF000032DE90C0046
:102C900001A9FFF7ABFBDDF840E012B0704700BFC1
:102CA000EC4600B52DE900502DE9FF1F4FF0000361
:102CB0002DE90C0001A9FFF7D5FBDDF840E012B0CB
:102CC000704700BFEC4600B52DE900502DE9FF1F0D
:102CD0004FF000032DE90C0001A9FFF7E3FBDDF83D
:102CE00040E012B0704700BFEC4600B52DE900503F
:102CF0002DE9FF1F4FF000032DE90C0001ABFFF79A
:102D0000A9FBDDF840E012B0704700BFEC4600B50B
:102D10002DE900502DE9FF1F4FF000032DE90C00B5
:102D200001AAFFF71DFCDDF840E012B0704700BFBC
:102D3000027A03467AB9427AA2B14168013A10B4E4
:102D40004272086803220C1D1A7202025C60000EB7
:102D500010BC1A6070470068013A1A7202021A60C9
:102D6000000E7047B020704700B585B003AA00235D
:102D7000009219460C22FFF7A5FB039805B05DF8F9
:102D800004FB00BFF0E700BF2DE9F043064685B025
:102D90000D464FF000082846FFF7CAFFB02804464A
:102DA00000F01C8107065BD500F0F003A02B1AD0C1
:102DB00030D8802B00F08280902B27D100F00D03BB
:102DC0000D2B23D002AF002300F00F02194600970D
:102DD0003046FFF777FB002300970D221946304657
:102DE000FFF798FBD7E7C34303F007034FF47F6275
:102DF0001A41010702F47F6201D542F480420023A8
:102E000019463046FFF746FD0028C4D0092005B01A
:102E1000BDE8F083B02B68D0C02B3DD1C62800F0B0
:102E2000CA80C72800F0DF8000F0F803C02B00F054
:102E3000EC80C82800F0F780C928E7D12846FFF7C2
:102E400077FF020300F00F0002F47022013002430A
:102E5000012105233046FFF71DFD00289BD0D5E753
:102E60008300DBB21F1D0DF1080900231946CDF8C0
:102E700000900D223046FFF725FB029BCDF8009015
:102E800060064CBFDF1BFF1800230D221946304699
:102E90000297FFF73FFB7EE700F0F803D02BB5D198
:102EA00000F007020132052342F4002201213046DE
:102EB000FFF7F0FC00283FF46EAFA7E72846FFF7C6
:102EC00037FF24022043B0F5004F9FD004010023B8
:102ED000A2B219463046FFF7DDFC002896D114F463
:102EE000004F18BF4FF0010855E7A0F1B103042BC4
:102EF00000F2B580DFE803F05529160C030003AAA1
:102F00000023009219460D223046FFF7DBFA42E714
:102F100000231A4605213046FFF7BCFC00283FF489
:102F20003AAF73E72846FFF703FF020300F00F00F4
:102F3000013002F470220123024319463046FFF7A4
:102F4000A9FC00283FF427AF60E700230DF1080932
:102F50000D221946CDF800903046FFF7B3FA284607
:102F6000FFF7E6FE0206029C4FF002070BD500F0C9
:102F70007F00B840044428460294FFF7D9FE0306B8
:102F800007F10707F3D4B840002304F501740444A3
:102F9000CDF800900D22194630460294FFF7BAFA98
:102FA000F9E62846FFF7C4FE431EDBB20E2B0246AD
:102FB0007FF625AF2AE72846FFF7BAFE020300F0A6
:102FC0000F00013002F470220323024319463046F9
:102FD000FFF760FC00283FF4DEAE17E7B8F1000F02
:102FE0002DD0002013E72846FFF7A2FE431EDBB2D8
:102FF0000E2B02463FF60AAF002304213046FFF7AE
:1030000049FC00283FF4C7AE00E700F00F02013290
:10301000032342F4202219463046FFF73BFC0028E8
:103020003FF4B9AEF2E62846FFF782FE00F0F00268
:1030300000F00F031032013343EA023208E702AC1A
:103040004346414600940E223046FFF73BFA0F22DA
:103050000094434641463046FFF75CFAC1E700F072
:10306000FC03B42B3FF4D2AE00F00702013201237F
:1030700042F4002219463046FFF70CFC00283FF4CA
:103080008AAEC3E610B5C26C536884B04FF0030C2F
:1030900008321C0208461B0E01A9019402928DF809
:1030A0000CC08DF80D30FFF76FFE04B010BD00BFEF
:1030B00008B5FFF767FE806C08BD00BF08B5FFF7D5
:1030C00061FEC06CC37900EB8300083008BD00BF0F
:1030D000704700BF10B4044C03460A46206810BC79
:1030E000194600F0B5BC00BF0000002000B5054B3C
:1030F00083B0014601AA186800F0AAFC03B05DF88D
:1031000004FB00BF00000020830730B547D0541EE9
:10311000002A3ED0CAB2034601E0013C39D303F88D
:10312000012B9D07F9D1032C2CD9CDB205EB052538
:103130000F2C05EB054535D9A4F1100222F00F0C38
:1031400003F1100EE6444FEA121C1A46C2E900557C
:10315000C2E9025510327245F8D10CF1010214F0A7
:103160000C0F03EB021204F00F0C13D0ACF10403AC
:1031700023F003030433134442F8045B9342FBD16E
:103180000CF003042CB1C9B21C4403F8011BA34288
:10319000FBD130BD64461346002CF4D1F9E7034659
:1031A0001446C0E71A46A446E0E700BF11F0FF014D
:1031B000034600F0030239D08ABB026810B501EB68
:1031C000012E0EEB0E4E8EEA0204A2F1013323EA29
:1031D0000203A4F1013222EA0402134313F0803FF8
:1031E0000FD150F8044F84EA0E0CA4F10133ACF176
:1031F000013223EA040322EA0C02134313F0803F56
:10320000EFD0037823B936E010F8013F002B32D01D
:103210009942F9D110BD8A4228D09A0729D01A784C
:1032200018460133002AF6D110467047CAB9026821
:10323000A2F1013323EA020313F0803F08D150F8D2
:10324000042FA2F1013323EA020313F0803FF6D0EA
:1032500003785BB110F8013F002BFBD17047990751
:1032600005D0184613F8012B002AF8D170471846EC
:10327000DDE71846A1E7184610BD00BF00000000BA
:1032800002780B78012A28BF9A4240F0D8806DE975
:10329000044540EA0104CDE902676FF0000C4FEAF3
:1032A00044721AB380EA010414F0070F6BD100F0E6
:1032B000070420F0070004F0030521F007014FEA9E
:1032C000C505F0E8042314F0040FF1E804670CFAD4
:1032D00005F462EA040266EA04060BD063EA04031A
:1032E000624667EA0407664604E000BFF0E804238C
:1032F000F1E8046782FA4CF582EA0604A4FA8CF439
:103300006CBB83FA4CF583EA0705A5FA8CF595B9F1
:1033100050E9022351E9026782FA4CF582EA060479
:10332000A4FA8CF483FA4CF583EA0705A5FA8CF528
:103330002543DBD09CB92DBAB5FA85F424F00704F7
:1033400027FA04F1DDE9026723FA04F303F0FF0032
:1033500001F0FF01FDE80445A0EB0100704724BA2D
:10336000B4FA84F424F0070426FA04F1DDE90267D4
:1033700022FA04F202F0FF0001F0FF01FDE804452B
:10338000A0EB0100704714F0030F3CD110F00304D0
:1033900028D150F8082B51F8083B82FA4CF582EA04
:1033A0000305A5FA8CF55DB950F8042C51F8043CDE
:1033B00082FA4CF582EA0305A5FA8CF5002DE8D0D7
:1033C0002DBAB5FA85F424F0070423FA04F122FAA1
:1033D00004F202F0FF0001F0FF01FDE80445A0EB5C
:1033E000010070474FEAC40420F0030050F8082B96
:1033F00021F0030151F8083B0CFA04F462EA0402DC
:1034000063EA0403C9E710F003041DD0A1EB040133
:1034100020F00300E40750F8042B06D012D28B787A
:103420005FFAA2F4E41A06D12BB1CB785FFAB2F4BA
:10343000E41A00D133B920465DF8104B7047A2EB77
:103440000300704701F1040150F8042BCC0721F070
:10345000030151F8043B48D824D222F07F4482FA79
:103460004CF594EA1325A5FA8CF50AD165B951F803
:10347000043B84EA0204B4EB036F0ED150F8042B32
:10348000EBE74FEA132355E035F07F454DD108783F
:10349000FDE80445C0F1000070474FEA126203F0F6
:1034A000FF0347E002EA1C4482FA4CF594EA134514
:1034B000A5FA8CF50AD165B951F8043B84EA0204F7
:1034C000B4EB034F0CD150F8042BEBE74FEA134356
:1034D00030E015EA1C4528D10B884FEA124229E05A
:1034E0004FEA124203EA1C4324E002F0FF0482FA8E
:1034F0004CF594EA1365A5FA8CF50AD165B951F833
:10350000043B84EA0204B4EB032F09D150F8042BE6
:10351000EBE74FEA13630DE015F0FF0F05D10B68E1
:103520004FEA122223F07F4304E04FF00000FDE851
:103530000445704712BA1BBA82FA4CF482EA0304BB
:10354000A4FA8CF5B5FA85F402FA04F203FA04F34E
:103550004FEA1260FDE80445A0EB1360704700BF1E
:103560002DE9F047074649480E46354616F801EB67
:1035700010F80EC01CF0080CF7D1BEF12D0F5AD078
:10358000BEF12B0F03BF96F800E06446AE1C644604
:103590004BB9BEF1300F5CD00A23DFF8F4804FF056
:1035A000050A99460AE0102B4AD04FF0FF38B8FBC5
:1035B000F3F803FB08FA6FEA0A0A99460025284641
:1035C00005E02CD009FB00C0012516F801EBAEF197
:1035D000300CBCF1090F06D9AEF1410CBCF1190F4A
:1035E0000BD8AEF1370C634510DDB5F1FF3FECD0E1
:1035F0004045E6D94FF0FF35E7E7AEF1610CBCF18D
:10360000190F03D8AEF1570C6345EEDC6B1C0BD0E1
:1036100004B140420AB165B91160BDE8F087D445F4
:10362000D0DD4FF0FF35D0E722233B602846002A4B
:10363000F3D0711EF0E796F800E00124AE1CA7E776
:10364000BEF1300F11D04FF00F0A6FF0704899465D
:10365000B4E7337803F0DF03582B0BD008234FF087
:10366000070A6FF060489946A8E7307800F0DF005D
:103670005828E8D14FF0100996F801E04FF00F0AF2
:1036800002366FF070484B4698E700BF51A1000822
:103690009999991964E700BF10B4044C8446134605
:1036A000206810BC0A4661465AE700BF00000020AF
:1036B00010B4044C84461346206810BC0A46614688
:1036C0004EE700BF00000020014B1868704700BFA4
:1036D0000000002008B5062000F070FD012002F077
:1036E0006FFE00BF032A30B415D941EA0004A407D5
:1036F00084460B4604D0541E0FE0043A032A08D92E
:103700001946604653F8044B5CF8045BA542F4D0BC
:10371000F1E760461946541E7AB1431E0139021979
:1037200001E09A4209D013F8010F11F801CF60456A
:10373000F7D0A0EB0C0030BC7047002030BC7047C5
:10374000242B2DE9F84F43D8012B41D0804649481E
:103750001F468E4675461EF801BB10F80B4014F04C
:103760000804F7D1BBF12D0F6FD0BBF12B0F08BFB1
:103770009EF800B06FF0004908BF05F1020E73BB60
:10378000BBF1300F4BD00A273B460025B9FBF7F6BB
:10379000284607FB169A05E03AD007FB00C0012532
:1037A0001EF801BBABF1300CBCF1090F06D9ABF12F
:1037B000410CBCF1190F19D8ABF1370C63451EDD74
:1037C000B5F1FF3FECD08642E6D24FF0FF35E7E798
:1037D000FFF77AFF162303600020BDE8F88F102B57
:1037E000D3D1BBF1300F23D01F46CEE7ABF1610C34
:1037F000BCF1190F03D8ABF1570C6345E0DC6B1C2F
:103800002BD054B9002AE8D085BB1160BDE8F88FF1
:10381000E245C2DA4FF0FF35C2E74042F2E79EF8D8
:10382000003003F0DF03582B08D008273B46ACE7F5
:103830009EF8000000F0DF005828D5D110279EF830
:1038400001B03B460EF1020E9FE79EF800B04FF02C
:10385000004905F1020E012491E72223C8F8003047
:1038600032B10EF1FF3148461160CFE78146F8E7EB
:103870004846B2E751A1000862E700BF10B4044C0B
:1038800084461346206810BC0A46614658E700BFCC
:103890000000002010B4044C84461346206810BC7D
:1038A0000A4661464CE700BF00000020024B01467B
:1038B000186800F0D9BF00BF00000020024B01468D
:1038C000186801F03DBB00BF00000020844641EABB
:1038D000000313F003036DD1403A41D351F8043B88
:1038E00040F8043B51F8043B40F8043B51F8043BDA
:1038F00040F8043B51F8043B40F8043B51F8043BCA
:1039000040F8043B51F8043B40F8043B51F8043BB9
:1039100040F8043B51F8043B40F8043B51F8043BA9
:1039200040F8043B51F8043B40F8043B51F8043B99
:1039300040F8043B51F8043B40F8043B51F8043B89
:1039400040F8043B51F8043B40F8043B51F8043B79
:1039500040F8043B51F8043B40F8043B403ABDD2E8
:10396000303211D351F8043B40F8043B51F8043B8A
:1039700040F8043B51F8043B40F8043B51F8043B49
:1039800040F8043B103AEDD20C3205D351F8043B19
:1039900040F8043B043AF9D2043208D0D2071CBFE5
:1039A00011F8013B00F8013B01D30B88038060460E
:1039B000704700BF082A13D38B078DD010F0030384
:1039C0008AD0C3F10403D21ADB071CBF11F8013BF4
:1039D00000F8013B80D331F8023B20F8023B7BE743
:1039E000043AD9D3013A11F8013B00F8013BF9D26E
:1039F0000B7803704B7843708B7883706046704708
:103A000070B50F4B0F4DAB42A3EB050607D0B610B8
:103A1000002455F8043B01349847A642F9D806F033
:103A200099FA094D094B5E1BAB424FEAA60606D038
:103A3000002455F8043B01349847A642F9D870BDDC
:103A400044A7000844A7000844A7000850A700089E
:103A50002DE9F047DFF8749007460E46904600F0D7
:103A6000DBFCD9F800504DB133781C466BB13446BD
:103A700002E014F8013F3BB13D2BFAD1384600F08B
:103A8000CDFC0020BDE8F087A41B28680028F5D0F5
:103A90002246314600F022FE28B92868035D3D2BFE
:103AA00000EB040A04D055F8040F0028F0D1E5E734
:103AB000D9F80030EB1A9B103846C8F8003000F0F7
:103AC000ADFC0AF10100BDE8F08700BF68050020E9
:103AD00000B583B001AAFFF7BBFF03B05DF804FB9C
:103AE00000207047024A0349034800F099BC00BF18
:103AF0002801002039510008080000200C4B4168C3
:103B0000994210B5044601D001F016FBA168094B9B
:103B1000994202D0204601F00FFBE168064B994222
:103B200004D02046BDE8104001F006BB10BD00BF28
:103B30009C050020040600206C0600200020704731
:103B40002DE9F8432A4C2B49DFF8AC90DFF8AC8024
:103B50002B4FC4F83811002504230822294604F10C
:103B60005C00284EE360C4E90055C4E90455A56033
:103B70006566A561FFF7C8FA234B636708222946EB
:103B800004F1C400C4E90749C4E90987C4E91A5526
:103B9000C4E91E552567C4F8CC50C4F88050E662CD
:103BA000FFF7B2FA194BC4F8DC30294604F1680378
:103BB000082204F59670C4F88430C4E92298C4E958
:103BC0002476C4E93455C4E93855C4F8D850C4F84B
:103BD0003451C4F8E850FFF797FA04F1D003C4E970
:103BE0003C98C4E93E76C4F8EC30BDE8F88300BFE9
:103BF0009C050020E53A0008E55100080D52000838
:103C00004D52000871520008090001001200020024
:103C1000F8B5254BD3F838310646002B3CD0234F5E
:103C2000D7E90134013B04D51DE05A1C04F16804B6
:103C300019D0B4F90C50013B002DF6D11C4BE360B8
:103C4000C4E90155C4E9045565662560A5610822EB
:103C5000294604F15C00FFF757FAC4E90C55C4E9A2
:103C600011552046F8BD3D680DB12F46D8E74FF4F9
:103C7000D671304600F0F8FD044680B10423C0E957
:103C800000530C302946A0604FF4D0722546FFF750
:103C90003BFA3C602F46C3E7FFF752FFBFE70C2318
:103CA00038603360DDE700BF9C050020280100205C
:103CB0000100FFFF436B03B17047044B044AD3F884
:103CC00038314263002BF7D13AE700BF9C05002052
:103CD000FD3A0008704700BF704700BF024A034921
:103CE000002000F09DBB00BF28010020E13A000841
:103CF000024A0349002000F093BB00BF28010020C6
:103D00003D3B000870B504468AB008460D4600F0F9
:103D100017FB164E626B079001214318CDE908612D
:103D2000022006A903910695A16805930490A2B10B
:103D3000B1F90C204B6E900405D442F4005223F4E8
:103D400000538A814B669B040DD403AA204600F0E1
:103D500017F840B90A200AB070BD20460191FFF75C
:103D6000A9FF0199E4E74FF0FF30F4E7CCA2000887
:103D7000024B01461868FFF7C5BF00BF00000020D6
:103D80009368002B00F0F6802DE9F04FB1F90CC0DC
:103D90001CF0080F83B0904681460C4631D00B6969
:103DA0007BB31CF00207D8F8006038D00027D4F8A5
:103DB00024B0E169DFF8BCA23D4655452B463A46A2
:103DC00028BF53464846C5B1D847002840F3C880AD
:103DD000D8F808301B1A07442D1AC8F80830002BF1
:103DE00000F0B48055452B46D4F824B0E16928BFD3
:103DF00053463A464846002DE6D1D6E900750836C6
:103E0000DBE72146484600F0DDFF002840F0AD80AA
:103E1000B4F90CC0D8F800601CF00207C6D11CF041
:103E2000010A63D12368A168574618468B46002FC4
:103E300058D01CF4007F00F0B180B9420A4600F26D
:103E4000DD801CF4906F2FD0216962695D1A02EB4E
:103E5000420202EBD2726B1C52103B44934292BF5F
:103E600093469B461A461CF4806F00F0E68011468C
:103E7000484600F0F9FC002800F0F5802A46216948
:103E80000190FFF723FDA289019B22F4906242F08A
:103E90008002A2815819ABEB0505C4F814B0236168
:103EA000A5602060BB463A465146019200F05CFC9A
:103EB000A1682368019AA1EB0B011A443D46A16059
:103EC00022600027D8F808305B1BAA44C8F80830E5
:103ED000002B3BD02368A168B4F90CC018468B4670
:103EE000002FA6D1D6E900A708369EE73846BB4684
:103EF0003D46002D40D0002845D03A46D4E904C3C1
:103F00002068A168AA4228BF2A46604504D901EB6F
:103F1000030A524500F38280934272DCE169D4F8CF
:103F200024C05A464846E047B0F1000A18DDB7EB16
:103F30000A070FD00120D8F80830A3EB0A03D344B6
:103F4000A5EB0A05C8F80830002BD2D1002003B039
:103F5000BDE8F08F2146484600F086FB0028EAD0F5
:103F6000B4F90C3043F04003A3814FF0FF3003B0AD
:103F7000BDE8F08F00207047756833460836002D85
:103F8000FAD0D3F800B02A460A21584600F070FA59
:103F9000002865D00130A0EB0B07AEE722699A42FA
:103FA00014D36269BA4211D86FF00043BB4228BFF4
:103FB0003B46656A93FBF2F3E16902FB03F3484673
:103FC0005246A847051ECBDD7F1B7BE7B94228BFC1
:103FD00039460D4618460A46514600F0C5FBA16811
:103FE0002368491B2B44A16023600029ECD12146A2
:103FF000484600F039FB0028E6D0B1E7BB463A4618
:1040000052E75946019200F0AFFB019AA3689B1A50
:10401000A360236813442360924688E759465246BA
:1040200000F0A2FB2368534423602146484600F079
:104030001BFB00283FF47BAF92E7484601F04EF9A6
:10404000034600287FF426AF2169484600F078FF38
:10405000B4F90C300C22C9F8002023F0800381E76A
:104060006A1C17464AE70C22B4F90C30C9F8002044
:1040700078E700BF00FCFF7F002301461A46184680
:1040800001F0FAB838B5D0F818410CB1002038BDAD
:104090008021054600F0E8FB0246C5F8180130B162
:1040A000031F7C3243F8044F9342FBD1EEE74FF0FD
:1040B000FF3038BD30B51F2983B0054609D8D0F888
:1040C00018310C4653B153F8240043F8242003B0B0
:1040D00030BD162303604FF0FF30F8E780210192D6
:1040E00000F0C2FB019AC5F8180103460028F2D07F
:1040F000011F00F17C05002041F8040FA942FBD10B
:10410000E1E700BF1F2938B505461FD8D0F81821B0
:104110000C466AB152F8213053B1012B06D0591C1C
:1041200010D0002142F8241020469847002038BDC6
:10413000284600F003FA224601462846BDE83840EA
:1041400000F0E6B916230360012038BD1623036092
:104150004FF0FF3038BD00BF1F292CD838B5D0F83C
:1041600018310C460546A3B153F8242003EB840311
:104170004AB1511C0BD0012A07D0002520461D60F2
:104180009047284638BD012038BD032038BD0220A5
:1041900038BD802100F068FB0346C5F8180138B12E
:1041A000021F00217C3042F8041F8242FBD1DBE772
:1041B0004FF0FF3038BD4FF0FF30704738B5144B2B
:1041C0001F281D681ED8D5F81821044662B152F880
:1041D00020304BB1012B05D0591C0FD0002142F8E3
:1041E00020109847002038BD284600F0A7F9224645
:1041F00001462846BDE8384000F08AB916232B60F6
:10420000012038BD16232B604FF0FF3038BD00BFB2
:1042100000000020124B1F2870B51E6809D8D6F880
:10422000183104460D464BB153F8240043F824508E
:1042300070BD162333604FF0FF3070BD80213046D3
:1042400000F012FB0346C6F818010028F3D0021F45
:1042500000217C3042F8041F8242FBD1E4E700BF1A
:104260000000002038B50C4B1D68D5F818410CB182
:10427000002038BD8021284600F0F6FAC5F8180164
:1042800038B1031F00F17C0243F8044F9342FBD185
:10429000EEE74FF0FF3038BD0000002038B5184B76
:1042A0001F281D6828D80446D5F81801A0B150F879
:1042B000243000EB84004BB15A1C0BD0012B07D0EB
:1042C0000025056020469847284638BD012038BDA6
:1042D000032038BD022038BD8021284600F0C4FAF2
:1042E000C5F8180140B1031F00F17C01002243F81A
:1042F000042F8B42FBD1DAE74FF0FF3038BD00BF0F
:104300000000002038B5074D074C2C1BA41005D029
:10431000013C55F8043D9847002CF9D1BDE83840E0
:1043200005F01EBE54A7000850A7000800000000BA
:10433000000000000000000000000000000000007D
:1043400030B490F800F020F007016FF0000C10F08E
:10435000070491F820F040F048804FF000046FF01F
:104360000700D1E9002391F840F000F1080082FA3B
:104370004CF2A4FA8CF283FA4CF3A2FA8CF34BBB06
:10438000D1E9022382FA4CF200F10800A4FA8CF27F
:1043900083FA4CF3A2FA8CF3E3B9D1E9042382FA4D
:1043A0004CF200F10800A4FA8CF283FA4CF3A2FA62
:1043B0008CF37BB9D1E9062301F1200182FA4CF29A
:1043C00000F10800A4FA8CF283FA4CF3A2FA8CF301
:1043D000002BC6D0002A04BF04301A4612BAB2FA23
:1043E00082F200EBD20030BC7047D1E9002304F028
:1043F0000305C4F100004FEAC50514F0040F91F85D
:1044000040F00CFA05F562EA05021CBF63EA0503F9
:1044100062464FF00004AAE7704700BF704700BF34
:104420002DE9F8430746884616464FF00009D6E9BD
:104430000154013D10D4A389012B08D9B4F90E30E1
:1044400001332146384602D0C04749EA0009013D00
:104450006B1C04F16804EED13668002EE7D14846A3
:10446000BDE8F8830000000000000000000000002C
:1044700001F0FF01102A2BDB10F0070F08D010F815
:10448000013B013A8B422DD010F0070F42B3F6D119
:10449000F0B441EA012141EA014122F007047FF032
:1044A00000070023F0E80256083C85EA010586EA89
:1044B000010685FA47F5A3FA87F586FA47F6A5FAC5
:1044C00087F68EB9EED1F0BC01F0FF0102F00702D1
:1044D00032B110F8013B013A83EA010313B1F8D17C
:1044E0000020704701387047002D06BF354603385D
:1044F000073815F0010F07D1013015F4807F02BF96
:10450000013015F4C03F0130F0BC0138704700BFE6
:1045100070B50C46084D03460026204611461C4641
:104520002E6001F045FF431C00D070BD2B68002BAE
:10453000FBD0236070BD00BF1007002001F036BF24
:10454000B1F90C20F8B516070C46074649D449685E
:1045500042F400630029A3815FDDA56A002D3ED0EF
:10456000002112F480523E683960E16961D1012373
:104570003846A847451C02466BD0B4F90C30A56AF2
:10458000E169580705D56368D21A236B0BB1E36B59
:10459000D21A00233846A847411C4CD13968B4F9D7
:1045A0000C301D293FD82F4ACA40D2073BD522697B
:1045B000226023F40062A281DD044FF000026260F9
:1045C00001D5002943D0216B3E6041B104F1400385
:1045D000994202D0384600F0B3FC00232363002048
:1045E000F8BD0E69002EFAD00D680E6092070CBF60
:1045F0004B690023AD1B8B600CE0D4F824C0E1694B
:104600002B4632463846E047B0F1000CA5EB0C05CE
:10461000664406DD002DF0DCE1E7E16B00299CDC5F
:10462000DDE7B4F90C3043F04003A3814FF0FF30D5
:10463000F8BD226DA5E7B4F90C302269226023F49D
:104640000062A281DB044FF000026260BBD52065EE
:10465000B9E73B68002B90D01D2B01D0162BE0D181
:104660003E60BCE70100402010B5044682B008B1AE
:10467000436B53B1B1F90C0008B902B010BD20462C
:1046800002B0BDE81040FFF75BBF0191FFF712FBDE
:104690000199EFE7A0B138B50C4B1D6804460DB188
:1046A0006B6B4BB1B4F90C0000B938BD21462846FC
:1046B000BDE83840FFF744BF2846FFF7FBFAF1E7B3
:1046C000034A04490448FFF7ABBE00BF00000020C6
:1046D000280100206946000808000020002A3ED07A
:1046E00030B584460446084380070B462ED1032A82
:1046F00007D82BE0043A25D01EF0803F22D1032AB0
:1047000022D92068194653F8045BA0F1013EA84263
:10471000A4462EEA000E04F10404EBD09CF800003D
:104720000C7884421DD1E64668B11EF8010F11F8DD
:10473000014FA2EB0E03A04203F1FF3311D11CEB9A
:104740000303F1D1002030BDA44619469CF80000B7
:104750000C78A04205D1012AF4D0E646E4E71046E1
:104760007047001B30BD00BF88420ED98B188342B2
:104770000BD900EB020C002A6ED0624613F801CD73
:1047800002F801CD9942F9D170470F2A0FD803469C
:1047900002F1FF3C002A5FD00CF1010C013B8C447C
:1047A00011F8012B03F8012F6145F9D1704740EA58
:1047B00001039B0751D1A2F1100370B501F1200C48
:1047C00023F00F0501F1100E00F11004AC441B0999
:1047D0005EF8105C44F8105C5EF80C5C44F80C5C0D
:1047E0005EF8085C44F8085C5EF8045C44F8045C1D
:1047F0000EF1100EE64504F11004E9D1013312F078
:104800000C0F01EB031102F00F0400EB031328D08F
:10481000043C24F003064FEA940C1E441C1F8E46F1
:104820005EF8045B44F8045FB442F9D10CF1010472
:1048300002F0030203EB840301EB840102F1FF3C6D
:104840004AB10CF1010C013B8C4411F8012B03F827
:10485000012F6145F9D170BD704702F1FF3C03465D
:104860009AE72246EAE700BF2DE9F04F01F10B0578
:10487000162D83B0064623D8102900F2AF8000F031
:10488000E5FE102518230220C14F3B44A3F1080286
:104890005C68944200F025816368E268A16823F0B7
:1048A0000303CA602344304691605A6842F0010213
:1048B0005A6000F0CDFE0834204603B0BDE8F08F0A
:1048C00035F0070500F18A80A94200F2878000F0E8
:1048D000BDFEB5F5FC7FC0F06D816B0A00F08280F3
:1048E000042B00F22481AB0903F1390003F1380EE7
:1048F000C300A74F3B44A3F1080C5C68A44507D153
:104900000DE0002AE16880F2E6808C4507D00C4675
:10491000636823F003035A1B0F2AF2DD7046DFF8A9
:1049200074823C69444500F0C380636823F0030C43
:10493000ACEB05030F2B00F34181002BC7E9048882
:1049400080F22C81BCF5007FD7F804E080F0CF80A6
:104950004FEADC0101314FEA5C1C012303FA0CF33E
:1049600057F83120A2604EEA030E07EBC103083B63
:10497000E360C7F804E047F83140D46083104FF09B
:10498000010C0CFA03FCF44532D81CEA0E0F08D1D6
:1049900020F003004FEA4C0C1CEA0E0F00F104005B
:1049A000F8D007EBC00AD6468146DEF80C300BE0A3
:1049B000596821F003014A1B0F2A1C46DB6800F3EB
:1049C000C280002A80F2D6809E45F1D109F101090A
:1049D00019F0030F0EF1080EE7D118E10C23336034
:1049E000002469E74FF4007340204FF03F0E80E74A
:1049F000BC68636823F00309A94503D3A9EB050349
:104A00000F2B58DCDFF890B1DBF8002004EB090332
:104A10001032082002EB0508009300F0D5FBD7F810
:104A200008140131024605D008F1FF3880444142A4
:104A300001EA080841463046009200F00BFEB0F152
:104A4000FF3F009A824600F0D48004EB09038342C2
:104A500000F2CD80DBF804104144CBF80410084686
:104A600002F1FF3C40F0F5801AEA0C0F40F0F180B3
:104A7000D7F808A0C84448F00100CAF80400DBF8E1
:104A80002C208A42DBF8302038BFCBF82C108A4229
:104A900038BFCBF83010544620F00308A845A8EBE7
:104AA000050301D30F2B06DC304600F0D1FD97E75C
:104AB000D7F804E062E7621943F0010345F001050D
:104AC00065603046BA60536000F0C2FD083420468D
:104AD00003B0BDE8F08FA2682344D16030468A60FD
:104AE000E3E6DC68A3427FF4D7AE023017E7BCF5FB
:104AF000206F4FEA5C2273D3142A00F20A8102F17C
:104B00005C03DB005B32F918FB580839994203D18A
:104B1000E6E09B68994204D05A6822F0030262459D
:104B2000F7D8D968C4E902318C60DC6026E7142B21
:104B300062D9542B00F2F6802B0B03F16F0003F1C6
:104B40006E0EC300D5E6D4F808C03046661945F0AD
:104B500001056560CCF80C30C3F808C042F00103D1
:104B6000C7E90466C6E902887360625000F070FD10
:104B70000834A1E6214430464A6842F001024A6006
:104B800054F8082FD3609A6000F062FD94E600BFED
:104B90003801002040010020D8060020A4443046FF
:104BA000DCF8043043F00103CCF8043000F050FD91
:104BB000083481E6E80805F1080365E6621943F068
:104BC000010145F0010565603046C7E90422C2E9EC
:104BD0000288516044F80C3000F03AFD08346BE66E
:104BE0004FEA9C1202F13903DB0038328BE7BC42FA
:104BF00028D0BC6860684FE703F15C0003F15B0EEE
:104C0000C30076E65AF80839534540F0D88010F0D2
:104C1000030F00F1FF30F5D17B6823EA0C037B60C2
:104C20004FEA4C0C9C453FF6E3AEBCF1000F04D1BB
:104C3000DEE64FEA4C0C09F104091CEA030FF8D038
:104C40004846AEE6DBF804004044CBF8040002F12D
:104C5000FF3CD7F8081401316ED004EB0903AAEB2E
:104C600003031844CBF804001AF00703009341D063
:104C7000C3F108018A44D0440A4408EA0C01521ADC
:104C800002EA0C013046019100F0E4FC421C6FD0B6
:104C90000199A0EB0A0000EB0108DBF80420C7F83B
:104CA00008A048F001001144BC42CAF80400CBF847
:104CB00004103FF4E4AEB9F10F0F40D96268A9F1D6
:104CC0000C0020F0070002F001020243626005239D
:104CD00022180F28C2E9013352D8DAF80400CEE6D0
:104CE00092104FF0010C0CFA02F24EEA020EC7F8D5
:104CF00004E017E70AEB080101EA0C01521A02EA84
:104D00000C013046019100F0A5FC431CC0D1009974
:104D1000C3E7542A17D84FEA1C3202F16F03DB00B5
:104D20006E32F0E6B3F5AA7F17D8EB0B03F17800EB
:104D300003F1770EC300DCE5C7F808A494E701236C
:104D4000CAF80430B0E6B2F5AA7F23D84FEADC32C5
:104D500002F17803DB007732D5E640F254529342F9
:104D600023D8AB0C03F17D0003F17C0EC300C0E53A
:104D7000009BA3F108029044A8EB0A0800218CE7ED
:104D800004F10801304600F0DBF8DBF80410D7F836
:104D900008A0A2E740F254539A420CD84FEA9C4232
:104DA00002F17D03DB007C32ADE64FF47E737F20A1
:104DB0004FF07E0E9DE54FF47E737E22A3E67B6866
:104DC0002EE700BF38B52F4B1B6805460C4613B1C4
:104DD0005A6B002A4BD0B4F90C3018071CD5226945
:104DE00022B313F0010107D0616900204942A0609D
:104DF000A1613AB1002038BD980758BF6169A16030
:104E0000002AF7D1190658BF1046F4D543F04003E5
:104E1000A3814FF0FF3038BDD9062CD55A0712D4E4
:104E2000226943F00803A381002ADAD103F4207138
:104E3000B1F5007FD5D02146284600F02FFCB4F90B
:104E40000C302269CDE7216B51B104F1400291424F
:104E500004D0284600F074F8B4F90C300022226324
:104E600022690021C4E9002123F02403D9E7184670
:104E7000FEF720FFAFE7092243F040032A60A38139
:104E8000C7E700BF000000202DE9F84306460820D0
:104E9000894600F099F9DFF89C800546304600F01D
:104EA000D5FBD8F808305F6827F00307A7F1110495
:104EB000A4EB09042C44B4FBF5F4013C05FB04F419
:104EC000A54208DC0021304600F0C4FBD8F80830C9
:104ED0003B44984205D0304600F0BAFB0020BDE8C4
:104EE000F8836142304600F0B5FB01300FD0124A22
:104EF000D8F808303F1B47F001075F601368304661
:104F00001B1B136000F0A4FB0120BDE8F883002107
:104F1000304600F09FFBD8F80820831A0F2BDADD0B
:104F200043F001035360054B03491B68C01A086036
:104F3000D1E700BF38010020DC060020400500203A
:104F400000297CD0F8B50C46064600F07FFB54F8EB
:104F5000043C764FA4F1080523F001016818D7F846
:104F600008C04268844522F0030200F08380DB071A
:104F7000426000EB020C33D454F8084CDCF80430E7
:104F80002D1B2144AC6807F1080C644503F00103B4
:104F900064D0D5F80CE0C4F80CE0CEF80840002B43
:104FA00000F0818041F001036B600160B1F5007F8A
:104FB00022D27868CB080122490901338A40024392
:104FC00057F833107A6007EBC302083AC5E90212BA
:104FD00047F83350CD603046BDE8F84000F038BBAC
:104FE000DCF80430DB072BD541F00103B1F5007F7D
:104FF00044F8043C0160DCD3B1F5206F4FEA512343
:1050000053D28B0903F1390003F13802C300F818B9
:10501000FB580838984203D161E09B68984204D05D
:105020005A6822F003028A42F7D8D868C5E90230EC
:105030008560DD603046BDE8F84000F009BB704790
:10504000114407F1080C836863453FD0C268DA60F9
:10505000936041F001036B606950A7E7002B5FD1BB
:105060000A44D0E90213CB60996042F001036B60FF
:10507000AA50B0E70A44D90707D454F8083CED1AFF
:105080001A44D5E90213CB60996042F001036B60CA
:10509000274BBD601B6893429DD8264B304619684C
:1050A000FFF7F2FE97E71144CDE7142B08D9542BF4
:1050B0001DD80B0B03F16F0003F16E02C300A6E7CE
:1050C00003F15C0003F15B02C300A0E741F00103C0
:1050D000C7E90455C5E902CC6B6069507BE7796884
:1050E0009210012404FA02F20A437A609EE7B3F5B3
:1050F000AA7F06D8CB0B03F1780003F17702C30037
:1051000085E740F25452934206D88B0C03F17D00A0
:1051100003F17C02C3007AE74FF47E737E2276E7C8
:1051200041F001036B60016055E700BF38010020CA
:1051300044050020D806002070B539B106460C465B
:1051400008B1436B83B3B4F90C3013B9002528467A
:1051500070BD21463046FFF7F3F9E36A054633B1E7
:10516000E169304698470028B8BF4FF0FF35A38962
:105170001B061CD4216B41B104F14003994202D0BB
:105180003046FFF7DDFE00232363616C21B130461A
:10519000FFF7D6FE00236364FEF79CFD0023A38186
:1051A000FEF79AFD284670BDFEF784FDCBE7216926
:1051B0003046FFF7C5FEDDE7024B01461868FFF7F2
:1051C000BBBF00BF00000020082802D14FF4805070
:1051D000704708B5FEF778FA162303604FF0FF30EA
:1051E00008BD00BF10B50C46B1F90E1000F0F4FA7E
:1051F000002803DB236D0344236510BDA38923F43A
:105200008053A38110BD00BF002070472DE9F041FD
:105210000C46B1F90C101F46CB05054616460BD4BB
:1052200021F48051A1813B46B4F90E103246284644
:10523000BDE8F04100F0F4B9B4F90E1002230022E9
:1052400000F0E0FAB4F90C10EAE700BF10B50C4624
:10525000B1F90E1000F0D6FAB4F90C30421C0EBFB2
:1052600023F4805343F480532065A38110BD00BF15
:10527000B1F90E1000F000BA70B4164D2C681CB3D2
:1052800065681F2D23DC38B9AB1C0135656044F817
:105290002310002070BC704704EB850C0228CCF86A
:1052A0008820D4F888614FF0010202FA05F246EA3C
:1052B0000206C4F88861CCF80831E5D1D4F88C3105
:1052C0001343C4F88C31DFE7034C2C60D8E74FF070
:1052D000FF30DFE70C070020140700202DE9F84F0E
:1052E0001646002900F096800C46804606F10B0514
:1052F00000F0ACF954F8041C162DA4F1080921F0B3
:10530000030758D81025AE4258D8AF4260DABE4BDA
:105310009A6809EB070C6245DCF8040000F0908005
:1053200020F0010363445B68DB0768D420F00300CE
:105330003B189D4247DDCB0712D454F8083CA9EB3B
:10534000030BDBF8043023F00302104400EB070AE0
:10535000554540F3F68007EB020A554540F3CC80F3
:1053600031464046FFF780FA0646002800F02081CB
:1053700054F8043C23F001034B44A0F1080293428B
:1053800000F0B4803A1F242A00F2D780132A00F2DA
:10539000A2800346224611681960516859609268DC
:1053A0009A6021464046FFF7CBFD404600F050F999
:1053B0003046BDE8F88F35F00705A4D50C23C8F8B2
:1053C0000030002618E01F46DCE90223D3609A6013
:1053D000D9F804307A1B0F2A03F0010309EB070008
:1053E0001DD83B43C9F80430436843F001034360D0
:1053F000404600F02DF926463046BDE8F88FC90733
:10540000AED454F8083CA9EB030BDBF8043023F0CE
:105410000302A0E7BDE8F84F1146FFF725BA09EBF4
:1054200005012B4342F00102C9F804304A60436889
:1054300043F00103436008314046FFF781FDD7E7A1
:1054400020F00300C21905F1100C624580F2918032
:10545000CA0785D454F8082CA9EB020BDBF804200A
:1054600022F00302104400EB070AD4453FF773AF64
:105470005E46DBF80C1056F8080F3A1F242AC1606C
:10548000886000F2AE80132A40F2A9802168CBF830
:1054900008106168CBF80C101B2A00F2A8800834B1
:1054A0000BF110022168116061685160A168916080
:1054B0000BEB0501AAEB050242F0010299604A607C
:1054C000DBF8043003F001032B434046CBF80430F3
:1054D00000F0BEF890E723680360636843601B2A0E
:1054E0003CD804F1080200F1080354E750F8043CEA
:1054F00023F003031F446BE73A1F5E46DBF80C30D2
:1055000056F8081F242ACB60996022D8132A1ED986
:105510002368CBF808306368CBF80C301B2A3BD8E3
:1055200008340BF1100322681A6062685A60A2689E
:105530009A6034465746D9464AE72146FFF714F9A0
:105540002FE7DCE902133A1FCB609960D5E73346B9
:10555000E9E721463046FFF707F9EAE7A3688360E9
:10556000E368C360242A27D004F1100200F110037D
:1055700011E709EB05019960531B43F001034B60F0
:1055800054F8043C03F001032B43404644F8043C28
:1055900000F05EF826462FE7A368CBF81030E368EA
:1055A000CBF81430242A10D010340BF11803BAE7CA
:1055B000404600F04DF804E72369036161694161E9
:1055C00004F1180200F11803E5E62369CBF818305E
:1055D0006369CBF81C3018340BF12003A3E7324683
:1055E00060E721463046FFF7BFF8074B60E7A16848
:1055F000CBF81010E168CBF81410242A06D0103430
:105600000BF118024EE700BF380100202269CBF8E9
:1056100018206269CBF81C2018340BF1200241E7F6
:1056200038B50C46084D8446114620461A460023DC
:105630002B60644600F0D8FE431C00D038BD2B68B8
:10564000002BFBD0236038BD10070020704700BF3F
:10565000704700BF38B5074D0022044608462A604F
:1056600000F0DEFE431C00D038BD2B68002BFBD0C1
:10567000236038BD1007002038B5074D00220446CE
:1056800008462A6000F0BEFE431C00D038BD2B68DF
:10569000002BFBD0236038BD100700202DE9F0411E
:1056A000B1F90C300C46990796B008D504F14303C4
:1056B0000122C4E90432236016B0BDE8F081B4F9D8
:1056C0000E100029064626DB6A4600F0B1F80028D5
:1056D0001FDB019D05F47045A5F50055B5FA85F56C
:1056E0004FF480686D094FF4006741463046FFF77C
:1056F000BBF8E8B1B4F90C30C4F8148043F080036F
:1057000020602061A3813DBB3B43A38116B0BDE86F
:10571000F081B4F90C3013F0800519D04FF0400837
:105720000025414630462F46FFF79EF80028E1D17C
:10573000B4F90C309A05BFD423F0030304F14302FB
:1057400043F002030121C4E90421A3812260B3E7ED
:105750004FF480682F46C8E7B4F90E10304600F0C9
:105760007DF810B9B4F90C30CEE7A38923F0030318
:1057700043F001031BB2C7E770B50C46B1F90E1038
:10578000002996B015461E4614DB6A4600F050F814
:1057900000280FDB019901F47041A1F50051B1FA25
:1057A00081F14FF4806349094FF4006031602B6050
:1057B00016B070BDA18911F0800106D000214023F0
:1057C000084631602B6016B070BD4FF48063084608
:1057D00031602B6016B070BD38B50C46084D84465C
:1057E000114620461A4600232B60644600F0EEFD69
:1057F000431C00D038BD2B68002BFBD0236038BD84
:105800001007002038B50C46084D84461146204646
:105810001A4600232B60644600F000FE431C00D0B3
:1058200038BD2B68002BFBD0236038BD100700204B
:1058300070B50C46084D03460026204611461C460E
:105840002E6000F0E3FD431C00D070BD2B68002BE0
:10585000FBD0236070BD00BF1007002038B5074D96
:105860000022044608462A6000F0D6FD431C00D002
:1058700038BD2B68002BFBD0236038BD10070020FB
:105880002DE9F84FDFF808811F46D8F80030BFF344
:105890005B8FDB0704460D4616465DD5DFF8F4A0A6
:1058A000DFF8F4B036A3D3E9002330463946FCF7DD
:1058B00007F822462B46FBF74BFEDBE900230446A4
:1058C0000D46FBF747FEDAE9066780468946CBE9D5
:1058D000008932463B46FCF783FA40B907F10043A2
:1058E0003246404649461F46FCF75CFA88B3CBE98E
:1058F0000067DFF8A8B02046DBE900232946FBF764
:1059000027FEDAE90423FBF7DBFFDAE90023804610
:10591000894620462946FBF7D3FF02460B46404600
:105920004946FBF717FEDAE90223804689463046EE
:105930003946FBF7C5FF02460B4640464946FBF792
:1059400009FEFCF757FACBE90045FBF74FFFBDE82E
:10595000F88F46464F46CCE7404603F0BFFADFF8E3
:1059600034A000289CD008A3D3E90023DAE9000181
:10597000FBF7A6FFCAE90201404603F0CBFA8FE726
:10598000333333333333D33FB81E85EB51B88E3FB7
:10599000B808002048050020A8080020B008002012
:1059A00070B5144605460E46D1E90023D0E9000142
:1059B000FFF766FFD6E90223C4E90001D5E9020139
:1059C000FFF75EFFD6E90423C4E90201D5E904012B
:1059D000FFF756FFD6E90623C4E90401D5E906011D
:1059E000FFF74EFFC4E9060170BD00BF38B504469D
:1059F00004F1F00500F06EFB04F1A00000F098FB4C
:105A000000F0E4F900F09EFA00F06EFC04F1E00012
:105A1000294600F025F92846BDE8384000F072BC60
:105A2000F8B5D0F818310446DBB9D4F81C3103B905
:105A3000F8BD04F1E00600F085FA04F1F005314606
:105A400000F09EFA2946304600F00AF9284600F098
:105A500059FCD4F81C31012B04BF0023C4F81C31BD
:105A6000F8BD194B00220020002104F16007C4E9B1
:105A70000C23C4E90E23C4E9100104F18005394662
:105A800004F1300000F028F804F1A006284600F0E8
:105A9000CBF9324629463846FFF782FF304604F1FB
:105AA000480600F045FB3146284600F081F804F531
:105AB0008071304600F0F0F8D4F81831012B04BFA3
:105AC0000023C4F81831B0E70000104003680BB998
:105AD00001230360704700BF2DE9F047D0E902675A
:105AE000D0E9008982B08A46044632463B464046A9
:105AF0004946FBF72FFD28A3D3E90023FBF7E0FE7F
:105B000027A3D3E90023CDE90001D4E90401FBF781
