:020000040800F2
:100000000000022079290008B11E0008B31E000874
:10001000B51E0008B71E0008B91E00080000000049
:10002000000000000000000000000000BB1E0008EF
:10003000BD1E000800000000BF1E0008C11E000811
:10004000C9290008C9290008C9290008C9290008C8
:10005000C9290008C9290008C9290008C9290008B8
:10006000C9290008C9290008C9290008C9290008A8
:10007000C9290008C9290008C9290008C929000898
:10008000C9290008C9290008C9290008C929000888
:10009000C9290008C9290008C9290008C929000878
:1000A000C9290008C9290008C9290008C929000868
:1000B000C9290008C9290008C9290008C929000858
:1000C000C9290008C9290008C9290008C929000848
:1000D000C9290008C91E0008C9290008C929000843
:1000E000C9290008C9290008C9290008C929000828
:1000F000C9290008C9290008C9290008C929000818
:10010000C9290008C9290008C9290008C929000807
:10011000C9290008C9290008C9290008C9290008F7
:10012000C9290008C9290008D91E0008C9290008E2
:10013000C9290008C9290008C9290008C9290008D7
:10014000C9290008C9290008C9290008C9290008C7
:10015000C9290008C9290008C9290008C9290008B7
:10016000C9290008C9290008C9290008C9290008A7
:10017000C9290008C9290008C92900080000000091
:08018000C9290008C929000883
:1001C00081F0004102E000BF83F0004330B54FEA08
:1001D00041044FEA430594EA050F08BF90EA020F75
:1001E0001FBF54EA000C55EA020C7FEA645C7FEA08
:1001F000655C00F0E2804FEA5454D4EB5555B8BF2B
:100200006D420CDD2C4480EA020281EA030382EA9B
:10021000000083EA010180EA020281EA0303362D2D
:1002200088BF30BD11F0004F4FEA01314FF4801C00
:100230004CEA113102D0404261EB410113F0004F12
:100240004FEA03334CEA133302D0524263EB4303C9
:1002500094EA050F00F0A780A4F10104D5F1200E67
:100260000DDB02FA0EFC22FA05F2801841F10001C2
:1002700003FA0EF2801843FA05F359410EE0A5F196
:1002800020050EF1200E012A03FA0EFC28BF4CF0C7
:10029000020C43FA05F3C01851EBE37101F000457D
:1002A00007D54FF0000EDCF1000C7EEB00006EEB8A
:1002B0000101B1F5801F1BD3B1F5001F0CD3490814
:1002C0005FEA30004FEA3C0C04F101044FEA44526B
:1002D00012F5800F80F09A80BCF1004F08BF5FEAF2
:1002E000500C50F1000041EB045141EA050130BDD2
:1002F0005FEA4C0C404141EB0101013C28BFB1F5E4
:10030000801FE9D291F0000F04BF01460020B1FA2E
:1003100081F308BF2033A3F10B03B3F120020CDA01
:100320000C3208DD02F1140CC2F10C0201FA0CF0DF
:1003300021FA02F10CE002F11402D8BFC2F1200C44
:1003400001FA02F120FA0CFCDCBF41EA0C019040FA
:10035000E41AA2BF01EB0451294330BD6FEA040443
:100360001F3C1CDA0C340EDC04F11404C4F120022E
:1003700020FA04F001FA02F340EA030021FA04F340
:1003800045EA030130BDC4F10C04C4F1200220FA97
:1003900002F001FA04F340EA0300294630BD21FAD5
:1003A00004F0294630BD94F0000F83F4801306BF9B
:1003B00081F480110134013D4EE77FEA645C18BF8F
:1003C0007FEA655C29D094EA050F08BF90EA020F26
:1003D00005D054EA000C04BF1946104630BD91EA1E
:1003E000030F1EBF0021002030BD5FEA545C05D121
:1003F0004000494128BF41F0004130BD14F5800460
:100400003CBF01F5801130BD01F0004545F0FE41D3
:1004100041F470014FF0000030BD7FEA645C1ABF08
:10042000194610467FEA655C1CBF0B46024650EA3F
:10043000013406BF52EA033591EA030F41F400216B
:1004400030BD00BF90F0000F04BF0021704730B5F1
:100450004FF4806404F132044FF000054FF00001C6
:1004600050E700BF90F0000F04BF0021704730B587
:100470004FF4806404F1320410F0004548BF40425C
:100480004FF000013EE700BF42004FEAE2014FEAB1
:1004900031014FEA02701FBF12F07F4393F07F4F8C
:1004A00081F06051704732F07F4208BF704793F08F
:1004B0007F4F04BF41F40021704730B54FF46074A2
:1004C00001F0004521F000411CE700BF50EA0102A5
:1004D00008BF704730B54FF000050AE050EA01024E
:1004E00008BF704730B511F0004502D5404261EBBE
:1004F00041014FF4806404F132045FEA915C3FF4FF
:10050000D8AE4FF003025FEADC0C18BF03325FEA9B
:10051000DC0C18BF033202EBDC02C2F1200300FA4C
:1005200003FC20FA02F001FA03FE40EA0E0021FA71
:1005300002F11444BDE600BF70B54FF0FF0C4CF45F
:10054000E06C1CEA11541DBF1CEA135594EA0C0F11
:1005500095EA0C0F00F0DEF82C4481EA030621EA4C
:100560004C5123EA4C5350EA013518BF52EA033587
:1005700041F4801143F4801338D0A0FB02CE4FF039
:100580000005E1FB02E506F00042E0FB03E54FF069
:100590000006E1FB03569CF0000F18BF4EF0010E61
:1005A000A4F1FF04B6F5007F64F5407404D25FEA5D
:1005B0004E0E6D4146EB060642EAC62141EA555110
:1005C0004FEAC52040EA5E504FEACE2EB4F1FD0C52
:1005D00088BFBCF5E06F1ED8BEF1004F08BF5FEAD0
:1005E000500E50F1000041EB045170BD06F0004682
:1005F00046EA010140EA020081EA0301B4EB5C042F
:10060000C2BFD4EB0C0541EA045170BD41F4801126
:100610004FF0000E013C00F3AB8014F1360FDEBF4B
:10062000002001F0004170BDC4F10004203C35DA27
:100630000C341BDC04F11404C4F1200500FA05F3AA
:1006400020FA04F001FA05F240EA020001F000424B
:1006500021F0004110EBD37021FA04F642EB0601C1
:100660005EEA430E08BF20EAD37070BDC4F10C04EB
:10067000C4F1200500FA04F320FA05F001FA04F2AF
:1006800040EA020001F0004110EBD37041F100019B
:100690005EEA430E08BF20EAD37070BDC4F12005A6
:1006A00000FA05F24EEA020E20FA04F301FA05F20E
:1006B00043EA020321FA04F001F0004121FA04F2B6
:1006C00020EA020000EBD3705EEA430E08BF20EA86
:1006D000D37070BD94F0000F0FD101F000464000C0
:1006E00041EB010111F4801F08BF013CF7D041EA42
:1006F000060195F0000F18BF704703F00046520046
:1007000043EB030313F4801F08BF013DF7D043EA16
:100710000603704794EA0C0F0CEA135518BF95EACC
:100720000C0F0CD050EA410618BF52EA4306D1D153
:1007300081EA030101F000414FF0000070BD50EA72
:10074000410606BF1046194652EA430619D094EAFC
:100750000C0F02D150EA013613D195EA0C0F05D1E6
:1007600052EA03361CBF104619460AD181EA03013A
:1007700001F0004141F0FE4141F470014FF00000F2
:1007800070BD41F0FE4141F4780170BD70B54FF08D
:10079000FF0C4CF4E06C1CEA11541DBF1CEA13550D
:1007A00094EA0C0F95EA0C0F00F0A7F8A4EB0504EF
:1007B00081EA030E52EA03354FEA013100F08880E6
:1007C0004FEA03334FF0805545EA131343EA1263AF
:1007D0004FEA022245EA111545EA10654FEA002664
:1007E0000EF000419D4208BF964244F1FD0404F51D
:1007F000407402D25B084FEA3202B61A65EB030579
:100800005B084FEA32024FF480104FF4002CB6EB35
:10081000020E75EB030E22BFB61A754640EA0C00B5
:100820005B084FEA3202B6EB020E75EB030E22BFF5
:10083000B61A754640EA5C005B084FEA3202B6EB36
:10084000020E75EB030E22BFB61A754640EA9C00F5
:100850005B084FEA3202B6EB020E75EB030E22BFC5
:10086000B61A754640EADC0055EA060E18D04FEA83
:10087000051545EA16754FEA06164FEAC30343EA23
:1008800052734FEAC2025FEA1C1CC0D111F4801FF0
:100890000BD141EA00014FF000004FF0004CB6E7E9
:1008A00011F4801F04BF01430020B4F1FD0C88BF88
:1008B000BCF5E06F3FF6AFAEB5EB030C04BFB6EB93
:1008C000020C5FEA500C50F1000041EB045170BD86
:1008D0000EF0004E4EEA113114EB5C04C2BFD4EBB3
:1008E0000C0541EA045170BD41F480114FF0000E37
:1008F000013C90E645EA060E8DE60CEA135594EAB3
:100900000C0F08BF95EA0C0F3FF43BAF94EA0C0FB5
:100910000AD150EA01347FF434AF95EA0C0F7FF42A
:1009200025AF104619462CE795EA0C0F06D152EA7E
:1009300003353FF4FDAE1046194622E750EA410662
:1009400018BF52EA43067FF4C5AE50EA41047FF473
:100950000DAF52EA43057FF4EBAE12E74FF0FF3CD8
:1009600006E000BF4FF0010C02E000BF4FF0010CA9
:100970004DF804CD4FEA410C7FEA6C5C4FEA430C22
:1009800018BF7FEA6C5C1BD001B050EA410C0CBF71
:1009900052EA430C91EA030F02BF90EA020F0020D3
:1009A000704710F1000F91EA030F58BF994208BF3A
:1009B00090422CBFD8176FEAE37040F001007047F7
:1009C0004FEA410C7FEA6C5C02D150EA013C07D14E
:1009D0004FEA430C7FEA6C5CD6D152EA033CD3D099
:1009E0005DF8040B704700BF8446104662468C4693
:1009F0001946634600E000BF01B5FFF7B7FF0028C6
:100A000048BF10F1000F01BD4DF808EDFFF7F4FFEE
:100A10000CBF012000205DF808FB00BF4DF808ED79
:100A2000FFF7EAFF34BF012000205DF808FB00BF9C
:100A30004DF808EDFFF7E0FF94BF012000205DF8BE
:100A400008FB00BF4DF808EDFFF7CEFF94BF012073
:100A500000205DF808FB00BF4DF808EDFFF7C4FF6C
:100A600034BF012000205DF808FB00BF4FEA4102BF
:100A700012F5001215D211D56FF47873B3EB6252F0
:100A800012D94FEAC12343F0004343EA505311F017
:100A9000004F23FA02F018BF404270474FF00000A9
:100AA000704750EA013005D111F0004008BF6FF0E7
:100AB000004070474FF00000704700BF53B94AB97B
:100AC000002908BF00281CBF4FF0FF314FF0FF3056
:100AD00000F0E2B8ADF1080C6DE904CE0BF09CFE1D
:100AE000DDF804E0DDE9022304B0704700F13401D1
:100AF00091E838009C46A6464CF8045D90E8FF0F4C
:100B0000E54600BD90EC210B704700BF80EC210B47
:100B1000704700BF90EC200B704700BF80EC200BAB
:100B2000704700BFD0EC200B704700BFC0EC200B1B
:100B3000704700BFF0EC0201F0EC0211F0EC022172
:100B4000F0EC0231F0EC0241F0EC0251F0EC026109
:100B5000F0EC0271F0EC0281F0EC0291F0EC02A1F9
:100B6000F0EC02B1F0EC02C1F0EC02D1F0EC02E1E9
:100B7000F0EC02F1704700BFE0EC0201E0EC021182
:100B8000E0EC0221E0EC0231E0EC0241E0EC025149
:100B9000E0EC0261E0EC0271E0EC0281E0EC029139
:100BA000E0EC02A1E0EC02B1E0EC02C1E0EC02D129
:100BB000E0EC02E1E0EC02F1704700BFB0FC018123
:100BC000B0FC0191B0FC01A1B0FC01B1704700BFC5
:100BD000A0FC0181A0FC0191A0FC01A1A0FC01B13D
:100BE000704700BFEC4600B52DE900502DE9FF1F0E
:100BF0004FF000032DE90C0001A90CF0E7F8DDF837
:100C000040E012B0704700BFEC4600B52DE900503F
:100C10002DE9FF1F4FF000032DE90C0001A90CF096
:100C200013F9DDF840E012B0704700BFEC4600B5A4
:100C30002DE900502DE9FF1F4FF000032DE90C00B6
:100C400001A90CF023F9DDF840E012B0704700BFB5
:100C5000EC4600B52DE900502DE9FF1F4FF00003D1
:100C60002DE90C0001AB0CF0E7F8DDF840E012B024
:100C7000704700BFEC4600B52DE900502DE9FF1F7D
:100C80004FF000032DE90C0001AA0CF063F9DDF828
:100C900040E012B0704700BF704700BF0000000086
:100CA00002780B78012A28BF9A4240F0D8806DE97B
:100CB000044540EA0104CDE902676FF0000C4FEAF9
:100CC00044721AB380EA010414F0070F6BD100F0EC
:100CD000070420F0070004F0030521F007014FEAA4
:100CE000C505F0E8042314F0040FF1E804670CFADA
:100CF00005F462EA040266EA04060BD063EA040320
:100D0000624667EA0407664604E000BFF0E8042391
:100D1000F1E8046782FA4CF582EA0604A4FA8CF43E
:100D20006CBB83FA4CF583EA0705A5FA8CF595B9F7
:100D300050E9022351E9026782FA4CF582EA06047F
:100D4000A4FA8CF483FA4CF583EA0705A5FA8CF52E
:100D50002543DBD09CB92DBAB5FA85F424F00704FD
:100D600027FA04F1DDE9026723FA04F303F0FF0038
:100D700001F0FF01FDE80445A0EB0100704724BA33
:100D8000B4FA84F424F0070426FA04F1DDE90267DA
:100D900022FA04F202F0FF0001F0FF01FDE8044531
:100DA000A0EB0100704714F0030F3CD110F00304D6
:100DB00028D150F8082B51F8083B82FA4CF582EA0A
:100DC0000305A5FA8CF55DB950F8042C51F8043CE4
:100DD00082FA4CF582EA0305A5FA8CF5002DE8D0DD
:100DE0002DBAB5FA85F424F0070423FA04F122FAA7
:100DF00004F202F0FF0001F0FF01FDE80445A0EB62
:100E0000010070474FEAC40420F0030050F8082B9B
:100E100021F0030151F8083B0CFA04F462EA0402E1
:100E200063EA0403C9E710F003041DD0A1EB040139
:100E300020F00300E40750F8042B06D012D28B7880
:100E40005FFAA2F4E41A06D12BB1CB785FFAB2F4C0
:100E5000E41A00D133B920465DF8104B7047A2EB7D
:100E60000300704701F1040150F8042BCC0721F076
:100E7000030151F8043B48D824D222F07F4482FA7F
:100E80004CF594EA1325A5FA8CF50AD165B951F809
:100E9000043B84EA0204B4EB036F0ED150F8042B38
:100EA000EBE74FEA132355E035F07F454DD1087845
:100EB000FDE80445C0F1000070474FEA126203F0FC
:100EC000FF0347E002EA1C4482FA4CF594EA13451A
:100ED000A5FA8CF50AD165B951F8043B84EA0204FD
:100EE000B4EB034F0CD150F8042BEBE74FEA13435C
:100EF00030E015EA1C4528D10B884FEA124229E060
:100F00004FEA124203EA1C4324E002F0FF0482FA93
:100F10004CF594EA1365A5FA8CF50AD165B951F838
:100F2000043B84EA0204B4EB032F09D150F8042BEC
:100F3000EBE74FEA13630DE015F0FF0F05D10B68E7
:100F40004FEA122223F07F4304E04FF00000FDE857
:100F50000445704712BA1BBA82FA4CF482EA0304C1
:100F6000A4FA8CF5B5FA85F402FA04F203FA04F354
:100F70004FEA1260FDE80445A0EB1360704700BF24
:100F800001F0FF01102A2BDB10F0070F08D010F83A
:100F9000013B013A8B422DD010F0070F42B3F6D13E
:100FA000F0B441EA012141EA014122F007047FF057
:100FB00000070023F0E80256083C85EA010586EAAE
:100FC000010685FA47F5A3FA87F586FA47F6A5FAEA
:100FD00087F68EB9EED1F0BC01F0FF0102F00702F6
:100FE00032B110F8013B013A83EA010313B1F8D1A1
:100FF0000020704701387047002D06BF3546033882
:10100000073815F0010F07D1013015F4807F02BFBA
:10101000013015F4C03F0130F0BC0138704700BF0B
:10102000844641EA000313F003036DD1403A41D3F3
:1010300051F8043B40F8043B51F8043B40F8043BB2
:1010400051F8043B40F8043B51F8043B40F8043BA2
:1010500051F8043B40F8043B51F8043B40F8043B92
:1010600051F8043B40F8043B51F8043B40F8043B82
:1010700051F8043B40F8043B51F8043B40F8043B72
:1010800051F8043B40F8043B51F8043B40F8043B62
:1010900051F8043B40F8043B51F8043B40F8043B52
:1010A00051F8043B40F8043B51F8043B40F8043B42
:1010B000403ABDD2303211D351F8043B40F8043BE2
:1010C00051F8043B40F8043B51F8043B40F8043B22
:1010D00051F8043B40F8043B103AEDD20C3205D3F2
:1010E00051F8043B40F8043B043AF9D2043208D0EA
:1010F000D2071CBF11F8013B00F8013B01D30B885C
:1011000003806046704700BF082A13D38B078DD039
:1011100010F003038AD0C3F10403D21ADB071CBF0B
:1011200011F8013B00F8013B80D331F8023B20F875
:10113000023B7BE7043AD9D3013A11F8013B00F8AE
:10114000013BF9D20B7803704B7843708B78837036
:101150006046704700000000000000000000000032
:10116000000000000000000000000000000000007F
:10117000000000000000000000000000000000006F
:1011800030B490F800F020F007016FF0000C10F080
:10119000070491F820F040F048804FF000046FF011
:1011A0000700D1E9002391F840F000F1080082FA2D
:1011B0004CF2A4FA8CF283FA4CF3A2FA8CF34BBBF8
:1011C000D1E9022382FA4CF200F10800A4FA8CF271
:1011D00083FA4CF3A2FA8CF3E3B9D1E9042382FA3F
:1011E0004CF200F10800A4FA8CF283FA4CF3A2FA54
:1011F0008CF37BB9D1E9062301F1200182FA4CF28C
:1012000000F10800A4FA8CF283FA4CF3A2FA8CF3F2
:10121000002BC6D0002A04BF04301A4612BAB2FA14
:1012200082F200EBD20030BC7047D1E9002304F019
:101230000305C4F100004FEAC50514F0040F91F84E
:1012400040F00CFA05F562EA05021CBF63EA0503EB
:1012500062464FF00004AAE74FEA410C7FEA6C5C5B
:1012600002D150EA013C0AD14FEA430C7FEA6C5CA0
:1012700002D152EA033C02D14FF0000070474FF018
:10128000010070470348044B834202D0034B03B173
:1012900018477047080700200807002000000000DA
:1012A0000548064B1B1AD90F01EBA301491002D0C8
:1012B000034B03B1184770470807002008070020B8
:1012C0000000000010B5064C237843B9FFF7DAFFA1
:1012D000044B13B10448AFF300800123237010BD09
:1012E0000807002000000000144F010808B5054B56
:1012F0001BB105490548AFF30080BDE80840FFF782
:10130000CFBF00BF000000000C070020144F0108F1
:101310002DE9F84F04460D4616461F464A4B1B68FA
:10132000BFF35B8F13F0010F60D043A3D3E9002319
:1013300030463946FFF700F900220023FEF746FF4A
:1013400022462B46FEF740FF04460D463F4BC3E9BD
:101350000045DFF8FC80D8E90023FEF737FF06469A
:101360000F46C8E900673B4BD3E9068942464B4626
:10137000FFF772FB00284DD0354BC3E90089DFF839
:10138000D480D8E9002320462946FFF7D5F8064641
:101390000F462F4BD3E90023D8E90201FFF7CCF821
:1013A00002460B4630463946FEF710FF06460F460A
:1013B000D8E90489DFF8A0A0DAE90023204629460D
:1013C000FEF702FF02460B4640464946FFF7B4F8D7
:1013D00002460B4630463946FEF7F8FEFFF746FB5D
:1013E000CAE90045FFF73EF8BDE8F88F164803F05C
:1013F00093F9002899D0DFF85C8011A3D3E900238A
:10140000D8E90001FFF798F8C8E902010E4803F097
:101410009FF98AE7C24609F1004B42465B463046D7
:101420003946FFF7FBFA0028A9D0094BC3E900AB06
:10143000A5E700BFAFF30080333333333333D33FFB
:101440007B14AE47E17A943F400700203807002024
:1014500028070020000000203007002082B02DE97E
:10146000F047824608A981E80C00DDE91023DDE998
:101470000801FFF74DFF80468946DDE91223DDE9CB
:101480000A01FFF745FF06460F46DDE91423DDE9B3
:101490000C01FFF73DFF04460D46DDE91623DDE9AB
:1014A0000E01FFF735FFCAE90089CAE90267CAE9F8
:1014B0000445CAE906015046BDE8F04702B070474E
:1014C00010B586468446054C0FCCACE80F0094E876
:1014D00003008CE80300704610BD00BF304F0108C8
:1014E00008B500F053FC00F09BF900F0ADFC00F0F3
:1014F000C1FA08BD70B5B6B000F04EFA08B936B002
:1015000070BD2AAC2046FFF7DBFF12AE2CAB0FCB31
:101510008DE80F0094E80C00304600F045F81AAD55
:10152000284600F0E9F922AC0DF1180CAE46BEE8F1
:101530000F00ACE80F009EE80F008CE80F00EC46AF
:101540000DF1500EBEE80F00ACE80F009EE803005E
:101550008CE8030096E80C002046FFF77FFF26ABDF
:101560000FCB8DE80F0094E80F0000F0E5FB30ACE6
:10157000EC460DF1700EBEE80F00ACE80F009EE8DF
:1015800003008CE8030095E80C00204600F074F896
:1015900036AB13E90F008DE80F0094E80C000EA89D
:1015A00000F0E6F8ABE7000082B02DE9F04782B02A
:1015B00082460AA981E80C002BA3D3E90023DDE9C8
:1015C0000A01FEF7B9FF04460D4627A3D3E900231D
:1015D000DDE90C01FEF7B0FF8046894602460B4666
:1015E00020462946FEF7F2FDCDE9000120A3D3E90C
:1015F0000023DDE90E01FEF79FFF06460F46024677
:101600000B46DDE90001FEF7E1FDCAE900012246D3
:101610002B4640464946FEF7D7FD32463B46FEF78D
:10162000D5FDCAE90201204605F1004142464B467C
:10163000FEF7CAFD32463B46FEF7C8FDCAE9040183
:1016400042464B4620462946FEF7BEFD32463B4603
:10165000FEF7BCFDCAE90601504602B0BDE8F047FE
:1016600002B07047AFF30080DF27DC659EA0F63F35
:101670005C8FC2F5285CEF3F82B02DE9F04782B065
:1016800082460AA981E80C00DDE90A3418462146A1
:10169000DDE90C8942464B46CDE90001FEF794FD99
:1016A000DDE90E6732463B46FEF78EFDDDE910456B
:1016B00022462B46FEF78AFD1BA3D3E90023FFF742
:1016C00065F8CAE9000142464B46DDE90001FEF734
:1016D0007DFD8046894632463B46FEF775FD224633
:1016E0002B46FEF771FD10A3D3E90023FFF74EF858
:1016F000CAE9020142464B4630463946FEF766FDCE
:1017000002460B4620462946FEF760FD08A3D3E9B2
:101710000023FFF73BF8CAE90401504602B0BDE8D8
:10172000F04702B0704700BFDF27DC659EA016407F
:101730005C8FC2F5285C0F4082B002AB03E9060063
:101740000B464FF4FA6202FB03F3084A82FB0312D2
:101750001A44DB17C3EBE21303F5FA730360019B32
:10176000DB0003F5FA73436002B07047B7600BB655
:1017700082B0F8B5054606A981E80C00184CD4E9FA
:1017800000670022174BDDE90601FEF7D5FE0022B7
:10179000154BFEF7D1FE02460B4630463946FEF7A2
:1017A00015FDC4E90001D4E9026700220D4BDDE913
:1017B0000801FEF7C1FE00220B4BFEF7BDFE0246FC
:1017C0000B4630463946FEF701FDC4E9020194E8B4
:1017D0000F0085E80F002846BDE8F84002B07047CA
:1017E000480700200000244000408F4000B583B02F
:1017F00000220192094B196B41F4800119631B6BA4
:1018000003F480030193019B02213A2001F084F943
:101810003A2001F091F903B05DF804FB0038024072
:10182000F8B50F4F3C21384602F090FB0D4E3C219D
:10183000304602F08BFB0C4D3C21284602F086FB23
:101840000A4C3C21204602F081FB3A680023536297
:10185000326853622A68536222685362F8BD00BF3F
:101860008C08002064090020D40800201C090020F6
:101870004138032813D8DFE800F002060A0E094BAE
:101880001B68586A7047084B1B68586A7047074BBB
:101890001B68586A7047064B1B68586A70470020DF
:1018A000704700BF8C08002064090020D408002085
:1018B0001C0900204138032812D8DFE800F0020696
:1018C0000A0E084B1B6859627047074B1B68596228
:1018D0007047064B1B6859627047054B1B6859627D
:1018E000704700BF8C08002064090020D408002045
:1018F0001C090020000000002DE9F047824641202D
:10190000FFF7B6FFFEF7AEFD21A3D3E90023FEF7F4
:1019100013FE804689464220FFF7AAFFFEF7A2FD8C
:101920001BA3D3E90023FEF707FE06460F4643201C
:10193000FFF79EFFFEF796FD15A3D3E90023FEF700
:10194000FBFD04460D464420FFF792FFFEF78AFD9B
:101950000FA3D3E90023FEF7EFFDCAE90089CAE926
:101960000267CAE90445CAE9060100214120FFF7E0
:10197000A1FF00214220FFF79DFF00214320FFF738
:1019800099FF00214420FFF795FF5046BDE8F087FE
:10199000E801B1D9440BC23F074B1B68074A1268E4
:1019A0009B1A092B05D9044B1A68044B1A600120B5
:1019B00070470020704700BF9C0A00205807002095
:1019C00000B58DB007A9002207924A608A60CA60FC
:1019D0000A610192254B186B40F010001863186BD8
:1019E00000F01000019001980292186B40F0800006
:1019F0001863186B00F08000029002980392186B35
:101A000040F001001863186B00F001000390039888
:101A10000492186B40F008001863186B00F008007F
:101A2000049004980592186B40F004001863186B3A
:101A300000F004000590059806921A6B42F002022D
:101A40001A631B6B03F002030693069B4FF440736B
:101A500007930223089303230A9307230B93044855
:101A600001F096FA0DB05DF804FB00BF00380240AB
:101A7000000C024008B5124B1B68BFF35B8F13F0DC
:101A8000010F08D00F4B1B681B6813F0200F10D0FC
:101A90000D4B186808BD0A4802F03EFE0028F1D040
:101AA00064200BF0A3FF084B1860054802F050FEBD
:101AB000E8E76422044B1968024802F01AFEE7E7DF
:101AC0005C070020540A00206007002010B582B097
:101AD00004460B46174A92E8030084E8030000E03E
:101AE00001331A780AB13C2AFAD13C2A05D01248AF
:101AF0000DF060F9204602B010BD0A2201A9581C61
:101B00000CF0A8FC2060019803782C2B03D00B4824
:101B10000DF050F9EEE70A2201A901300CF09AFC11
:101B20006060019B1B780A2BE4D005480DF042F958
:101B3000E0E700BF484F0108A84F0108584F0108CF
:101B40007C4F010872B6FEE710B594B008AC3022A5
:101B5000002120460DF01EFB002303930493059300
:101B60000693079301931F4A116C41F08051116451
:101B7000126C02F080520192019A02931A4A116883
:101B800041F480411160126802F480420292029A8C
:101B90000222089201210B9110210C910E920F93B9
:101BA00008231093A8231193129204231393204621
:101BB00001F0E8FA90B90F23039302230493002362
:101BC00005934FF4A05306934FF4805307930521D8
:101BD00003A801F041FD18B914B010BDFFF7B2FF22
:101BE000FFF7B0FF003802400070004008B500F079
:101BF00013FFFFF7A9FFFFF7E3FEFFF7F7FD00F084
:101C00006DFC00F0E3F900F013FA00F043FA00F085
:101C100073FA00F071FD00F0C1FD00F0F9FD00F075
:101C2000EDFC00F02FFEFFF75BFCFFF763FCFCE729
:101C300001F16403C82B08D9642905DC11F1640F94
:101C400003DA6FF0630100E064214138032814D8FF
:101C5000DFE800F0021B334B29B9334B1B686422C9
:101C60001A64DA637047002905DD2F4B1B6819647D
:101C70000022DA637047002900DB704749422A4B93
:101C80001B6800221A64D963704729B9264B1B6868
:101C900064229A635A637047002905DD224B1B6852
:101CA000996300225A6370470029E6DA49421E4BC5
:101CB0001B6800229A635963704729B91B4B1B6844
:101CC00064225A639A637047002905DD174B1B682D
:101CD000596300229A6370470029CEDA4942134BB8
:101CE0001B6800225A639963704739B9104B1A6810
:101CF000642353630F4A126853637047002907DD5A
:101D00000B4B1B6859630B4B1B6800225A637047CF
:101D10000029B2DA4942064B1B6800225A63054B80
:101D20001B685963A9E700BFAC090020FC0700202D
:101D30006C070020B407002084B008B50DF1080C32
:101D40008CE80F00DDE90201FEF790FE014641201C
:101D5000FFF76EFFDDE90401FEF788FE0146422031
:101D6000FFF766FFDDE90601FEF780FE014643202E
:101D7000FFF75EFFDDE90801FEF778FE014644202B
:101D8000FFF756FFBDE8084004B0704710B58CB0AF
:101D9000194C0C21204602F05BF80821204602F085
:101DA00057F80421204602F053F80021204602F0A3
:101DB0004FF8124C0021204602F04AF80421204638
:101DC00002F046F800210E4802F042F800210D48CA
:101DD00002F03EF804AC2022002120460DF0DAF992
:101DE0000CAB13E90F008DE80F0094E80F00FFF72C
:101DF000A3FF0CB010BD00BFAC090020FC07002001
:101E00006C070020B4070020502802D0592804D0C5
:101E10007047044B1B68D9637047024B1B681964F9
:101E2000F6E700BF1C09002000B583B002AB03E950
:101E3000030001465020FFF7E7FF01995920FFF703
:101E4000E3FF03B05DF804FB10B582B0084C082135
:101E5000204601F0FDFF0C21204601F0F9FF054A64
:101E600092E80300CDE90001FFF7DEFF02B010BDEC
:101E70001C090020504F010882B0002100910B4B3B
:101E80005A6C42F480425A645A6C02F480420092C6
:101E9000009A01911A6C42F080521A641B6C03F094
:101EA00080530193019B02B0704700BF003802408D
:101EB000FEE7FEE7FEE7FEE7FEE770477047704784
:101EC00008B500F0C3FD08BD08B5024802F0B4FA39
:101ED00008BD00BF540A002030B585B0FFF7CAFD29
:101EE00001466846FFF7F2FD02ACDDE9001220462C
:101EF000FFF722FC94E80300FFF796FF024800F08A
:101F000059FF05B030BD00BFF40900200120704723
:101F100008B50DF0DBFA162303604FF0FF3008BD63
:101F200008B54FF0FF31FFF7F3FFFEE770B50C4641
:101F30001646002506E0AFF30080214601F8010BAC
:101F400001350C46B542F6DB304670BD70B50C4627
:101F50001646002504E014F8010BAFF300800135AC
:101F6000B542F8DB304670BD4FF0FF3070474FF49C
:101F700000534B60002070470120704700207047DD
:101F800010B503460C4A0D490D48006840B10C4895
:101F900000680344521A934206D8094A136010BDE0
:101FA0000748084C0460F2E70DF090FA0C23036038
:101FB0004FF0FF30F3E700BF0000022000040000F4
:101FC00068070020D80D00207047000010B58CB0C5
:101FD00003AC2422002120460DF0DCF800230193FD
:101FE000029312484FF080420260436083604FF0DA
:101FF000FF32C260036183610323039301230593CE
:102000000993214601F088FD48B90023019302930A
:1020100001A9064802F000F820B90CB010BDFFF786
:1020200091FDF2E7FFF78EFDF7E700BF640900209E
:1020300010B58CB003AC2422002120460DF0AAF884
:102040000023019302931148114A026043608360A8
:102050004FF6FF72C2600361836103230393012380
:1020600005930993214601F057FD48B900230193D8
:10207000029301A9054801F0CFFF20B90CB010BDB3
:10208000FFF760FDF2E7FFF75DFDF7E71C090020B1
:102090000004004010B58CB003AC2422002120467F
:1020A0000DF078F80023019302931148114A026061
:1020B000436083604FF6FF72C26003618361032354
:1020C0000393012305930993214601F025FD48B9A7
:1020D00000230193029301A9054801F09DFF20B957
:1020E0000CB010BDFFF72EFDF2E7FFF72BFDF7E771
:1020F000D40800200008004010B58CB003AC2422A6
:10210000002120460DF046F8002301930293114868
:10211000114A0260436083604FF0FF32C260036186
:10212000836103230393012305930993214601F05F
:10213000F3FC48B900230193029301A9054801F07B
:102140006BFF20B90CB010BDFFF7FCFCF2E7FFF706
:10215000F9FCF7E78C080020000C004086B003680B
:10216000284A934218D0284A934223D0274A9342C0
:102170002DD0274A934237D0264A934218D10023C4
:102180000593254B5A6C42F480225A645B6C03F42D
:1021900080230593059B0BE0002301931E4B5A6C93
:1021A00042F001025A645B6C03F001030193019B4E
:1021B00006B0704700230293174B5A6C42F002029C
:1021C0005A645B6C03F002030293029BF0E7002366
:1021D0000393114B5A6C42F480325A645B6C03F4E3
:1021E00080330393039BE3E7002304930A4B5A6C69
:1021F00042F400325A645B6C03F400330493049B92
:10220000D6E700BF0000014000040140004001404B
:10221000004401400048014000380240F0B58FB052
:10222000002309930A930B930C930D930368B3F166
:10223000804F0AD0514A93423FD0514A93425CD0DA
:10224000504A934279D00FB0F0BD0024009403F5BA
:102250000E331A6C42F001021A641A6C02F0010289
:102260000092009A01941A6B42F001021A631A6BF1
:1022700002F001020192019A02941A6B42F00202EA
:102280001A631B6B03F002030293029B4FF400439B
:10229000099302270A9701260D9609AD29463A4867
:1022A00000F076FE082309930A970B940C940D9680
:1022B0002946364800F06CFEC5E700210391344BF7
:1022C0001A6C42F002021A641A6C02F002020392C3
:1022D000039A04911A6B42F002021A631B6B03F01B
:1022E00002030493049B3023099302230A930D9362
:1022F00009A9264800F04CFEA5E700210591244BD2
:102300001A6C42F004021A641A6C02F0040205927C
:10231000059A06911A6B42F002021A631B6B03F0D6
:1023200002030693069BC023099302230A930D938D
:1023300009A9164800F02CFE85E700210791144BEF
:102340001A6C42F008021A641A6C02F00802079232
:10235000079A08911A6B42F001021A631B6B03F093
:1023600001030893089B0323099302230A930D9307
:1023700009A9054800F00CFE65E700BF0004004015
:1023800000080040000C0040000002400004024031
:102390000038024000B58BB00023059306930793E5
:1023A000089309930368444A93420ED0434A9342E8
:1023B00023D0434A934238D0424A93424CD0424AB7
:1023C000934261D00BB05DF804FB002300933F4BB8
:1023D0001A6B42F010021A631B6B03F01003009398
:1023E000009B4FF4D44305930223069301230993E2
:1023F00005A9374800F0CCFDE4E700230193334BF7
:102400001A6B42F004021A631B6B03F0040301937E
:10241000019B4FF440730593022306930323099312
:1024200005A92C4800F0B4FDCCE700230293274B0C
:102430001A6B42F010021A631B6B03F01003029335
:10244000029B60230593022306930323099305A9A6
:102450001F4800F09DFDB5E7002303931B4B1A6B4B
:1024600042F002021A631B6B03F002030393039B07
:102470004FF480730593022306930323099305A960
:10248000154800F085FD9DE7002304930F4B1A6B60
:1024900042F002021A631B6B03F002030493049BD5
:1024A0004FF400730593022306930323099305A9B0
:1024B000094800F06DFD85E700000140000401407F
:1024C0000040014000440140004801400038024003
:1024D00000100240000802400004024010B596B00F
:1024E0000024129413941494159410941194099444
:1024F0000A940B940C940D940E940F942022214670
:1025000001A80CF047FE3B483B4B0360A723436008
:1025100084606323C36004614461846101F0A4FAB0
:1025200000284BD14FF48053129312A9314801F087
:1025300001FC002845D12F4801F0C2FA002843D100
:1025400000231093119310A92A4801F065FD00287B
:102550003DD16023099300220A920B920C920D92B6
:102560000E920F9209A9234801F06AFB002831D18D
:10257000042209A91F4801F063FB70BB082209A9C6
:102580001C4801F05DFB58BB0C2209A9194801F059
:1025900057FB40BB002301930293039304930593DD
:1025A0004FF400520692089301A9124801F07AFDF7
:1025B000E0B91048FFF7EEFE16B010BDFFF7C2FA03
:1025C000B0E7FFF7BFFAB6E7FFF7BCFAB8E7FFF7E7
:1025D000B9FABEE7FFF7B6FACAE7FFF7B3FACDE7F5
:1025E000FFF7B0FAD0E7FFF7ADFAD3E7FFF7AAFAA3
:1025F000DFE700BFAC0900200000014010B596B035
:102600000024129413941494159410941194099422
:102610000A940B940C940D940E940F94202221464E
:1026200001A80CF0B7FD3248324B036047234360EA
:10263000846044F61F63C36004614461846101F0F7
:1026400013FA00283FD14FF48053129312A928485F
:1026500001F070FB002839D1254801F031FA00283B
:1026600037D100231093119310A9214801F0D4FC15
:10267000002831D16023099300230A930B930C9314
:102680000D930E930F93082209A9194801F0D8FA67
:1026900028BB0C2209A9164801F0D2FA10BB00236E
:1026A000019302930393049305934FF4005206920F
:1026B000089301A90E4801F0F5FCB0B90C48FFF7EA
:1026C00069FE16B010BDFFF73DFABCE7FFF73AFA16
:1026D000C2E7FFF737FAC4E7FFF734FACAE7FFF7B4
:1026E00031FAD6E7FFF72EFAD9E7FFF72BFAE5E73D
:1026F000440800200004014000B58DB00023089379
:1027000009930A930B930193029303930493059304
:10271000069307931F48204A0260A7224260836005
:102720006322C2600361836101F09EF918BB4FF41C
:102730008053089308A9174801F0FCFAF0B915482E
:1027400001F0BEF9E8B960230193002202920392DE
:10275000059201A90F4801F073FAA8B904220DEB04
:1027600002010C4801F06CFA88B90A48FFF712FE22
:102770000DB05DF804FBFFF7E5F9D8E7FFF7E2F9E4
:10278000DDE7FFF7DFF9DEE7FFF7DCF9E6E7FFF764
:10279000D9F9EAE7FC0700200040014000B589B004
:1027A00000230193029303930493059306930793E5
:1027B0001548164A0260A722426083606322C26005
:1027C0000361836101F050F9A0B90F4801F078F975
:1027D00098B960230193002202920392059201A905
:1027E000094801F02DFA58B90748FFF7D3FD09B0A1
:1027F0005DF804FBFFF7A6F9E7E7FFF7A3F9E8E7C1
:10280000FFF7A0F9F0E700BFB40700200044014043
:1028100000B589B0002301930293039304930593B9
:10282000069307931548164A0260A7224260836008
:102830006322C2600361836101F016F9A0B90F48F9
:1028400001F03EF998B960230193002202920392AD
:10285000059201A9094801F0F3F958B90748FFF7B3
:1028600099FD09B05DF804FBFFF76CF9E7E7FFF7A6
:1028700069F9E8E7FFF766F9F0E700BF6C070020A9
:102880000048014008B50A480A4B03604FF4E133A1
:10289000436000238360C36003610C224261836153
:1028A000C36101F00DFD00B908BDFFF74BF9FBE76F
:1028B000540A00200010014030B589B00023039372
:1028C0000493059306930793026803F1804303F58D
:1028D00088339A4201D009B030BD044600250195E5
:1028E00003F594335A6C42F010025A645A6C02F0A9
:1028F00010020192019A02951A6B42F001021A63CA
:102900001B6B03F001030293029B4FF4C06303931C
:1029100002230493032306930723079303A9134871
:1029200000F036FB1248134B03604FF00063436026
:102930008560C5604FF480630361456185614FF434
:102940008073C3610562456200F072F958B9084BA3
:10295000E3639C6300220221252000F0DDF825209E
:1029600000F0EAF8B7E7FFF7EDF8F0E70000024003
:10297000F409002040640240DFF834D0FFF724FB64
:102980000C480D490D4A002302E0D458C4500433CA
:10299000C4188C42F9D30A4A0A4C002301E01360A0
:1029A0000432A242FBD30CF097FDFFF71FF97047EA
:1029B000000002200000002008070020EC6A010847
:1029C00008070020D80D0020FEE7000010B50446DF
:1029D0000E4B1A784FF47A73B3FBF2F30C4A10687B
:1029E000B0FBF3F000F0ACF868B90F2C01D901206E
:1029F0000AE0002221464FF0FF3000F08DF8054B31
:102A00001C60002000E0012010BD00BF2800002055
:102A1000240000202C00002008B50B4B1A6842F45B
:102A200000721A601A6842F480621A601A6842F4EE
:102A300080721A60032000F05DF80F20FFF7C6FFD8
:102A4000FFF71AFA002008BD003C0240034A116853
:102A5000034B1B780B441360704700BF9C0A002097
:102A600028000020014B1868704700BF9C0A002016
:102A7000002807DB00F01F02400901239340024AAF
:102A800042F82030704700BF00E100E0002808DB7A
:102A90000901C9B200F1604000F5614080F80013FF
:102AA000704700F00F000901C9B2014B195470477B
:102AB00014ED00E000B500F00700C0F1070CBCF118
:102AC000040F28BF4FF0040C031D062B0FD9C31EA3
:102AD0004FF0FF3E0EFA0CF021EA000199400EFA89
:102AE00003FE22EA0E0241EA02005DF804FB002325
:102AF000EEE70000074AD36823F4E0631B041B0CD5
:102B0000000200F4E060034343F0BF6343F400338A
:102B1000D360704700ED00E010B50446054BD8685F
:102B2000C0F30220FFF7C6FF01462046FFF7AEFFC5
:102B300010BD00BF00ED00E008B5FFF799FF08BD2C
:102B40000138B0F1807F0BD24FF0E0235861054A85
:102B5000F02182F823100020986107221A61704743
:102B60000120704700ED00E010B40368D9B21039BD
:102B7000094AA2FB01421209084CA25CC2655F2906
:102B800006D96FF3090304338365806D10BC704769
:102B90006FF309038365F8E7ABAAAAAA9C5B010857
:102BA000836A826992B9012B0AD0022B02D00BB141
:102BB00000207047C36A13F0807F28D1002070473F
:102BC000C36AB3F1C07F24D000207047B2F5005F24
:102BD00009D0022B25D9032B25D1C36A13F0807F9E
:102BE00023D100207047032B03D8DFE803F014043F
:102BF000140A00207047C36A13F0807F0DD10020B3
:102C00007047C36AB3F1C07F09D00020704701202C
:102C10007047012070470120704701207047012054
:102C20007047012070470020704701207047000066
:102C300070B50446FFF716FF002C5BD00546022353
:102C400084F83530002384F834302268136823F088
:102C50000103136023681A6812F0010F0AD0FFF70E
:102C600001FF431B052BF5D920236365032084F85E
:102C7000350070BD1A68204911406268A06802439F
:102C8000E06802432069024360690243A06902438D
:102C9000E0690243206A02430A43616A04291ED0A4
:102CA0001A602668756925F00705636A1D43042BC1
:102CB00007D1A36A1D43E36A1BB12046FFF770FFEB
:102CC00090B975612046FFF74FFFE26D3F239340B7
:102CD000836000206065012384F83530C9E7E16A2C
:102CE000206B01430A43DBE740236365012084F83E
:102CF0003500BEE70120BCE73F8010F070B5044608
:102D0000866DFFF7AFFE94F83530022B06D0802396
:102D10006365002384F83430012070BD05462268C5
:102D2000136823F0160313602268536923F08003AD
:102D30005361236CE3B12268136823F00803136026
:102D40002268136823F00103136023681B6813F0E3
:102D5000010F11D0FFF786FE431B052BF5D9202369
:102D60006365032084F83500002384F83430D4E709
:102D7000A36C002BDFD1E3E7E26D3F239340B36008
:102D8000012384F83530002084F83400C5E790F83A
:102D90003530022B03D08023436501207047052383
:102DA00080F835300268136823F0010313600020B7
:102DB00070470000F0B583B0044600230193724BC6
:102DC0001D68724BA3FB0535AD0A876D3E68C26D69
:102DD00008239340334210D003681A6812F0040F9E
:102DE0000BD01A6822F004021A60C26D08239340C7
:102DF000BB60436D43F001034365E26D01239340E3
:102E0000334209D02268526912F0800F04D0BB60AF
:102E1000636D43F002036365E26D04239340334224
:102E200009D02268126812F0020F04D0BB60636DF3
:102E300043F004036365E26D10239340334224D0D2
:102E40002268126812F0080F1FD0BB6023681A684E
:102E500012F4802F0DD01B6813F4002F04D1236CC3
:102E60009BB12046984710E0A36C73B12046984769
:102E70000BE01A6812F4807F03D11A6822F008026E
:102E80001A60236C0BB120469847E26D20239340D3
:102E9000334254D02268126812F0100F4FD0BB603A
:102EA00094F83530052B0ED023681A6812F4802F61
:102EB00033D01B6813F4002F2AD1636C002B3ED053
:102EC000204698473BE02268136823F016031360FE
:102ED0002268536923F080035361236CA3B12268F5
:102EE000136823F008031360E26D3F239340BB6037
:102EF000012384F83530002384F83430236D002B0F
:102F00003FD0204698473CE0A36C002BE7D1EBE78D
:102F1000E36BA3B12046984711E01A6812F4807F52
:102F200009D11A6822F010021A60012384F83530A2
:102F3000002384F83430E36B0BB120469847636D6F
:102F4000FBB1636D13F0010F17D0052384F8353002
:102F50002268136823F001031360019B013301937E
:102F6000AB4204D823681B6813F0010FF5D101238D
:102F700084F83530002384F83430E36C0BB12046FC
:102F8000984703B0F0BD00BF24000020B5814E1B60
:102F900000230F2B00F2EC8030B583B068E0856829
:102FA0004FEA430E032404FA0EF425EA0405CC6824
:102FB00004FA0EF42C438460446824EA02044A684C
:102FC000C2F300129A40224342605FE0DC080834FA
:102FD00050F8242003F00705AD004FF00F0E0EFA55
:102FE00005FE22EA0E0E0A69AA4042EA0E0240F8E5
:102FF00024205FE0072200E0002202FA0EF22A43BA
:1030000002345C4D45F824205B4A94686FEA0C0258
:1030100024EA0C05D1F804E01EF4801F01D04CEA2C
:103020000405554CA560E46802EA0405D1F804E003
:103030001EF4001F01D04CEA04054F4CE5606468A3
:1030400002EA0405D1F804E01EF4003F01D04CEA86
:103050000405494C6560246822404D6815F4803FA2
:1030600001D04CEA0402444C226001330F2B7DD87E
:1030700001229A400C6804EA020C32EA0404F4D1FA
:103080004C6804F00304013C012C88D94A6802F022
:103090000302032A09D0C4685D000322AA4024EA7F
:1030A00002048A68AA402243C2604A6802F003020E
:1030B000022A8BD004684FEA430E032202FA0EF272
:1030C00024EA02044A6802F0030202FA0EF22243E2
:1030D00002604A6812F4403FC7D000220192274A9A
:1030E000546C44F480445464526C02F48042019263
:1030F000019A9C08A51C1F4A52F8255003F0030EA4
:103100004FEA8E0E0F2202FA0EF225EA02051C4A41
:1031100090423FF471AF02F5806290421AD002F5FE
:103120008062904218D002F58062904216D002F57B
:103130008062904214D002F58062904212D002F573
:103140008062904210D002F5806290423FF452AF0C
:10315000082252E7012250E702224EE703224CE701
:1031600004224AE7052248E7062246E703B030BDBD
:10317000704700BF00380140003C01400038024069
:1031800000000240002800F0E08170B582B00446E3
:10319000036813F0010F3BD09F4B9B6803F00C03B7
:1031A000042B2CD09C4B9B6803F00C03082B21D0E4
:1031B0006368B3F5803F4FD0B3F5A02F52D0964B44
:1031C0001A6822F480321A601A6822F480221A6087
:1031D0006368002B50D0FFF745FC05468E4B1B68FB
:1031E00013F4003F14D1FFF73DFC401B6428F5D9D0
:1031F0000320B1E1884B5B6813F4800FD8D0864B75
:103200001B6813F4003F03D06368002B00F09F811C
:10321000236813F0020F54D07F4B9B6813F00C0F00
:103220003ED07D4B9B6803F00C03082B33D0E36842
:10323000002B68D0794B01221A60FFF713FC05467A
:10324000754B1B6813F0020F54D1FFF70BFC401BAA
:103250000228F5D903207FE16F4A136843F48033D5
:103260001360B5E76C4B1A6842F480221A601A6842
:1032700042F480321A60ABE7FFF7F4FB0546664B79
:103280001B6813F4003FC3D0FFF7ECFB401B64281E
:10329000F5D9032060E1604B5B6813F4800FC6D161
:1032A0005D4B1B6813F0020F03D0E368012B40F065
:1032B0005081594A136823F0F803216943EAC10396
:1032C0001360236813F0080F42D063696BB3534B4C
:1032D0000122C3F8802EFFF7C5FB05464E4B5B6FFE
:1032E00013F0020F34D1FFF7BDFB401B0228F5D9C4
:1032F000032031E1484A136823F0F803216943EAC7
:10330000C1031360DDE7454B00221A60FFF7AAFBFB
:103310000546414B1B6813F0020FD2D0FFF7A2FB0A
:10332000401B0228F5D9032016E13C4B0022C3F8CC
:10333000802EFFF797FB0546374B5B6F13F0020FAC
:1033400006D0FFF78FFB401B0228F5D9032003E1CD
:10335000236813F0040F77D02F4B1B6C13F0805FA2
:1033600033D1002301932C4B1A6C42F080521A6423
:103370001B6C03F080530193019B0125284B1B68B4
:1033800013F4807F23D0A368012B34D0052B38D0D1
:10339000214B1A6F22F001021A671A6F22F0040201
:1033A0001A67A368002B3DD0FFF75CFB06461A4B5B
:1033B0001B6F13F0020F46D1FFF754FB801B41F245
:1033C00088339842F3D90320C6E00025D6E7144A93
:1033D000136843F480731360FFF744FB0646104BF9
:1033E0001B6813F4807FCED1FFF73CFB801B0228C3
:1033F000F5D90320B0E0084A136F43F001031367C7
:10340000CFE7054B1A6F42F004021A671A6F42F0B9
:1034100001021A67C5E700BF0038024000004742BA
:1034200000700040FFF71EFB0646524B1B6F13F067
:10343000020F08D0FFF716FB801B41F28833984239
:10344000F3D9032088E0EDB9A369002B00F0838055
:10345000484A926802F00C02082A51D0022B17D079
:10346000454B00221A66FFF7FDFA0446414B1B68E4
:1034700013F0007F42D0FFF7F5FA001B0228F5D9C0
:10348000032069E03B4A136C23F080531364DBE7AD
:10349000394B00221A66FFF7E5FA0546354B1B68E3
:1034A00013F0007F06D0FFF7DDFA401B0228F5D9A4
:1034B000032051E0E369226A1343626A43EA8213FC
:1034C000A26A5208013A43EA0243E26A43EA02630B
:1034D000284A5360284B01221A66FFF7C3FA0446B4
:1034E000244B1B6813F0007F06D1FFF7BBFA001BCB
:1034F0000228F5D903202FE000202DE000202BE04A
:10350000012B2BD01B4B5B6803F48001E2699142D5
:1035100026D103F03F02216A8A4223D1616A47F62D
:10352000C0721A40B2EB811F1ED103F44031A26A6F
:103530005208013AB1EB024F18D103F07063E26A0E
:10354000B3EB026F14D1002006E001207047012088
:1035500002E0012000E0002002B070BD0120FBE786
:103560000120F9E70120F7E70120F5E70120F3E763
:103570000120F1E7003802400000474208B5334B14
:103580009B6803F00C03042B5BD0082B5BD12F4B03
:103590005A6802F03F025B6813F4800F2CD02B4B6B
:1035A0005868C0F388104FEA401CBCEB000C6EEB6F
:1035B0000E0E4FEA8E1343EA9C634FEA8C11B1EB77
:1035C0000C0163EB0E03DB0043EA5173C90011EBFE
:1035D000000C43F10003590200234FEA4C2041EA5A
:1035E000DC51FDF76BFA194B5B68C3F30143013300
:1035F0005B00B0FBF3F008BD144B5868C0F38810B3
:103600004FEA401CBCEB000C6EEB0E0E4FEA8E1323
:1036100043EA9C634FEA8C11B1EB0C0163EB0E03A0
:10362000DB0043EA5173C90011EB000C43F10003C6
:10363000990200234FEA8C2041EA9C51FDF73EFAA3
:10364000D1E70348D7E70348D5E700BF0038024079
:1036500000127A000024F400002800F09B8070B56E
:103660000D4604464F4B1B6803F007038B4208D2FC
:10367000CBB24C4A1370136803F007038B4240F03F
:103680008B80236813F0020F17D013F0040F04D0BF
:10369000454A936843F4E0539360236813F0080F9E
:1036A00004D0414A936843F4604393603E4A936870
:1036B00023F0F003A1680B439360236813F0010F1C
:1036C00032D06368012B21D09A1E012A25D9364AAF
:1036D000126812F0020F61D033498A6822F00302A7
:1036E00013438B60FFF7BEF906462F4B9B6803F030
:1036F0000C036268B3EB820F16D0FFF7B3F9801B9F
:1037000041F288339842F0D9032042E0264A1268F9
:1037100012F4003FE0D101203BE0234A126812F08E
:10372000007FD9D1012034E01E4B1B6803F0070352
:10373000AB4207D9EAB21B4B1A701B6803F00703B0
:10374000AB422DD1236813F0040F06D0164A9368BC
:1037500023F4E053E1680B439360236813F0080FF0
:1037600007D0114A936823F46043216943EAC103F7
:103770009360FFF703FF0C4B9B68C3F303130B4AE3
:10378000D35CD8400A4B18600A4B1868FFF71EF943
:10379000002070BD012070470120FAE70120F8E702
:1037A0000120F6E7003C0240003802408C5B010833
:1037B000240000202C000020014B1868704700BF37
:1037C0002400002008B5FFF7F7FF044B9B68C3F304
:1037D0008223034AD35CD84008BD00BF00380240B2
:1037E000845B010808B5FFF7E7FF044B9B68C3F350
:1037F0004233034AD35CD84008BD00BF00380240C2
:10380000845B010830B4036A026A22F0010202629A
:103810004268846924F0730C0C6844EA0C0423F0B9
:10382000020C8B6843EA0C03114DA84203D005F546
:103830008065A84205D123F00803CD682B4323F00F
:1038400004030B4DA84203D005F58065A84207D1BB
:1038500022F440724D6945EA020C8A6942EA0C0280
:10386000426084614A684263036230BC704700BFB3
:103870000000014030B4036A026A22F480720262DE
:103880004268C46924F0730C0C6844EA0C0523F404
:1038900000738C6843EA0423114CA04203D004F562
:1038A0008064A04206D123F40063CC6843EA042379
:1038B00023F480630A4CA04203D004F58064A04244
:1038C00007D122F440524C6942EA04128C6942EA60
:1038D00004124260C5614A68C263036230BC70472B
:1038E0000000014030B4036A026A22F4805202628E
:1038F0004468C26922F4E6420D6842EA052223F4D4
:1039000000538D6843EA0533094DA84203D005F5FD
:103910008065A84204D124F480444D6944EA8514AA
:103920004460C2614A680264036230BC704700BFF1
:103930000000014010B4036A046A24F00104046228
:10394000846924F0F00C4CEA021223F00A030B43C2
:103950008261036210BC704710B4036A046A24F0E9
:1039600010040462846924F4704C4CEA023223F09F
:10397000A00343EA01138261036210BC70478368AD
:1039800023F070030B4343F00703836070477047D5
:103990000368344A904212D0B0F1804F0FD0A2F5A4
:1039A0007C4290420BD002F58062904207D002F533
:1039B0008062904203D002F57842904203D123F016
:1039C00070034A681343274A90422AD0B0F1804FCF
:1039D00027D0A2F57C42904223D002F5806290422B
:1039E0001FD002F5806290421BD002F578429042CF
:1039F00017D002F57052904213D002F580629042C7
:103A00000FD002F5806290420BD0A2F5983290421E
:103A100007D002F58062904203D002F580629042A6
:103A200003D123F44073CA68134323F080034A6927
:103A3000134303608B68C3620B688362094B98422F
:103A400003D003F58063984201D10B69036301231E
:103A50004361036913F0010F03D0036923F00103ED
:103A6000036170470000014040B310B5044690F870
:103A70003D30F3B1022384F83D30214651F8040B68
:103A8000FFF786FF012384F8463084F83E3084F83F
:103A90003F3084F8403084F8413084F8423084F874
:103AA000433084F8443084F8453084F83D300020B9
:103AB00010BD80F83C30FEF751FBDBE7012070477A
:103AC00040B310B5044690F83D30F3B1022384F8BA
:103AD0003D30214651F8040BFFF75AFF012384F8CB
:103AE000463084F83E3084F83F3084F8403084F823
:103AF000413084F8423084F8433084F8443084F80C
:103B0000453084F83D30002010BD80F83C30FFF790
:103B10003EFFDBE701207047002856D070B50D4608
:103B2000044690F83D30002B4AD0022384F83D3003
:103B30002268936823F4804323F0070393602146AF
:103B400051F8040BFFF724FF21688B688A690E6A1D
:103B50002868184322F4407222F00302AB68D5F8BB
:103B600018C043EA0C23134323F47C4323F0FC03E3
:103B7000EA68D5F81CC042EA0C221A432B6A1B03E0
:103B8000D5F810C043EA0C13134326F0AA066A685E
:103B90006D6942EA05123243886021688B612368AF
:103BA0001A62012384F8463084F83E3084F83F30AE
:103BB00084F8423084F8433084F83D30002070BDF2
:103BC00080F83C30FEF72AFBAFE701207047000089
:103BD00030B4036A026A22F0100202624468826909
:103BE00022F4E6420D6842EA052223F020038D68A4
:103BF00043EA0513114DA84203D005F58065A8429C
:103C000006D123F08003CD6843EA051323F0400377
:103C10000A4DA84203D005F58065A84207D124F4D7
:103C200040644D6944EA85048D6944EA8504446032
:103C300082614A688263036230BC704700000140C1
:103C400038B590F83C30012B66D004460D46012370
:103C500080F83C300C2A5AD8DFE802F0075959594D
:103C60001B5959593059595944000068FFF7CAFD8A
:103C70002268936943F0080393612268936923F0F3
:103C8000040393612268936929690B4393610020BF
:103C90003EE00068FFF79CFF2268936943F40063ED
:103CA00093612268936923F4806393612268936926
:103CB000296943EA01239361002029E00068FFF7A6
:103CC000D9FD2268D36943F00803D3612268D36920
:103CD00023F00403D3612268D36929690B43D361BC
:103CE000002015E00068FFF7FDFD2268D36943F46A
:103CF0000063D3612268D36923F48063D3612268AF
:103D0000D369296943EA0123D361002000E001203F
:103D1000002384F83C3038BD0220FCE710B48468EE
:103D200024F47F4C42EA03220A4342EA0C028260F6
:103D300010BC704790F83C30012B78D010B5044689
:103D4000012380F83C30022380F83D3002689368FC
:103D500023F47F4323F0770393600B68602B4CD0F0
:103D600023D8402B54D011D8202B03D00AD80BB124
:103D7000102B05D119462068FFF701FE002028E02E
:103D8000012026E0302BF5D0012022E0502B0AD173
:103D9000CA6849680068FFF7CDFD50212068FFF729
:103DA000EEFD002015E0012013E0B3F5805F3AD06E
:103DB000B3F5005F14D0702B37D1CB684A6889689F
:103DC0000068FFF7ABFF2268936843F077039360C6
:103DD0000020012384F83D30002384F83C3010BDDE
:103DE000CB684A6889680068FFF798FF2268936883
:103DF00043F4804393600020EBE7CA684968006899
:103E0000FFF7AAFD60212068FFF7B9FD0020E0E779
:103E1000CA6849680068FFF78DFD40212068FFF7F8
:103E2000AEFD0020D5E70020D3E70120D1E7022036
:103E3000704701F01F014FF0010C0CFA01FC036AFE
:103E400023EA0C030362036A8A4013430362704748
:103E500010B504460846002941D194F83E30013B94
:103E600018BF0123002B6BD100284ED1022384F808
:103E70003E30012201462068FFF7DBFF2368324A0B
:103E8000934203D002F58062934203D15A6C42F40C
:103E900000425A6423682C4A934246D0B3F1804FC3
:103EA00043D0A2F57C4293423FD002F58062934218
:103EB0003BD002F58062934237D002F578429342BC
:103EC00033D002F5705293422FD0A2F59432934230
:103ED0002BD01A6842F001021A6000202FE004295A
:103EE00007D008290BD094F84130013B18BF0123BB
:103EF000B8E794F83F30013B18BF0123B2E794F8CC
:103F00004030013B18BF0123ACE7042805D0082846
:103F100007D0022384F84130ABE7022384F83F3016
:103F2000A7E7022384F84030A3E79A6802F007026B
:103F3000062A07D01A6842F001021A60002010BD5C
:103F40000120FCE70020FAE70000014038B50446F4
:103F500090F83E00C0B294F83F3094F84220D2B2BC
:103F600094F843C00D46B1B9012849D1012A48D17E
:103F7000022384F83E3084F842307DB3042D39D0DA
:103F8000012200212068FFF754FF0122042120684C
:103F9000FFF74FFF27E0DBB25FFA8CFC042912D059
:103FA000012833D1012B2CD1012A31D1BCF1010FD1
:103FB00030D1022384F83E3084F83F3084F8423018
:103FC00084F84330D9E7012B1CD1BCF1010F1BD180
:103FD000022384F83F3084F84330CEE701220021E9
:103FE0002068FFF726FF2268136843F0010313607F
:103FF000002006E0012204212068FFF71AFFF2E703
:10400000012038BD0120FCE71846FAE70120F8E757
:104010001846F6E71046F4E790F83C20012A3CD019
:1040200010B40346012280F83C20022280F83D2093
:1040300002685068946820F0700C086840EA0C0030
:1040400050601A68164882421AD0B2F1804F17D0D9
:10405000A0F57C40824213D000F5806082420FD0F0
:1040600000F5806082420BD000F57840824207D094
:1040700000F57050824203D0A0F59430824204D102
:1040800024F08004496821439160012283F83D2097
:10409000002083F83C0010BC70470220704700BF2E
:1040A00000000140024690F83C30012B21D0012352
:1040B00080F83C30CB6823F440738868034323F4D2
:1040C00080634868034323F400630868034323F4D0
:1040D00080530869034323F400534869034323F4DE
:1040E0008043C9690B4311684B64002082F83C008F
:1040F000704702207047026802F10C0353E8003F4A
:1041000023F490730C3242E800310029F3D10268A5
:1041100002F1140353E8003F23F00103143242E894
:1041200000310029F3D1036B012B05D0202380F847
:104130004230002303637047026802F10C0353E826
:10414000003F23F010030C3242E800310029F3D184
:10415000ECE790F84130212B01D0022070478368B2
:10416000B3F5805F17D0036A5A1C02621A7803689D
:104170005A60C38C9BB2013B9BB2C3844BB90268AB
:10418000D36823F08003D3600268D36843F0400310
:10419000D360002070470369002BE4D1036A1B88B9
:1041A0000268C3F308035360036A02330362E0E763
:1041B00010B504460268136923F44053C1680B43E9
:1041C0001361836802691A4343691A43C3691A4336
:1041D0000168CB6823F4164323F00C031343CB6030
:1041E0000268536923F4407381690B435361036888
:1041F000314A934206D002F58062934202D0FFF723
:10420000E1FA01E0FFF7EEFAE369B3F5004F29D0D8
:104210000021031849411B1841F10001C90041EA7E
:104220005371DB00181863684FEA83024FEA9373F7
:1042300041F10001FCF742FC204AA2FB0031490990
:10424000642303FB11031B013233A2FB03235B092D
:1042500003F0F00202EB011203F00F032168134494
:104260008B6010BD0023021843EB0301121841F1CB
:104270000001C90041EA5271D200101841F1000159
:10428000626892185B41FCF719FC0C4AA2FB0031F2
:104290004909642303FB1103DB003233A2FB032330
:1042A0005B095A0002F4F87202EB011203F00703F3
:1042B000216813448B60D4E7001001401F85EB5147
:1042C00060B310B5044690F8413013B3242384F84A
:1042D00041302268D36823F40053D3602046FFF7AF
:1042E00067FF2268136923F49043136122685369BE
:1042F00023F02A0353612268D36843F40053D36048
:1043000000206064202384F8413084F842306063E8
:1043100010BD80F84030FEF7CFFAD7E70120704794
:10432000704708B50168CA6822F04002CA602022BE
:1043300080F84120FFF7F4FF002008BD7047704768
:1043400008B5806B0023C385C384FFF7F8FF08BD61
:10435000704790F84230222B69D18368B3F5805FB3
:104360004FD0826AB3F5805F04D0002B56D1036929
:10437000002B53D103685B681370836A0133836237
:10438000C38D9BB2013B9BB2C385002B51D100B5BD
:1043900083B00268D36823F02003D3600268D36837
:1043A00023F48073D3600268536923F001035361DF
:1043B000202380F8423000234363036B012B33D169
:1043C00000230363026802F10C0353E8003F23F06B
:1043D00010030C3242E800310029F3D103681A6857
:1043E00012F0100F06D0002201921A6801925B6849
:1043F0000193019B818DFFF7ABFF002003B05DF8B7
:1044000004FB0269002AACD1826A03685B68C3F3CB
:1044100008031380836A02338362B1E703685B6831
:1044200003F07F031370A8E7FFF788FFE5E702209A
:10443000704700207047000010B582B00446026843
:104440001368D068516913F00F0F09D113F0200FD2
:104450000CD010F0200F09D02046FFF77AFF16E0AD
:1044600011F0010115D110F4907F12D1216B0129B7
:1044700079D013F0800F03D010F0800F40F014813A
:1044800013F0400F03D010F0400F40F0118102B044
:1044900010BD13F0010F06D010F4807F03D0626CC2
:1044A00042F00102626413F0040F04D019B1626C8F
:1044B00042F00202626413F0020F04D019B1626C80
:1044C00042F00402626413F0080F07D010F0200FCE
:1044D00000D119B1626C42F008026264626C002A79
:1044E000D5D013F0200F02D010F0200F29D123686F
:1044F0005B6903F04003626C12F0080F00D163B3F4
:104500002046FFF7F8FD23685B6913F0400F20D0C9
:10451000226802F1140353E8003F23F040031432F1
:1045200042E800310029F3D1E36B73B1624A1A65A6
:10453000E06BFEF72CFC0028A9D0E06B036D9847D8
:10454000A5E72046FFF705FFD1E72046FFF7F7FE76
:104550009DE72046FFF7F3FE99E72046FFF7EFFEC1
:104560000023636493E713F0100F82D010F0100F54
:104570003FF47FAF002301931368019353680193C5
:10458000019B536913F0400F52D0E26B13685B68D4
:104590009BB2002B3FF47BAFA18D99427FF677AFA2
:1045A000E385D369B3F5807F37D0226802F10C032D
:1045B00053E8003F23F480730C3242E800310029B5
:1045C000F3D1226802F1140353E8003F23F0010302
:1045D000143242E800310029F3D1226802F11403B9
:1045E00053E8003F23F04003143242E80031002931
:1045F000F3D1202384F8423000232363226802F1A0
:104600000C0353E8003F23F010030C3242E8003162
:104610000029F3D1E06BFEF771FB02236363A18DE8
:10462000E38D9BB2C91A89B22046FFF791FE2EE7AF
:10463000A18DE38D9BB2C91A89B2E38D9BB2002B89
:104640003FF425AF00293FF422AF226802F10C03AA
:1046500053E8003F23F490730C3242E80030002806
:10466000F3D1226802F1140353E8003F23F0010361
:10467000143242E800300028F3D1202384F842307D
:1046800000232363226802F10C0353E8003F23F068
:1046900010030C3242E800300028F3D10223636398
:1046A0002046FFF755FEF2E62046FFF752FDEEE604
:1046B0002046FFF736FEEAE6414300088162828524
:1046C000C28500234364222380F84230036923B16A
:1046D0000268D36843F48073D3600268536943F07F
:1046E000010353610268D36843F02003D3600020C4
:1046F000704708B590F84230202B08D149B10AB96B
:10470000012008BD00230363FFF7D8FFF9E702206B
:10471000F7E70120F5E700000368DB0705D44378DD
:104720002BB901234370184670470020704710B51D
:10473000042000F0CBF9044600F026F8024A0349B1
:10474000204600F0EBFA00BF59470008C85B01089B
:1047500001230360704700BF10B5034B036004469C
:1047600000F054FA204610BDDC5B010810B5054B83
:104770000360044600F04AFA2046042100F030F9B4
:10478000204610BDDC5B0108014B0360704700BF91
:10479000DC5B010810B5034B0360044600F0C2F86F
:1047A000204610BD245C010810B5054B036004468B
:1047B00000F0B8F820460C2100F012F9204610BD98
:1047C000245C010870B582B00446069E96420D46F0
:1047D00009D0A06804680696246A2946A44602B057
:1047E000BDE87040604719460192009300F064F8FC
:1047F000DDE900320028ECD0062002B070BD00BF19
:104800002DE9F04F0D4681B01946DDE90A8BDDE94F
:104810000CA91C460746164600F04EF880B9D04554
:1048200027D0B86823460468CDE90CA9CDE90A8BE6
:10483000E46932462946A44601B0BDE8F04F60471E
:10484000002DC9F8008089F804600CDBA844C2453B
:1048500014BF4FF001084FF0060889F806800020C9
:1048600001B0BDE8F08F0235F9D1012389F8063097
:10487000F5E75946384600F01FF80028D1D089F8EE
:104880000560ECE72DE9F04106460F4614461D464B
:1048900000F082F848B9B068016822468C692B465E
:1048A0003946A446BDE8F0416047BDE8F08100BF4D
:1048B000704700BF00207047814211D008B54068A2
:1048C00003782A2B0AD049680B782A2B08BF0131BC
:1048D000FCF7E6F9B0FA80F0400908BD002008BDF9
:1048E0000120704770B5036884B000249E6903946A
:1048F000102315460293CDE900446B461268B04779
:104900009DF8043003F00603062B03BF009B2B60C9
:104910000120204604B070BD009890420CBF0620D4
:104920000120704710B5034B03600446FFF7C0FF3A
:10493000204610BD985C010810B5054B0360044685
:10494000FFF7B6FF2046082100F04AF8204610BDC8
:10495000985C01082DE9F041069F0899099E8F4255
:10496000044690461D460CD029462046FFF7A4FF7A
:1049700020B10123376086F80480B3710020BDE8C0
:10498000F0810799FFF798FF0028EDD086F80580A1
:104990000020BDE8F08100BF38B515461C46FFF782
:1049A0008BFF00B938BD082206232560E260237121
:1049B00038BD00BF2DE9F041064617461D460C469E
:1049C000FFF77AFF48B9032D07D823683A463146E6
:1049D00020465B69BDE8F0411847BDE8F08100BFA3
:1049E00007F01ABA21494A6830B5A0F1080442B369
:1049F00050F8085C04EB050E724522D8536827D0A6
:104A000001F1040C33B92DE0596802F1040C1A4687
:104A100051B10B469E45F7D822D1536819685B689F
:104A20005360DCF800300D441A6899188C420CD0A1
:104A30005B6840F8043CDCF8003040F8085C5C60DF
:104A400030BD40F8042C4C6030BD2A441A6030BDA3
:104A5000126840F8043C2A4440F8082C4C6030BDF1
:104A60001346E1E7134601F1040CDDE7A00A00203C
:104A7000154900F108034868082B38BF082308B31C
:104A8000073323F00703043102E0011D406890B1B1
:104A900002689342F9D80868026830B4D41A072C27
:104AA000456809D9C2185560C450086830BC036015
:104AB00008300A607047704702602A46083030BCF0
:104AC0000A607047704700BFA00A002010B500F1CF
:104AD0008004204608F08AFF034630B1802200217E
:104AE00018460AF057FB803010BD2046FFF7C0FF84
:104AF00003460028F2D100F0A5F800BF064BD3E929
:104B0000022380381344984203D2824201D2FFF735
:104B100069BF08F073BF00BFA00A0020F0B5364D92
:104B2000364889B00026C5E90166EE6008F010FF3E
:104B3000334B344A0821CDE902130923CDE904633C
:104B40000423CDE906230446002835D023782E48D7
:104B50003A2B08BF01340F2221460AF071FA10B92E
:104B6000E37B2E2B16D020463A210AF061FB044647
:104B70000028EBD1079A049C402AA8BF4022002CB1
:104B800008BF06243E3402FB04F4A400EC60B4B970
:104B900009B0F0BD103402AE376821463A461FB165
:104BA00070680AF04DFA10B9E35D3D2B11D00C3658
:104BB00008AB9E42F0D1D6E74FF48864EC60204603
:104BC00008F014FFA860A0B10023C0E900436860AA
:104BD000DEE7781C2044002201A909F0E1FC019CD9
:104BE00023783A2B01D0002BBDD10028A8BFB0609C
:104BF000B9E7E860CCE700BFA00A0020CC4F01086D
:104C0000E04F0108EC4F0108F84F0108704700BF62
:104C1000704700BF004870470850010800487047BF
:104C20001850010810B504210446FFF7D9FE2046AC
:104C300010BD00BF08B5804708F082FE07F0B6F946
:104C400008F07EFE08B5034B1868BFF35B8FFFF7D3
:104C5000F1FF00BF3400002008B58047FFF7F2FFE6
:104C600008B5034B1868BFF35B8FFFF7F5FF00BF74
:104C700030000020024B1868BFF35B8F704700BF05
:104C800034000020024B1868BFF35B8F704700BFF1
:104C900030000020012810B51AD8BFF35B8FA1F1B6
:104CA000280353E8002F013A43E800200028F8D1F8
:104CB000BFF35B8F5AB951F81C3C01F158040BB19A
:104CC000204698472046BDE81040FFF717BF10BDAB
:104CD00051F8140CFFF7AEFF002310B540E91E1287
:104CE00040F8803C0446FFF7CDFF44F8700CFFF716
:104CF000C1FF0749074A084B44F8581C44F8542C94
:104D000044F86C0C44F8503CA4F1800010BD00BF86
:104D1000474E5543432B2B00954C000870B5044675
:104D20000D46164607F0CAF9436801333246294654
:104D300043602046FFF7D0FF0446012344F8283B98
:104D40002046FBF74FFF204607F030F9FFF77AFFC8
:104D500010B507F0B3F9D0E900420132426064B106
:104D600094F82020472A0AD00022026020342046EE
:104D7000FBF75CFF204607F019F9FFF763FF94F893
:104D800021204E2AF0D194F82220552AECD194F813
:104D90002320432AE8D194F82420432AE4D194F82C
:104DA00025202B2AE0D194F826202B2ADCD194F858
:104DB0002720012AD8D8626952426261D6E700BF33
:104DC00070B53A4B1A7882B0002A3ED101241C708B
:104DD00007F07CFC78B34468354D23782A2B08BF54
:104DE000013400224FF0FF30114601AB0190204604
:104DF00006F0B2FF2B683022DB68012106462D4801
:104E000009F02EFF2A68019BD16883B1204609F082
:104E100021FD2B682848DB680222012109F020FFD0
:104E2000019B13B9304608F0E9FDFFF791FF3046CA
:104E300009F010FDEDE71E4B20481B682D22DB68B2
:104E4000214609F00DFF08F07BFD194B1C481B683B
:104E50001D22DB68012109F003FF08F071FD012923
:104E60000C4619D107F0A2F803689B6898472B6895
:104E70002146DB6804460B22124809F0F1FE2B683C
:104E80002046D96809F0E6FC2B680A20D96809F0A9
:104E900061FC07F0C9F8D6E707F088F807F0C4F816
:104EA000D1E707F0C1F806F0B9FF00BFB00A002053
:104EB000540400204C50010880500108845001081F
:104EC0002C500108B4500108502970B584463BD8D5
:104ED00034295BD829290AD9A1F12A00082831D818
:104EE000DFE800F0171615301517172E16000A29DF
:104EF00024D9A1F10B052D48EDB20124AC4020408E
:104F0000F0B92B48044204D12A482040A8B1CAB1C4
:104F1000C3B1DCE90540844214DADCF8105004EB3C
:104F2000840E05EB8E0001340026C0E90166CCF842
:104F3000144005F82E10C0E9032370BD0429E6D9FA
:104F4000002AE6D1002070BDA1F152000C28F7D84C
:104F500001A454F820F000BF134F0008134F0008BD
:104F6000414F0008114F0008114F00080F4F000873
:104F7000414F0008414F0008134F0008414F0008FF
:104F8000414F0008414F00080F4F0008A1F13505BF
:104F90000948EDB20124AC4020400028D0D1074898
:104FA00020400028B3D14F29B3D070BDFE1F005F51
:104FB00000C07F00010080000711C701F82E000A21
:104FC00070B5C26813786E2B014623D0303BDAB23D
:104FD000092A28D80026154C00206FF0004E07E063
:104FE000CB685A1CCA605B78303BDAB2092A0DD80C
:104FF000AEEB0302A4FB025200EB800CB0EBD20F2D
:1050000003EB4C00ECDD4FF0FF3070BD002EFCD008
:10501000404270BD531CC3605378303BDAB2092A5A
:1050200001D80126D7E7002070BD00BFCDCCCCCC85
:1050300010B5044651B1682917D02046FFF7C0FFCC
:10504000E3681A785F2A0ED0002010BDC3681A7872
:10505000002AF9D05A1CC2601B78682B05D0762B29
:10506000EBD00020F1E70133E3602046FFF7A8FF13
:10507000E3681A785F2AE7D10133E360012010BDAD
:10508000C3681A785F2A01D00120704710B55A1CF6
:10509000C2605A785F2A044604D0FFF791FFC043EC
:1050A000C00F10BD0233C360FFF78AFF002809DB81
:1050B000092805DDE3681A785F2A03D10133E3602C
:1050C000012010BD002010BD002973D038B5054661
:1050D0000C46A268012A36DCD5F81C01B0F5806FB9
:1050E00031DC23780132422BA2602DD8232B19D832
:1050F000013BDAB2222A26D8222B24D8DFE803F09B
:10510000383838532323202038383838383838385E
:105110003838383838383823383838383838383824
:1051200038383800A3F1240C23495FFA8CFC0122A3
:1051300002FA0CF21140D9B992072AD1342B02D1CC
:105140002469002CC5D138BD453BDBB2192BFAD8F8
:10515000012202FA03F3194A1A404AB9184A1342C3
:1051600002D113F0180FEED0E468002CB1D1EAE7B9
:10517000E1680130C5F81C012846FFF7A5FF216949
:105180002846FFF7A1FFD5F81C31013BC5F81C31BB
:1051900038BDE1680B78052BEBD1D5F838310133F8
:1051A000C5F83831E5E7D5F84431E1680133C5F891
:1051B0004431DEE7704700BFEC7DFE7FC16F000227
:1051C00006100400034600202BB909E0DA682AB172
:1051D0001B6901301BB11A78302AF7D0704770472D
:1051E0001846704720B909E039B10069013930B17A
:1051F0000378302BF8D000207047C06870477047A4
:10520000F0B514465268A5684B1C1344AB4283B0FA
:105210000E46074611D8E5686DB9636820683246C6
:1052200018443946FBF7FCFED4E9003233449D5460
:1052300063683344636003B0F0BDE268002AFAD1CA
:1052400055B16D00AB42FCD82068294608F0B6FE87
:1052500038B12060A560DEE7022B4FF00205F0D8E0
:10526000F2E70190206808F0C9FB019B0122C4E924
:105270000033C4E90232DEE703784B2B17D00ED897
:10528000442B16D14078A0F17703012B0FD900F001
:10529000DF00A0F14F00B0FA80F040097047562BB4
:1052A00005D0A3F17200B0FA80F0400970470120E8
:1052B00070470020704700BFD0F80031FF2B70B559
:1052C00004460D4606D05A1CC4F80021E55484F863
:1052D000045170BD0026194680F8FF60D0E94232C3
:1052E0009847D4F82811012233461144C4F82811F4
:1052F000C4F80021E55484F8045170BDD0F8103191
:105300008BB15A68CB681069002B0BDB20B906E023
:105310003BB10069013B10B10278302AF8D000207F
:105320007047C06870470123C0F81831F7E700BF25
:10533000002942D038B505460C462378342B1ED8B8
:10534000342B25D8DFE803F02C242424242E2C2908
:105350002924242424242424242424242424242408
:105360002C242424242424242424242424242424F5
:105370002C242424242424242424242C2900433BC6
:10538000DBB21C2B04D80E4A22FA03F3DB0707D446
:10539000E1682846FFF7CCFF18B92469002CCCD16E
:1053A000002038BD21462846FFF7A8FF0028F7D087
:1053B0000378302BF5D00020F3E70020704700BFC2
:1053C000E30C00102DE9F047044608460D46FBF7B4
:1053D000D7FE68B3013DD4F800112F184FF0000933
:1053E0004FF0010809E00B465546591CAF42C4F87E
:1053F0000011E65484F804611AD0FF296E7805F193
:10540000010AF0D1D4E9423284F8FF90204698474F
:10541000D4F82821C4F8008101231A44BA45C4F8FD
:105420002821267084F8046102D015F8026FDCE7A9
:10543000BDE8F08738B5C2681378542B24D1531CCB
:10544000C36052785F2A044620D06E2A1CD0FFF732
:10545000B7FD411C18D4E3681A785F2A14D1D4E947
:10546000052001338242E3600EDA236902EB820CED
:1054700003EB8C0001320025C0E901556261052271
:1054800003F82C20C16038BD002038BD0021E6E7BC
:105490002DE9F04788B00A4604461D4901A809F0E5
:1054A00091FC01A8FBF76CFE70B301AED4F80011BB
:1054B00006EB000A4FF000094FF0010808E02E4605
:1054C000591CB245C4F80011E75484F804711BD08C
:1054D0003546FF2915F8017B0B46F0D1D4E942325D
:1054E00084F8FF9020469847D4F82821277001239C
:1054F0001A44554584F80471C4F82821C4F8008181
:1055000002D02F780236DBE708B0BDE8F08700BF95
:10551000C05001082DE9F0410446FFF751FD051E7A
:1055200044DDE66863689B1B9D423BDCA2687319FF
:105530005207E36004D5725D242A04BF0133E3609F
:10554000092DD4E905781FDD27490822304609F0E6
:1055500077FD30B9337A2E2B2BD05F2B29D0242B1B
:1055600027D047451EDA206907EB870300EB83004D
:1055700001370023C0E9013367610023C0E901332B
:10558000C0E9036503700EE047450BDA206907EBBD
:10559000870300EB830001370023C0E90133676113
:1055A000002EEAD10020A062BDE8F0810020BDE815
:1055B000F081737A4E2BD4D1E36A16335B1B4745D7
:1055C000E362EFDA2169094A07EB870085000023CF
:1055D00001EB800001376761C0E901334B551523AA
:1055E000C0E90323DFE700BFC4500108D050010821
:1055F0002DE9F041C3681A78532A26D15A1CC2609B
:105600000446587848B39A1CE26058785F2846D020
:10561000A0F13003DAB2092A1BD8002205E0E560C8
:1056200008785F2831D0A0F13003D9B2092902EB04
:10563000C20300EB83031ED8303B9A4205D8E168D1
:1056400008781A464D1C0028E9D100252846BDE8F7
:10565000F081A0F14102192ADFD9A3681B0720D4E9
:1056600009BB434B03F1C4051A78824223D01C3393
:10567000AB42F9D1E9E7A0F14103192BE5D802EBE0
:10568000C20300EB8303373BD7E70133226A9A4218
:10569000DBD9E26952F823502846BDE8F0810023A7
:1056A000F4E70121DDE7E3681978433901298CBF6C
:1056B00000210121D5E75E69D4E90520AEB182421F
:1056C000D3F8188052DA276902EB820C07EB8C05BD
:1056D0004FF0000EC5E901EE01324FF0180E626185
:1056E00007F82CE0C5E90368A562002939D0D3E9A1
:1056F0000371E36A90420B44E36235DD236902EBF8
:10570000820003EB800501320026C5E90166626173
:10571000182203F82020C5E90371E3681A78422AA9
:1057200094D1A66A0133E3602046FFF7F3FE2A46D0
:1057300003464E212046FFF7C7FBE3681A78422A4A
:105740000546EFD0A66200283FF47FAFD4E90832C7
:105750009342BFF67AAFE1695A1C41F823002262F6
:1057600074E7D3E90171C4E70025D6E70025BBE75C
:10577000685D0108F8B5C3681A78572A28D104462D
:105780000E4607E0E569E36845F8220021621A78D1
:10579000572A1DD15A1CE2605A78502A4FF05505FD
:1057A00002D10233E360562520463768FFF7B2FE88
:1057B0003A46034629462046FFF786FB306030B163
:1057C000D4E908239A4202F10101DBDB0020F8BD95
:1057D0000120F8BD2DE9F043C16885B004460846B4
:1057E000FFF74AFD00BB0B78552B68D8402B40F2E1
:1057F0009580413B142B00F29180DFE813F0990172
:105800008F00850112018F009301C0008F008F006F
:105810008F008F008F00DB018F00B200A4008F008B
:1058200096008F00E600CE00002201A9204601F07C
:105830003BFA054600283AD0E3681B78462B204601
:105840003AD0FFF7C7FF2860002830D003781F3B0D
:10585000012B05D8019AC368C2602A6801922B60A7
:10586000019D25B3D4E90832934220DAE1695A1C3C
:10587000284641F82350226205B0BDE8F083012399
:10588000256B2363204600F05FFF2563024600235B
:1058900045212046FFF718FB0546019038B1E36823
:1058A0001A7822B15A1CE2601B788B4228D000255E
:1058B000284605B0BDE8F08300F01AFCC3E7A3F169
:1058C00061025FFA82FCBCF1190F27D8C54D012394
:1058D00003FA0CF31D40002D40F0E882BCF1140FD8
:1058E0001CD10131E1602046FFF714FE2B46024631
:1058F00029212046FFF7E8FA05460190002DD6D071
:10590000D4E908329342D2DAE16941F82350019D8B
:105910005A1C2846226205B0BDE8F08301212046CA
:1059200005B0BDE8F04301F013BB0131E160204652
:10593000FFF750FF0023024624212046FFF7C4FA58
:1059400005460190DAE70131E1602046FFF742FFAA
:105950000023024623212046FFF7B6FA05460190B0
:10596000CCE70131E1602046FFF734FF0023024617
:1059700025212046FFF7A8FA05460190BEE7013130
:10598000E1602046FFF726FF00230246272120463C
:10599000FFF79AFA05460190B0E70131E160204631
:1059A000FFF7B8FDE36801901A78492A054600F030
:1059B0009D822046FFF70EFF2B46024622212046FD
:1059C000FFF782FA0546019098E72046FFF732FD7F
:1059D000E66801903378492B05468FD1636B002B25
:1059E00040F0BA8200283FF462AFD4E908218A422D
:1059F000BFF65DAFE16941F82200013222623278E0
:105A0000493A012A05D80136E660204601F0F6F948
:105A100003462A4604212046FFF756FA0546019020
:105A20006CE74B1CE3604B78002B3FF440AF8B1CC2
:105A3000E3604B78463B302B3FF639AF01A252F87A
:105A400023F000BFE95B0008AF580008AF5800081A
:105A5000AF580008AF580008AF580008AF5800080A
:105A6000AF580008AF580008AF580008AF580008FA
:105A7000AF580008AF580008AF5800087F5800081A
:105A8000AF580008AF580008AF580008AF580008DA
:105A9000AF580008AF580008AF580008AF580008CA
:105AA000AF580008AF580008AF580008AF580008BA
:105AB000A95D0008AF5800087D5D00084D5D000835
:105AC0001D5D0008055E0008AF580008D55D0008A0
:105AD000355E0008AF580008AF580008AF580008FE
:105AE000AF580008BF5C0008AF580008955E00087A
:105AF000AF580008AF580008ED5C00087F58000858
:105B0000655E0008655C00080131E1602046FFF732
