:020000040800F2
:1000000000000220B11C0008191500081B1500088B
:100010001D1500081F15000821150008000000002C
:100020000000000000000000000000002315000890
:1000300025150008000000002715000829150008F4
:10004000011D0008011D0008011D0008011D000818
:10005000011D0008011D0008011D0008011D000808
:10006000011D0008011D0008011D0008011D0008F8
:10007000011D0008011D0008011D0008011D0008E8
:10008000011D0008011D0008011D0008011D0008D8
:10009000011D0008011D0008011D0008011D0008C8
:1000A000011D0008011D0008011D0008011D0008B8
:1000B000011D0008011D0008011D0008011D0008A8
:1000C000011D0008011D0008011D0008011D000898
:1000D000011D0008011D0008011D0008011D000888
:1000E000011D0008011D0008011D0008011D000878
:1000F000011D0008011D0008011D0008011D000868
:10010000011D0008011D0008011D0008011D000857
:10011000011D0008011D0008011D0008011D000847
:10012000011D0008011D0008011D0008011D000837
:10013000011D0008011D0008011D0008011D000827
:10014000011D0008011D0008011D0008011D000817
:10015000011D0008011D0008011D0008011D000807
:10016000011D0008011D0008011D0008011D0008F7
:10017000011D0008011D0008011D0008000000000D
:08018000011D0008011D00082B
:1001880081F0004102E000BF83F0004330B54FEA40
:1001980041044FEA430594EA050F08BF90EA020FAD
:1001A8001FBF54EA000C55EA020C7FEA645C7FEA40
:1001B800655C00F0E2804FEA5454D4EB5555B8BF63
:1001C8006D420CDD2C4480EA020281EA030382EAD4
:1001D800000083EA010180EA020281EA0303362D66
:1001E80088BF30BD11F0004F4FEA01314FF4801C39
:1001F8004CEA113102D0404261EB410113F0004F4B
:100208004FEA03334CEA133302D0524263EB430301
:1002180094EA050F00F0A780A4F10104D5F1200E9F
:100228000DDB02FA0EFC22FA05F2801841F10001FA
:1002380003FA0EF2801843FA05F359410EE0A5F1CE
:1002480020050EF1200E012A03FA0EFC28BF4CF0FF
:10025800020C43FA05F3C01851EBE37101F00045B5
:1002680007D54FF0000EDCF1000C7EEB00006EEBC2
:100278000101B1F5801F1BD3B1F5001F0CD349084C
:100288005FEA30004FEA3C0C04F101044FEA4452A3
:1002980012F5800F80F09A80BCF1004F08BF5FEA2A
:1002A800500C50F1000041EB045141EA050130BD0A
:1002B8005FEA4C0C404141EB0101013C28BFB1F51C
:1002C800801FE9D291F0000F04BF01460020B1FA67
:1002D80081F308BF2033A3F10B03B3F120020CDA3A
:1002E8000C3208DD02F1140CC2F10C0201FA0CF018
:1002F80021FA02F10CE002F11402D8BFC2F1200C7D
:1003080001FA02F120FA0CFCDCBF41EA0C01904032
:10031800E41AA2BF01EB0451294330BD6FEA04047B
:100328001F3C1CDA0C340EDC04F11404C4F1200266
:1003380020FA04F001FA02F340EA030021FA04F378
:1003480045EA030130BDC4F10C04C4F1200220FACF
:1003580002F001FA04F340EA0300294630BD21FA0D
:1003680004F0294630BD94F0000F83F4801306BFD3
:1003780081F480110134013D4EE77FEA645C18BFC7
:100388007FEA655C29D094EA050F08BF90EA020F5E
:1003980005D054EA000C04BF1946104630BD91EA56
:1003A800030F1EBF0021002030BD5FEA545C05D159
:1003B8004000494128BF41F0004130BD14F5800498
:1003C8003CBF01F5801130BD01F0004545F0FE410C
:1003D80041F470014FF0000030BD7FEA645C1ABF41
:1003E800194610467FEA655C1CBF0B46024650EA78
:1003F800013406BF52EA033591EA030F41F40021A4
:1004080030BD00BF90F0000F04BF0021704730B529
:100418004FF4806404F132044FF000054FF00001FE
:1004280050E700BF90F0000F04BF0021704730B5BF
:100438004FF4806404F1320410F0004548BF404294
:100448004FF000013EE700BF42004FEAE2014FEAE9
:1004580031014FEA02701FBF12F07F4393F07F4FC4
:1004680081F06051704732F07F4208BF704793F0C7
:100478007F4F04BF41F40021704730B54FF46074DA
:1004880001F0004521F000411CE700BF50EA0102DD
:1004980008BF704730B54FF000050AE050EA010286
:1004A80008BF704730B511F0004502D5404261EBF6
:1004B80041014FF4806404F132045FEA915C3FF437
:1004C800D8AE4FF003025FEADC0C18BF03325FEAD4
:1004D800DC0C18BF033202EBDC02C2F1200300FA85
:1004E80003FC20FA02F001FA03FE40EA0E0021FAAA
:1004F80002F11444BDE600BF70B54FF0FF0C4CF498
:10050800E06C1CEA11541DBF1CEA135594EA0C0F49
:1005180095EA0C0F00F0DEF82C4481EA030621EA84
:100528004C5123EA4C5350EA013518BF52EA0335BF
:1005380041F4801143F4801338D0A0FB02CE4FF071
:100548000005E1FB02E506F00042E0FB03E54FF0A1
:100558000006E1FB03569CF0000F18BF4EF0010E99
:10056800A4F1FF04B6F5007F64F5407404D25FEA95
:100578004E0E6D4146EB060642EAC62141EA555148
:100588004FEAC52040EA5E504FEACE2EB4F1FD0C8A
:1005980088BFBCF5E06F1ED8BEF1004F08BF5FEA08
:1005A800500E50F1000041EB045170BD06F00046BA
:1005B80046EA010140EA020081EA0301B4EB5C0467
:1005C800C2BFD4EB0C0541EA045170BD41F480115F
:1005D8004FF0000E013C00F3AB8014F1360FDEBF84
:1005E800002001F0004170BDC4F10004203C35DA60
:1005F8000C341BDC04F11404C4F1200500FA05F3E3
:1006080020FA04F001FA05F240EA020001F0004283
:1006180021F0004110EBD37021FA04F642EB0601F9
:100628005EEA430E08BF20EAD37070BDC4F10C0423
:10063800C4F1200500FA04F320FA05F001FA04F2E7
:1006480040EA020001F0004110EBD37041F10001D3
:100658005EEA430E08BF20EAD37070BDC4F12005DE
:1006680000FA05F24EEA020E20FA04F301FA05F246
:1006780043EA020321FA04F001F0004121FA04F2EE
:1006880020EA020000EBD3705EEA430E08BF20EABE
:10069800D37070BD94F0000F0FD101F000464000F8
:1006A80041EB010111F4801F08BF013CF7D041EA7A
:1006B800060195F0000F18BF704703F0004652007E
:1006C80043EB030313F4801F08BF013DF7D043EA4F
:1006D8000603704794EA0C0F0CEA135518BF95EA05
:1006E8000C0F0CD050EA410618BF52EA4306D1D18C
:1006F80081EA030101F000414FF0000070BD50EAAB
:10070800410606BF1046194652EA430619D094EA34
:100718000C0F02D150EA013613D195EA0C0F05D11E
:1007280052EA03361CBF104619460AD181EA030172
:1007380001F0004141F0FE4141F470014FF000002A
:1007480070BD41F0FE4141F4780170BD70B54FF0C5
:10075800FF0C4CF4E06C1CEA11541DBF1CEA135545
:1007680094EA0C0F95EA0C0F00F0A7F8A4EB050427
:1007780081EA030E52EA03354FEA013100F088801E
:100788004FEA03334FF0805545EA131343EA1263E7
:100798004FEA022245EA111545EA10654FEA00269C
:1007A8000EF000419D4208BF964244F1FD0404F555
:1007B800407402D25B084FEA3202B61A65EB0305B1
:1007C8005B084FEA32024FF480104FF4002CB6EB6E
:1007D800020E75EB030E22BFB61A754640EA0C00EE
:1007E8005B084FEA3202B6EB020E75EB030E22BF2E
:1007F800B61A754640EA5C005B084FEA3202B6EB6F
:10080800020E75EB030E22BFB61A754640EA9C002D
:100818005B084FEA3202B6EB020E75EB030E22BFFD
:10082800B61A754640EADC0055EA060E18D04FEABB
:10083800051545EA16754FEA06164FEAC30343EA5B
:1008480052734FEAC2025FEA1C1CC0D111F4801F28
:100858000BD141EA00014FF000004FF0004CB6E721
:1008680011F4801F04BF01430020B4F1FD0C88BFC0
:10087800BCF5E06F3FF6AFAEB5EB030C04BFB6EBCB
:10088800020C5FEA500C50F1000041EB045170BDBE
:100898000EF0004E4EEA113114EB5C04C2BFD4EBEB
:1008A8000C0541EA045170BD41F480114FF0000E6F
:1008B800013C90E645EA060E8DE60CEA135594EAEB
:1008C8000C0F08BF95EA0C0F3FF43BAF94EA0C0FEE
:1008D8000AD150EA01347FF434AF95EA0C0F7FF463
:1008E80025AF104619462CE795EA0C0F06D152EAB7
:1008F80003353FF4FDAE1046194622E750EA41069B
:1009080018BF52EA43067FF4C5AE50EA41047FF4AB
:100918000DAF52EA43057FF4EBAE12E74FF0FF3C10
:1009280006E000BF4FF0010C02E000BF4FF0010CE1
:100938004DF804CD4FEA410C7FEA6C5C4FEA430C5A
:1009480018BF7FEA6C5C1BD001B050EA410C0CBFA9
:1009580052EA430C91EA030F02BF90EA020F00200B
:10096800704710F1000F91EA030F58BF994208BF72
:1009780090422CBFD8176FEAE37040F0010070472F
:100988004FEA410C7FEA6C5C02D150EA013C07D186
:100998004FEA430C7FEA6C5CD6D152EA033CD3D0D1
:1009A8005DF8040B704700BF8446104662468C46CB
:1009B8001946634600E000BF01B5FFF7B7FF0028FE
:1009C80048BF10F1000F01BD4DF808EDFFF7F4FF27
:1009D8000CBF012000205DF808FB00BF4DF808EDB2
:1009E800FFF7EAFF34BF012000205DF808FB00BFD5
:1009F8004DF808EDFFF7E0FF94BF012000205DF8F7
:100A080008FB00BF4DF808EDFFF7CEFF94BF0120AB
:100A180000205DF808FB00BF4DF808EDFFF7C4FFA4
:100A280034BF012000205DF808FB00BF4FEA4102F7
:100A380012F5001215D211D56FF47873B3EB625228
:100A480012D94FEAC12343F0004343EA505311F04F
:100A5800004F23FA02F018BF404270474FF00000E1
:100A6800704750EA013005D111F0004008BF6FF01F
:100A7800004070474FF00000704700BF53B94AB9B3
:100A8800002908BF00281CBF4FF0FF314FF0FF308E
:100A980000F0E2B8ADF1080C6DE904CE02F078FA86
:100AA800DDF804E0DDE9022304B0704700F1340109
:100AB80091E838009C46A6464CF8045D90E8FF0F84
:100AC800E54600BD90EC210B704700BF80EC210B80
:100AD800704700BF90EC200B704700BF80EC200BE4
:100AE800704700BFD0EC200B704700BFC0EC200B54
:100AF800704700BFF0EC0201F0EC0211F0EC0221AB
:100B0800F0EC0231F0EC0241F0EC0251F0EC026141
:100B1800F0EC0271F0EC0281F0EC0291F0EC02A131
:100B2800F0EC02B1F0EC02C1F0EC02D1F0EC02E121
:100B3800F0EC02F1704700BFE0EC0201E0EC0211BA
:100B4800E0EC0221E0EC0231E0EC0241E0EC025181
:100B5800E0EC0261E0EC0271E0EC0281E0EC029171
:100B6800E0EC02A1E0EC02B1E0EC02C1E0EC02D161
:100B7800E0EC02E1E0EC02F1704700BFB0FC01815B
:100B8800B0FC0191B0FC01A1B0FC01B1704700BFFD
:100B9800A0FC0181A0FC0191A0FC01A1A0FC01B175
:100BA800704700BFEC4600B52DE900502DE9FF1F46
:100BB8004FF000032DE90C0001A902F0C3FCDDF899
:100BC80040E012B0704700BFEC4600B52DE9005078
:100BD8002DE9FF1F4FF000032DE90C0001A902F0D9
:100BE800EFFCDDF840E012B0704700BFEC4600B5FE
:100BF8002DE900502DE9FF1F4FF000032DE90C00EF
:100C080001A902F0FFFCDDF840E012B0704700BF18
:100C1800EC4600B52DE900502DE9FF1F4FF0000309
:100C28002DE90C0001AB02F0C3FCDDF840E012B086
:100C3800704700BFEC4600B52DE900502DE9FF1FB5
:100C48004FF000032DE90C0001AA02F037FDDDF892
:100C580040E012B0704700BF704700BF844641EAC9
:100C6800000313F003036DD1403A41D351F8043B1C
:100C780040F8043B51F8043B40F8043B51F8043B6E
:100C880040F8043B51F8043B40F8043B51F8043B5E
:100C980040F8043B51F8043B40F8043B51F8043B4E
:100CA80040F8043B51F8043B40F8043B51F8043B3E
:100CB80040F8043B51F8043B40F8043B51F8043B2E
:100CC80040F8043B51F8043B40F8043B51F8043B1E
:100CD80040F8043B51F8043B40F8043B51F8043B0E
:100CE80040F8043B51F8043B40F8043B403ABDD27D
:100CF800303211D351F8043B40F8043B51F8043B1F
:100D080040F8043B51F8043B40F8043B51F8043BDD
:100D180040F8043B103AEDD20C3205D351F8043BAD
:100D280040F8043B043AF9D2043208D0D2071CBF79
:100D380011F8013B00F8013B01D30B8803806046A2
:100D4800704700BF082A13D38B078DD010F0030318
:100D58008AD0C3F10403D21ADB071CBF11F8013B88
:100D680000F8013B80D331F8023B20F8023B7BE7D7
:100D7800043AD9D3013A11F8013B00F8013BF9D202
:100D88000B7803704B7843708B788370604670479C
:100D98000348044B834202D0034B03B11847704702
:100DA8005401002054010020000000000548064BB3
:100DB8001B1AD90F01EBA301491002D0034B03B151
:100DC800184770475401002054010020000000001B
:100DD80010B5064C237843B9FFF7DAFF044B13B17B
:100DE8000448AFF300800123237010BD5801002090
:100DF800000000009842000808B5054B1BB10549E2
:100E08000548AFF30080BDE80840FFF7CFBF00BF3B
:100E1800000000005C01002098420008000000006B
:100E28002DE9F04104460D461046194632A3D3E990
:100E38000023FFF761FB00220023FFF7A7F92246F2
:100E48002B46FFF7A1F904460D462D4BC3E9004593
:100E5800DFF8B080D8E90023FFF798F906460F4677
:100E6800C8E9006700220023FFF7D6FDA0B30020E1
:100E78000021C8E900010022002320462946FFF787
:100E88003BFB06460F46002200231E49D1E900011C
:100E9800FFF732FB02460B4630463946FFF776F934
:100EA80006460F46DFF86080D8E900232046294629
:100EB800FFF76AF900220023FFF71EFB02460B46E4
:100EC80030463946FFF762F9FFF7B0FDC8E900453B
:100ED800FFF7A8FABDE8F081002200233046394622
:100EE800FFF77CFD0028C6D0064B00204FF00041DC
:100EF800C3E90001BFE700BF333333333333D33F94
:100F08008801002078010020800100202DE9F047A9
:100F180082B004460D469246D2E90023D1E9000189
:100F2800FFF77EFF80468946DAE90223D5E9020108
:100F3800FFF776FF06460F46DAE90423D5E90401F0
:100F4800FFF76EFFCDE90001DAE90623D5E90601CE
:100F5800FFF766FFC4E90089C4E90267DDE90023F9
:100F6800C4E90423C4E90601204602B0BDE8F087BD
:100F780030B400240025C0E90045C0E90245C0E9B5
:100F8800044530BC70470000F8B5204C08212046C5
:100F980001F0AAFE0C21204601F0A6FE0021204601
:100FA80001F0A2FE0421204601F09EFE184C00210B
:100FB800204601F099FE0421204601F095FE00210B
:100FC800144801F091FE0021134801F08DFE134FE3
:100FD8003C21384601F006FF114E3C21304601F015
:100FE80001FF104D3C21284601F0FCFE0E4C3C212F
:100FF800204601F0F7FE3A680023536232685362D4
:101008002A68536222685362F8BD00BF8C0300202F
:1010180024020020DC010020940100204403002069
:10102800FC020020B40200206C02002070B59EB0C3
:1010380000F0F6F808B91EB070BD18AC2046FFF7EE
:1010480097FF2146684600F00FF808AE304600F0DA
:1010580097F810AC324669462046FFF757FF2046FE
:1010680000F016FAE7E70000F8B505460C461EA39F
:10107800D3E90023D1E90001FFF73EFAD4E9046778
:1010880032463B46FFF782F8C5E9000116A3D3E9CB
:101098000023D4E90201FFF72FFA02460B46304637
:1010A8003946FFF773F8C5E9020111A3D3E9002314
:1010B800D4E90001FFF720FA02460B4630463946CC
:1010C800FFF764F8C5E9040109A3D3E90023D4E9CB
:1010D8000201FFF711FAD4E90423FFF757F8C5E92D
:1010E80006012846F8BD00BFDF27DC659EA0F63F55
:1010F800DF27DC659EA0F6BF4138032813D8DFE858
:1011080000F002060A0E094B1B68586A7047084B24
:101118001B68586A7047074B1B68586A7047064B2C
:101128001B68586A70470020704700BFB40200204F
:101138006C02002044030020FC02002041380328F0
:1011480012D8DFE800F002060A0E084B1B68596245
:101158007047074B1B6859627047064B1B685962FA
:101168007047054B1B685962704700BFB4020020E6
:101178006C02002044030020FC0200200000000054
:101188002DE9F04782464120FFF7B6FFFFF74AF9FD
:1011980021A3D3E90023FFF7AFF98046894642200F
:1011A800FFF7AAFFFFF73EF91BA3D3E90023FFF7D8
:1011B800A3F906460F464320FFF79EFFFFF732F9D3
:1011C80015A3D3E90023FFF797F904460D464420F9
:1011D800FFF792FFFFF726F90FA3D3E90023FFF7E4
:1011E8008BF9CAE90089CAE90267CAE90445CAE96C
:1011F800060100214120FFF7A1FF00214220FFF74F
:101208009DFF00214320FFF799FF00214420FFF7AD
:1012180095FF5046BDE8F08794B9B3A4F4C6D93F0A
:10122800074B1B68074A12689B1A092B05D9044B00
:101238001A68044B1A60012070470020704700BFED
:10124800D40300209001002084B000220092154BA6
:10125800196B41F010011963196B01F0100100912D
:1012680000990192196B41F080011963196B01F023
:101278008001019101990292196B41F001011963F2
:10128800196B01F001010291029903921A6B42F065
:1012980002021A631B6B03F002030393039B04B05F
:1012A800704700BF0038024072B6FEE710B594B030
:1012B80008AC30220021204602F0C2FE002303932E
:1012C800049305930693079301931F4A116C41F009
:1012D80080511164126C02F080520192019A0293BB
:1012E8001A4A116841F480411160126802F4804280
:1012F8000292029A0222089201210B9110210C916C
:101308000E920F9308231093A8231193129204238B
:101318001393204600F0A8FE90B90F2303930223ED
:101328000493002305934FF4A05306934FF480537E
:101338000793052103A801F001F918B914B010BDED
:10134800FFF7B2FFFFF7B0FF00380240007000401F
:1013580008B500F0F9FCFFF7A9FFFFF775FF00F0EB
:101368004DFB00F0F3F800F023F900F053F900F01A
:1013780083F900F0D3FB00F023FC00F05BFCFFF7DF
:1013880003FEFFF753FEFCE701F16403C82B08D9FD
:10139800642905DC11F1640F03DA6FF0630100E0E2
:1013A80064214138032814D8DFE800F0021B334BCE
:1013B80029B9334B1B6864229A635A637047002922
:1013C80005DD2F4B1B68996300225A63704700297B
:1013D80000DB704749422A4B1B6800229A63596315
:1013E800704729B9274B1B6864225A639A63704770
:1013F800002905DD234B1B68596300229A63704757
:101408000029E6DA49421F4B1B6800225A63996398
:10141800704729B91B4B1B686422DA631A6470474A
:10142800002905DD174B1B68D96300221A64704731
:101438000029CEDA4942134B1B680022DA6319648B
:10144800704739B9104B1A68642353630F4A1268FE
:1014580053637047002907DD0B4B1B6859630B4B1F
:101468001B6800225A6370470029B2DA4942064BCA
:101478001B6800225A63054B1B685963A9E700BF24
:10148800240200208C030020DC01002094010020AD
:1014980010B50446D0E90001FFF7C8FA014641201B
:1014A800FFF772FFD4E90201FFF7C0FA01464220B4
:1014B800FFF76AFFD4E90401FFF7B8FA01464320B1
:1014C800FFF762FFD4E90601FFF7B0FA01464420AE
:1014D800FFF75AFF10BD000082B0002100910B4BAE
:1014E8005A6C42F480425A645A6C02F48042009268
:1014F800009A01911A6C42F080521A641B6C03F036
:1015080080530193019B02B0704700BF003802402E
:10151800FEE7FEE7FEE7FEE7FEE770477047704725
:1015280008B500F02BFC08BD0120704708B502F093
:1015380019FE162303604FF0FF3008BD08B54FF0C1
:10154800FF31FFF7F3FFFEE77047000010B58CB0DE
:1015580003AC24220021204602F072FD00230193EF
:10156800029312484FF080420260436083604FF05C
:10157800FF32C26003618361032303930123059350
:101588000993214601F014FA48B900230193029304
:1015980001A9064801F08CFC20B90CB010BDFFF77A
:1015A80083FEF2E7FFF780FEF7E700BF4403002061
:1015B80010B58CB003AC24220021204602F040FD77
:1015C8000023019302931148114A0260436083602B
:1015D8004FF6FF72C2600361836103230393012303
:1015E80005930993214601F0E3F948B900230193D3
:1015F800029301A9054801F05BFC20B90CB010BDAD
:10160800FFF752FEF2E7FFF74FFEF7E7FC02002074
:101618000004004010B58CB003AC24220021204601
:1016280002F00EFD0023019302931148114A026053
:10163800436083604FF6FF72C260036183610323D6
:101648000393012305930993214601F0B1F948B9A1
:1016580000230193029301A9054801F029FC20B950
:101668000CB010BDFFF720FEF2E7FFF71DFEF7E70D
:10167800B40200200008004010B58CB003AC24224E
:101688000021204602F0DCFC00230193029311485C
:10169800114A0260436083604FF0FF32C260036109
:1016A800836103230393012305930993214601F0E2
:1016B8007FF948B900230193029301A9054801F075
:1016C800F7FB20B90CB010BDFFF7EEFDF2E7FFF70E
:1016D800EBFDF7E76C020020000C004084B00368C3
:1016E800204A934215D0204A934220D01F4A934261
:1016F8002AD01F4A934218D1002303931D4B5A6CDA
:1017080042F480225A645B6C03F480230393039BA6
:101718000BE000230093174B5A6C42F001025A6405
:101728005B6C03F001030093009B04B07047002337
:101738000193104B5A6C42F480325A645B6C03F488
:1017480080330193019BF0E700230293094B5A6C05
:1017580042F400325A645B6C03F400330293029B38
:10176800E3E700BF000001400040014000440140A1
:101778000048014000380240F0B58FB000230993BB
:101788000A930B930C930D930368B3F1804F0AD01F
:10179800514A93423FD0514A93425CD0504A9342B7
:1017A80079D00FB0F0BD0024009403F50E331A6C05
:1017B80042F001021A641A6C02F001020092009AC7
:1017C80001941A6B42F001021A631A6B02F00102CB
:1017D8000192019A02941A6B42F002021A631B6B7F
:1017E80003F002030293029B4FF40043099302277C
:1017F8000A9701260D9609AD29463A4800F03AFBAA
:10180800082309930A970B940C940D962946364899
:1018180000F030FBC5E700210391344B1A6C42F00D
:1018280002021A641A6C02F002020392039A0491EB
:101838001A6B42F002021A631B6B03F00203049353
:10184800049B3023099302230A930D9309A9264880
:1018580000F010FBA5E700210591244B1A6C42F01B
:1018680004021A641A6C02F004020592059A0691A1
:101878001A6B42F002021A631B6B03F00203069311
:10188800069BC023099302230A930D9309A91648BE
:1018980000F0F0FA85E700210791144B1A6C42F02A
:1018A80008021A641A6C02F008020792079A089153
:1018B8001A6B42F001021A631B6B03F001030893D1
:1018C800089B0323099302230A930D9309A905484A
:1018D80000F0D0FA65E700BF0004004000080040AF
:1018E800000C0040000002400004024000380240A2
:1018F80000B58BB0002305930693079308930993CB
:101908000368374A93420BD0364A934220D0364A6E
:10191800934234D0354A934249D00BB05DF804FB6A
:1019280000230193324B1A6B42F010021A631B6BAF
:1019380003F010030193019B4FF4D4430593022352
:1019480006930123099305A92A4800F093FAE4E7CE
:1019580000230293264B1A6B42F010021A631B6B8A
:1019680003F010030293029B60230593022306935E
:101978000323099305A91F4800F07CFACDE700234B
:1019880003931B4B1A6B42F002021A631B6B03F0A2
:1019980002030393039B4FF480730593022306937A
:1019A8000323099305A9144800F064FAB5E7002356
:1019B80004930F4B1A6B42F002021A631B6B03F07D
:1019C80002030493049B4FF40073059302230693C8
:1019D8000323099305A9084800F04CFA9DE700BFC6
:1019E800000001400040014000440140004801401F
:1019F80000380240001002400004024010B596B0C2
:101A08000024129413941494159410941194099426
:101A18000A940B940C940D940E940F942022214652
:101A280001A802F00DFB3B483B4B0360A723436032
:101A380084606323C36004614461846100F060FFD3
:101A480000284BD14FF48053129312A9314801F06A
:101A5800BDF8002845D12F4800F07EFF002843D16B
:101A680000231093119310A92A4801F021FA0028A5
:101A78003DD16023099300220A920B920C920D9299
:101A88000E920F9209A9234801F026F8002831D1B7
:101A9800042209A91F4801F01FF870BB082209A9F0
:101AA8001C4801F019F858BB0C2209A9194801F083
:101AB80013F840BB00230193029303930493059307
:101AC8004FF400520692089301A9124801F036FA21
:101AD800E0B91048FFF70CFF16B010BDFFF7E4FBA4
:101AE800B0E7FFF7E1FBB6E7FFF7DEFBB8E7FFF784
:101AF800DBFBBEE7FFF7D8FBCAE7FFF7D5FBCDE76F
:101B0800FFF7D2FBD0E7FFF7CFFBD3E7FFF7CCFB1C
:101B1800DFE700BF8C0300200000014000B58DB056
:101B28000023089309930A930B9301930293039359
:101B380004930593069307931F48204A0260A7223F
:101B4800426083606322C2600361836100F0D8FE53
:101B580018BB4FF48053089308A9174801F036F8CA
:101B6800F0B9154800F0F8FEE8B9602301930022A7
:101B780002920392059201A90F4800F0ADFFA8B99F
:101B880004220DEB02010C4800F0A6FF88B90A48B0
:101B9800FFF7AEFE0DB05DF804FBFFF785FBD8E755
:101BA800FFF782FBDDE7FFF77FFBDEE7FFF77CFB54
:101BB800E6E7FFF779FBEAE724020020004001404E
:101BC80000B589B00023019302930393049305930E
:101BD800069307931548164A0260A722426083605D
:101BE8006322C2600361836100F08AFEA0B90F48D6
:101BF80000F0B2FE98B9602301930022029203928A
:101C0800059201A9094800F067FF58B90748FFF78E
:101C18006FFE09B05DF804FBFFF746FBE7E7FFF747
:101C280043FBE8E7FFF740FBF0E700BFDC010020DB
:101C38000044014000B589B0002301930293039347
:101C480004930593069307931548164A0260A72242
:101C5800426083606322C2600361836100F050FECA
:101C6800A0B90F4800F078FE98B9602301930022CC
:101C780002920392059201A9094800F02DFF58B974
:101C88000748FFF735FE09B05DF804FBFFF70CFBCA
:101C9800E7E7FFF709FBE8E7FFF706FBF0E700BF18
:101CA8009401002000480140DFF834D0FFF74CFCD5
:101CB8000C480D490D4A002302E0D458C45004339F
:101CC800C4188C42F9D30A4A0A4C002301E0136075
:101CD8000432A242FBD302F04BFAFFF739FB7047FC
:101CE800000002200000002054010020804300086A
:101CF80058010020AC060020FEE7000010B504469D
:101D08000E4B1A784FF47A73B3FBF2F30C4A10684F
:101D1800B0FBF3F000F09AF868B90F2C01D9012054
:101D28000AE0002221464FF0FF3000F07FF8054B13
:101D38001C60002000E0012010BD00BF040000204E
:101D4800000000200800002008B50B4B1A6842F478
:101D580000721A601A6842F480621A601A6842F4C3
:101D680080721A60032000F04FF80F20FFF7C6FFBB
:101D7800FFF7B2FB002008BD003C0240034A11688F
:101D8800034B1B780B441360704700BFD40300203B
:101D980004000020014B1868704700BFD4030020DE
:101DA800002808DB0901C9B200F1604000F5614074
:101DB80080F80013704700F00F000901C9B2014B09
:101DC8001954704714ED00E000B500F00700C0F1A9
:101DD800070CBCF1040F28BF4FF0040C031D062BA1
:101DE8000FD9C31E4FF0FF3E0EFA0CF021EA000196
:101DF80099400EFA03FE22EA0E0241EA02005DF85B
:101E080004FB0023EEE70000074AD36823F4E063ED
:101E18001B041B0C000200F4E060034343F0BF63A3
:101E280043F40033D360704700ED00E010B504467A
:101E3800054BD868C0F30220FFF7C6FF01462046CD
:101E4800FFF7AEFF10BD00BF00ED00E00138B0F1B4
:101E5800807F0BD24FF0E0235861054AF02182F8C9
:101E680023100020986107221A61704701207047EB
:101E780000ED00E000230F2B00F2EC8030B583B0BA
:101E880068E085684FEA430E032404FA0EF425EA55
:101E98000405CC6804FA0EF42C438460446824EAF0
:101EA80002044A68C2F300129A40224342605FE08B
:101EB800DC08083450F8242003F00705AD004FF083
:101EC8000F0E0EFA05FE22EA0E0E0A69AA4042EA31
:101ED8000E0240F824205FE0072200E0002202FA08
:101EE8000EF22A4302345C4D45F824205B4A94687C
:101EF8006FEA0C0224EA0C05D1F804E01EF4801FF6
:101F080001D04CEA0405554CA560E46802EA0405D2
:101F1800D1F804E01EF4001F01D04CEA04054F4C30
:101F2800E560646802EA0405D1F804E01EF4003FA5
:101F380001D04CEA0405494C6560246822404D688C
:101F480015F4803F01D04CEA0402444C226001336E
:101F58000F2B7DD801229A400C6804EA020C32EA61
:101F68000404F4D14C6804F00304013C012C88D922
:101F78004A6802F00302032A09D0C4685D000322FC
:101F8800AA4024EA02048A68AA402243C2604A6836
:101F980002F00302022A8BD004684FEA430E0322A0
:101FA80002FA0EF224EA02044A6802F0030202FA74
:101FB8000EF2224302604A6812F4403FC7D0002262
:101FC8000192274A546C44F480445464526C02F4DD
:101FD80080420192019A9C08A51C1F4A52F825507C
:101FE80003F0030E4FEA8E0E0F2202FA0EF225EAD4
:101FF80002051C4A90423FF471AF02F5806290429C
:102008001AD002F58062904218D002F580629042A0
:1020180016D002F58062904214D002F58062904298
:1020280012D002F58062904210D002F58062904290
:102038003FF452AF082252E7012250E702224EE74E
:1020480003224CE704224AE7052248E7062246E72E
:1020580003B030BD704700BF00380140003C01406C
:102068000038024000000240002800F0E08170B50E
:1020780082B00446036813F0010F3BD09F4B9B6866
:1020880003F00C03042B2CD09C4B9B6803F00C032F
:10209800082B21D06368B3F5803F4FD0B3F5A02F4C
:1020A80052D0964B1A6822F480321A601A6822F4C9
:1020B80080221A606368002B50D0FFF76BFE05463C
:1020C8008E4B1B6813F4003F14D1FFF763FE401BCF
:1020D8006428F5D90320B1E1884B5B6813F4800FBD
:1020E800D8D0864B1B6813F4003F03D06368002BDD
:1020F80000F09F81236813F0020F54D07F4B9B6838
:1021080013F00C0F3ED07D4B9B6803F00C03082B9B
:1021180033D0E368002B68D0794B01221A60FFF7AF
:1021280039FE0546754B1B6813F0020F54D1FFF7B3
:1021380031FE401B0228F5D903207FE16F4A13685E
:1021480043F480331360B5E76C4B1A6842F480227D
:102158001A601A6842F480321A60ABE7FFF71AFE79
:102168000546664B1B6813F4003FC3D0FFF712FE09
:10217800401B6428F5D9032060E1604B5B6813F4C9
:10218800800FC6D15D4B1B6813F0020F03D0E368C4
:10219800012B40F05081594A136823F0F803216954
:1021A80043EAC1031360236813F0080F42D0636940
:1021B8006BB3534B0122C3F8802EFFF7EBFD0546A6
:1021C8004E4B5B6F13F0020F34D1FFF7E3FD401B5A
:1021D8000228F5D9032031E1484A136823F0F803AF
:1021E800216943EAC1031360DDE7454B00221A6009
:1021F800FFF7D0FD0546414B1B6813F0020FD2D004
:10220800FFF7C8FD401B0228F5D9032016E13C4B17
:102218000022C3F8802EFFF7BDFD0546374B5B6FE4
:1022280013F0020F06D0FFF7B5FD401B0228F5D9C1
:10223800032003E1236813F0040F77D02F4B1B6CA6
:1022480013F0805F33D1002301932C4B1A6C42F0BA
:1022580080521A641B6C03F080530193019B012583
:10226800284B1B6813F4807F23D0A368012B34D03C
:10227800052B38D0214B1A6F22F001021A671A6F0A
:1022880022F004021A67A368002B3DD0FFF782FDF5
:1022980006461A4B1B6F13F0020F46D1FFF77AFD63
:1022A800801B41F288339842F3D90320C6E0002509
:1022B800D6E7144A136843F480731360FFF76AFD86
:1022C8000646104B1B6813F4807FCED1FFF762FDE2
:1022D800801B0228F5D90320B0E0084A136F43F0A9
:1022E80001031367CFE7054B1A6F42F004021A6720
:1022F8001A6F42F001021A67C5E700BF00380240B2
:102308000000474200700040FFF744FD0646524B6C
:102318001B6F13F0020F08D0FFF73CFD801B41F242
:1023280088339842F3D9032088E0EDB9A369002BDC
:1023380000F08380484A926802F00C02082A51D0C3
:10234800022B17D0454B00221A66FFF723FD0446DF
:10235800414B1B6813F0007F42D0FFF71BFD001BA9
:102368000228F5D9032069E03B4A136C23F0805317
:102378001364DBE7394B00221A66FFF70BFD0546AD
:10238800354B1B6813F0007F06D0FFF703FD401B99
:102398000228F5D9032051E0E369226A1343626AEF
:1023A80043EA8213A26A5208013A43EA0243E26A04
:1023B80043EA0263284A5360284B01221A66FFF752
:1023C800E9FC0446244B1B6813F0007F06D1FFF795
:1023D800E1FC001B0228F5D903202FE000202DE0A6
:1023E80000202BE0012B2BD01B4B5B6803F48001F2
:1023F800E269914226D103F03F02216A8A4223D141
:10240800616A47F6C0721A40B2EB811F1ED103F40D
:102418004031A26A5208013AB1EB024F18D103F0D9
:102428007063E26AB3EB026F14D1002006E001206A
:102438007047012002E0012000E0002002B070BDDA
:102448000120FBE70120F9E70120F7E70120F5E784
:102458000120F3E70120F1E700380240000047427D
:1024680008B5334B9B6803F00C03042B5BD0082B97
:102478005BD12F4B5A6802F03F025B6813F4800F60
:102488002CD02B4B5868C0F388104FEA401CBCEB8B
:10249800000C6EEB0E0E4FEA8E1343EA9C634FEA74
:1024A8008C11B1EB0C0163EB0E03DB0043EA5173B3
:1024B800C90011EB000C43F10003590200234FEA55
:1024C8004C2041EADC51FEF7D9FA194B5B68C3F39B
:1024D800014301335B00B0FBF3F008BD144B5868AF
:1024E800C0F388104FEA401CBCEB000C6EEB0E0EDC
:1024F8004FEA8E1343EA9C634FEA8C11B1EB0C014F
:1025080063EB0E03DB0043EA5173C90011EB000CC7
:1025180043F10003990200234FEA8C2041EA9C51C1
:10252800FEF7ACFAD1E70348D7E70348D5E700BF81
:102538000038024000127A000024F400002800F05D
:102548009B8070B50D4604464F4B1B6803F007038C
:102558008B4208D2CBB24C4A1370136803F00703BE
:102568008B4240F08B80236813F0020F17D013F0D2
:10257800040F04D0454A936843F4E05393602368FA
:1025880013F0080F04D0414A936843F46043936002
:102598003E4A936823F0F003A1680B4393602368D5
:1025A80013F0010F32D06368012B21D09A1E012A43
:1025B80025D9364A126812F0020F61D033498A6869
:1025C80022F0030213438B60FFF7E4FB06462F4B10
:1025D8009B6803F00C036268B3EB820F16D0FFF719
:1025E800D9FB801B41F288339842F0D9032042E09E
:1025F800264A126812F4003FE0D101203BE0234A4A
:10260800126812F0007FD9D1012034E01E4B1B68FC
:1026180003F00703AB4207D9EAB21B4B1A701B68D9
:1026280003F00703AB422DD1236813F0040F06D043
:10263800164A936823F4E053E1680B4393602368D8
:1026480013F0080F07D0114A936823F460432169F7
:1026580043EAC1039360FFF703FF0C4B9B68C3F386
:1026680003130B4AD35CD8400A4B18600A4B18680E
:10267800FFF744FB002070BD012070470120FAE7F6
:102688000120F8E70120F6E7003C0240003802404C
:10269800B0420008000000200800002030B4036A9F
:1026A800026A22F0010202624268846924F0730C13
:1026B8000C6844EA0C0423F0020C8B6843EA0C0310
:1026C800114DA84203D005F58065A84205D123F035
:1026D8000803CD682B4323F004030B4DA84203D015
:1026E80005F58065A84207D122F440724D6945EA94
:1026F800020C8A6942EA0C02426084614A684263B9
:10270800036230BC704700BF0000014030B4036A68
:10271800026A22F4807202624268C46924F0730C6F
:102728000C6844EA0C0523F400738C6843EA04231C
:10273800114CA04203D004F58064A04206D123F4D2
:102748000063CC6843EA042323F480630A4CA04264
:1027580003D004F58064A04207D122F440524C69AA
:1027680042EA04128C6942EA04124260C5614A686E
:10277800C263036230BC70470000014030B4036A92
:10278800026A22F4805202624468C26922F4E64274
:102798000D6842EA052223F400538D6843EA0533A5
:1027A800094DA84203D005F58065A84204D124F458
:1027B80080444D6944EA85144460C2614A680264F1
:1027C800036230BC704700BF0000014010B4036AC8
:1027D800046A24F001040462846924F0F00C4CEAD1
:1027E800021223F00A030B438261036210BC704794
:1027F80010B4036A046A24F010040462846924F49F
:10280800704C4CEA023223F0A00343EA01138261C0
:10281800036210BC7047836823F070030B4343F0D6
:1028280007038360704770470368344A904212D0A8
:10283800B0F1804F0FD0A2F57C4290420BD002F548
:102848008062904207D002F58062904203D002F580
:102858007842904203D123F070034A681343274A11
:1028680090422AD0B0F1804F27D0A2F57C42904206
:1028780023D002F5806290421FD002F58062904218
:102888001BD002F57842904217D002F57052904260
:1028980013D002F5806290420FD002F58062904218
:1028A8000BD0A2F59832904207D002F58062904290
:1028B80003D002F58062904203D123F44073CA68C2
:1028C800134323F080034A69134303608B68C36290
:1028D8000B688362094B984203D003F580639842E2
:1028E80001D10B69036301234361036913F0010FED
:1028F80003D0036923F0010303617047000001401E
:1029080040B310B5044690F83D30F3B1022384F883
:102918003D30214651F8040BFFF786FF012384F868
:10292800463084F83E3084F83F3084F8403084F8EC
:10293800413084F8423084F8433084F8443084F8D5
:10294800453084F83D30002010BD80F83C30FEF75B
:10295800C5FEDBE70120704740B310B5044690F888
:102968003D30F3B1022384F83D30214651F8040B81
:10297800FFF75AFF012384F8463084F83E3084F884
:102988003F3084F8403084F8413084F8423084F88D
:10299800433084F8443084F8453084F83D300020D2
:1029A80010BD80F83C30FFF73EFFDBE701207047A1
:1029B800002856D070B50D46044690F83D30002BDF
:1029C8004AD0022384F83D302268936823F4804378
:1029D80023F007039360214651F8040BFFF724FF07
:1029E80021688B688A690E6A2868184322F4407245
:1029F80022F00302AB68D5F818C043EA0C2313434E
:102A080023F47C4323F0FC03EA68D5F81CC042EAAF
:102A18000C221A432B6A1B03D5F810C043EA0C1387
:102A2800134326F0AA066A686D6942EA0512324322
:102A3800886021688B6123681A62012384F8463014
:102A480084F83E3084F83F3084F8423084F84330CC
:102A580084F83D30002070BD80F83C30FEF78CFED5
:102A6800AFE701207047000030B4036A026A22F021
:102A7800100202624468826922F4E6420D6842EA62
:102A8800052223F020038D6843EA0513114DA8425F
:102A980003D005F58065A84206D123F08003CD68F0
:102AA80043EA051323F040030A4DA84203D005F575
:102AB8008065A84207D124F440644D6944EA85043E
:102AC8008D6944EA8504446082614A6882630362CE
:102AD80030BC70470000014038B590F83C30012BFD
:102AE80066D004460D46012380F83C300C2A5AD89B
:102AF800DFE802F0075959591B59595930595959A2
:102B080044000068FFF7CAFD2268936943F0080390
:102B180093612268936923F004039361226893699F
:102B280029690B43936100203EE00068FFF79CFF92
:102B38002268936943F4006393612268936923F4DC
:102B48008063936122689369296943EA0123936149
:102B5800002029E00068FFF7D9FD2268D36943F017
:102B68000803D3612268D36923F00403D361226880
:102B7800D36929690B43D361002015E00068FFF78A
:102B8800FDFD2268D36943F40063D3612268D369E9
:102B980023F48063D3612268D369296943EA012356
:102BA800D361002000E00120002384F83C3038BDC8
:102BB8000220FCE710B4846824F47F4C42EA032224
:102BC8000A4342EA0C02826010BC704790F83C301D
:102BD800012B78D010B50446012380F83C3002233D
:102BE80080F83D300268936823F47F4323F077032D
:102BF80093600B68602B4CD023D8402B54D011D84D
:102C0800202B03D00AD80BB1102B05D11946206808
:102C1800FFF701FE002028E0012026E0302BF5D048
:102C2800012022E0502B0AD1CA6849680068FFF7E2
:102C3800CDFD50212068FFF7EEFD002015E00120B2
:102C480013E0B3F5805F3AD0B3F5005F14D0702B72
:102C580037D1CB684A6889680068FFF7ABFF2268FC
:102C6800936843F0770393600020012384F83D3094
:102C7800002384F83C3010BDCB684A688968006836
:102C8800FFF798FF2268936843F48043936000201D
:102C9800EBE7CA6849680068FFF7AAFD6021206869
:102CA800FFF7B9FD0020E0E7CA6849680068FFF748
:102CB8008DFD40212068FFF7AEFD0020D5E70020FC
:102CC800D3E70120D1E70220704701F01F014FF040
:102CD800010C0CFA01FC036A23EA0C030362036A81
:102CE8008A4013430362704710B50446084600291A
:102CF80041D194F83E30013B18BF0123002B6BD122
:102D080000284ED1022384F83E3001220146206873
:102D1800FFF7DBFF2368324A934203D002F5806253
:102D2800934203D15A6C42F400425A6423682C4AF5
:102D3800934246D0B3F1804F43D0A2F57C429342F0
:102D48003FD002F5806293423BD002F58062934205
:102D580037D002F57842934233D002F5705293424D
:102D68002FD0A2F5943293422BD01A6842F0010278
:102D78001A6000202FE0042907D008290BD094F806
:102D88004130013B18BF0123B8E794F83F30013BBD
:102D980018BF0123B2E794F84030013B18BF012364
:102DA800ACE7042805D0082807D0022384F841306E
:102DB800ABE7022384F83F30A7E7022384F84030CA
:102DC800A3E79A6802F00702062A07D01A6842F0B9
:102DD80001021A60002010BD0120FCE70020FAE77C
:102DE8000000014038B5044690F83E00C0B294F89F
:102DF8003F3094F84220D2B294F843C00D46B1B99E
:102E0800012849D1012A48D1022384F83E3084F8A8
:102E180042307DB3042D39D0012200212068FFF70C
:102E280054FF012204212068FFF74FFF27E0DBB29F
:102E38005FFA8CFC042912D0012833D1012B2CD144
:102E4800012A31D1BCF1010F30D1022384F83E3080
:102E580084F83F3084F8423084F84330D9E7012BB6
:102E68001CD1BCF1010F1BD1022384F83F3084F838
:102E78004330CEE7012200212068FFF726FF2268B1
:102E8800136843F001031360002006E001220421C7
:102E98002068FFF71AFFF2E7012038BD0120FCE7A0
:102EA8001846FAE70120F8E71846F6E71046F4E76F
:102EB80090F83C20012A3CD010B40346012280F847
:102EC8003C20022280F83D2002685068946820F077
:102ED800700C086840EA0C0050601A681648824274
:102EE8001AD0B2F1804F17D0A0F57C40824213D09F
:102EF80000F5806082420FD000F5806082420BD0DE
:102F080000F57840824207D000F57050824203D025
:102F1800A0F59430824204D124F08004496821430A
:102F28009160012283F83D20002083F83C0010BC0A
:102F380070470220704700BF00000140024690F829
:102F48003C30012B21D0012380F83C30CB6823F49E
:102F580040738868034323F480634868034323F479
:102F680000630868034323F480530869034323F488
:102F780000534869034323F48043C9690B4311682C
:102F88004B64002082F83C00704702207047000024
:102F98002DE9F047089D0F4604468C46002B48D182
:102FA8008A42164661D9B2FA82F34BB1C3F12002C4
:102FB80001FA03FC20FA02F29E4042EA0C0C9C4003
:102FC8004FEA164EB7B2BCFBFEF1220C0EFB11CC39
:102FD80042EA0C4201FB07F0904209D9B21801F10C
:102FE800FF3C80F0EE80904240F2EB8002393244A0
:102FF800121AA4B2B2FBFEF00EFB102244EA0244FD
:1030080000FB07F7A74209D9341900F1FF3280F015
:10301800DA80A74240F2D7803444023840EA0140BF
:10302800E41B00211DB1DC400023C5E90043BDE8D5
:10303800F0878B4206D90DB1C5E900010021084689
:10304800BDE8F087B3FA83F1002948D1BB4202D327
:10305800824200F20781841A67EB0302012094463A
:10306800002DE4D0C5E9004CE1E7002A00F0928089
:10307800B2FA82F3002B40F0A8808A1A4FEA164E63
:103088001FFA86FC0121200CB2FBFEF70EFB17226B
:1030980040EA02420CFB07F0904207D9B21807F148
:1030A800FF3802D2904200F2E2804746121AA4B2D8
:1030B800B2FBFEF00EFB102244EA02440CFB00FCBB
:1030C800A44507D9341900F1FF3202D2A44500F211
:1030D800CB801046A4EB0C0440EA0740A2E7C1F1FC
:1030E80020068B4022FA06FC4CEA030C07FA01F48E
:1030F80020FA06F3F7404FEA1C49234300FA01F887
:103108001FFA8CFEB7FBF9F01C0C09FB107744EA98
:10311800074400FB0EF7A74202FA01F20AD91CEB9A
:10312800040400F1FF3A80F09B80A74240F29880A7
:1031380002386444E41B9FB2B4FBF9F309FB13445F
:1031480047EA044403FB0EFEA64509D91CEB040418
:1031580003F1FF3780F08280A6457FD9023B6444A3
:1031680043EA0040A4EB0E04A0FB02E7BC4273460E
:10317800B94663D360D05DB1B8EB030264EB0904D0
:1031880004FA06F622FA01F31E43CC40C5E90064AE
:1031980000214CE76208480842EAC1710B0C43EA77
:1031A80000438AB242EA0342B3FBF6F1E407B446AD
:1031B8003746B6461F23B0FBF6F0D21B41EA004162
:1031C80061E7614614E7104628E7C3F1200120FAB9
:1031D80001F29E4027FA01F19F403A434FEA164E0A
:1031E8001FFA86FCB1FBFEF70EFB1710110C41EA23
:1031F800004107FB0CF8884504FA03F43AD9711822
:1032080007F1FF3001D288451FD8A1EB0801B1FBB7
:10321800FEF808FB0CF70EFB181192B242EA0142C5
:10322800BA422FD2B21808F1FF31C6D2BA42C4D27C
:10323800A8F102013244C0E7F0459CD2BEEB02037C
:1032480067EB0C070138B94695E7A6EB0808414437
:10325800B81EB1FBFEF808FB0CF7DCE73B467FE73E
:10326800504667E70846FBE63444023832E7023F37
:1032780032441BE7A1EB08013846B1FBFEF808FB16
:103288000CF7C8E7414698E703685A004CBF43F07B
:10329800004323F000431844704700BF2DE9F0476E
:1032A80059B301F1FF380546164647464FF0000A64
:1032B8000AEB070101EBD171491005EBC10948463A
:1032C800FFF7E2FF88454FEAC104034610D004F136
:1032D8000800B342284407D8FFF7D6FF0138B042A8
:1032E80008D201F1010AE3E78A4506D04F1EDFE75D
:1032F800B042F9D84846BDE8F0874FF00009484683
:10330800BDE8F087012806D0022802D028B9044871
:10331800704704487047044870470020704700BF52
:10332800FD3900080D3A0008053A000830B5224B6F
:1033380083B004468D1E43B301A92846AFF300802D
:10334800F0B101992A46FFF7A9FF0146C0B1FFF77E
:103358009BFF4B68A064012B2BD0002B01F10400CC
:1033680025DBFFF791FF002323650368E064002B4A
:1033780012DBFFF789FF03460020236103B030BD4D
:1033880000230920236103B030BD0C4B0C49C91A36
:10339800C91018460191D5E7C3F30360FFF7B2FFE0
:1033A800031E0CBF09200020236103B030BD012398
:1033B800DAE700230520E0E700000000CC4200081F
:1033C800744300080368DA0710B5044606D49B075F
:1033D80000F1500009D5FDF77DFB2368590709D591
:1033E8001A070ED5DB0613D510BDFDF76BFB236856
:1033F8005907F5D404F1D800FDF774FB23681A07C0
:10340800F0D404F5AC70FDF775FB2368DB06EBD44C
:1034180004F5EC70BDE81040FDF7B0BB034600684A
:1034280000B11844704700BF704700BF70B504462C
:103438000E46316C2046FFF779FF054688B9326C95
:103448006261236932462146012098470828F0D056
:10345800072806D12846316CFFF7E6FF301DFDF737
:1034680025FB00F0E5FD00BF2DE9F04F0D1DD0F85C
:103478000C90D0F818A0074614460FCDADF5777D0F
:103488000DF10C0CACE80F000FCDACE80F000FCD20
:10349800ACE80F0095E80F0002AE4FF0000E8CE884
:1034A8000F000DF5F878C6F800E021E0336C7B6179
:1034B8004FF4F47231464046FDF7D0FB3B69424673
:1034C800394658469847D8F83830B3642146CDE98C
:1034D800006A05463B4601203A46C847044618BBE1
:1034E8004FF4F47241463046FDF7B8FB082D19D168
:1034F800316C3846FFF71AFF093405465FFA84FB3A
:103508000028D3D0B36BB3643A46CDE9006A3B4692
:103518004BF010010120C84730B928460DF5777DDA
:10352800BDE8F08F072D05D0092528460DF5777DD4
:10353800BDE8F08F2046316CFFF776FF03A8FDF752
:10354800B5FA00BFF0B5CB6BFBB001F1040C0B640E
:103558000F460546BCE80F0001AC0FC4BCE80F00DD
:103568000FC4BCE80F000FC49CE80F004FF0FF3EEB
:1035780084E80F006E46CDF800E006E02B6932467D
:10358800294698470828044608D1316C2846FFF791
:10359800CDFE0028F2D009207BB0F0BD3046FFF701
:1035A80011FF062CF7D139462846FFF73FFF00BF29
:1035B800C160D96B8261196400221946FFF754BFB4
:1035C80070B5C66843690B64AEB903690A46044618
:1035D8000D46014602209847072805D008280FD134
:1035E80029462046FFF722FF3046296CFFF71CFFCB
:1035F800281DFDF75BFA0122FFF736FF00F018FDE2
:1036080000F016FDC26808B532B1CA6B0A64BDE89D
:1036180008400022FFF728BFFFF794FF092008BDE4
:10362800052915D8DFE801F00A0314030305012072
:103638007047009A436C13600020704743B90F2A03
:1036480006D800EB820200205368009A1360704786
:103658000220704700B585B00A46002303A90091EF
:103668001946FFF7DDFF039805B05DF804FB00BFBE
:10367800052915D8DFE801F00A0314030305012022
:103688007047009B1B6843640020704743B90F2AAA
:1036980006D8009B00EB82021B685360002070472D
:1036A8000220704710B584B0002303AC0392009445
:1036B8000A461946FFF7DCFF04B010BD2DE9F041BA
:1036C800D36BADF5107D02F1040C136407460E466A
:1036D800BCE80F000DF15C0EAEE80F00BCE80F006F
:1036E800AEE80F00BCE80F00AEE80F009CE80F0042
:1036F80016AC4FF0FF388EE80F006D46C4F8008016
:1037080010E0FFF7CFFF31462046B8470346224670
:103718000820294683B92B699847052880460DD08B
:10372800092809D0216C2846FFF700FE03460C2122
:103738002A462046002BE4D04FF009082046FFF720
:1037480041FE40460DF5107DBDE8F0812DE9F04FB2
:103758001646CA6C89B00D4652F8041B069200F052
:10376800030CE3B10C0C8DF81D400904E4B205917B
:1037780002EB840202218DF81C10296DBCF1020FA6
:1037880008BFAA6B11F001080FD005A9304600F058
:10379800CFFA002839D1082009B0BDE8F08F090216
:1037A80005918DF81D300321E5E71768002FECD04F
:1037B80000F008010191E346CDF808809A46BAF175
:1037C800020F26D01788548802F10409AA6C24F045
:1037D80001030F21304603EB0208FFF73BFF80454A
:1037E80015D827F0010202EB0803834294BF002397
:1037F8000123640004F0020407F001072743012FA6
:103808000BD0022F50D0002F45D00920C4E7002349
:10381800EFE7546802F10809D8E7BBF1000F73D14C
:10382800CBB1D9F80430D9F80020991C4FEAD272EC
:10383800EBD005F158040133049400F0CC8009F171
:103848000400FFF7EBFD04AB01462846AFF3008008
:10385800002840F0978009F108021768002FAED1C0
:1038680005A93046DDF8088000F062FA0028CCD1BE
:10387800B8F1000F8FD00F213046FFF7EBFE0E2175
:1038880002463046FFF70EFF594A0F213046FFF730
:1038980009FF072080E7BBF1000F02D0002B40F0A2
:1038A800878009F10402D8E7D9F8004024F00048DD
:1038B800BBF1000F0FD12BB1019B002B3CD0B8F10D
:1038C800000F39D0002C01DA09F1040908F10102CE
:1038D80009EB8202C1E70D213046FFF7BBFE2F6AD4
:1038E8008742EFD1AB6A9945ECD100240423C5E99E
:1038F8000B434B44C5F828806B63D9F80030A342CA
:1039080070DB01230293E1E70D213046FFF7A2FEA9
:103918002C6A84429FD1AB6A99459CD14846FFF7EF
:10392800B3FC0F2102463046FFF7BCFE2A460021B1
:103938003046FFF7B7FEACE705F15803CDF80CB0F9
:1039480009F10407B34600241E460BE038460496E6
:10395800FFF764FD0022014604AB2846AFF3008060
:103968000437F8B9444504F10104EFD10D21584654
:10397800FFF770FE049BC5F828900246C5E90823A6
:10398800062009E704460D213046FFF763FE049E32
:103998002862022C04BFEE6205F12C06C5E909690C
:1039A8000620F9E65E46D9F80040DDF80CB089E754
:1039B8004846FFF769FC09F104030446AB6328464F
:1039C800AFF3008000283FF420AF22460F21304695
:1039D800FFF768FE5DE730460D21FFF73BFE264600
:1039E8002862DBE708F1010209EB820097E700BFD4
:1039F800000000000023FFF7A9BE00BF0123FFF766
:103A0800A5BE00BF0223FFF7A1BE00BF2DE9F0410C
:103A18000646C4B01446052908D8DFE801F0163078
:103A28000773980B3A19102A40F2B780022044B065
:103A3800BDE8F081836B002CF8D153F8042B426465
:103A48008363002044B0BDE8F081002BEED1856B84
:103A58001FFA84FC012006F1040E00FA03F111EAB2
:103A68000C0F2A4604D052F8041B4EF823101546B2
:103A78000133102BF1D1A004E3D4B563E1E7012BA6
:103A88004FEA1447A4B2CDD0052BCFD107EB0408D9
:103A9800B8F1200FCAD80F2F40F2BD80002CD0D02B
:103AA80002685107A04600F11B81019302AC204631
:103AB800FDF71CF8D6F838C0019B102F4FF0FF32E5
:103AC80039464FF0020E38BF102118FB0E2E04EBBA
:103AD800C10184397246604650F8045B41F8045FBE
:103AE800013A551CF8D10CF1040C012B0CEB8E0299
:103AF80000F0D5800F2FB26340F2FA802046FCF721
:103B0800F1FF9EE7032B91D1A7B207EB1443102BCB
:103B18004FEA14448AD80368190700F1A38022AD3C
:103B28002846FDF709F87A00B06B05EBC404531E6C
:103B380042B1011B625844F8042B013B5A1CF9D1CD
:103B480000EBC700B0632846FCF7D4FF79E7002BE9
:103B58007FF46CAF102C3FF669AF0368D80679D4B0
:103B680022AD2846FDF714F8B76B294600234FF01D
:103B7800010C0CFA03F22242384603F1010303D088
:103B880050F8042B0A600746042B01F10401F0D118
:103B9800B7632846FCF7F2FF53E7102F3FF446AF10
:103BA8000268D10708D5304622F0030240F8502BAE
:103BB8000193FCF78BFF019B019322AD2846FCF78C
:103BC80085FFD6F838C0002C6BD0019B4FF0000859
:103BD80002214FF0FF3214FB012E05EBC701043917
:103BE8007246604650F8044B41F8044F013A541CA1
:103BF800F8D10CF1040C0CEB8E0CB8F1000F39D194
:103C0800012B4ED00F2FC6F838C03FF61AAF284602
:103C1800FCF760FF15E70268B8F1100F02F0010128
:103C28002AD851B1304622F0010242F0020240F88F
:103C3800502B0193FCF752FF019B019322AD2846BC
:103C4800FCF74CFF019B002CE1D0D6F838C04FF0B0
:103C58000008BDE723F01003336006F5EC70FCF7AD
:103C680097FF7DE723F00803036000F5AC70FCF7CD
:103C780063FF54E702AC20E7D1B9550726D422AD3B
:103C880028460193FCF72AFF02A8FCF72FFFA8F1AA
:103C98001008D6F838C0019BC7F1100498E794467D
:103CA80022AD0CF10403B3632846FCF70BFFC8E60A
:103CB80022F0010242F0020240F8502B0193FCF777
:103CC8000DFF3268019B12F0040FD8D0304622F065
:103CD800040240F8D82B0193FCF708FF019BCEE7BC
:103CE80022F0040240F8D82B0193FCF7FFFEDDE632
:103CF80022A8FCF7EFFE01E7027A03467AB9427A76
:103D0800A2B14168013A10B44272086803220C1D3E
:103D18001A7202025C60000E10BC1A6070470068DC
:103D2800013A1A7202021A60000E7047B0207047FA
:103D38002DE9F043064685B00D4600272846FFF7D3
:103D4800DBFFB028044600F0218103065ED500F0B1
:103D5800F003A02B1DD033D8802B00F08780902B48
:103D68002AD100F00D030D2B26D00DF108080023F1
:103D780000F00F021946CDF800803046FFF750FCDE
:103D88000023CDF800800D2219463046FFF770FC5D
:103D9800D4E7C34303F007034FF47F621A410107D6
:103DA80002F47F6201D542F480420023194630466E
:103DB800FFF72CFE0028C1D0092005B0BDE8F0832C
:103DC800B02B68D0C02B3FD1C62800F0CC80C728C4
:103DD80000F0DF8000F0F803C02B00F0EC80C8286A
:103DE80000F0F780C928E7D12846FFF785FF0203CE
:103DF80000F00F0002F47022013002430121052374
:103E08003046FFF703FE002898D0D5E78300DBB2E1
:103E180003F104080DF1080900231946CDF80090B4
:103E28000D223046FFF7FCFB029ACDF800906006A1
:103E38004CBFA2EB080242440023029219460D220D
:103E48003046FFF715FC79E700F0F803D02BB3D123
:103E580000F007020132052342F400220121304616
:103E6800FFF7D4FD00283FF469AFA5E72846FFF720
:103E780043FF24022043B0F5004F9DD004010023E6
:103E8800A2B219463046FFF7C1FD002894D1C4F309
:103E9800C030074352E7A0F1B103042B00F2B5800C
:103EA800DFE803F05729160C030003AA0023009249
:103EB80019460D223046FFF7B3FB3FE700231A46A9
:103EC80005213046FFF7A2FD00283FF437AF73E71E
:103ED8002846FFF711FF020300F00F00013002F43B
:103EE80070220123024319463046FFF78FFD002850
:103EF8003FF424AF60E700230DF108090D221946AD
:103F0800CDF800903046FFF78BFB2846FFF7F4FE0C
:103F18000206029C4FF002080CD500F07F0000FA60
:103F280008F0044428460294FFF7E6FE030608F169
:103F38000708F2D400FA08F004F5017420440023BD
:103F48000290CDF800900D2219463046FFF790FBFD
:103F5800F4E62846FFF7D0FE431EDBB20E2B0246DE
:103F68007FF623AF28E72846FFF7C6FE020300F0D6
:103F78000F00013002F47022032302431946304631
:103F8800FFF744FD00283FF4D9AE15E76FB30020D2
:103F980013E72846FFF7B0FE431EDBB20E2B02469E
:103FA8003FF60AAF002304213046FFF72FFD002813
:103FB8003FF4C4AE00E700F00F020132032342F4DD
:103FC800202219463046FFF721FD00283FF4B6AEFF
:103FD800F2E62846FFF790FE00F0F00200F00F032B
:103FE8001032013343EA023208E702AC3B46394655
:103FF80000940E223046FFF713FB0F2200943B4635
:1040080039463046FFF734FBC1E700F0FC03B42B18
:104018003FF4D2AE00F007020132012342F400223D
:1040280019463046FFF7F2FC00283FF487AEC3E696
:1040380008B5062000F052F80120FDF77FFA00BF0E
:10404800830730B546D08418844604E003F8011B82
:104058009D0704D09C46A4456346F7D130BD013A7C
:104068000244A2EB0C02032A29D9CCB204EB0424A3
:104078000F2A04EB04442FD9A2F1100C2CF00F0CDA
:1040880003F11005AC44C3E90044C3E9024410330A
:104098006345F8D112F00C0F02F00F0E18D02EF075
:1040A800030C9C44AEF104051A4642F8044B6245E1
:1040B800FBD125F0030404330EF003022344002A45
:1040C800CCD0C9B21A4403F8011B9342FBD130BDCE
:1040D8007246F4E70346C6E79646E0E738B5144B60
:1040E8001F281D681ED8D5F83821044662B152F839
:1040F80020304BB1012B05D0591C0FD0002142F8BC
:1041080020109847002038BD284600F029F822469C
:1041180001462846BDE8384000F00CB816232B604D
:10412800012038BD16232B604FF0FF3038BD00BF8B
:104138000C00002070B50C46084D034600262046AA
:1041480011461C462E60FDF7F1F9431C00D070BDE6
:104158002B68002BFBD0236070BD00BF100500202A
:10416800FDF7E2B9014B1868704700BF0C0000204A
:1041780070B50F4B0F4DAB42A3EB050607D0B61039
:10418800002455F8043B01349847A642F9D800F0BA
:104198007FF8094D094B5E1BAB424FEAA60606D0D5
:1041A800002455F8043B01349847A642F9D870BD5D
:1041B8007443000874430008744300087C430008F3
:1041C800704700BF704700BF024B13B1024800F0B0
:1041D80005B8704700000000F141000800230146BF
:1041E8001A46184600F014B838B5074D074C2C1B72
:1041F800A41005D0013C55F8043D9847002CF9D18E
:10420800BDE8384000F04AB8804300087C43000805
:104218002DE9F8431B4D0646286898460F469146F7
:10422800FFF7CEFF184B1C681CB3286865681F2D64
:1042380022DC4EB96B1C0235636044F82570FFF729
:10424800C1FF0020BDE8F88304EB85010123C1F814
:104258008890D4F88821AB401A43022EC4F88821EC
:10426800C1F80881E6D1D4F88C211A43C4F88C210E
:10427800E0E7064C1C60D8E7FFF7A4FF4FF0FF30DB
:10428800E0E700BF50010020180500201C050020B1
:10429800F8B500BFF8BC08BC9E467047F8B500BF2B
:0842A800F8BC08BC9E467047FB
:1042B00000000000000000000102030406070809D6
:0C42C00008B10181B0B0008400000000D3
:1042CC0098C9FF7F01000000BCCCFF7FAB08B18018
:1042DC0058CDFF7FB0AA1D808CCDFF7F0100000060
:1042EC0048F0FF7FB0A90280D8F0FF7FB0B0A88063
:1042FC0028F1FF7F0100000030F1FF7FB0B0AA80F1
:10430C0064F1FF7FAF76B28038F2FF7FAB3F3A802B
:10431C009CF2FF7F01000000A4F2FF7FB0B0AA80E6
:10432C00E0F2FF7F90FFFF7FF4F2FF7F01000000BF
:10433C0088F3FF7FAC0FB28010F4FF7FB0AF088022
:10434C00B0F6FF7F01000000C0F6FF7FAC3F03809A
:10435C00A4F9FF7F01000000D4F9FF7FB0AD048009
:08436C00CCFCFF7F0100000002
:08437400D1410008010E000810
:04437C00D90D00084F
:104380000024F400010000001000000010000020D4
:1043900000000000D803002040040020A8040020F2
:1043A000000000000000000000000000000000000D
:1043B00000000000000000000000000000000000FD
:1043C00000000000000000000000000000000000ED
:1043D00000000000000000000000000000000000DD
:1043E00000000000000000000000000000000000CD
:1043F00000000000000000000000000000000000BD
:1044000000000000000000000000000000000000AC
:10441000000000000000000000000000000000009C
:10442000000000000000000001000000000000008B
:104430000E33CDAB34126DE6ECDE05000B00000050
:10444000000000000000000000000000000000006C
:10445000000000000000000000000000000000005C
:10446000000000000000000000000000000000004C
:10447000000000000000000000000000000000003C
:10448000000000000000000000000000000000002C
:10449000000000000000000000000000000000001C
:1044A000000000000000000000000000000000000C
:1044B00000000000000000000000000000000000FC
:1044C00000000000000000000000000000000000EC
:0444D00014050020AF
:0400000508001CB122
:00000001FF
