:020000040800F2
:1000000000000220C10B0008B9030008BB03000870
:10001000BD030008BF030008C10300080000000082
:10002000000000000000000000000000C303000802
:10003000C503000800000000C7030008C90300084A
:10004000110C0008110C0008110C0008110C00081C
:10005000110C0008110C0008110C0008110C00080C
:10006000110C0008110C0008110C0008110C0008FC
:10007000110C0008110C0008110C0008110C0008EC
:10008000110C0008110C0008110C0008110C0008DC
:10009000110C0008110C0008110C0008110C0008CC
:1000A000110C0008110C0008110C0008110C0008BC
:1000B000110C0008110C0008110C0008110C0008AC
:1000C000110C0008110C0008110C0008110C00089C
:1000D000110C0008110C0008110C0008110C00088C
:1000E000110C0008110C0008110C0008110C00087C
:1000F000110C0008110C0008110C0008110C00086C
:10010000110C0008110C0008110C0008110C00085B
:10011000110C0008110C0008110C0008110C00084B
:10012000110C0008110C0008110C0008110C00083B
:10013000110C0008110C0008110C0008110C00082B
:10014000110C0008110C0008110C0008110C00081B
:10015000110C0008110C0008110C0008110C00080B
:10016000110C0008110C0008110C0008110C0008FB
:10017000110C0008110C0008110C00080000000010
:08018000110C0008110C00082D
:1001880053B94AB9002908BF00281CBF4FF0FF31F6
:100198004FF0FF3000F00CB8ADF1080C6DE904CE5B
:1001A80001F07EFEDDF804E0DDE9022304B07047CB
:1001B800704700BF0348044B834202D0034B03B18E
:1001C80018477047100000201000002000000000B1
:1001D8000548064B1B1AD90F01EBA301491002D0A1
:1001E800034B03B11847704710000020100000208F
:1001F8000000000010B5064C237843B9FFF7DAFF7A
:10020800044B13B10448AFF300800123237010BDE1
:1002180010000020000000005C23000808B5054B12
:100228001BB105490548AFF30080BDE80840FFF75A
:10023800CFBF00BF00000000140000205C230008AE
:1002480084B000220092154B196B41F0100119631C
:10025800196B01F01001009100990192196B41F09E
:1002680080011963196B01F08001019101990292D3
:10027800196B41F001011963196B01F00101029139
:10028800029903921A6B42F002021A631B6B03F085
:1002980002030393039B04B0704700BF0038024079
:1002A80072B6FEE710B594B008AC302200212046A3
:1002B80001F072FF002303930493059306930793B9
:1002C80001931F4A116C41F080511164126C02F0C5
:1002D80080520192019A02931A4A116841F48041AE
:1002E8001160126802F480420292029A0222089275
:1002F80001210B9110210C910E920F93082310935A
:10030800A8231193129204231393204600F034FE7D
:1003180090B90F23039302230493002305934FF40A
:10032800A05306934FF480530793052103A801F0C7
:100338008DF818B914B010BDFFF7B2FFFFF7B0FF82
:10034800003802400070004008B500F085FCFFF757
:10035800A9FFFFF775FF00F0B3FA00F037F800F0D7
:1003680071F800F0A9F800F0E1F800F04DFB00F09A
:10037800A7FB00F0E3FBFEE782B0002100910B4BE6
:100388005A6C42F480425A645A6C02F480420092D9
:10039800009A01911A6C42F080521A641B6C03F0A7
:1003A80080530193019B02B0704700BF00380240A0
:1003B800FEE7FEE7FEE7FEE7FEE770477047704797
:1003C80008B500F063FC08BD7047000010B58CB09C
:1003D80003AC24220021204601F0DEFE0023019315
:1003E800029316484FF080420260436083604FF0EA
:1003F800FF32C260036183610323039301230593E2
:100408000993214601F05CFA88B90023019302930D
:1004180001A90A4801F0D4FC60B93C21074801F061
:1004280069FC074B1B6800225A620CB010BDFFF72D
:1004380037FFEAE7FFF734FFEFE700BFDC010020F2
:100448009401002010B58CB003AC24220021204672
:1004580001F0A2FE0023019302931548154A026099
:10046800436083604FF6FF72C260036183610323B8
:100478000393012305930993214601F021FA88B9D2
:1004880000230193029301A9094801F099FC60B97E
:10049800074C3C21204601F02DFC236800225A62BB
:1004A8000CB010BDFFF7FCFEEAE7FFF7F9FEEFE737
:1004B800940100200004004010B58CB003AC242245
:1004C8000021204601F068FE00230193029315489D
:1004D800154A0260436083604FF6FF72C260036191
:1004E800836103230393012305930993214601F0B4
:1004F800E7F988B900230193029301A9094801F09B
:100508005FFC60B9074C3C21204601F0F3FB2368EF
:1005180000225A620CB010BDFFF7C2FEEAE7FFF7EF
:10052800BFFEEFE74C0100200008004010B58CB07A
:1005380003AC24220021204601F02EFE0023019363
:1005480002931548154A0260436083604FF0FF32FA
:10055800C260036183610323039301230593099315
:10056800214601F0ADF988B900230193029301A94E
:10057800094801F025FC60B9074C3C21204601F0F0
:10058800B9FB236800225A620CB010BDFFF788FE41
:10059800EAE7FFF785FEEFE704010020000C0040C2
:1005A80084B00368204A934215D0204A934220D051
:1005B8001F4A93422AD01F4A934218D1002303931B
:1005C8001D4B5A6C42F480225A645B6C03F48023FE
:1005D8000393039B0BE000230093174B5A6C42F0E4
:1005E80001025A645B6C03F001030093009B04B0A2
:1005F800704700230193104B5A6C42F480325A64BE
:100608005B6C03F480330193019BF0E700230293B2
:10061800094B5A6C42F400325A645B6C03F40033A1
:100628000293029BE3E700BF000001400040014045
:10063800004401400048014000380240F0B58FB046
:10064800002309930A930B930C930D930368B3F15A
:10065800804F0AD0514A93423FD0514A93425CD0CE
:10066800504A934279D00FB0F0BD0024009403F5AE
:100678000E331A6C42F001021A641A6C02F001027D
:100688000092009A01941A6B42F001021A631A6BE5
:1006980002F001020192019A02941A6B42F00202DE
:1006A8001A631B6B03F002030293029B4FF400438F
:1006B800099302270A9701260D9609AD29463A485B
:1006C80000F060FB082309930A970B940C940D968D
:1006D8002946364800F056FBC5E700210391344B04
:1006E8001A6C42F002021A641A6C02F002020392B7
:1006F800039A04911A6B42F002021A631B6B03F00F
:1007080002030493049B3023099302230A930D9355
:1007180009A9264800F036FBA5E700210591244BDE
:100728001A6C42F004021A641A6C02F00402059270
:10073800059A06911A6B42F002021A631B6B03F0CA
:1007480002030693069BC023099302230A930D9381
:1007580009A9164800F016FB85E700210791144BFC
:100768001A6C42F008021A641A6C02F00802079226
:10077800079A08911A6B42F001021A631B6B03F087
:1007880001030893089B0323099302230A930D93FB
:1007980009A9054800F0F6FA65E700BF0004004023
:1007A80000080040000C0040000002400004024025
:1007B8000038024000B58BB00023059306930793D9
:1007C800089309930368374A93420BD0364A9342F9
:1007D80020D0364A934234D0354A934249D00BB0A0
:1007E8005DF804FB00230193324B1A6B42F01002B0
:1007F8001A631B6B03F010030193019B4FF4D4435E
:100808000593022306930123099305A92A4800F0BA
:10081800B9FAE4E700230293264B1A6B42F0100260
:100828001A631B6B03F010030293029B602305936A
:10083800022306930323099305A91F4800F0A2FA8F
:10084800CDE7002303931B4B1A6B42F002021A6395
:100858001B6B03F002030393039B4FF48073059310
:10086800022306930323099305A9144800F08AFA82
:10087800B5E7002304930F4B1A6B42F002021A6388
:100888001B6B03F002030493049B4FF4007305935E
:10089800022306930323099305A9084800F072FA76
:1008A8009DE700BF000001400040014000440140B6
:1008B8000048014000380240001002400004024095
:1008C80010B596B0002412941394149415941094AF
:1008D800119409940A940B940C940D940E940F940B
:1008E8002022214601A801F057FC4548454B0360EA
:1008F800A723436084606323C36004614461846107
:1009080000F086FF002860D14FF48053129312A99B
:100918003B4801F0E3F800285AD1394800F0A4FF19
:10092800002858D100231093119310A9344801F0DE
:1009380047FA002852D16023099332230A930022F0
:100948000B920C920D920E920F9209A92C4801F06D
:100958004BF8002845D1042209A9294801F044F898
:10096800002841D1082209A9254801F03DF80028AE
:100978003DD10C2209A9224801F036F8002839D1C6
:100988000023019302930393049305934FF40052B9
:100998000692089301A91A4801F058FA68BB184C46
:1009A8000821204601F028F90C21204601F024F9FD
:1009B8000021204601F020F90421204601F01CF90D
:1009C8002046FFF7F7FE16B010BDFFF769FC9BE75E
:1009D800FFF766FCA1E7FFF763FCA3E7FFF760FCFE
:1009E800A9E7FFF75DFCB6E7FFF75AFCBAE7FFF7A0
:1009F80057FCBEE7FFF754FCC2E7FFF751FCCEE710
:100A0800240200200000014010B58CB00023089398
:100A180009930A930B930193029303930493059309
:100A2800069307932448254A0260A7224260836000
:100A38006322C2600361836100F0EAFE60BB4FF489
:100A48008053089308A91C4801F048F838BB1A4895
:100A580000F00AFF30BB6023019332230293002287
:100A68000392059201A9144800F0BEFFE8B90422D8
:100A78000DEB0201104800F0B7FFC8B90E4C002179
:100A8800204601F0B9F80421204601F0B5F82046C7
:100A9800FFF790FE0CB010BDFFF702FCCFE7FFF7A1
:100AA800FFFBD4E7FFF7FCFBD5E7FFF7F9FBDEE731
:100AB800FFF7F6FBE2E700BFBC0000200040014062
:100AC80010B588B000230193029303930493059310
:100AD800069307931748184A0260A722426083606A
:100AE8006322C2600361836100F092FEC8B91148B5
:100AF80000F0BAFEC0B960230193322302930022AA
:100B08000392059201A90B4800F06EFF78B9094CD1
:100B18000021204601F070F82046FFF74BFE08B090
:100B280010BDFFF7BDFBE2E7FFF7BAFBE3E7FFF70E
:100B3800B7FBECE7740000200044014010B588B012
:100B48000023019302930393049305930693079359
:100B58001748184A0260A722426083606322C26075
:100B68000361836100F054FEC8B9114800F07CFEAF
:100B7800C0B96023019332230293002203920592A5
:100B880001A90B4800F030FF78B9094C0021204634
:100B980001F032F82046FFF70DFE08B010BDFFF750
:100BA8007FFBE2E7FFF77CFBE3E7FFF779FBECE786
:100BB8002C00002000480140DFF834D0FFF704FC87
:100BC8000C480D490D4A002302E0D458C4500433A0
:100BD800C4188C42F9D30A4A0A4C002301E0136076
:100BE8000432A242FBD301F025FBFFF7ADFB7047AF
:100BF80000000220000000201000002098230008B8
:100C08001000002008040020FEE7000010B504468C
:100C18000E4B1A784FF47A73B3FBF2F30C4A106850
:100C2800B0FBF3F000F09AF868B90F2C01D9012055
:100C38000AE0002221464FF0FF3000F07FF8054B14
:100C48001C60002000E0012010BD00BF040000204F
:100C5800000000200800002008B50B4B1A6842F479
:100C680000721A601A6842F480621A601A6842F4C4
:100C780080721A60032000F04FF80F20FFF7C6FFBC
:100C8800FFF77AFB002008BD003C0240034A1168C8
:100C9800034B1B780B441360704700BF6C020020A5
:100CA80004000020014B1868704700BF6C02002048
:100CB800002808DB0901C9B200F1604000F5614075
:100CC80080F80013704700F00F000901C9B2014B0A
:100CD8001954704714ED00E000B500F00700C0F1AA
:100CE800070CBCF1040F28BF4FF0040C031D062BA2
:100CF8000FD9C31E4FF0FF3E0EFA0CF021EA000197
:100D080099400EFA03FE22EA0E0241EA02005DF85B
:100D180004FB0023EEE70000074AD36823F4E063EE
:100D28001B041B0C000200F4E060034343F0BF63A4
:100D380043F40033D360704700ED00E010B504467B
:100D4800054BD868C0F30220FFF7C6FF01462046CE
:100D5800FFF7AEFF10BD00BF00ED00E00138B0F1B5
:100D6800807F0BD24FF0E0235861054AF02182F8CA
:100D780023100020986107221A61704701207047EC
:100D880000ED00E000230F2B00F2EC8030B583B0BB
:100D980068E085684FEA430E032404FA0EF425EA56
:100DA8000405CC6804FA0EF42C438460446824EAF1
:100DB80002044A68C2F300129A40224342605FE08C
:100DC800DC08083450F8242003F00705AD004FF084
:100DD8000F0E0EFA05FE22EA0E0E0A69AA4042EA32
:100DE8000E0240F824205FE0072200E0002202FA09
:100DF8000EF22A4302345C4D45F824205B4A94687D
:100E08006FEA0C0224EA0C05D1F804E01EF4801FF6
:100E180001D04CEA0405554CA560E46802EA0405D3
:100E2800D1F804E01EF4001F01D04CEA04054F4C31
:100E3800E560646802EA0405D1F804E01EF4003FA6
:100E480001D04CEA0405494C6560246822404D688D
:100E580015F4803F01D04CEA0402444C226001336F
:100E68000F2B7DD801229A400C6804EA020C32EA62
:100E78000404F4D14C6804F00304013C012C88D923
:100E88004A6802F00302032A09D0C4685D000322FD
:100E9800AA4024EA02048A68AA402243C2604A6837
:100EA80002F00302022A8BD004684FEA430E0322A1
:100EB80002FA0EF224EA02044A6802F0030202FA75
:100EC8000EF2224302604A6812F4403FC7D0002263
:100ED8000192274A546C44F480445464526C02F4DE
:100EE80080420192019A9C08A51C1F4A52F825507D
:100EF80003F0030E4FEA8E0E0F2202FA0EF225EAD5
:100F080002051C4A90423FF471AF02F5806290429C
:100F18001AD002F58062904218D002F580629042A1
:100F280016D002F58062904214D002F58062904299
:100F380012D002F58062904210D002F58062904291
:100F48003FF452AF082252E7012250E702224EE74F
:100F580003224CE704224AE7052248E7062246E72F
:100F680003B030BD704700BF00380140003C01406D
:100F78000038024000000240002800F0E08170B50F
:100F880082B00446036813F0010F3BD09F4B9B6867
:100F980003F00C03042B2CD09C4B9B6803F00C0330
:100FA800082B21D06368B3F5803F4FD0B3F5A02F4D
:100FB80052D0964B1A6822F480321A601A6822F4CA
:100FC80080221A606368002B50D0FFF76BFE05463D
:100FD8008E4B1B6813F4003F14D1FFF763FE401BD0
:100FE8006428F5D90320B1E1884B5B6813F4800FBE
:100FF800D8D0864B1B6813F4003F03D06368002BDE
:1010080000F09F81236813F0020F54D07F4B9B6838
:1010180013F00C0F3ED07D4B9B6803F00C03082B9C
:1010280033D0E368002B68D0794B01221A60FFF7B0
:1010380039FE0546754B1B6813F0020F54D1FFF7B4
:1010480031FE401B0228F5D903207FE16F4A13685F
:1010580043F480331360B5E76C4B1A6842F480227E
:101068001A601A6842F480321A60ABE7FFF71AFE7A
:101078000546664B1B6813F4003FC3D0FFF712FE0A
:10108800401B6428F5D9032060E1604B5B6813F4CA
:10109800800FC6D15D4B1B6813F0020F03D0E368C5
:1010A800012B40F05081594A136823F0F803216955
:1010B80043EAC1031360236813F0080F42D0636941
:1010C8006BB3534B0122C3F8802EFFF7EBFD0546A7
:1010D8004E4B5B6F13F0020F34D1FFF7E3FD401B5B
:1010E8000228F5D9032031E1484A136823F0F803B0
:1010F800216943EAC1031360DDE7454B00221A600A
:10110800FFF7D0FD0546414B1B6813F0020FD2D004
:10111800FFF7C8FD401B0228F5D9032016E13C4B18
:101128000022C3F8802EFFF7BDFD0546374B5B6FE5
:1011380013F0020F06D0FFF7B5FD401B0228F5D9C2
:10114800032003E1236813F0040F77D02F4B1B6CA7
:1011580013F0805F33D1002301932C4B1A6C42F0BB
:1011680080521A641B6C03F080530193019B012584
:10117800284B1B6813F4807F23D0A368012B34D03D
:10118800052B38D0214B1A6F22F001021A671A6F0B
:1011980022F004021A67A368002B3DD0FFF782FDF6
:1011A80006461A4B1B6F13F0020F46D1FFF77AFD64
:1011B800801B41F288339842F3D90320C6E000250A
:1011C800D6E7144A136843F480731360FFF76AFD87
:1011D8000646104B1B6813F4807FCED1FFF762FDE3
:1011E800801B0228F5D90320B0E0084A136F43F0AA
:1011F80001031367CFE7054B1A6F42F004021A6721
:101208001A6F42F001021A67C5E700BF00380240B2
:101218000000474200700040FFF744FD0646524B6D
:101228001B6F13F0020F08D0FFF73CFD801B41F243
:1012380088339842F3D9032088E0EDB9A369002BDD
:1012480000F08380484A926802F00C02082A51D0C4
:10125800022B17D0454B00221A66FFF723FD0446E0
:10126800414B1B6813F0007F42D0FFF71BFD001BAA
:101278000228F5D9032069E03B4A136C23F0805318
:101288001364DBE7394B00221A66FFF70BFD0546AE
:10129800354B1B6813F0007F06D0FFF703FD401B9A
:1012A8000228F5D9032051E0E369226A1343626AF0
:1012B80043EA8213A26A5208013A43EA0243E26A05
:1012C80043EA0263284A5360284B01221A66FFF753
:1012D800E9FC0446244B1B6813F0007F06D1FFF796
:1012E800E1FC001B0228F5D903202FE000202DE0A7
:1012F80000202BE0012B2BD01B4B5B6803F48001F3
:10130800E269914226D103F03F02216A8A4223D141
:10131800616A47F6C0721A40B2EB811F1ED103F40E
:101328004031A26A5208013AB1EB024F18D103F0DA
:101338007063E26AB3EB026F14D1002006E001206B
:101348007047012002E0012000E0002002B070BDDB
:101358000120FBE70120F9E70120F7E70120F5E785
:101368000120F3E70120F1E700380240000047427E
:1013780008B5334B9B6803F00C03042B5BD0082B98
:101388005BD12F4B5A6802F03F025B6813F4800F61
:101398002CD02B4B5868C0F388104FEA401CBCEB8C
:1013A800000C6EEB0E0E4FEA8E1343EA9C634FEA75
:1013B8008C11B1EB0C0163EB0E03DB0043EA5173B4
:1013C800C90011EB000C43F10003590200234FEA56
:1013D8004C2041EADC51FEF7D3FE194B5B68C3F39E
:1013E800014301335B00B0FBF3F008BD144B5868B0
:1013F800C0F388104FEA401CBCEB000C6EEB0E0EDD
:101408004FEA8E1343EA9C634FEA8C11B1EB0C014F
:1014180063EB0E03DB0043EA5173C90011EB000CC8
:1014280043F10003990200234FEA8C2041EA9C51C2
:10143800FEF7A6FED1E70348D7E70348D5E700BF84
:101448000038024000127A000024F400002800F05E
:101458009B8070B50D4604464F4B1B6803F007038D
:101468008B4208D2CBB24C4A1370136803F00703BF
:101478008B4240F08B80236813F0020F17D013F0D3
:10148800040F04D0454A936843F4E05393602368FB
:1014980013F0080F04D0414A936843F46043936003
:1014A8003E4A936823F0F003A1680B4393602368D6
:1014B80013F0010F32D06368012B21D09A1E012A44
:1014C80025D9364A126812F0020F61D033498A686A
:1014D80022F0030213438B60FFF7E4FB06462F4B11
:1014E8009B6803F00C036268B3EB820F16D0FFF71A
:1014F800D9FB801B41F288339842F0D9032042E09F
:10150800264A126812F4003FE0D101203BE0234A4A
:10151800126812F0007FD9D1012034E01E4B1B68FD
:1015280003F00703AB4207D9EAB21B4B1A701B68DA
:1015380003F00703AB422DD1236813F0040F06D044
:10154800164A936823F4E053E1680B4393602368D9
:1015580013F0080F07D0114A936823F460432169F8
:1015680043EAC1039360FFF703FF0C4B9B68C3F387
:1015780003130B4AD35CD8400A4B18600A4B18680F
:10158800FFF744FB002070BD012070470120FAE7F7
:101598000120F8E70120F6E7003C0240003802404D
:1015A80074230008000000200800002030B4036AFB
:1015B800026A22F0010202624268846924F0730C14
:1015C8000C6844EA0C0423F0020C8B6843EA0C0311
:1015D800114DA84203D005F58065A84205D123F036
:1015E8000803CD682B4323F004030B4DA84203D016
:1015F80005F58065A84207D122F440724D6945EA95
:10160800020C8A6942EA0C02426084614A684263B9
:10161800036230BC704700BF0000014030B4036A69
:10162800026A22F4807202624268C46924F0730C70
:101638000C6844EA0C0523F400738C6843EA04231D
:10164800114CA04203D004F58064A04206D123F4D3
:101658000063CC6843EA042323F480630A4CA04265
:1016680003D004F58064A04207D122F440524C69AB
:1016780042EA04128C6942EA04124260C5614A686F
:10168800C263036230BC70470000014030B4036A93
:10169800026A22F4805202624468C26922F4E64275
:1016A8000D6842EA052223F400538D6843EA0533A6
:1016B800094DA84203D005F58065A84204D124F459
:1016C80080444D6944EA85144460C2614A680264F2
:1016D800036230BC704700BF0000014010B4036AC9
:1016E800046A24F001040462846924F0F00C4CEAD2
:1016F800021223F00A030B438261036210BC704795
:1017080010B4036A046A24F010040462846924F49F
:10171800704C4CEA023223F0A00343EA01138261C1
:10172800036210BC7047836823F070030B4343F0D7
:1017380007038360704770470368344A904212D0A9
:10174800B0F1804F0FD0A2F57C4290420BD002F549
:101758008062904207D002F58062904203D002F581
:101768007842904203D123F070034A681343274A12
:1017780090422AD0B0F1804F27D0A2F57C42904207
:1017880023D002F5806290421FD002F58062904219
:101798001BD002F57842904217D002F57052904261
:1017A80013D002F5806290420FD002F58062904219
:1017B8000BD0A2F59832904207D002F58062904291
:1017C80003D002F58062904203D123F44073CA68C3
:1017D800134323F080034A69134303608B68C36291
:1017E8000B688362094B984203D003F580639842E3
:1017F80001D10B69036301234361036913F0010FEE
:1018080003D0036923F0010303617047000001401E
:1018180040B310B5044690F83D30F3B1022384F884
:101828003D30214651F8040BFFF786FF012384F869
:10183800463084F83E3084F83F3084F8403084F8ED
:10184800413084F8423084F8433084F8443084F8D6
:10185800453084F83D30002010BD80F83C30FEF75C
:101868009FFEDBE70120704740B310B5044690F8AF
:101878003D30F3B1022384F83D30214651F8040B82
:10188800FFF75AFF012384F8463084F83E3084F885
:101898003F3084F8403084F8413084F8423084F88E
:1018A800433084F8443084F8453084F83D300020D3
:1018B80010BD80F83C30FFF73EFFDBE701207047A2
:1018C800002856D070B50D46044690F83D30002BE0
:1018D8004AD0022384F83D302268936823F4804379
:1018E80023F007039360214651F8040BFFF724FF08
:1018F80021688B688A690E6A2868184322F4407246
:1019080022F00302AB68D5F818C043EA0C2313434E
:1019180023F47C4323F0FC03EA68D5F81CC042EAB0
:101928000C221A432B6A1B03D5F810C043EA0C1388
:10193800134326F0AA066A686D6942EA0512324323
:10194800886021688B6123681A62012384F8463015
:1019580084F83E3084F83F3084F8423084F84330CD
:1019680084F83D30002070BD80F83C30FEF766FEFC
:10197800AFE701207047000030B4036A026A22F022
:10198800100202624468826922F4E6420D6842EA63
:10199800052223F020038D6843EA0513114DA84260
:1019A80003D005F58065A84206D123F08003CD68F1
:1019B80043EA051323F040030A4DA84203D005F576
:1019C8008065A84207D124F440644D6944EA85043F
:1019D8008D6944EA8504446082614A6882630362CF
:1019E80030BC70470000014038B590F83C30012BFE
:1019F80066D004460D46012380F83C300C2A5AD89C
:101A0800DFE802F0075959591B59595930595959A2
:101A180044000068FFF7CAFD2268936943F0080391
:101A280093612268936923F00403936122689369A0
:101A380029690B43936100203EE00068FFF79CFF93
:101A48002268936943F4006393612268936923F4DD
:101A58008063936122689369296943EA012393614A
:101A6800002029E00068FFF7D9FD2268D36943F018
:101A78000803D3612268D36923F00403D361226881
:101A8800D36929690B43D361002015E00068FFF78B
:101A9800FDFD2268D36943F40063D3612268D369EA
:101AA80023F48063D3612268D369296943EA012357
:101AB800D361002000E00120002384F83C3038BDC9
:101AC8000220FCE710B4846824F47F4C42EA032225
:101AD8000A4342EA0C02826010BC704790F83C301E
:101AE800012B78D010B50446012380F83C3002233E
:101AF80080F83D300268936823F47F4323F077032E
:101B080093600B68602B4CD023D8402B54D011D84D
:101B1800202B03D00AD80BB1102B05D11946206809
:101B2800FFF701FE002028E0012026E0302BF5D049
:101B3800012022E0502B0AD1CA6849680068FFF7E3
:101B4800CDFD50212068FFF7EEFD002015E00120B3
:101B580013E0B3F5805F3AD0B3F5005F14D0702B73
:101B680037D1CB684A6889680068FFF7ABFF2268FD
:101B7800936843F0770393600020012384F83D3095
:101B8800002384F83C3010BDCB684A688968006837
:101B9800FFF798FF2268936843F48043936000201E
:101BA800EBE7CA6849680068FFF7AAFD602120686A
:101BB800FFF7B9FD0020E0E7CA6849680068FFF749
:101BC8008DFD40212068FFF7AEFD0020D5E70020FD
:101BD800D3E70120D1E70220704701F01F014FF041
:101BE800010C0CFA01FC036A23EA0C030362036A82
:101BF8008A4013430362704710B50446084600291B
:101C080041D194F83E30013B18BF0123002B6BD122
:101C180000284ED1022384F83E3001220146206874
:101C2800FFF7DBFF2368324A934203D002F5806254
:101C3800934203D15A6C42F400425A6423682C4AF6
:101C4800934246D0B3F1804F43D0A2F57C429342F1
:101C58003FD002F5806293423BD002F58062934206
:101C680037D002F57842934233D002F5705293424E
:101C78002FD0A2F5943293422BD01A6842F0010279
:101C88001A6000202FE0042907D008290BD094F807
:101C98004130013B18BF0123B8E794F83F30013BBE
:101CA80018BF0123B2E794F84030013B18BF012365
:101CB800ACE7042805D0082807D0022384F841306F
:101CC800ABE7022384F83F30A7E7022384F84030CB
:101CD800A3E79A6802F00702062A07D01A6842F0BA
:101CE80001021A60002010BD0120FCE70020FAE77D
:101CF8000000014038B5044690F83E00C0B294F8A0
:101D08003F3094F84220D2B294F843C00D46B1B99E
:101D1800012849D1012A48D1022384F83E3084F8A9
:101D280042307DB3042D39D0012200212068FFF70D
:101D380054FF012204212068FFF74FFF27E0DBB2A0
:101D48005FFA8CFC042912D0012833D1012B2CD145
:101D5800012A31D1BCF1010F30D1022384F83E3081
:101D680084F83F3084F8423084F84330D9E7012BB7
:101D78001CD1BCF1010F1BD1022384F83F3084F839
:101D88004330CEE7012200212068FFF726FF2268B2
:101D9800136843F001031360002006E001220421C8
:101DA8002068FFF71AFFF2E7012038BD0120FCE7A1
:101DB8001846FAE70120F8E71846F6E71046F4E770
:101DC80090F83C20012A3CD010B40346012280F848
:101DD8003C20022280F83D2002685068946820F078
:101DE800700C086840EA0C0050601A681648824275
:101DF8001AD0B2F1804F17D0A0F57C40824213D0A0
:101E080000F5806082420FD000F5806082420BD0DE
:101E180000F57840824207D000F57050824203D026
:101E2800A0F59430824204D124F08004496821430B
:101E38009160012283F83D20002083F83C0010BC0B
:101E480070470220704700BF00000140024690F82A
:101E58003C30012B21D0012380F83C30CB6823F49F
:101E680040738868034323F480634868034323F47A
:101E780000630868034323F480530869034323F489
:101E880000534869034323F48043C9690B4311682D
:101E98004B64002082F83C00704702207047000025
:101EA8002DE9F047089D0F4604468C46002B48D183
:101EB8008A42164661D9B2FA82F34BB1C3F12002C5
:101EC80001FA03FC20FA02F29E4042EA0C0C9C4004
:101ED8004FEA164EB7B2BCFBFEF1220C0EFB11CC3A
:101EE80042EA0C4201FB07F0904209D9B21801F10D
:101EF800FF3C80F0EE80904240F2EB8002393244A1
:101F0800121AA4B2B2FBFEF00EFB102244EA0244FD
:101F180000FB07F7A74209D9341900F1FF3280F016
:101F2800DA80A74240F2D7803444023840EA0140C0
:101F3800E41B00211DB1DC400023C5E90043BDE8D6
:101F4800F0878B4206D90DB1C5E90001002108468A
:101F5800BDE8F087B3FA83F1002948D1BB4202D328
:101F6800824200F20781841A67EB0302012094463B
:101F7800002DE4D0C5E9004CE1E7002A00F092808A
:101F8800B2FA82F3002B40F0A8808A1A4FEA164E64
:101F98001FFA86FC0121200CB2FBFEF70EFB17226C
:101FA80040EA02420CFB07F0904207D9B21807F149
:101FB800FF3802D2904200F2E2804746121AA4B2D9
:101FC800B2FBFEF00EFB102244EA02440CFB00FCBC
:101FD800A44507D9341900F1FF3202D2A44500F212
:101FE800CB801046A4EB0C0440EA0740A2E7C1F1FD
:101FF80020068B4022FA06FC4CEA030C07FA01F48F
:1020080020FA06F3F7404FEA1C49234300FA01F887
:102018001FFA8CFEB7FBF9F01C0C09FB107744EA99
:10202800074400FB0EF7A74202FA01F20AD91CEB9B
:10203800040400F1FF3A80F09B80A74240F29880A8
:1020480002386444E41B9FB2B4FBF9F309FB134460
:1020580047EA044403FB0EFEA64509D91CEB040419
:1020680003F1FF3780F08280A6457FD9023B6444A4
:1020780043EA0040A4EB0E04A0FB02E7BC4273460F
:10208800B94663D360D05DB1B8EB030264EB0904D1
:1020980004FA06F622FA01F31E43CC40C5E90064AF
:1020A80000214CE76208480842EAC1710B0C43EA78
:1020B80000438AB242EA0342B3FBF6F1E407B446AE
:1020C8003746B6461F23B0FBF6F0D21B41EA004163
:1020D80061E7614614E7104628E7C3F1200120FABA
:1020E80001F29E4027FA01F19F403A434FEA164E0B
:1020F8001FFA86FCB1FBFEF70EFB1710110C41EA24
:10210800004107FB0CF8884504FA03F43AD9711822
:1021180007F1FF3001D288451FD8A1EB0801B1FBB8
:10212800FEF808FB0CF70EFB181192B242EA0142C6
:10213800BA422FD2B21808F1FF31C6D2BA42C4D27D
:10214800A8F102013244C0E7F0459CD2BEEB02037D
:1021580067EB0C070138B94695E7A6EB0808414438
:10216800B81EB1FBFEF808FB0CF7DCE73B467FE73F
:10217800504667E70846FBE63444023832E7023F38
:1021880032441BE7A1EB08013846B1FBFEF808FB17
:102198000CF7C8E7414698E7830730B546D084185E
:1021A800844604E003F8011B9D0704D09C46A4451F
:1021B8006346F7D130BD013A0244A2EB0C02032A70
:1021C80029D9CCB204EB04240F2A04EB04442FD9F8
:1021D800A2F1100C2CF00F0C03F11005AC44C3E96C
:1021E8000044C3E9024410336345F8D112F00C0FE0
:1021F80002F00F0E18D02EF0030C9C44AEF104052B
:102208001A4642F8044B6245FBD125F00304043317
:102218000EF003022344002ACCD0C9B21A4403F8B2
:10222800011B9342FBD130BD7246F4E70346C6E773
:102238009646E0E770B50F4B0F4DAB42A3EB050692
:1022480007D0B610002455F8043B01349847A6423D
:10225800F9D800F07FF8094D094B5E1BAB424FEAF5
:10226800A60606D0002455F8043B01349847A64238
:10227800F9D870BD8C2300088C2300088C23000833
:1022880094230008704700BF704700BF024B13B18A
:10229800024800F005B8704700000000B5220008A9
:1022A800002301461A46184600F014B838B5074D01
:1022B800074C2C1BA41005D0013C55F8043D984749
:1022C800002CF9D1BDE8384000F04AB8982300083E
:1022D800942300082DE9F8431B4D064628689846C4
:1022E8000F469146FFF7CEFF184B1C681CB32868B1
:1022F80065681F2D22DC4EB96B1C0235636044F8FB
:102308002570FFF7C1FF0020BDE8F88304EB8501C5
:102318000123C1F88890D4F88821AB401A43022ED3
:10232800C4F88821C1F80881E6D1D4F88C211A4371
:10233800C4F88C21E0E7064C1C60D8E7FFF7A4FF3F
:102348004FF0FF30E0E700BF0C00002074020020CF
:1023580078020020F8B500BFF8BC08BC9E4670475C
:0C236800F8B500BFF8BC08BC9E467047EA
:102374000000000000000000010203040607080931
:0823840024FBFF7F01000000B3
:08238C0095220008250200085B
:04239400FD0100083F
:102398000024F4000100000010000000700200207A
:0400000508000BC123
:00000001FF
